{
  "contracts/Streamer.sol": {
    "Streamer": {
      "abi": [
        {
          "inputs": [
            {
              "internalType": "contract IERC20",
              "name": "_streamingAsset",
              "type": "address"
            },
            {
              "internalType": "contract AggregatorV3Interface",
              "name": "_streamingAssetOracle",
              "type": "address"
            },
            {
              "internalType": "contract AggregatorV3Interface",
              "name": "_nativeAssetOracle",
              "type": "address"
            },
            {
              "internalType": "address",
              "name": "_returnAddress",
              "type": "address"
            },
            {
              "internalType": "address",
              "name": "_streamCreator",
              "type": "address"
            },
            {
              "internalType": "address",
              "name": "_recipient",
              "type": "address"
            },
            {
              "internalType": "uint8",
              "name": "_streamingAssetDecimals",
              "type": "uint8"
            },
            {
              "internalType": "uint8",
              "name": "_nativeAssetDecimals",
              "type": "uint8"
            },
            {
              "internalType": "uint256",
              "name": "_nativeAssetStreamingAmount",
              "type": "uint256"
            },
            {
              "internalType": "uint256",
              "name": "_slippage",
              "type": "uint256"
            },
            {
              "internalType": "uint256",
              "name": "_claimCooldown",
              "type": "uint256"
            },
            {
              "internalType": "uint256",
              "name": "_sweepCooldown",
              "type": "uint256"
            },
            {
              "internalType": "uint256",
              "name": "_streamDuration",
              "type": "uint256"
            },
            {
              "internalType": "uint256",
              "name": "_minimumNoticePeriod",
              "type": "uint256"
            }
          ],
          "stateMutability": "nonpayable",
          "type": "constructor"
        },
        {
          "inputs": [],
          "name": "AlreadyInitialized",
          "type": "error"
        },
        {
          "inputs": [],
          "name": "AlreadyTerminated",
          "type": "error"
        },
        {
          "inputs": [],
          "name": "CantRescueStreamingAsset",
          "type": "error"
        },
        {
          "inputs": [],
          "name": "CreatorCannotSweepYet",
          "type": "error"
        },
        {
          "inputs": [],
          "name": "DecimalsNotInBounds",
          "type": "error"
        },
        {
          "inputs": [],
          "name": "DurationTooShort",
          "type": "error"
        },
        {
          "inputs": [],
          "name": "InvalidPrice",
          "type": "error"
        },
        {
          "inputs": [
            {
              "internalType": "uint256",
              "name": "balance",
              "type": "uint256"
            },
            {
              "internalType": "uint256",
              "name": "streamingAmount",
              "type": "uint256"
            }
          ],
          "name": "NotEnoughBalance",
          "type": "error"
        },
        {
          "inputs": [],
          "name": "NotInitialized",
          "type": "error"
        },
        {
          "inputs": [],
          "name": "NotReceiver",
          "type": "error"
        },
        {
          "inputs": [],
          "name": "NotStreamCreator",
          "type": "error"
        },
        {
          "inputs": [],
          "name": "NoticePeriodExceedsStreamDuration",
          "type": "error"
        },
        {
          "inputs": [
            {
              "internalType": "address",
              "name": "token",
              "type": "address"
            }
          ],
          "name": "SafeERC20FailedOperation",
          "type": "error"
        },
        {
          "inputs": [],
          "name": "SlippageExceedsScaleFactor",
          "type": "error"
        },
        {
          "inputs": [],
          "name": "StreamNotFinished",
          "type": "error"
        },
        {
          "inputs": [],
          "name": "StreamingAmountTooLow",
          "type": "error"
        },
        {
          "inputs": [],
          "name": "SweepCooldownNotPassed",
          "type": "error"
        },
        {
          "inputs": [
            {
              "internalType": "uint256",
              "name": "terminationTimestamp",
              "type": "uint256"
            }
          ],
          "name": "TerminationIsAfterStream",
          "type": "error"
        },
        {
          "inputs": [],
          "name": "ZeroAddress",
          "type": "error"
        },
        {
          "inputs": [],
          "name": "ZeroAmount",
          "type": "error"
        },
        {
          "anonymous": false,
          "inputs": [
            {
              "indexed": false,
              "internalType": "uint256",
              "name": "streamingAssetAmount",
              "type": "uint256"
            },
            {
              "indexed": false,
              "internalType": "uint256",
              "name": "nativeAssetAmount",
              "type": "uint256"
            }
          ],
          "name": "Claimed",
          "type": "event"
        },
        {
          "anonymous": false,
          "inputs": [],
          "name": "Initialized",
          "type": "event"
        },
        {
          "anonymous": false,
          "inputs": [
            {
              "indexed": false,
              "internalType": "uint256",
              "name": "balanceRequired",
              "type": "uint256"
            },
            {
              "indexed": false,
              "internalType": "uint256",
              "name": "balance",
              "type": "uint256"
            }
          ],
          "name": "InsufficientAssetBalance",
          "type": "event"
        },
        {
          "anonymous": false,
          "inputs": [
            {
              "indexed": false,
              "internalType": "address",
              "name": "token",
              "type": "address"
            },
            {
              "indexed": false,
              "internalType": "uint256",
              "name": "balance",
              "type": "uint256"
            }
          ],
          "name": "Rescued",
          "type": "event"
        },
        {
          "anonymous": false,
          "inputs": [
            {
              "indexed": false,
              "internalType": "uint256",
              "name": "amount",
              "type": "uint256"
            }
          ],
          "name": "Swept",
          "type": "event"
        },
        {
          "anonymous": false,
          "inputs": [
            {
              "indexed": false,
              "internalType": "uint256",
              "name": "terminationTimestamp",
              "type": "uint256"
            }
          ],
          "name": "Terminated",
          "type": "event"
        },
        {
          "inputs": [],
          "name": "MIN_DECIMALS",
          "outputs": [
            {
              "internalType": "uint8",
              "name": "",
              "type": "uint8"
            }
          ],
          "stateMutability": "view",
          "type": "function"
        },
        {
          "inputs": [],
          "name": "MIN_DURATION",
          "outputs": [
            {
              "internalType": "uint256",
              "name": "",
              "type": "uint256"
            }
          ],
          "stateMutability": "view",
          "type": "function"
        },
        {
          "inputs": [],
          "name": "SCALE_DECIMALS",
          "outputs": [
            {
              "internalType": "uint8",
              "name": "",
              "type": "uint8"
            }
          ],
          "stateMutability": "view",
          "type": "function"
        },
        {
          "inputs": [],
          "name": "SLIPPAGE_SCALE",
          "outputs": [
            {
              "internalType": "uint256",
              "name": "",
              "type": "uint256"
            }
          ],
          "stateMutability": "view",
          "type": "function"
        },
        {
          "inputs": [
            {
              "internalType": "uint256",
              "name": "streamingAssetAmount",
              "type": "uint256"
            }
          ],
          "name": "calculateNativeAssetAmount",
          "outputs": [
            {
              "internalType": "uint256",
              "name": "",
              "type": "uint256"
            }
          ],
          "stateMutability": "view",
          "type": "function"
        },
        {
          "inputs": [
            {
              "internalType": "uint256",
              "name": "nativeAssetAmount",
              "type": "uint256"
            }
          ],
          "name": "calculateStreamingAssetAmount",
          "outputs": [
            {
              "internalType": "uint256",
              "name": "",
              "type": "uint256"
            }
          ],
          "stateMutability": "view",
          "type": "function"
        },
        {
          "inputs": [],
          "name": "claim",
          "outputs": [],
          "stateMutability": "nonpayable",
          "type": "function"
        },
        {
          "inputs": [],
          "name": "claimCooldown",
          "outputs": [
            {
              "internalType": "uint256",
              "name": "",
              "type": "uint256"
            }
          ],
          "stateMutability": "view",
          "type": "function"
        },
        {
          "inputs": [],
          "name": "getNativeAssetAmountOwed",
          "outputs": [
            {
              "internalType": "uint256",
              "name": "",
              "type": "uint256"
            }
          ],
          "stateMutability": "view",
          "type": "function"
        },
        {
          "inputs": [],
          "name": "getStreamEnd",
          "outputs": [
            {
              "internalType": "uint256",
              "name": "",
              "type": "uint256"
            }
          ],
          "stateMutability": "view",
          "type": "function"
        },
        {
          "inputs": [],
          "name": "getStreamState",
          "outputs": [
            {
              "internalType": "enum StreamState",
              "name": "",
              "type": "uint8"
            }
          ],
          "stateMutability": "view",
          "type": "function"
        },
        {
          "inputs": [],
          "name": "initialize",
          "outputs": [],
          "stateMutability": "nonpayable",
          "type": "function"
        },
        {
          "inputs": [],
          "name": "lastClaimTimestamp",
          "outputs": [
            {
              "internalType": "uint256",
              "name": "",
              "type": "uint256"
            }
          ],
          "stateMutability": "view",
          "type": "function"
        },
        {
          "inputs": [],
          "name": "minimumNoticePeriod",
          "outputs": [
            {
              "internalType": "uint256",
              "name": "",
              "type": "uint256"
            }
          ],
          "stateMutability": "view",
          "type": "function"
        },
        {
          "inputs": [],
          "name": "nativeAssetDecimals",
          "outputs": [
            {
              "internalType": "uint8",
              "name": "",
              "type": "uint8"
            }
          ],
          "stateMutability": "view",
          "type": "function"
        },
        {
          "inputs": [],
          "name": "nativeAssetOracle",
          "outputs": [
            {
              "internalType": "contract AggregatorV3Interface",
              "name": "",
              "type": "address"
            }
          ],
          "stateMutability": "view",
          "type": "function"
        },
        {
          "inputs": [],
          "name": "nativeAssetOracleDecimals",
          "outputs": [
            {
              "internalType": "uint8",
              "name": "",
              "type": "uint8"
            }
          ],
          "stateMutability": "view",
          "type": "function"
        },
        {
          "inputs": [],
          "name": "nativeAssetStreamingAmount",
          "outputs": [
            {
              "internalType": "uint256",
              "name": "",
              "type": "uint256"
            }
          ],
          "stateMutability": "view",
          "type": "function"
        },
        {
          "inputs": [],
          "name": "nativeAssetSuppliedAmount",
          "outputs": [
            {
              "internalType": "uint256",
              "name": "",
              "type": "uint256"
            }
          ],
          "stateMutability": "view",
          "type": "function"
        },
        {
          "inputs": [],
          "name": "recipient",
          "outputs": [
            {
              "internalType": "address",
              "name": "",
              "type": "address"
            }
          ],
          "stateMutability": "view",
          "type": "function"
        },
        {
          "inputs": [
            {
              "internalType": "contract IERC20",
              "name": "token",
              "type": "address"
            }
          ],
          "name": "rescueToken",
          "outputs": [],
          "stateMutability": "nonpayable",
          "type": "function"
        },
        {
          "inputs": [],
          "name": "returnAddress",
          "outputs": [
            {
              "internalType": "address",
              "name": "",
              "type": "address"
            }
          ],
          "stateMutability": "view",
          "type": "function"
        },
        {
          "inputs": [],
          "name": "slippage",
          "outputs": [
            {
              "internalType": "uint256",
              "name": "",
              "type": "uint256"
            }
          ],
          "stateMutability": "view",
          "type": "function"
        },
        {
          "inputs": [],
          "name": "startTimestamp",
          "outputs": [
            {
              "internalType": "uint256",
              "name": "",
              "type": "uint256"
            }
          ],
          "stateMutability": "view",
          "type": "function"
        },
        {
          "inputs": [],
          "name": "streamCreator",
          "outputs": [
            {
              "internalType": "address",
              "name": "",
              "type": "address"
            }
          ],
          "stateMutability": "view",
          "type": "function"
        },
        {
          "inputs": [],
          "name": "streamDuration",
          "outputs": [
            {
              "internalType": "uint256",
              "name": "",
              "type": "uint256"
            }
          ],
          "stateMutability": "view",
          "type": "function"
        },
        {
          "inputs": [],
          "name": "streamingAsset",
          "outputs": [
            {
              "internalType": "contract IERC20",
              "name": "",
              "type": "address"
            }
          ],
          "stateMutability": "view",
          "type": "function"
        },
        {
          "inputs": [],
          "name": "streamingAssetClaimedAmount",
          "outputs": [
            {
              "internalType": "uint256",
              "name": "",
              "type": "uint256"
            }
          ],
          "stateMutability": "view",
          "type": "function"
        },
        {
          "inputs": [],
          "name": "streamingAssetDecimals",
          "outputs": [
            {
              "internalType": "uint8",
              "name": "",
              "type": "uint8"
            }
          ],
          "stateMutability": "view",
          "type": "function"
        },
        {
          "inputs": [],
          "name": "streamingAssetOracle",
          "outputs": [
            {
              "internalType": "contract AggregatorV3Interface",
              "name": "",
              "type": "address"
            }
          ],
          "stateMutability": "view",
          "type": "function"
        },
        {
          "inputs": [],
          "name": "streamingAssetOracleDecimals",
          "outputs": [
            {
              "internalType": "uint8",
              "name": "",
              "type": "uint8"
            }
          ],
          "stateMutability": "view",
          "type": "function"
        },
        {
          "inputs": [],
          "name": "sweepCooldown",
          "outputs": [
            {
              "internalType": "uint256",
              "name": "",
              "type": "uint256"
            }
          ],
          "stateMutability": "view",
          "type": "function"
        },
        {
          "inputs": [],
          "name": "sweepRemaining",
          "outputs": [],
          "stateMutability": "nonpayable",
          "type": "function"
        },
        {
          "inputs": [
            {
              "internalType": "uint256",
              "name": "_terminationTimestamp",
              "type": "uint256"
            }
          ],
          "name": "terminateStream",
          "outputs": [],
          "stateMutability": "nonpayable",
          "type": "function"
        },
        {
          "inputs": [],
          "name": "terminationTimestamp",
          "outputs": [
            {
              "internalType": "uint256",
              "name": "",
              "type": "uint256"
            }
          ],
          "stateMutability": "view",
          "type": "function"
        }
      ],
      "evm": {
        "bytecode": {
          "linkReferences": {},
          "object": "610280604052346101ba5761002d610015610352565b9c9b909b9a919a9992999893989794979695966104f1565b604051611bf861088882396080518181816104f701528181610b1601528181610d5a01528181611052015261133c015260a0518181816108c70152818161155001526117c8015260c05181818161095e015281816115c4015261183b015260e0518181816106f801528181610bba01526113a801526101005181818161092501528181610a3e01528181610fb2015281816111730152818161130701526113ff0152610120518181816106450152610ce401526101405181818161043a015281816110bb015261199301526101605181818161040101526116970152610180518181816109d00152610ef301526101a0518181816102c1015261145101526101c0518181816105f301528181610f7f01526119fa01526101e051818181610473015281816111df015261128201526102005181818161079a0152818161173101526118f201526102205181818161099701528181611702015261191c01526102405181818161088e0152818161163b01526118b201526102605181818161080001526116d20152611bf890f35b5f80fd5b634e487b7160e01b5f52604160045260245ffd5b90601f01601f191681019081106001600160401b038211176101f357604052565b6101be565b9061020c61020560405190565b92836101d2565b565b6001600160a01b031690565b90565b6001600160a01b0381165b036101ba57565b9050519061020c8261021d565b6001600160a01b038116610228565b9050519061020c8261023c565b60ff8116610228565b9050519061020c82610258565b80610228565b9050519061020c8261026e565b91906101c0838203126101ba57610298818461022f565b926102a6826020830161022f565b926102b4836040840161022f565b926102c2816060850161024b565b926102d0826080830161024b565b926102de8360a0840161024b565b926102ec8160c08501610261565b926102fa8260e08301610261565b92610309836101008401610274565b92610318816101208501610274565b92610327826101408301610274565b9261021a610339846101608501610274565b936101a061034b826101808701610274565b9401610274565b61037061248080380380610365816101f8565b928339810190610281565b909192939495969798999a9b9c9d565b61020e61021a61021a9290565b61021a90610380565b61021a9061020e906001600160a01b031682565b61021a90610396565b61021a906103aa565b61021a61021a61021a9290565b61021a6305f5e1006103bc565b61021a620151806103bc565b906020828203126101ba5761021a91610261565b6040513d5f823e3d90fd5b61040e61021a61021a9290565b60ff1690565b61021a6006610401565b6001600160501b038116610228565b9050519061020c8261041e565b919060a0838203126101ba57610450818461042d565b9261045e8260208301610274565b9261021a61046f8460408501610274565b93608061047f8260608701610274565b940161042d565b634e487b7160e01b5f52601160045260245ffd5b818102929181159184041417156104ad57565b610486565b60ff16604d81116104ad57600a0a90565b634e487b7160e01b5f52601260045260245ffd5b906104e1565b9190565b9081156104ec570490565b6104c3565b6104fa5f61038d565b6001600160a01b0381166001600160a01b03881614610876576001600160a01b0381166001600160a01b03871614610876576001600160a01b0381166001600160a01b038616146108765761056e610561610554846103b3565b926001600160a01b031690565b916001600160a01b031690565b146108765761057c5f6103bc565b89146108655761058d61021a6103c9565b8a116108545761059b6103d6565b808c1061084357808d1061084357808e10610843578e10610843578c8e11610832576105c6826103b3565b63313ce5679060206105d760405190565b80926105e38560e01b90565b825260049082905afa908115610771575f91610813575b5061024052610608846103b3565b9061061c61061560405190565b9160e01b90565b8152602081600481855afa908115610771575f916107e4575b5061026052610642610414565b60ff811660ff8a16109081156107d3575b81156107b1575b8115610787575b506107765760a061067160405190565b633fabe5a360e21b815291829060049082905afa908115610771575f9161073f575b5061069d5f6103bc565b81131561072f576106b96106b36106d4926103bc565b8b61049a565b6106ce6106c96102605160ff1690565b6104b2565b906104d7565b6106e36104dd61021a8b6104b2565b1061071e5760805260a05260c05260e052610100526101205261020052610220526101405261016052610180526101a0526101c0526101e052565b63cde8c83560e01b5f908152600490fd5b62bfc92160e01b5f908152600490fd5b610761915060a03d60a01161076a575b61075981836101d2565b81019061043a565b50505090610693565b503d61074f565b6103f6565b6370c5eb6160e11b5f908152600490fd5b90506107aa6107a361079c6102605160ff1690565b9260ff1690565b9160ff1690565b105f610661565b90506107c06102405160ff1690565b6107cc60ff83166107a3565b109061065a565b905060ff811660ff8b161090610653565b610806915060203d60201161080c575b6107fe81836101d2565b8101906103e2565b5f610635565b503d6107f4565b61082c915060203d60201161080c576107fe81836101d2565b5f6105fa565b6325c6702760e11b5f908152600490fd5b6325c3636760e01b5f908152600490fd5b63c189a4d360e01b5f908152600490fd5b631f2a200560e01b5f908152600490fd5b63d92e233d60e01b5f908152600490fdfe60806040526004361015610011575f80fd5b5f3560e01c80630bbfc8331461024057806314e853b51461023b57806324938e9f146102365780632ae4e9311461023157806333d263f21461022c5780633e032a3b146102275780633e52531a14610222578063414a62791461021d57806341f1d3c1146102185780634460d3cf146102135780634aca04a81461020e5780634e71d92d14610209578063607af3971461020457806364cbe5f9146101ff57806366d003ac146101fa5780636eb6a820146101f55780638129fc1c146101f05780639049a1e3146101eb578063943640c3146101e657806395098763146101e157806398018b8b146101dc5780639cfbce51146101d7578063aa5c9691146101d2578063ab579f45146101cd578063ad9161cc146101c8578063b001a482146101c3578063b6a6d177146101be578063b7d03c8f146101b9578063c797af7e146101b4578063e5945ad7146101af578063e6fd48bc146101aa578063ef4a57d1146101a5578063efb1ad5d146101a0578063f47083bc1461019b5763fdea36570361024f576109bb565b610982565b610949565b610910565b6108f5565b6108b2565b610879565b61085e565b610838565b6107eb565b6107d0565b610785565b61076a565b61074f565b610734565b61071c565b6106e3565b6106cb565b61068c565b610671565b610630565b6105de565b6105c3565b6105a0565b610585565b61055d565b6104e2565b61045e565b610425565b6103ec565b6103bd565b610371565b610307565b6102ac565b61027d565b5f91031261024f57565b5f80fd5b61025e916008021c81565b90565b9061025e9154610253565b61025e5f6002610261565b9052565b565b3461024f5761028d366004610245565b6102a861029861026c565b6040519182918290815260200190565b0390f35b3461024f576102bc366004610245565b6102a87f0000000000000000000000000000000000000000000000000000000000000000610298565b61025e61025e61025e9290565b61025e6305f5e1006102e5565b61025e6102f2565b3461024f57610317366004610245565b6102a86102986102ff565b634e487b7160e01b5f52602160045260245ffd5b6004111561034057565b610322565b9061027b82610336565b61025e90610345565b6102779061034f565b60208101929161027b9190610358565b3461024f57610381366004610245565b6102a861038c610a07565b60405191829182610361565b6103a561025e61025e9290565b60ff1690565b61025e6006610398565b61025e6103ab565b3461024f576103cd366004610245565b6102a86103d86103b5565b6040519182918260ff909116815260200190565b3461024f576103fc366004610245565b6102a87f0000000000000000000000000000000000000000000000000000000000000000610298565b3461024f57610435366004610245565b6102a87f0000000000000000000000000000000000000000000000000000000000000000610298565b3461024f5761046e366004610245565b6102a87f0000000000000000000000000000000000000000000000000000000000000000610298565b61025e906104ab906001600160a01b031682565b6001600160a01b031690565b61025e90610497565b61025e906104b7565b610277906104c0565b60208101929161027b91906104c9565b3461024f576104f2366004610245565b6102a87f00000000000000000000000000000000000000000000000000000000000000005b604051918291826104d2565b61025e906104ab565b61053581610523565b0361024f57565b9050359061027b8261052c565b9060208282031261024f5761025e9161053c565b3461024f57610575610570366004610549565b610c44565b604051005b61025e5f6004610261565b3461024f57610595366004610245565b6102a861029861057a565b3461024f576105b0366004610245565b610575610cc1565b61025e5f6001610261565b3461024f576105d3366004610245565b6102a86102986105b8565b3461024f576105ee366004610245565b6102a87f0000000000000000000000000000000000000000000000000000000000000000610298565b610277906104ab565b60208101929161027b9190610617565b3461024f57610640366004610245565b6102a87f00000000000000000000000000000000000000000000000000000000000000005b60405191829182610620565b3461024f57610681366004610245565b6102a8610298610f30565b3461024f5761069c366004610245565b610575611166565b80610535565b9050359061027b826106a4565b9060208282031261024f5761025e916106aa565b3461024f576105756106de3660046106b7565b6112de565b3461024f576106f3366004610245565b6102a87f0000000000000000000000000000000000000000000000000000000000000000610665565b3461024f5761072c366004610245565b6105756112e7565b3461024f576102a861029861074a3660046106b7565b61154b565b3461024f576102a86102986107653660046106b7565b6117c3565b3461024f5761077a366004610245565b6102a8610298611986565b3461024f57610795366004610245565b6102a87f00000000000000000000000000000000000000000000000000000000000000006103d8565b61025e6012610398565b61025e6107be565b3461024f576107e0366004610245565b6102a86103d86107c8565b3461024f576107fb366004610245565b6102a87f00000000000000000000000000000000000000000000000000000000000000006103d8565b61025e620151806102e5565b61025e610824565b3461024f57610848366004610245565b6102a8610298610830565b61025e5f6003610261565b3461024f5761086e366004610245565b6102a8610298610853565b3461024f57610889366004610245565b6102a87f00000000000000000000000000000000000000000000000000000000000000006103d8565b3461024f576108c2366004610245565b6102a87f0000000000000000000000000000000000000000000000000000000000000000610517565b61025e5f80610261565b3461024f57610905366004610245565b6102a86102986108eb565b3461024f57610920366004610245565b6102a87f0000000000000000000000000000000000000000000000000000000000000000610665565b3461024f57610959366004610245565b6102a87f0000000000000000000000000000000000000000000000000000000000000000610517565b3461024f57610992366004610245565b6102a87f00000000000000000000000000000000000000000000000000000000000000006103d8565b3461024f576109cb366004610245565b6102a87f0000000000000000000000000000000000000000000000000000000000000000610298565b61025e906103a5565b61025e90546109f4565b610a0f610f30565b610a185f6102e5565b8114610a3457421015610a2f5761025e60056109fd565b600390565b505f90565b610a627f00000000000000000000000000000000000000000000000000000000000000006104ab565b610a6b336104ab565b03610a795761027b90610b11565b639c867e2160e01b5f90815260045b035ffd5b634e487b7160e01b5f52604160045260245ffd5b90601f01601f1916810190811067ffffffffffffffff821117610ac257604052565b610a8c565b9050519061027b826106a4565b9060208282031261024f5761025e91610ac7565b6040513d5f823e3d90fd5b91602061027b929493610b0d60408201965f830190610617565b0152565b610b3a7f0000000000000000000000000000000000000000000000000000000000000000610523565b610b4382610523565b14610c335780610b55610b7d926104c0565b6020610b60306104c0565b6040519485918291906370a0823160e01b5b835260048301610620565b0381845afa918215610c2e577f8aec0ce3dadffacf4b7a963e0fed1ff2e6151b4c95d4a65acafa9d1299630402935f93610bf9575b5082610bdf917f000000000000000000000000000000000000000000000000000000000000000090611aa7565b610bf4610beb60405190565b92839283610af3565b0390a1565b610bdf919350610c209060203d602011610c27575b610c188183610aa0565b810190610ad4565b9290610bb2565b503d610c0e565b610ae8565b63bf27c04f60e01b5f908152600490fd5b61027b90610a39565b61025e9081565b61025e9054610c4d565b634e487b7160e01b5f52601160045260245ffd5b91908201809211610c7f57565b610c5e565b90815260408101929161027b9160200152565b905f19905b9181191691161790565b90610cb661025e610cbd926102e5565b8254610c97565b9055565b610ccb60056109fd565b610cdd610cd75f610345565b91610345565b14610f1f577f0000000000000000000000000000000000000000000000000000000000000000610d0c816104ab565b610d15336104ab565b141580610ee0575b610ecf57610d29611986565b80610d335f6102e5565b8114610ebe57610d429061154b565b918290610d4e5f6102e5565b8414610ebe57610dac937f0000000000000000000000000000000000000000000000000000000000000000906020610d85836104c0565b610d8e306104c0565b90610d9860405190565b988992839182916370a0823160e01b610b72565b03915afa908115610c2e577fc83b5086ce94ec8d5a88a9f5fea4b18a522bb238ed0d2d8abd959549a80c16b8965f92610e9d575b50808210610e4b575b5050610e36918391610dfc426001610ca6565b610e19610e1287610e0d6003610c54565b610c72565b6003610ca6565b610e31610e2a84610e0d6004610c54565b6004610ca6565b611aa7565b610bf4610e4260405190565b92839283610c84565b81610e369492939650610e9395507f521d4ec08ea54943095f5f84755de8b51e1222628c06daa159d618c8c5fda56a91610e87610e4260405190565b0390a1819384926117c3565b9491819350610de9565b610eb791925060203d602011610c2757610c188183610aa0565b905f610de0565b631f2a200560e01b5f908152600490fd5b635a06399f60e11b5f908152600490fd5b50610f1861025e610ef16001610c54565b7f000000000000000000000000000000000000000000000000000000000000000090610c72565b4210610d1d565b6321c4e35760e21b5f908152600490fd5b610f3a60056109fd565b610f46610cd75f610345565b14610fa457610f5560056109fd565b610f62610cd76002610345565b03610f715761025e6002610c54565b61025e610f7d5f610c54565b7f000000000000000000000000000000000000000000000000000000000000000090610c72565b61025e5f6102e5565b610fd67f00000000000000000000000000000000000000000000000000000000000000006104ab565b610fdf336104ab565b03610a795761027b61100c565b9060ff90610c9c565b9061100561025e610cbd9261034f565b8254610fec565b61101660056109fd565b611022610cd75f610345565b0361115657611031425f610ca6565b61103c426001610ca6565b61104860016005610ff5565b61109d60206110767f00000000000000000000000000000000000000000000000000000000000000006104c0565b61107f306104c0565b9061108960405190565b938492839182916370a0823160e01b610b72565b03915afa908115610c2e575f91611137575b506110b9816117c3565b7f0000000000000000000000000000000000000000000000000000000000000000919082906110e7565b9190565b1061111f5750507f5daa87a0e9463431830481fd4b6e3403442dfb9a12b9c07597e9f61d50b633c861111860405190565b8080610bf4565b634787a10360e11b5f90815291610a88916004610c84565b611150915060203d602011610c2757610c188183610aa0565b5f6110af565b62dc149f60e41b5f908152600490fd5b61027b610fad565b6111977f00000000000000000000000000000000000000000000000000000000000000006104ab565b6111a0336104ab565b03610a795761027b906111b360056109fd565b906002916111c3610cd784610345565b146112cd576111d15f6102e5565b810361127a5761120a6112047f000000000000000000000000000000000000000000000000000000000000000042610c72565b83610ca6565b61121382610c54565b6112256110e361025e610f7d5f610c54565b116112635750610bf46102988261125e7f9a9cad27a1bdce3d7cb0602aaf727dfaad03ba6524d9bca7b9615867fa6802b4946005610ff5565b610c54565b6351fe048360e11b5f908152600491909152602490fd5b6112a761025e7f000000000000000000000000000000000000000000000000000000000000000042610c72565b81106112bc576112b78183610ca6565b61120a565b6325c3636760e01b5f908152600490fd5b632aaa685560e11b5f908152600490fd5b61027b9061116e565b6112f160056109fd565b6112fd610cd75f610345565b036113f25761132b7f00000000000000000000000000000000000000000000000000000000000000006104ab565b611334336104ab565b03610a79575b7f00000000000000000000000000000000000000000000000000000000000000006113696020611076836104c0565b03915afa8015610c2e577f7f221332ee403570bf4d61630b58189ea566ff1635269001e9df6a890f413dd892610bf4925f926113cd575b5081610298917f000000000000000000000000000000000000000000000000000000000000000090611aa7565b6102989192506113eb9060203d602011610c2757610c188183610aa0565b91906113a0565b6113fa610f30565b6114237f00000000000000000000000000000000000000000000000000000000000000006104ab565b61142c336104ab565b0361144857421161133a5763a33e709960e01b5f908152600490fd5b61025e611476917f000000000000000000000000000000000000000000000000000000000000000090610c72565b421161133a5763042f54af60e01b5f908152600490fd5b69ffffffffffffffffffff8116610535565b9050519061027b8261148d565b919060a08382031261024f576114c2818461149f565b926114d08260208301610ac7565b9261025e6114e18460408501610ac7565b9360806114f18260608701610ac7565b940161149f565b61025e61025e61025e9260ff1690565b91908203918211610c7f57565b81810292918115918404141715610c7f57565b634e487b7160e01b5f52601260045260245ffd5b8115611546570490565b611528565b6115747f00000000000000000000000000000000000000000000000000000000000000006104c0565b63feaf968c9160a061158560405190565b80936115918660e01b90565b825260049082905afa918215610c2e575f9261179f575b506115b25f6102e5565b82131561175b5760a06115f4936115e87f00000000000000000000000000000000000000000000000000000000000000006104c0565b60405195869260e01b90565b825260049082905afa928315610c2e575f9361176b575b506116155f6102e5565b83131561175b5761025e926116c261172b92611726611636611686966102e5565b6116fc7f0000000000000000000000000000000000000000000000000000000000000000916116cd6116c761167b61167561166f6107be565b966114f8565b956114f8565b9a8b80968195611afd565b6116c26116916102f2565b916116bc7f000000000000000000000000000000000000000000000000000000000000000084611508565b90611515565b61153c565b976102e5565b6116f67f00000000000000000000000000000000000000000000000000000000000000006114f8565b90611afd565b926116f67f00000000000000000000000000000000000000000000000000000000000000006114f8565b611515565b906117557f00000000000000000000000000000000000000000000000000000000000000006114f8565b91611afd565b62bfc92160e01b5f908152600490fd5b61178e91935060a03d60a011611798575b6117868183610aa0565b8101906114ac565b505050929061160b565b503d61177c565b6117b991925060a03d60a011611798576117868183610aa0565b50505091906115a8565b6117ec7f00000000000000000000000000000000000000000000000000000000000000006104c0565b63feaf968c60a06117fc60405190565b80936118088460e01b90565b825260049082905afa918215610c2e575f92611962575b506118295f6102e5565b82131561175b5760a061186b9161185f7f00000000000000000000000000000000000000000000000000000000000000006104c0565b60405193849260e01b90565b825260049082905afa908115610c2e575f91611940575b5061188c5f6102e5565b81131561175b5761025e926116c2611916926117266118ad611686966102e5565b6118ec7f0000000000000000000000000000000000000000000000000000000000000000916116cd6118e661167b61167561166f6107be565b956102e5565b946116f67f00000000000000000000000000000000000000000000000000000000000000006114f8565b906117557f00000000000000000000000000000000000000000000000000000000000000006114f8565b611959915060a03d60a011611798576117868183610aa0565b50505090611882565b61197c91925060a03d60a011611798576117868183610aa0565b505050919061181f565b5f6119916003610c54565b7f000000000000000000000000000000000000000000000000000000000000000090811115611a76576119c2610f30565b6119cb5f6102e5565b8114611a6a5761025e925080421015611a2f57506119f8611a1f916116bc6119f25f610c54565b42611508565b7f00000000000000000000000000000000000000000000000000000000000000009061153c565b611a296003610c54565b90611508565b611a3960056109fd565b611a46610cd76002610345565b03611a6457611a5f916116bc6119f892611a295f610c54565b611a1f565b50611a1f565b50505061025e5f6102e5565b505061025e5f6102e5565b611a9a611a9461025e9263ffffffff1690565b60e01b90565b6001600160e01b03191690565b611aea600492611adb61027b95611ac163a9059cbb611a81565b92611acb60405190565b9687946020860190815201610af3565b60208201810382520383610aa0565b611b3e565b604d8111610c7f57600a0a90565b9091808314611b3857808311611b2257611b1d61025e936116bc92611508565b611aef565b611b1d611b329161025e94611508565b9061153c565b50905090565b905f602091611b4a5f90565b50828151910182855af115610ae8573d5f5190611b696110e35f6102e5565b03611bae5750611b78816104c0565b3b611b856110e35f6102e5565b145b611b8e5750565b610a88611b9b5f926104c0565b635274afe760e01b835260048301610620565b611bbb6110e360016102e5565b1415611b8756fea2646970667358221220b9bc72af3f9557a386e75ff3464e83a88f088fbc6cfe64110801fc9398f4e9ce64736f6c634300081d0033",
          "opcodes": "PUSH2 0x280 PUSH1 0x40 MSTORE CALLVALUE PUSH2 0x1BA JUMPI PUSH2 0x2D PUSH2 0x15 PUSH2 0x352 JUMP JUMPDEST SWAP13 SWAP12 SWAP1 SWAP12 SWAP11 SWAP2 SWAP11 SWAP10 SWAP3 SWAP10 SWAP9 SWAP4 SWAP9 SWAP8 SWAP5 SWAP8 SWAP7 SWAP6 SWAP7 PUSH2 0x4F1 JUMP JUMPDEST PUSH1 0x40 MLOAD PUSH2 0x1BF8 PUSH2 0x888 DUP3 CODECOPY PUSH1 0x80 MLOAD DUP2 DUP2 DUP2 PUSH2 0x4F7 ADD MSTORE DUP2 DUP2 PUSH2 0xB16 ADD MSTORE DUP2 DUP2 PUSH2 0xD5A ADD MSTORE DUP2 DUP2 PUSH2 0x1052 ADD MSTORE PUSH2 0x133C ADD MSTORE PUSH1 0xA0 MLOAD DUP2 DUP2 DUP2 PUSH2 0x8C7 ADD MSTORE DUP2 DUP2 PUSH2 0x1550 ADD MSTORE PUSH2 0x17C8 ADD MSTORE PUSH1 0xC0 MLOAD DUP2 DUP2 DUP2 PUSH2 0x95E ADD MSTORE DUP2 DUP2 PUSH2 0x15C4 ADD MSTORE PUSH2 0x183B ADD MSTORE PUSH1 0xE0 MLOAD DUP2 DUP2 DUP2 PUSH2 0x6F8 ADD MSTORE DUP2 DUP2 PUSH2 0xBBA ADD MSTORE PUSH2 0x13A8 ADD MSTORE PUSH2 0x100 MLOAD DUP2 DUP2 DUP2 PUSH2 0x925 ADD MSTORE DUP2 DUP2 PUSH2 0xA3E ADD MSTORE DUP2 DUP2 PUSH2 0xFB2 ADD MSTORE DUP2 DUP2 PUSH2 0x1173 ADD MSTORE DUP2 DUP2 PUSH2 0x1307 ADD MSTORE PUSH2 0x13FF ADD MSTORE PUSH2 0x120 MLOAD DUP2 DUP2 DUP2 PUSH2 0x645 ADD MSTORE PUSH2 0xCE4 ADD MSTORE PUSH2 0x140 MLOAD DUP2 DUP2 DUP2 PUSH2 0x43A ADD MSTORE DUP2 DUP2 PUSH2 0x10BB ADD MSTORE PUSH2 0x1993 ADD MSTORE PUSH2 0x160 MLOAD DUP2 DUP2 DUP2 PUSH2 0x401 ADD MSTORE PUSH2 0x1697 ADD MSTORE PUSH2 0x180 MLOAD DUP2 DUP2 DUP2 PUSH2 0x9D0 ADD MSTORE PUSH2 0xEF3 ADD MSTORE PUSH2 0x1A0 MLOAD DUP2 DUP2 DUP2 PUSH2 0x2C1 ADD MSTORE PUSH2 0x1451 ADD MSTORE PUSH2 0x1C0 MLOAD DUP2 DUP2 DUP2 PUSH2 0x5F3 ADD MSTORE DUP2 DUP2 PUSH2 0xF7F ADD MSTORE PUSH2 0x19FA ADD MSTORE PUSH2 0x1E0 MLOAD DUP2 DUP2 DUP2 PUSH2 0x473 ADD MSTORE DUP2 DUP2 PUSH2 0x11DF ADD MSTORE PUSH2 0x1282 ADD MSTORE PUSH2 0x200 MLOAD DUP2 DUP2 DUP2 PUSH2 0x79A ADD MSTORE DUP2 DUP2 PUSH2 0x1731 ADD MSTORE PUSH2 0x18F2 ADD MSTORE PUSH2 0x220 MLOAD DUP2 DUP2 DUP2 PUSH2 0x997 ADD MSTORE DUP2 DUP2 PUSH2 0x1702 ADD MSTORE PUSH2 0x191C ADD MSTORE PUSH2 0x240 MLOAD DUP2 DUP2 DUP2 PUSH2 0x88E ADD MSTORE DUP2 DUP2 PUSH2 0x163B ADD MSTORE PUSH2 0x18B2 ADD MSTORE PUSH2 0x260 MLOAD DUP2 DUP2 DUP2 PUSH2 0x800 ADD MSTORE PUSH2 0x16D2 ADD MSTORE PUSH2 0x1BF8 SWAP1 RETURN JUMPDEST PUSH0 DUP1 REVERT JUMPDEST PUSH4 0x4E487B71 PUSH1 0xE0 SHL PUSH0 MSTORE PUSH1 0x41 PUSH1 0x4 MSTORE PUSH1 0x24 PUSH0 REVERT JUMPDEST SWAP1 PUSH1 0x1F ADD PUSH1 0x1F NOT AND DUP2 ADD SWAP1 DUP2 LT PUSH1 0x1 PUSH1 0x1 PUSH1 0x40 SHL SUB DUP3 GT OR PUSH2 0x1F3 JUMPI PUSH1 0x40 MSTORE JUMP JUMPDEST PUSH2 0x1BE JUMP JUMPDEST SWAP1 PUSH2 0x20C PUSH2 0x205 PUSH1 0x40 MLOAD SWAP1 JUMP JUMPDEST SWAP3 DUP4 PUSH2 0x1D2 JUMP JUMPDEST JUMP JUMPDEST PUSH1 0x1 PUSH1 0x1 PUSH1 0xA0 SHL SUB AND SWAP1 JUMP JUMPDEST SWAP1 JUMP JUMPDEST PUSH1 0x1 PUSH1 0x1 PUSH1 0xA0 SHL SUB DUP2 AND JUMPDEST SUB PUSH2 0x1BA JUMPI JUMP JUMPDEST SWAP1 POP MLOAD SWAP1 PUSH2 0x20C DUP3 PUSH2 0x21D JUMP JUMPDEST PUSH1 0x1 PUSH1 0x1 PUSH1 0xA0 SHL SUB DUP2 AND PUSH2 0x228 JUMP JUMPDEST SWAP1 POP MLOAD SWAP1 PUSH2 0x20C DUP3 PUSH2 0x23C JUMP JUMPDEST PUSH1 0xFF DUP2 AND PUSH2 0x228 JUMP JUMPDEST SWAP1 POP MLOAD SWAP1 PUSH2 0x20C DUP3 PUSH2 0x258 JUMP JUMPDEST DUP1 PUSH2 0x228 JUMP JUMPDEST SWAP1 POP MLOAD SWAP1 PUSH2 0x20C DUP3 PUSH2 0x26E JUMP JUMPDEST SWAP2 SWAP1 PUSH2 0x1C0 DUP4 DUP3 SUB SLT PUSH2 0x1BA JUMPI PUSH2 0x298 DUP2 DUP5 PUSH2 0x22F JUMP JUMPDEST SWAP3 PUSH2 0x2A6 DUP3 PUSH1 0x20 DUP4 ADD PUSH2 0x22F JUMP JUMPDEST SWAP3 PUSH2 0x2B4 DUP4 PUSH1 0x40 DUP5 ADD PUSH2 0x22F JUMP JUMPDEST SWAP3 PUSH2 0x2C2 DUP2 PUSH1 0x60 DUP6 ADD PUSH2 0x24B JUMP JUMPDEST SWAP3 PUSH2 0x2D0 DUP3 PUSH1 0x80 DUP4 ADD PUSH2 0x24B JUMP JUMPDEST SWAP3 PUSH2 0x2DE DUP4 PUSH1 0xA0 DUP5 ADD PUSH2 0x24B JUMP JUMPDEST SWAP3 PUSH2 0x2EC DUP2 PUSH1 0xC0 DUP6 ADD PUSH2 0x261 JUMP JUMPDEST SWAP3 PUSH2 0x2FA DUP3 PUSH1 0xE0 DUP4 ADD PUSH2 0x261 JUMP JUMPDEST SWAP3 PUSH2 0x309 DUP4 PUSH2 0x100 DUP5 ADD PUSH2 0x274 JUMP JUMPDEST SWAP3 PUSH2 0x318 DUP2 PUSH2 0x120 DUP6 ADD PUSH2 0x274 JUMP JUMPDEST SWAP3 PUSH2 0x327 DUP3 PUSH2 0x140 DUP4 ADD PUSH2 0x274 JUMP JUMPDEST SWAP3 PUSH2 0x21A PUSH2 0x339 DUP5 PUSH2 0x160 DUP6 ADD PUSH2 0x274 JUMP JUMPDEST SWAP4 PUSH2 0x1A0 PUSH2 0x34B DUP3 PUSH2 0x180 DUP8 ADD PUSH2 0x274 JUMP JUMPDEST SWAP5 ADD PUSH2 0x274 JUMP JUMPDEST PUSH2 0x370 PUSH2 0x2480 DUP1 CODESIZE SUB DUP1 PUSH2 0x365 DUP2 PUSH2 0x1F8 JUMP JUMPDEST SWAP3 DUP4 CODECOPY DUP2 ADD SWAP1 PUSH2 0x281 JUMP JUMPDEST SWAP1 SWAP2 SWAP3 SWAP4 SWAP5 SWAP6 SWAP7 SWAP8 SWAP9 SWAP10 SWAP11 SWAP12 SWAP13 SWAP14 JUMP JUMPDEST PUSH2 0x20E PUSH2 0x21A PUSH2 0x21A SWAP3 SWAP1 JUMP JUMPDEST PUSH2 0x21A SWAP1 PUSH2 0x380 JUMP JUMPDEST PUSH2 0x21A SWAP1 PUSH2 0x20E SWAP1 PUSH1 0x1 PUSH1 0x1 PUSH1 0xA0 SHL SUB AND DUP3 JUMP JUMPDEST PUSH2 0x21A SWAP1 PUSH2 0x396 JUMP JUMPDEST PUSH2 0x21A SWAP1 PUSH2 0x3AA JUMP JUMPDEST PUSH2 0x21A PUSH2 0x21A PUSH2 0x21A SWAP3 SWAP1 JUMP JUMPDEST PUSH2 0x21A PUSH4 0x5F5E100 PUSH2 0x3BC JUMP JUMPDEST PUSH2 0x21A PUSH3 0x15180 PUSH2 0x3BC JUMP JUMPDEST SWAP1 PUSH1 0x20 DUP3 DUP3 SUB SLT PUSH2 0x1BA JUMPI PUSH2 0x21A SWAP2 PUSH2 0x261 JUMP JUMPDEST PUSH1 0x40 MLOAD RETURNDATASIZE PUSH0 DUP3 RETURNDATACOPY RETURNDATASIZE SWAP1 REVERT JUMPDEST PUSH2 0x40E PUSH2 0x21A PUSH2 0x21A SWAP3 SWAP1 JUMP JUMPDEST PUSH1 0xFF AND SWAP1 JUMP JUMPDEST PUSH2 0x21A PUSH1 0x6 PUSH2 0x401 JUMP JUMPDEST PUSH1 0x1 PUSH1 0x1 PUSH1 0x50 SHL SUB DUP2 AND PUSH2 0x228 JUMP JUMPDEST SWAP1 POP MLOAD SWAP1 PUSH2 0x20C DUP3 PUSH2 0x41E JUMP JUMPDEST SWAP2 SWAP1 PUSH1 0xA0 DUP4 DUP3 SUB SLT PUSH2 0x1BA JUMPI PUSH2 0x450 DUP2 DUP5 PUSH2 0x42D JUMP JUMPDEST SWAP3 PUSH2 0x45E DUP3 PUSH1 0x20 DUP4 ADD PUSH2 0x274 JUMP JUMPDEST SWAP3 PUSH2 0x21A PUSH2 0x46F DUP5 PUSH1 0x40 DUP6 ADD PUSH2 0x274 JUMP JUMPDEST SWAP4 PUSH1 0x80 PUSH2 0x47F DUP3 PUSH1 0x60 DUP8 ADD PUSH2 0x274 JUMP JUMPDEST SWAP5 ADD PUSH2 0x42D JUMP JUMPDEST PUSH4 0x4E487B71 PUSH1 0xE0 SHL PUSH0 MSTORE PUSH1 0x11 PUSH1 0x4 MSTORE PUSH1 0x24 PUSH0 REVERT JUMPDEST DUP2 DUP2 MUL SWAP3 SWAP2 DUP2 ISZERO SWAP2 DUP5 DIV EQ OR ISZERO PUSH2 0x4AD JUMPI JUMP JUMPDEST PUSH2 0x486 JUMP JUMPDEST PUSH1 0xFF AND PUSH1 0x4D DUP2 GT PUSH2 0x4AD JUMPI PUSH1 0xA EXP SWAP1 JUMP JUMPDEST PUSH4 0x4E487B71 PUSH1 0xE0 SHL PUSH0 MSTORE PUSH1 0x12 PUSH1 0x4 MSTORE PUSH1 0x24 PUSH0 REVERT JUMPDEST SWAP1 PUSH2 0x4E1 JUMP JUMPDEST SWAP2 SWAP1 JUMP JUMPDEST SWAP1 DUP2 ISZERO PUSH2 0x4EC JUMPI DIV SWAP1 JUMP JUMPDEST PUSH2 0x4C3 JUMP JUMPDEST PUSH2 0x4FA PUSH0 PUSH2 0x38D JUMP JUMPDEST PUSH1 0x1 PUSH1 0x1 PUSH1 0xA0 SHL SUB DUP2 AND PUSH1 0x1 PUSH1 0x1 PUSH1 0xA0 SHL SUB DUP9 AND EQ PUSH2 0x876 JUMPI PUSH1 0x1 PUSH1 0x1 PUSH1 0xA0 SHL SUB DUP2 AND PUSH1 0x1 PUSH1 0x1 PUSH1 0xA0 SHL SUB DUP8 AND EQ PUSH2 0x876 JUMPI PUSH1 0x1 PUSH1 0x1 PUSH1 0xA0 SHL SUB DUP2 AND PUSH1 0x1 PUSH1 0x1 PUSH1 0xA0 SHL SUB DUP7 AND EQ PUSH2 0x876 JUMPI PUSH2 0x56E PUSH2 0x561 PUSH2 0x554 DUP5 PUSH2 0x3B3 JUMP JUMPDEST SWAP3 PUSH1 0x1 PUSH1 0x1 PUSH1 0xA0 SHL SUB AND SWAP1 JUMP JUMPDEST SWAP2 PUSH1 0x1 PUSH1 0x1 PUSH1 0xA0 SHL SUB AND SWAP1 JUMP JUMPDEST EQ PUSH2 0x876 JUMPI PUSH2 0x57C PUSH0 PUSH2 0x3BC JUMP JUMPDEST DUP10 EQ PUSH2 0x865 JUMPI PUSH2 0x58D PUSH2 0x21A PUSH2 0x3C9 JUMP JUMPDEST DUP11 GT PUSH2 0x854 JUMPI PUSH2 0x59B PUSH2 0x3D6 JUMP JUMPDEST DUP1 DUP13 LT PUSH2 0x843 JUMPI DUP1 DUP14 LT PUSH2 0x843 JUMPI DUP1 DUP15 LT PUSH2 0x843 JUMPI DUP15 LT PUSH2 0x843 JUMPI DUP13 DUP15 GT PUSH2 0x832 JUMPI PUSH2 0x5C6 DUP3 PUSH2 0x3B3 JUMP JUMPDEST PUSH4 0x313CE567 SWAP1 PUSH1 0x20 PUSH2 0x5D7 PUSH1 0x40 MLOAD SWAP1 JUMP JUMPDEST DUP1 SWAP3 PUSH2 0x5E3 DUP6 PUSH1 0xE0 SHL SWAP1 JUMP JUMPDEST DUP3 MSTORE PUSH1 0x4 SWAP1 DUP3 SWAP1 GAS STATICCALL SWAP1 DUP2 ISZERO PUSH2 0x771 JUMPI PUSH0 SWAP2 PUSH2 0x813 JUMPI JUMPDEST POP PUSH2 0x240 MSTORE PUSH2 0x608 DUP5 PUSH2 0x3B3 JUMP JUMPDEST SWAP1 PUSH2 0x61C PUSH2 0x615 PUSH1 0x40 MLOAD SWAP1 JUMP JUMPDEST SWAP2 PUSH1 0xE0 SHL SWAP1 JUMP JUMPDEST DUP2 MSTORE PUSH1 0x20 DUP2 PUSH1 0x4 DUP2 DUP6 GAS STATICCALL SWAP1 DUP2 ISZERO PUSH2 0x771 JUMPI PUSH0 SWAP2 PUSH2 0x7E4 JUMPI JUMPDEST POP PUSH2 0x260 MSTORE PUSH2 0x642 PUSH2 0x414 JUMP JUMPDEST PUSH1 0xFF DUP2 AND PUSH1 0xFF DUP11 AND LT SWAP1 DUP2 ISZERO PUSH2 0x7D3 JUMPI JUMPDEST DUP2 ISZERO PUSH2 0x7B1 JUMPI JUMPDEST DUP2 ISZERO PUSH2 0x787 JUMPI JUMPDEST POP PUSH2 0x776 JUMPI PUSH1 0xA0 PUSH2 0x671 PUSH1 0x40 MLOAD SWAP1 JUMP JUMPDEST PUSH4 0x3FABE5A3 PUSH1 0xE2 SHL DUP2 MSTORE SWAP2 DUP3 SWAP1 PUSH1 0x4 SWAP1 DUP3 SWAP1 GAS STATICCALL SWAP1 DUP2 ISZERO PUSH2 0x771 JUMPI PUSH0 SWAP2 PUSH2 0x73F JUMPI JUMPDEST POP PUSH2 0x69D PUSH0 PUSH2 0x3BC JUMP JUMPDEST DUP2 SGT ISZERO PUSH2 0x72F JUMPI PUSH2 0x6B9 PUSH2 0x6B3 PUSH2 0x6D4 SWAP3 PUSH2 0x3BC JUMP JUMPDEST DUP12 PUSH2 0x49A JUMP JUMPDEST PUSH2 0x6CE PUSH2 0x6C9 PUSH2 0x260 MLOAD PUSH1 0xFF AND SWAP1 JUMP JUMPDEST PUSH2 0x4B2 JUMP JUMPDEST SWAP1 PUSH2 0x4D7 JUMP JUMPDEST PUSH2 0x6E3 PUSH2 0x4DD PUSH2 0x21A DUP12 PUSH2 0x4B2 JUMP JUMPDEST LT PUSH2 0x71E JUMPI PUSH1 0x80 MSTORE PUSH1 0xA0 MSTORE PUSH1 0xC0 MSTORE PUSH1 0xE0 MSTORE PUSH2 0x100 MSTORE PUSH2 0x120 MSTORE PUSH2 0x200 MSTORE PUSH2 0x220 MSTORE PUSH2 0x140 MSTORE PUSH2 0x160 MSTORE PUSH2 0x180 MSTORE PUSH2 0x1A0 MSTORE PUSH2 0x1C0 MSTORE PUSH2 0x1E0 MSTORE JUMP JUMPDEST PUSH4 0xCDE8C835 PUSH1 0xE0 SHL PUSH0 SWAP1 DUP2 MSTORE PUSH1 0x4 SWAP1 REVERT JUMPDEST PUSH3 0xBFC921 PUSH1 0xE0 SHL PUSH0 SWAP1 DUP2 MSTORE PUSH1 0x4 SWAP1 REVERT JUMPDEST PUSH2 0x761 SWAP2 POP PUSH1 0xA0 RETURNDATASIZE PUSH1 0xA0 GT PUSH2 0x76A JUMPI JUMPDEST PUSH2 0x759 DUP2 DUP4 PUSH2 0x1D2 JUMP JUMPDEST DUP2 ADD SWAP1 PUSH2 0x43A JUMP JUMPDEST POP POP POP SWAP1 PUSH2 0x693 JUMP JUMPDEST POP RETURNDATASIZE PUSH2 0x74F JUMP JUMPDEST PUSH2 0x3F6 JUMP JUMPDEST PUSH4 0x70C5EB61 PUSH1 0xE1 SHL PUSH0 SWAP1 DUP2 MSTORE PUSH1 0x4 SWAP1 REVERT JUMPDEST SWAP1 POP PUSH2 0x7AA PUSH2 0x7A3 PUSH2 0x79C PUSH2 0x260 MLOAD PUSH1 0xFF AND SWAP1 JUMP JUMPDEST SWAP3 PUSH1 0xFF AND SWAP1 JUMP JUMPDEST SWAP2 PUSH1 0xFF AND SWAP1 JUMP JUMPDEST LT PUSH0 PUSH2 0x661 JUMP JUMPDEST SWAP1 POP PUSH2 0x7C0 PUSH2 0x240 MLOAD PUSH1 0xFF AND SWAP1 JUMP JUMPDEST PUSH2 0x7CC PUSH1 0xFF DUP4 AND PUSH2 0x7A3 JUMP JUMPDEST LT SWAP1 PUSH2 0x65A JUMP JUMPDEST SWAP1 POP PUSH1 0xFF DUP2 AND PUSH1 0xFF DUP12 AND LT SWAP1 PUSH2 0x653 JUMP JUMPDEST PUSH2 0x806 SWAP2 POP PUSH1 0x20 RETURNDATASIZE PUSH1 0x20 GT PUSH2 0x80C JUMPI JUMPDEST PUSH2 0x7FE DUP2 DUP4 PUSH2 0x1D2 JUMP JUMPDEST DUP2 ADD SWAP1 PUSH2 0x3E2 JUMP JUMPDEST PUSH0 PUSH2 0x635 JUMP JUMPDEST POP RETURNDATASIZE PUSH2 0x7F4 JUMP JUMPDEST PUSH2 0x82C SWAP2 POP PUSH1 0x20 RETURNDATASIZE PUSH1 0x20 GT PUSH2 0x80C JUMPI PUSH2 0x7FE DUP2 DUP4 PUSH2 0x1D2 JUMP JUMPDEST PUSH0 PUSH2 0x5FA JUMP JUMPDEST PUSH4 0x25C67027 PUSH1 0xE1 SHL PUSH0 SWAP1 DUP2 MSTORE PUSH1 0x4 SWAP1 REVERT JUMPDEST PUSH4 0x25C36367 PUSH1 0xE0 SHL PUSH0 SWAP1 DUP2 MSTORE PUSH1 0x4 SWAP1 REVERT JUMPDEST PUSH4 0xC189A4D3 PUSH1 0xE0 SHL PUSH0 SWAP1 DUP2 MSTORE PUSH1 0x4 SWAP1 REVERT JUMPDEST PUSH4 0x1F2A2005 PUSH1 0xE0 SHL PUSH0 SWAP1 DUP2 MSTORE PUSH1 0x4 SWAP1 REVERT JUMPDEST PUSH4 0xD92E233D PUSH1 0xE0 SHL PUSH0 SWAP1 DUP2 MSTORE PUSH1 0x4 SWAP1 REVERT INVALID PUSH1 0x80 PUSH1 0x40 MSTORE PUSH1 0x4 CALLDATASIZE LT ISZERO PUSH2 0x11 JUMPI PUSH0 DUP1 REVERT JUMPDEST PUSH0 CALLDATALOAD PUSH1 0xE0 SHR DUP1 PUSH4 0xBBFC833 EQ PUSH2 0x240 JUMPI DUP1 PUSH4 0x14E853B5 EQ PUSH2 0x23B JUMPI DUP1 PUSH4 0x24938E9F EQ PUSH2 0x236 JUMPI DUP1 PUSH4 0x2AE4E931 EQ PUSH2 0x231 JUMPI DUP1 PUSH4 0x33D263F2 EQ PUSH2 0x22C JUMPI DUP1 PUSH4 0x3E032A3B EQ PUSH2 0x227 JUMPI DUP1 PUSH4 0x3E52531A EQ PUSH2 0x222 JUMPI DUP1 PUSH4 0x414A6279 EQ PUSH2 0x21D JUMPI DUP1 PUSH4 0x41F1D3C1 EQ PUSH2 0x218 JUMPI DUP1 PUSH4 0x4460D3CF EQ PUSH2 0x213 JUMPI DUP1 PUSH4 0x4ACA04A8 EQ PUSH2 0x20E JUMPI DUP1 PUSH4 0x4E71D92D EQ PUSH2 0x209 JUMPI DUP1 PUSH4 0x607AF397 EQ PUSH2 0x204 JUMPI DUP1 PUSH4 0x64CBE5F9 EQ PUSH2 0x1FF JUMPI DUP1 PUSH4 0x66D003AC EQ PUSH2 0x1FA JUMPI DUP1 PUSH4 0x6EB6A820 EQ PUSH2 0x1F5 JUMPI DUP1 PUSH4 0x8129FC1C EQ PUSH2 0x1F0 JUMPI DUP1 PUSH4 0x9049A1E3 EQ PUSH2 0x1EB JUMPI DUP1 PUSH4 0x943640C3 EQ PUSH2 0x1E6 JUMPI DUP1 PUSH4 0x95098763 EQ PUSH2 0x1E1 JUMPI DUP1 PUSH4 0x98018B8B EQ PUSH2 0x1DC JUMPI DUP1 PUSH4 0x9CFBCE51 EQ PUSH2 0x1D7 JUMPI DUP1 PUSH4 0xAA5C9691 EQ PUSH2 0x1D2 JUMPI DUP1 PUSH4 0xAB579F45 EQ PUSH2 0x1CD JUMPI DUP1 PUSH4 0xAD9161CC EQ PUSH2 0x1C8 JUMPI DUP1 PUSH4 0xB001A482 EQ PUSH2 0x1C3 JUMPI DUP1 PUSH4 0xB6A6D177 EQ PUSH2 0x1BE JUMPI DUP1 PUSH4 0xB7D03C8F EQ PUSH2 0x1B9 JUMPI DUP1 PUSH4 0xC797AF7E EQ PUSH2 0x1B4 JUMPI DUP1 PUSH4 0xE5945AD7 EQ PUSH2 0x1AF JUMPI DUP1 PUSH4 0xE6FD48BC EQ PUSH2 0x1AA JUMPI DUP1 PUSH4 0xEF4A57D1 EQ PUSH2 0x1A5 JUMPI DUP1 PUSH4 0xEFB1AD5D EQ PUSH2 0x1A0 JUMPI DUP1 PUSH4 0xF47083BC EQ PUSH2 0x19B JUMPI PUSH4 0xFDEA3657 SUB PUSH2 0x24F JUMPI PUSH2 0x9BB JUMP JUMPDEST PUSH2 0x982 JUMP JUMPDEST PUSH2 0x949 JUMP JUMPDEST PUSH2 0x910 JUMP JUMPDEST PUSH2 0x8F5 JUMP JUMPDEST PUSH2 0x8B2 JUMP JUMPDEST PUSH2 0x879 JUMP JUMPDEST PUSH2 0x85E JUMP JUMPDEST PUSH2 0x838 JUMP JUMPDEST PUSH2 0x7EB JUMP JUMPDEST PUSH2 0x7D0 JUMP JUMPDEST PUSH2 0x785 JUMP JUMPDEST PUSH2 0x76A JUMP JUMPDEST PUSH2 0x74F JUMP JUMPDEST PUSH2 0x734 JUMP JUMPDEST PUSH2 0x71C JUMP JUMPDEST PUSH2 0x6E3 JUMP JUMPDEST PUSH2 0x6CB JUMP JUMPDEST PUSH2 0x68C JUMP JUMPDEST PUSH2 0x671 JUMP JUMPDEST PUSH2 0x630 JUMP JUMPDEST PUSH2 0x5DE JUMP JUMPDEST PUSH2 0x5C3 JUMP JUMPDEST PUSH2 0x5A0 JUMP JUMPDEST PUSH2 0x585 JUMP JUMPDEST PUSH2 0x55D JUMP JUMPDEST PUSH2 0x4E2 JUMP JUMPDEST PUSH2 0x45E JUMP JUMPDEST PUSH2 0x425 JUMP JUMPDEST PUSH2 0x3EC JUMP JUMPDEST PUSH2 0x3BD JUMP JUMPDEST PUSH2 0x371 JUMP JUMPDEST PUSH2 0x307 JUMP JUMPDEST PUSH2 0x2AC JUMP JUMPDEST PUSH2 0x27D JUMP JUMPDEST PUSH0 SWAP2 SUB SLT PUSH2 0x24F JUMPI JUMP JUMPDEST PUSH0 DUP1 REVERT JUMPDEST PUSH2 0x25E SWAP2 PUSH1 0x8 MUL SHR DUP2 JUMP JUMPDEST SWAP1 JUMP JUMPDEST SWAP1 PUSH2 0x25E SWAP2 SLOAD PUSH2 0x253 JUMP JUMPDEST PUSH2 0x25E PUSH0 PUSH1 0x2 PUSH2 0x261 JUMP JUMPDEST SWAP1 MSTORE JUMP JUMPDEST JUMP JUMPDEST CALLVALUE PUSH2 0x24F JUMPI PUSH2 0x28D CALLDATASIZE PUSH1 0x4 PUSH2 0x245 JUMP JUMPDEST PUSH2 0x2A8 PUSH2 0x298 PUSH2 0x26C JUMP JUMPDEST PUSH1 0x40 MLOAD SWAP2 DUP3 SWAP2 DUP3 SWAP1 DUP2 MSTORE PUSH1 0x20 ADD SWAP1 JUMP JUMPDEST SUB SWAP1 RETURN JUMPDEST CALLVALUE PUSH2 0x24F JUMPI PUSH2 0x2BC CALLDATASIZE PUSH1 0x4 PUSH2 0x245 JUMP JUMPDEST PUSH2 0x2A8 PUSH32 0x0 PUSH2 0x298 JUMP JUMPDEST PUSH2 0x25E PUSH2 0x25E PUSH2 0x25E SWAP3 SWAP1 JUMP JUMPDEST PUSH2 0x25E PUSH4 0x5F5E100 PUSH2 0x2E5 JUMP JUMPDEST PUSH2 0x25E PUSH2 0x2F2 JUMP JUMPDEST CALLVALUE PUSH2 0x24F JUMPI PUSH2 0x317 CALLDATASIZE PUSH1 0x4 PUSH2 0x245 JUMP JUMPDEST PUSH2 0x2A8 PUSH2 0x298 PUSH2 0x2FF JUMP JUMPDEST PUSH4 0x4E487B71 PUSH1 0xE0 SHL PUSH0 MSTORE PUSH1 0x21 PUSH1 0x4 MSTORE PUSH1 0x24 PUSH0 REVERT JUMPDEST PUSH1 0x4 GT ISZERO PUSH2 0x340 JUMPI JUMP JUMPDEST PUSH2 0x322 JUMP JUMPDEST SWAP1 PUSH2 0x27B DUP3 PUSH2 0x336 JUMP JUMPDEST PUSH2 0x25E SWAP1 PUSH2 0x345 JUMP JUMPDEST PUSH2 0x277 SWAP1 PUSH2 0x34F JUMP JUMPDEST PUSH1 0x20 DUP2 ADD SWAP3 SWAP2 PUSH2 0x27B SWAP2 SWAP1 PUSH2 0x358 JUMP JUMPDEST CALLVALUE PUSH2 0x24F JUMPI PUSH2 0x381 CALLDATASIZE PUSH1 0x4 PUSH2 0x245 JUMP JUMPDEST PUSH2 0x2A8 PUSH2 0x38C PUSH2 0xA07 JUMP JUMPDEST PUSH1 0x40 MLOAD SWAP2 DUP3 SWAP2 DUP3 PUSH2 0x361 JUMP JUMPDEST PUSH2 0x3A5 PUSH2 0x25E PUSH2 0x25E SWAP3 SWAP1 JUMP JUMPDEST PUSH1 0xFF AND SWAP1 JUMP JUMPDEST PUSH2 0x25E PUSH1 0x6 PUSH2 0x398 JUMP JUMPDEST PUSH2 0x25E PUSH2 0x3AB JUMP JUMPDEST CALLVALUE PUSH2 0x24F JUMPI PUSH2 0x3CD CALLDATASIZE PUSH1 0x4 PUSH2 0x245 JUMP JUMPDEST PUSH2 0x2A8 PUSH2 0x3D8 PUSH2 0x3B5 JUMP JUMPDEST PUSH1 0x40 MLOAD SWAP2 DUP3 SWAP2 DUP3 PUSH1 0xFF SWAP1 SWAP2 AND DUP2 MSTORE PUSH1 0x20 ADD SWAP1 JUMP JUMPDEST CALLVALUE PUSH2 0x24F JUMPI PUSH2 0x3FC CALLDATASIZE PUSH1 0x4 PUSH2 0x245 JUMP JUMPDEST PUSH2 0x2A8 PUSH32 0x0 PUSH2 0x298 JUMP JUMPDEST CALLVALUE PUSH2 0x24F JUMPI PUSH2 0x435 CALLDATASIZE PUSH1 0x4 PUSH2 0x245 JUMP JUMPDEST PUSH2 0x2A8 PUSH32 0x0 PUSH2 0x298 JUMP JUMPDEST CALLVALUE PUSH2 0x24F JUMPI PUSH2 0x46E CALLDATASIZE PUSH1 0x4 PUSH2 0x245 JUMP JUMPDEST PUSH2 0x2A8 PUSH32 0x0 PUSH2 0x298 JUMP JUMPDEST PUSH2 0x25E SWAP1 PUSH2 0x4AB SWAP1 PUSH1 0x1 PUSH1 0x1 PUSH1 0xA0 SHL SUB AND DUP3 JUMP JUMPDEST PUSH1 0x1 PUSH1 0x1 PUSH1 0xA0 SHL SUB AND SWAP1 JUMP JUMPDEST PUSH2 0x25E SWAP1 PUSH2 0x497 JUMP JUMPDEST PUSH2 0x25E SWAP1 PUSH2 0x4B7 JUMP JUMPDEST PUSH2 0x277 SWAP1 PUSH2 0x4C0 JUMP JUMPDEST PUSH1 0x20 DUP2 ADD SWAP3 SWAP2 PUSH2 0x27B SWAP2 SWAP1 PUSH2 0x4C9 JUMP JUMPDEST CALLVALUE PUSH2 0x24F JUMPI PUSH2 0x4F2 CALLDATASIZE PUSH1 0x4 PUSH2 0x245 JUMP JUMPDEST PUSH2 0x2A8 PUSH32 0x0 JUMPDEST PUSH1 0x40 MLOAD SWAP2 DUP3 SWAP2 DUP3 PUSH2 0x4D2 JUMP JUMPDEST PUSH2 0x25E SWAP1 PUSH2 0x4AB JUMP JUMPDEST PUSH2 0x535 DUP2 PUSH2 0x523 JUMP JUMPDEST SUB PUSH2 0x24F JUMPI JUMP JUMPDEST SWAP1 POP CALLDATALOAD SWAP1 PUSH2 0x27B DUP3 PUSH2 0x52C JUMP JUMPDEST SWAP1 PUSH1 0x20 DUP3 DUP3 SUB SLT PUSH2 0x24F JUMPI PUSH2 0x25E SWAP2 PUSH2 0x53C JUMP JUMPDEST CALLVALUE PUSH2 0x24F JUMPI PUSH2 0x575 PUSH2 0x570 CALLDATASIZE PUSH1 0x4 PUSH2 0x549 JUMP JUMPDEST PUSH2 0xC44 JUMP JUMPDEST PUSH1 0x40 MLOAD STOP JUMPDEST PUSH2 0x25E PUSH0 PUSH1 0x4 PUSH2 0x261 JUMP JUMPDEST CALLVALUE PUSH2 0x24F JUMPI PUSH2 0x595 CALLDATASIZE PUSH1 0x4 PUSH2 0x245 JUMP JUMPDEST PUSH2 0x2A8 PUSH2 0x298 PUSH2 0x57A JUMP JUMPDEST CALLVALUE PUSH2 0x24F JUMPI PUSH2 0x5B0 CALLDATASIZE PUSH1 0x4 PUSH2 0x245 JUMP JUMPDEST PUSH2 0x575 PUSH2 0xCC1 JUMP JUMPDEST PUSH2 0x25E PUSH0 PUSH1 0x1 PUSH2 0x261 JUMP JUMPDEST CALLVALUE PUSH2 0x24F JUMPI PUSH2 0x5D3 CALLDATASIZE PUSH1 0x4 PUSH2 0x245 JUMP JUMPDEST PUSH2 0x2A8 PUSH2 0x298 PUSH2 0x5B8 JUMP JUMPDEST CALLVALUE PUSH2 0x24F JUMPI PUSH2 0x5EE CALLDATASIZE PUSH1 0x4 PUSH2 0x245 JUMP JUMPDEST PUSH2 0x2A8 PUSH32 0x0 PUSH2 0x298 JUMP JUMPDEST PUSH2 0x277 SWAP1 PUSH2 0x4AB JUMP JUMPDEST PUSH1 0x20 DUP2 ADD SWAP3 SWAP2 PUSH2 0x27B SWAP2 SWAP1 PUSH2 0x617 JUMP JUMPDEST CALLVALUE PUSH2 0x24F JUMPI PUSH2 0x640 CALLDATASIZE PUSH1 0x4 PUSH2 0x245 JUMP JUMPDEST PUSH2 0x2A8 PUSH32 0x0 JUMPDEST PUSH1 0x40 MLOAD SWAP2 DUP3 SWAP2 DUP3 PUSH2 0x620 JUMP JUMPDEST CALLVALUE PUSH2 0x24F JUMPI PUSH2 0x681 CALLDATASIZE PUSH1 0x4 PUSH2 0x245 JUMP JUMPDEST PUSH2 0x2A8 PUSH2 0x298 PUSH2 0xF30 JUMP JUMPDEST CALLVALUE PUSH2 0x24F JUMPI PUSH2 0x69C CALLDATASIZE PUSH1 0x4 PUSH2 0x245 JUMP JUMPDEST PUSH2 0x575 PUSH2 0x1166 JUMP JUMPDEST DUP1 PUSH2 0x535 JUMP JUMPDEST SWAP1 POP CALLDATALOAD SWAP1 PUSH2 0x27B DUP3 PUSH2 0x6A4 JUMP JUMPDEST SWAP1 PUSH1 0x20 DUP3 DUP3 SUB SLT PUSH2 0x24F JUMPI PUSH2 0x25E SWAP2 PUSH2 0x6AA JUMP JUMPDEST CALLVALUE PUSH2 0x24F JUMPI PUSH2 0x575 PUSH2 0x6DE CALLDATASIZE PUSH1 0x4 PUSH2 0x6B7 JUMP JUMPDEST PUSH2 0x12DE JUMP JUMPDEST CALLVALUE PUSH2 0x24F JUMPI PUSH2 0x6F3 CALLDATASIZE PUSH1 0x4 PUSH2 0x245 JUMP JUMPDEST PUSH2 0x2A8 PUSH32 0x0 PUSH2 0x665 JUMP JUMPDEST CALLVALUE PUSH2 0x24F JUMPI PUSH2 0x72C CALLDATASIZE PUSH1 0x4 PUSH2 0x245 JUMP JUMPDEST PUSH2 0x575 PUSH2 0x12E7 JUMP JUMPDEST CALLVALUE PUSH2 0x24F JUMPI PUSH2 0x2A8 PUSH2 0x298 PUSH2 0x74A CALLDATASIZE PUSH1 0x4 PUSH2 0x6B7 JUMP JUMPDEST PUSH2 0x154B JUMP JUMPDEST CALLVALUE PUSH2 0x24F JUMPI PUSH2 0x2A8 PUSH2 0x298 PUSH2 0x765 CALLDATASIZE PUSH1 0x4 PUSH2 0x6B7 JUMP JUMPDEST PUSH2 0x17C3 JUMP JUMPDEST CALLVALUE PUSH2 0x24F JUMPI PUSH2 0x77A CALLDATASIZE PUSH1 0x4 PUSH2 0x245 JUMP JUMPDEST PUSH2 0x2A8 PUSH2 0x298 PUSH2 0x1986 JUMP JUMPDEST CALLVALUE PUSH2 0x24F JUMPI PUSH2 0x795 CALLDATASIZE PUSH1 0x4 PUSH2 0x245 JUMP JUMPDEST PUSH2 0x2A8 PUSH32 0x0 PUSH2 0x3D8 JUMP JUMPDEST PUSH2 0x25E PUSH1 0x12 PUSH2 0x398 JUMP JUMPDEST PUSH2 0x25E PUSH2 0x7BE JUMP JUMPDEST CALLVALUE PUSH2 0x24F JUMPI PUSH2 0x7E0 CALLDATASIZE PUSH1 0x4 PUSH2 0x245 JUMP JUMPDEST PUSH2 0x2A8 PUSH2 0x3D8 PUSH2 0x7C8 JUMP JUMPDEST CALLVALUE PUSH2 0x24F JUMPI PUSH2 0x7FB CALLDATASIZE PUSH1 0x4 PUSH2 0x245 JUMP JUMPDEST PUSH2 0x2A8 PUSH32 0x0 PUSH2 0x3D8 JUMP JUMPDEST PUSH2 0x25E PUSH3 0x15180 PUSH2 0x2E5 JUMP JUMPDEST PUSH2 0x25E PUSH2 0x824 JUMP JUMPDEST CALLVALUE PUSH2 0x24F JUMPI PUSH2 0x848 CALLDATASIZE PUSH1 0x4 PUSH2 0x245 JUMP JUMPDEST PUSH2 0x2A8 PUSH2 0x298 PUSH2 0x830 JUMP JUMPDEST PUSH2 0x25E PUSH0 PUSH1 0x3 PUSH2 0x261 JUMP JUMPDEST CALLVALUE PUSH2 0x24F JUMPI PUSH2 0x86E CALLDATASIZE PUSH1 0x4 PUSH2 0x245 JUMP JUMPDEST PUSH2 0x2A8 PUSH2 0x298 PUSH2 0x853 JUMP JUMPDEST CALLVALUE PUSH2 0x24F JUMPI PUSH2 0x889 CALLDATASIZE PUSH1 0x4 PUSH2 0x245 JUMP JUMPDEST PUSH2 0x2A8 PUSH32 0x0 PUSH2 0x3D8 JUMP JUMPDEST CALLVALUE PUSH2 0x24F JUMPI PUSH2 0x8C2 CALLDATASIZE PUSH1 0x4 PUSH2 0x245 JUMP JUMPDEST PUSH2 0x2A8 PUSH32 0x0 PUSH2 0x517 JUMP JUMPDEST PUSH2 0x25E PUSH0 DUP1 PUSH2 0x261 JUMP JUMPDEST CALLVALUE PUSH2 0x24F JUMPI PUSH2 0x905 CALLDATASIZE PUSH1 0x4 PUSH2 0x245 JUMP JUMPDEST PUSH2 0x2A8 PUSH2 0x298 PUSH2 0x8EB JUMP JUMPDEST CALLVALUE PUSH2 0x24F JUMPI PUSH2 0x920 CALLDATASIZE PUSH1 0x4 PUSH2 0x245 JUMP JUMPDEST PUSH2 0x2A8 PUSH32 0x0 PUSH2 0x665 JUMP JUMPDEST CALLVALUE PUSH2 0x24F JUMPI PUSH2 0x959 CALLDATASIZE PUSH1 0x4 PUSH2 0x245 JUMP JUMPDEST PUSH2 0x2A8 PUSH32 0x0 PUSH2 0x517 JUMP JUMPDEST CALLVALUE PUSH2 0x24F JUMPI PUSH2 0x992 CALLDATASIZE PUSH1 0x4 PUSH2 0x245 JUMP JUMPDEST PUSH2 0x2A8 PUSH32 0x0 PUSH2 0x3D8 JUMP JUMPDEST CALLVALUE PUSH2 0x24F JUMPI PUSH2 0x9CB CALLDATASIZE PUSH1 0x4 PUSH2 0x245 JUMP JUMPDEST PUSH2 0x2A8 PUSH32 0x0 PUSH2 0x298 JUMP JUMPDEST PUSH2 0x25E SWAP1 PUSH2 0x3A5 JUMP JUMPDEST PUSH2 0x25E SWAP1 SLOAD PUSH2 0x9F4 JUMP JUMPDEST PUSH2 0xA0F PUSH2 0xF30 JUMP JUMPDEST PUSH2 0xA18 PUSH0 PUSH2 0x2E5 JUMP JUMPDEST DUP2 EQ PUSH2 0xA34 JUMPI TIMESTAMP LT ISZERO PUSH2 0xA2F JUMPI PUSH2 0x25E PUSH1 0x5 PUSH2 0x9FD JUMP JUMPDEST PUSH1 0x3 SWAP1 JUMP JUMPDEST POP PUSH0 SWAP1 JUMP JUMPDEST PUSH2 0xA62 PUSH32 0x0 PUSH2 0x4AB JUMP JUMPDEST PUSH2 0xA6B CALLER PUSH2 0x4AB JUMP JUMPDEST SUB PUSH2 0xA79 JUMPI PUSH2 0x27B SWAP1 PUSH2 0xB11 JUMP JUMPDEST PUSH4 0x9C867E21 PUSH1 0xE0 SHL PUSH0 SWAP1 DUP2 MSTORE PUSH1 0x4 JUMPDEST SUB PUSH0 REVERT JUMPDEST PUSH4 0x4E487B71 PUSH1 0xE0 SHL PUSH0 MSTORE PUSH1 0x41 PUSH1 0x4 MSTORE PUSH1 0x24 PUSH0 REVERT JUMPDEST SWAP1 PUSH1 0x1F ADD PUSH1 0x1F NOT AND DUP2 ADD SWAP1 DUP2 LT PUSH8 0xFFFFFFFFFFFFFFFF DUP3 GT OR PUSH2 0xAC2 JUMPI PUSH1 0x40 MSTORE JUMP JUMPDEST PUSH2 0xA8C JUMP JUMPDEST SWAP1 POP MLOAD SWAP1 PUSH2 0x27B DUP3 PUSH2 0x6A4 JUMP JUMPDEST SWAP1 PUSH1 0x20 DUP3 DUP3 SUB SLT PUSH2 0x24F JUMPI PUSH2 0x25E SWAP2 PUSH2 0xAC7 JUMP JUMPDEST PUSH1 0x40 MLOAD RETURNDATASIZE PUSH0 DUP3 RETURNDATACOPY RETURNDATASIZE SWAP1 REVERT JUMPDEST SWAP2 PUSH1 0x20 PUSH2 0x27B SWAP3 SWAP5 SWAP4 PUSH2 0xB0D PUSH1 0x40 DUP3 ADD SWAP7 PUSH0 DUP4 ADD SWAP1 PUSH2 0x617 JUMP JUMPDEST ADD MSTORE JUMP JUMPDEST PUSH2 0xB3A PUSH32 0x0 PUSH2 0x523 JUMP JUMPDEST PUSH2 0xB43 DUP3 PUSH2 0x523 JUMP JUMPDEST EQ PUSH2 0xC33 JUMPI DUP1 PUSH2 0xB55 PUSH2 0xB7D SWAP3 PUSH2 0x4C0 JUMP JUMPDEST PUSH1 0x20 PUSH2 0xB60 ADDRESS PUSH2 0x4C0 JUMP JUMPDEST PUSH1 0x40 MLOAD SWAP5 DUP6 SWAP2 DUP3 SWAP2 SWAP1 PUSH4 0x70A08231 PUSH1 0xE0 SHL JUMPDEST DUP4 MSTORE PUSH1 0x4 DUP4 ADD PUSH2 0x620 JUMP JUMPDEST SUB DUP2 DUP5 GAS STATICCALL SWAP2 DUP3 ISZERO PUSH2 0xC2E JUMPI PUSH32 0x8AEC0CE3DADFFACF4B7A963E0FED1FF2E6151B4C95D4A65ACAFA9D1299630402 SWAP4 PUSH0 SWAP4 PUSH2 0xBF9 JUMPI JUMPDEST POP DUP3 PUSH2 0xBDF SWAP2 PUSH32 0x0 SWAP1 PUSH2 0x1AA7 JUMP JUMPDEST PUSH2 0xBF4 PUSH2 0xBEB PUSH1 0x40 MLOAD SWAP1 JUMP JUMPDEST SWAP3 DUP4 SWAP3 DUP4 PUSH2 0xAF3 JUMP JUMPDEST SUB SWAP1 LOG1 JUMP JUMPDEST PUSH2 0xBDF SWAP2 SWAP4 POP PUSH2 0xC20 SWAP1 PUSH1 0x20 RETURNDATASIZE PUSH1 0x20 GT PUSH2 0xC27 JUMPI JUMPDEST PUSH2 0xC18 DUP2 DUP4 PUSH2 0xAA0 JUMP JUMPDEST DUP2 ADD SWAP1 PUSH2 0xAD4 JUMP JUMPDEST SWAP3 SWAP1 PUSH2 0xBB2 JUMP JUMPDEST POP RETURNDATASIZE PUSH2 0xC0E JUMP JUMPDEST PUSH2 0xAE8 JUMP JUMPDEST PUSH4 0xBF27C04F PUSH1 0xE0 SHL PUSH0 SWAP1 DUP2 MSTORE PUSH1 0x4 SWAP1 REVERT JUMPDEST PUSH2 0x27B SWAP1 PUSH2 0xA39 JUMP JUMPDEST PUSH2 0x25E SWAP1 DUP2 JUMP JUMPDEST PUSH2 0x25E SWAP1 SLOAD PUSH2 0xC4D JUMP JUMPDEST PUSH4 0x4E487B71 PUSH1 0xE0 SHL PUSH0 MSTORE PUSH1 0x11 PUSH1 0x4 MSTORE PUSH1 0x24 PUSH0 REVERT JUMPDEST SWAP2 SWAP1 DUP3 ADD DUP1 SWAP3 GT PUSH2 0xC7F JUMPI JUMP JUMPDEST PUSH2 0xC5E JUMP JUMPDEST SWAP1 DUP2 MSTORE PUSH1 0x40 DUP2 ADD SWAP3 SWAP2 PUSH2 0x27B SWAP2 PUSH1 0x20 ADD MSTORE JUMP JUMPDEST SWAP1 PUSH0 NOT SWAP1 JUMPDEST SWAP2 DUP2 NOT AND SWAP2 AND OR SWAP1 JUMP JUMPDEST SWAP1 PUSH2 0xCB6 PUSH2 0x25E PUSH2 0xCBD SWAP3 PUSH2 0x2E5 JUMP JUMPDEST DUP3 SLOAD PUSH2 0xC97 JUMP JUMPDEST SWAP1 SSTORE JUMP JUMPDEST PUSH2 0xCCB PUSH1 0x5 PUSH2 0x9FD JUMP JUMPDEST PUSH2 0xCDD PUSH2 0xCD7 PUSH0 PUSH2 0x345 JUMP JUMPDEST SWAP2 PUSH2 0x345 JUMP JUMPDEST EQ PUSH2 0xF1F JUMPI PUSH32 0x0 PUSH2 0xD0C DUP2 PUSH2 0x4AB JUMP JUMPDEST PUSH2 0xD15 CALLER PUSH2 0x4AB JUMP JUMPDEST EQ ISZERO DUP1 PUSH2 0xEE0 JUMPI JUMPDEST PUSH2 0xECF JUMPI PUSH2 0xD29 PUSH2 0x1986 JUMP JUMPDEST DUP1 PUSH2 0xD33 PUSH0 PUSH2 0x2E5 JUMP JUMPDEST DUP2 EQ PUSH2 0xEBE JUMPI PUSH2 0xD42 SWAP1 PUSH2 0x154B JUMP JUMPDEST SWAP2 DUP3 SWAP1 PUSH2 0xD4E PUSH0 PUSH2 0x2E5 JUMP JUMPDEST DUP5 EQ PUSH2 0xEBE JUMPI PUSH2 0xDAC SWAP4 PUSH32 0x0 SWAP1 PUSH1 0x20 PUSH2 0xD85 DUP4 PUSH2 0x4C0 JUMP JUMPDEST PUSH2 0xD8E ADDRESS PUSH2 0x4C0 JUMP JUMPDEST SWAP1 PUSH2 0xD98 PUSH1 0x40 MLOAD SWAP1 JUMP JUMPDEST SWAP9 DUP10 SWAP3 DUP4 SWAP2 DUP3 SWAP2 PUSH4 0x70A08231 PUSH1 0xE0 SHL PUSH2 0xB72 JUMP JUMPDEST SUB SWAP2 GAS STATICCALL SWAP1 DUP2 ISZERO PUSH2 0xC2E JUMPI PUSH32 0xC83B5086CE94EC8D5A88A9F5FEA4B18A522BB238ED0D2D8ABD959549A80C16B8 SWAP7 PUSH0 SWAP3 PUSH2 0xE9D JUMPI JUMPDEST POP DUP1 DUP3 LT PUSH2 0xE4B JUMPI JUMPDEST POP POP PUSH2 0xE36 SWAP2 DUP4 SWAP2 PUSH2 0xDFC TIMESTAMP PUSH1 0x1 PUSH2 0xCA6 JUMP JUMPDEST PUSH2 0xE19 PUSH2 0xE12 DUP8 PUSH2 0xE0D PUSH1 0x3 PUSH2 0xC54 JUMP JUMPDEST PUSH2 0xC72 JUMP JUMPDEST PUSH1 0x3 PUSH2 0xCA6 JUMP JUMPDEST PUSH2 0xE31 PUSH2 0xE2A DUP5 PUSH2 0xE0D PUSH1 0x4 PUSH2 0xC54 JUMP JUMPDEST PUSH1 0x4 PUSH2 0xCA6 JUMP JUMPDEST PUSH2 0x1AA7 JUMP JUMPDEST PUSH2 0xBF4 PUSH2 0xE42 PUSH1 0x40 MLOAD SWAP1 JUMP JUMPDEST SWAP3 DUP4 SWAP3 DUP4 PUSH2 0xC84 JUMP JUMPDEST DUP2 PUSH2 0xE36 SWAP5 SWAP3 SWAP4 SWAP7 POP PUSH2 0xE93 SWAP6 POP PUSH32 0x521D4EC08EA54943095F5F84755DE8B51E1222628C06DAA159D618C8C5FDA56A SWAP2 PUSH2 0xE87 PUSH2 0xE42 PUSH1 0x40 MLOAD SWAP1 JUMP JUMPDEST SUB SWAP1 LOG1 DUP2 SWAP4 DUP5 SWAP3 PUSH2 0x17C3 JUMP JUMPDEST SWAP5 SWAP2 DUP2 SWAP4 POP PUSH2 0xDE9 JUMP JUMPDEST PUSH2 0xEB7 SWAP2 SWAP3 POP PUSH1 0x20 RETURNDATASIZE PUSH1 0x20 GT PUSH2 0xC27 JUMPI PUSH2 0xC18 DUP2 DUP4 PUSH2 0xAA0 JUMP JUMPDEST SWAP1 PUSH0 PUSH2 0xDE0 JUMP JUMPDEST PUSH4 0x1F2A2005 PUSH1 0xE0 SHL PUSH0 SWAP1 DUP2 MSTORE PUSH1 0x4 SWAP1 REVERT JUMPDEST PUSH4 0x5A06399F PUSH1 0xE1 SHL PUSH0 SWAP1 DUP2 MSTORE PUSH1 0x4 SWAP1 REVERT JUMPDEST POP PUSH2 0xF18 PUSH2 0x25E PUSH2 0xEF1 PUSH1 0x1 PUSH2 0xC54 JUMP JUMPDEST PUSH32 0x0 SWAP1 PUSH2 0xC72 JUMP JUMPDEST TIMESTAMP LT PUSH2 0xD1D JUMP JUMPDEST PUSH4 0x21C4E357 PUSH1 0xE2 SHL PUSH0 SWAP1 DUP2 MSTORE PUSH1 0x4 SWAP1 REVERT JUMPDEST PUSH2 0xF3A PUSH1 0x5 PUSH2 0x9FD JUMP JUMPDEST PUSH2 0xF46 PUSH2 0xCD7 PUSH0 PUSH2 0x345 JUMP JUMPDEST EQ PUSH2 0xFA4 JUMPI PUSH2 0xF55 PUSH1 0x5 PUSH2 0x9FD JUMP JUMPDEST PUSH2 0xF62 PUSH2 0xCD7 PUSH1 0x2 PUSH2 0x345 JUMP JUMPDEST SUB PUSH2 0xF71 JUMPI PUSH2 0x25E PUSH1 0x2 PUSH2 0xC54 JUMP JUMPDEST PUSH2 0x25E PUSH2 0xF7D PUSH0 PUSH2 0xC54 JUMP JUMPDEST PUSH32 0x0 SWAP1 PUSH2 0xC72 JUMP JUMPDEST PUSH2 0x25E PUSH0 PUSH2 0x2E5 JUMP JUMPDEST PUSH2 0xFD6 PUSH32 0x0 PUSH2 0x4AB JUMP JUMPDEST PUSH2 0xFDF CALLER PUSH2 0x4AB JUMP JUMPDEST SUB PUSH2 0xA79 JUMPI PUSH2 0x27B PUSH2 0x100C JUMP JUMPDEST SWAP1 PUSH1 0xFF SWAP1 PUSH2 0xC9C JUMP JUMPDEST SWAP1 PUSH2 0x1005 PUSH2 0x25E PUSH2 0xCBD SWAP3 PUSH2 0x34F JUMP JUMPDEST DUP3 SLOAD PUSH2 0xFEC JUMP JUMPDEST PUSH2 0x1016 PUSH1 0x5 PUSH2 0x9FD JUMP JUMPDEST PUSH2 0x1022 PUSH2 0xCD7 PUSH0 PUSH2 0x345 JUMP JUMPDEST SUB PUSH2 0x1156 JUMPI PUSH2 0x1031 TIMESTAMP PUSH0 PUSH2 0xCA6 JUMP JUMPDEST PUSH2 0x103C TIMESTAMP PUSH1 0x1 PUSH2 0xCA6 JUMP JUMPDEST PUSH2 0x1048 PUSH1 0x1 PUSH1 0x5 PUSH2 0xFF5 JUMP JUMPDEST PUSH2 0x109D PUSH1 0x20 PUSH2 0x1076 PUSH32 0x0 PUSH2 0x4C0 JUMP JUMPDEST PUSH2 0x107F ADDRESS PUSH2 0x4C0 JUMP JUMPDEST SWAP1 PUSH2 0x1089 PUSH1 0x40 MLOAD SWAP1 JUMP JUMPDEST SWAP4 DUP5 SWAP3 DUP4 SWAP2 DUP3 SWAP2 PUSH4 0x70A08231 PUSH1 0xE0 SHL PUSH2 0xB72 JUMP JUMPDEST SUB SWAP2 GAS STATICCALL SWAP1 DUP2 ISZERO PUSH2 0xC2E JUMPI PUSH0 SWAP2 PUSH2 0x1137 JUMPI JUMPDEST POP PUSH2 0x10B9 DUP2 PUSH2 0x17C3 JUMP JUMPDEST PUSH32 0x0 SWAP2 SWAP1 DUP3 SWAP1 PUSH2 0x10E7 JUMP JUMPDEST SWAP2 SWAP1 JUMP JUMPDEST LT PUSH2 0x111F JUMPI POP POP PUSH32 0x5DAA87A0E9463431830481FD4B6E3403442DFB9A12B9C07597E9F61D50B633C8 PUSH2 0x1118 PUSH1 0x40 MLOAD SWAP1 JUMP JUMPDEST DUP1 DUP1 PUSH2 0xBF4 JUMP JUMPDEST PUSH4 0x4787A103 PUSH1 0xE1 SHL PUSH0 SWAP1 DUP2 MSTORE SWAP2 PUSH2 0xA88 SWAP2 PUSH1 0x4 PUSH2 0xC84 JUMP JUMPDEST PUSH2 0x1150 SWAP2 POP PUSH1 0x20 RETURNDATASIZE PUSH1 0x20 GT PUSH2 0xC27 JUMPI PUSH2 0xC18 DUP2 DUP4 PUSH2 0xAA0 JUMP JUMPDEST PUSH0 PUSH2 0x10AF JUMP JUMPDEST PUSH3 0xDC149F PUSH1 0xE4 SHL PUSH0 SWAP1 DUP2 MSTORE PUSH1 0x4 SWAP1 REVERT JUMPDEST PUSH2 0x27B PUSH2 0xFAD JUMP JUMPDEST PUSH2 0x1197 PUSH32 0x0 PUSH2 0x4AB JUMP JUMPDEST PUSH2 0x11A0 CALLER PUSH2 0x4AB JUMP JUMPDEST SUB PUSH2 0xA79 JUMPI PUSH2 0x27B SWAP1 PUSH2 0x11B3 PUSH1 0x5 PUSH2 0x9FD JUMP JUMPDEST SWAP1 PUSH1 0x2 SWAP2 PUSH2 0x11C3 PUSH2 0xCD7 DUP5 PUSH2 0x345 JUMP JUMPDEST EQ PUSH2 0x12CD JUMPI PUSH2 0x11D1 PUSH0 PUSH2 0x2E5 JUMP JUMPDEST DUP2 SUB PUSH2 0x127A JUMPI PUSH2 0x120A PUSH2 0x1204 PUSH32 0x0 TIMESTAMP PUSH2 0xC72 JUMP JUMPDEST DUP4 PUSH2 0xCA6 JUMP JUMPDEST PUSH2 0x1213 DUP3 PUSH2 0xC54 JUMP JUMPDEST PUSH2 0x1225 PUSH2 0x10E3 PUSH2 0x25E PUSH2 0xF7D PUSH0 PUSH2 0xC54 JUMP JUMPDEST GT PUSH2 0x1263 JUMPI POP PUSH2 0xBF4 PUSH2 0x298 DUP3 PUSH2 0x125E PUSH32 0x9A9CAD27A1BDCE3D7CB0602AAF727DFAAD03BA6524D9BCA7B9615867FA6802B4 SWAP5 PUSH1 0x5 PUSH2 0xFF5 JUMP JUMPDEST PUSH2 0xC54 JUMP JUMPDEST PUSH4 0x51FE0483 PUSH1 0xE1 SHL PUSH0 SWAP1 DUP2 MSTORE PUSH1 0x4 SWAP2 SWAP1 SWAP2 MSTORE PUSH1 0x24 SWAP1 REVERT JUMPDEST PUSH2 0x12A7 PUSH2 0x25E PUSH32 0x0 TIMESTAMP PUSH2 0xC72 JUMP JUMPDEST DUP2 LT PUSH2 0x12BC JUMPI PUSH2 0x12B7 DUP2 DUP4 PUSH2 0xCA6 JUMP JUMPDEST PUSH2 0x120A JUMP JUMPDEST PUSH4 0x25C36367 PUSH1 0xE0 SHL PUSH0 SWAP1 DUP2 MSTORE PUSH1 0x4 SWAP1 REVERT JUMPDEST PUSH4 0x2AAA6855 PUSH1 0xE1 SHL PUSH0 SWAP1 DUP2 MSTORE PUSH1 0x4 SWAP1 REVERT JUMPDEST PUSH2 0x27B SWAP1 PUSH2 0x116E JUMP JUMPDEST PUSH2 0x12F1 PUSH1 0x5 PUSH2 0x9FD JUMP JUMPDEST PUSH2 0x12FD PUSH2 0xCD7 PUSH0 PUSH2 0x345 JUMP JUMPDEST SUB PUSH2 0x13F2 JUMPI PUSH2 0x132B PUSH32 0x0 PUSH2 0x4AB JUMP JUMPDEST PUSH2 0x1334 CALLER PUSH2 0x4AB JUMP JUMPDEST SUB PUSH2 0xA79 JUMPI JUMPDEST PUSH32 0x0 PUSH2 0x1369 PUSH1 0x20 PUSH2 0x1076 DUP4 PUSH2 0x4C0 JUMP JUMPDEST SUB SWAP2 GAS STATICCALL DUP1 ISZERO PUSH2 0xC2E JUMPI PUSH32 0x7F221332EE403570BF4D61630B58189EA566FF1635269001E9DF6A890F413DD8 SWAP3 PUSH2 0xBF4 SWAP3 PUSH0 SWAP3 PUSH2 0x13CD JUMPI JUMPDEST POP DUP2 PUSH2 0x298 SWAP2 PUSH32 0x0 SWAP1 PUSH2 0x1AA7 JUMP JUMPDEST PUSH2 0x298 SWAP2 SWAP3 POP PUSH2 0x13EB SWAP1 PUSH1 0x20 RETURNDATASIZE PUSH1 0x20 GT PUSH2 0xC27 JUMPI PUSH2 0xC18 DUP2 DUP4 PUSH2 0xAA0 JUMP JUMPDEST SWAP2 SWAP1 PUSH2 0x13A0 JUMP JUMPDEST PUSH2 0x13FA PUSH2 0xF30 JUMP JUMPDEST PUSH2 0x1423 PUSH32 0x0 PUSH2 0x4AB JUMP JUMPDEST PUSH2 0x142C CALLER PUSH2 0x4AB JUMP JUMPDEST SUB PUSH2 0x1448 JUMPI TIMESTAMP GT PUSH2 0x133A JUMPI PUSH4 0xA33E7099 PUSH1 0xE0 SHL PUSH0 SWAP1 DUP2 MSTORE PUSH1 0x4 SWAP1 REVERT JUMPDEST PUSH2 0x25E PUSH2 0x1476 SWAP2 PUSH32 0x0 SWAP1 PUSH2 0xC72 JUMP JUMPDEST TIMESTAMP GT PUSH2 0x133A JUMPI PUSH4 0x42F54AF PUSH1 0xE0 SHL PUSH0 SWAP1 DUP2 MSTORE PUSH1 0x4 SWAP1 REVERT JUMPDEST PUSH10 0xFFFFFFFFFFFFFFFFFFFF DUP2 AND PUSH2 0x535 JUMP JUMPDEST SWAP1 POP MLOAD SWAP1 PUSH2 0x27B DUP3 PUSH2 0x148D JUMP JUMPDEST SWAP2 SWAP1 PUSH1 0xA0 DUP4 DUP3 SUB SLT PUSH2 0x24F JUMPI PUSH2 0x14C2 DUP2 DUP5 PUSH2 0x149F JUMP JUMPDEST SWAP3 PUSH2 0x14D0 DUP3 PUSH1 0x20 DUP4 ADD PUSH2 0xAC7 JUMP JUMPDEST SWAP3 PUSH2 0x25E PUSH2 0x14E1 DUP5 PUSH1 0x40 DUP6 ADD PUSH2 0xAC7 JUMP JUMPDEST SWAP4 PUSH1 0x80 PUSH2 0x14F1 DUP3 PUSH1 0x60 DUP8 ADD PUSH2 0xAC7 JUMP JUMPDEST SWAP5 ADD PUSH2 0x149F JUMP JUMPDEST PUSH2 0x25E PUSH2 0x25E PUSH2 0x25E SWAP3 PUSH1 0xFF AND SWAP1 JUMP JUMPDEST SWAP2 SWAP1 DUP3 SUB SWAP2 DUP3 GT PUSH2 0xC7F JUMPI JUMP JUMPDEST DUP2 DUP2 MUL SWAP3 SWAP2 DUP2 ISZERO SWAP2 DUP5 DIV EQ OR ISZERO PUSH2 0xC7F JUMPI JUMP JUMPDEST PUSH4 0x4E487B71 PUSH1 0xE0 SHL PUSH0 MSTORE PUSH1 0x12 PUSH1 0x4 MSTORE PUSH1 0x24 PUSH0 REVERT JUMPDEST DUP2 ISZERO PUSH2 0x1546 JUMPI DIV SWAP1 JUMP JUMPDEST PUSH2 0x1528 JUMP JUMPDEST PUSH2 0x1574 PUSH32 0x0 PUSH2 0x4C0 JUMP JUMPDEST PUSH4 0xFEAF968C SWAP2 PUSH1 0xA0 PUSH2 0x1585 PUSH1 0x40 MLOAD SWAP1 JUMP JUMPDEST DUP1 SWAP4 PUSH2 0x1591 DUP7 PUSH1 0xE0 SHL SWAP1 JUMP JUMPDEST DUP3 MSTORE PUSH1 0x4 SWAP1 DUP3 SWAP1 GAS STATICCALL SWAP2 DUP3 ISZERO PUSH2 0xC2E JUMPI PUSH0 SWAP3 PUSH2 0x179F JUMPI JUMPDEST POP PUSH2 0x15B2 PUSH0 PUSH2 0x2E5 JUMP JUMPDEST DUP3 SGT ISZERO PUSH2 0x175B JUMPI PUSH1 0xA0 PUSH2 0x15F4 SWAP4 PUSH2 0x15E8 PUSH32 0x0 PUSH2 0x4C0 JUMP JUMPDEST PUSH1 0x40 MLOAD SWAP6 DUP7 SWAP3 PUSH1 0xE0 SHL SWAP1 JUMP JUMPDEST DUP3 MSTORE PUSH1 0x4 SWAP1 DUP3 SWAP1 GAS STATICCALL SWAP3 DUP4 ISZERO PUSH2 0xC2E JUMPI PUSH0 SWAP4 PUSH2 0x176B JUMPI JUMPDEST POP PUSH2 0x1615 PUSH0 PUSH2 0x2E5 JUMP JUMPDEST DUP4 SGT ISZERO PUSH2 0x175B JUMPI PUSH2 0x25E SWAP3 PUSH2 0x16C2 PUSH2 0x172B SWAP3 PUSH2 0x1726 PUSH2 0x1636 PUSH2 0x1686 SWAP7 PUSH2 0x2E5 JUMP JUMPDEST PUSH2 0x16FC PUSH32 0x0 SWAP2 PUSH2 0x16CD PUSH2 0x16C7 PUSH2 0x167B PUSH2 0x1675 PUSH2 0x166F PUSH2 0x7BE JUMP JUMPDEST SWAP7 PUSH2 0x14F8 JUMP JUMPDEST SWAP6 PUSH2 0x14F8 JUMP JUMPDEST SWAP11 DUP12 DUP1 SWAP7 DUP2 SWAP6 PUSH2 0x1AFD JUMP JUMPDEST PUSH2 0x16C2 PUSH2 0x1691 PUSH2 0x2F2 JUMP JUMPDEST SWAP2 PUSH2 0x16BC PUSH32 0x0 DUP5 PUSH2 0x1508 JUMP JUMPDEST SWAP1 PUSH2 0x1515 JUMP JUMPDEST PUSH2 0x153C JUMP JUMPDEST SWAP8 PUSH2 0x2E5 JUMP JUMPDEST PUSH2 0x16F6 PUSH32 0x0 PUSH2 0x14F8 JUMP JUMPDEST SWAP1 PUSH2 0x1AFD JUMP JUMPDEST SWAP3 PUSH2 0x16F6 PUSH32 0x0 PUSH2 0x14F8 JUMP JUMPDEST PUSH2 0x1515 JUMP JUMPDEST SWAP1 PUSH2 0x1755 PUSH32 0x0 PUSH2 0x14F8 JUMP JUMPDEST SWAP2 PUSH2 0x1AFD JUMP JUMPDEST PUSH3 0xBFC921 PUSH1 0xE0 SHL PUSH0 SWAP1 DUP2 MSTORE PUSH1 0x4 SWAP1 REVERT JUMPDEST PUSH2 0x178E SWAP2 SWAP4 POP PUSH1 0xA0 RETURNDATASIZE PUSH1 0xA0 GT PUSH2 0x1798 JUMPI JUMPDEST PUSH2 0x1786 DUP2 DUP4 PUSH2 0xAA0 JUMP JUMPDEST DUP2 ADD SWAP1 PUSH2 0x14AC JUMP JUMPDEST POP POP POP SWAP3 SWAP1 PUSH2 0x160B JUMP JUMPDEST POP RETURNDATASIZE PUSH2 0x177C JUMP JUMPDEST PUSH2 0x17B9 SWAP2 SWAP3 POP PUSH1 0xA0 RETURNDATASIZE PUSH1 0xA0 GT PUSH2 0x1798 JUMPI PUSH2 0x1786 DUP2 DUP4 PUSH2 0xAA0 JUMP JUMPDEST POP POP POP SWAP2 SWAP1 PUSH2 0x15A8 JUMP JUMPDEST PUSH2 0x17EC PUSH32 0x0 PUSH2 0x4C0 JUMP JUMPDEST PUSH4 0xFEAF968C PUSH1 0xA0 PUSH2 0x17FC PUSH1 0x40 MLOAD SWAP1 JUMP JUMPDEST DUP1 SWAP4 PUSH2 0x1808 DUP5 PUSH1 0xE0 SHL SWAP1 JUMP JUMPDEST DUP3 MSTORE PUSH1 0x4 SWAP1 DUP3 SWAP1 GAS STATICCALL SWAP2 DUP3 ISZERO PUSH2 0xC2E JUMPI PUSH0 SWAP3 PUSH2 0x1962 JUMPI JUMPDEST POP PUSH2 0x1829 PUSH0 PUSH2 0x2E5 JUMP JUMPDEST DUP3 SGT ISZERO PUSH2 0x175B JUMPI PUSH1 0xA0 PUSH2 0x186B SWAP2 PUSH2 0x185F PUSH32 0x0 PUSH2 0x4C0 JUMP JUMPDEST PUSH1 0x40 MLOAD SWAP4 DUP5 SWAP3 PUSH1 0xE0 SHL SWAP1 JUMP JUMPDEST DUP3 MSTORE PUSH1 0x4 SWAP1 DUP3 SWAP1 GAS STATICCALL SWAP1 DUP2 ISZERO PUSH2 0xC2E JUMPI PUSH0 SWAP2 PUSH2 0x1940 JUMPI JUMPDEST POP PUSH2 0x188C PUSH0 PUSH2 0x2E5 JUMP JUMPDEST DUP2 SGT ISZERO PUSH2 0x175B JUMPI PUSH2 0x25E SWAP3 PUSH2 0x16C2 PUSH2 0x1916 SWAP3 PUSH2 0x1726 PUSH2 0x18AD PUSH2 0x1686 SWAP7 PUSH2 0x2E5 JUMP JUMPDEST PUSH2 0x18EC PUSH32 0x0 SWAP2 PUSH2 0x16CD PUSH2 0x18E6 PUSH2 0x167B PUSH2 0x1675 PUSH2 0x166F PUSH2 0x7BE JUMP JUMPDEST SWAP6 PUSH2 0x2E5 JUMP JUMPDEST SWAP5 PUSH2 0x16F6 PUSH32 0x0 PUSH2 0x14F8 JUMP JUMPDEST SWAP1 PUSH2 0x1755 PUSH32 0x0 PUSH2 0x14F8 JUMP JUMPDEST PUSH2 0x1959 SWAP2 POP PUSH1 0xA0 RETURNDATASIZE PUSH1 0xA0 GT PUSH2 0x1798 JUMPI PUSH2 0x1786 DUP2 DUP4 PUSH2 0xAA0 JUMP JUMPDEST POP POP POP SWAP1 PUSH2 0x1882 JUMP JUMPDEST PUSH2 0x197C SWAP2 SWAP3 POP PUSH1 0xA0 RETURNDATASIZE PUSH1 0xA0 GT PUSH2 0x1798 JUMPI PUSH2 0x1786 DUP2 DUP4 PUSH2 0xAA0 JUMP JUMPDEST POP POP POP SWAP2 SWAP1 PUSH2 0x181F JUMP JUMPDEST PUSH0 PUSH2 0x1991 PUSH1 0x3 PUSH2 0xC54 JUMP JUMPDEST PUSH32 0x0 SWAP1 DUP2 GT ISZERO PUSH2 0x1A76 JUMPI PUSH2 0x19C2 PUSH2 0xF30 JUMP JUMPDEST PUSH2 0x19CB PUSH0 PUSH2 0x2E5 JUMP JUMPDEST DUP2 EQ PUSH2 0x1A6A JUMPI PUSH2 0x25E SWAP3 POP DUP1 TIMESTAMP LT ISZERO PUSH2 0x1A2F JUMPI POP PUSH2 0x19F8 PUSH2 0x1A1F SWAP2 PUSH2 0x16BC PUSH2 0x19F2 PUSH0 PUSH2 0xC54 JUMP JUMPDEST TIMESTAMP PUSH2 0x1508 JUMP JUMPDEST PUSH32 0x0 SWAP1 PUSH2 0x153C JUMP JUMPDEST PUSH2 0x1A29 PUSH1 0x3 PUSH2 0xC54 JUMP JUMPDEST SWAP1 PUSH2 0x1508 JUMP JUMPDEST PUSH2 0x1A39 PUSH1 0x5 PUSH2 0x9FD JUMP JUMPDEST PUSH2 0x1A46 PUSH2 0xCD7 PUSH1 0x2 PUSH2 0x345 JUMP JUMPDEST SUB PUSH2 0x1A64 JUMPI PUSH2 0x1A5F SWAP2 PUSH2 0x16BC PUSH2 0x19F8 SWAP3 PUSH2 0x1A29 PUSH0 PUSH2 0xC54 JUMP JUMPDEST PUSH2 0x1A1F JUMP JUMPDEST POP PUSH2 0x1A1F JUMP JUMPDEST POP POP POP PUSH2 0x25E PUSH0 PUSH2 0x2E5 JUMP JUMPDEST POP POP PUSH2 0x25E PUSH0 PUSH2 0x2E5 JUMP JUMPDEST PUSH2 0x1A9A PUSH2 0x1A94 PUSH2 0x25E SWAP3 PUSH4 0xFFFFFFFF AND SWAP1 JUMP JUMPDEST PUSH1 0xE0 SHL SWAP1 JUMP JUMPDEST PUSH1 0x1 PUSH1 0x1 PUSH1 0xE0 SHL SUB NOT AND SWAP1 JUMP JUMPDEST PUSH2 0x1AEA PUSH1 0x4 SWAP3 PUSH2 0x1ADB PUSH2 0x27B SWAP6 PUSH2 0x1AC1 PUSH4 0xA9059CBB PUSH2 0x1A81 JUMP JUMPDEST SWAP3 PUSH2 0x1ACB PUSH1 0x40 MLOAD SWAP1 JUMP JUMPDEST SWAP7 DUP8 SWAP5 PUSH1 0x20 DUP7 ADD SWAP1 DUP2 MSTORE ADD PUSH2 0xAF3 JUMP JUMPDEST PUSH1 0x20 DUP3 ADD DUP2 SUB DUP3 MSTORE SUB DUP4 PUSH2 0xAA0 JUMP JUMPDEST PUSH2 0x1B3E JUMP JUMPDEST PUSH1 0x4D DUP2 GT PUSH2 0xC7F JUMPI PUSH1 0xA EXP SWAP1 JUMP JUMPDEST SWAP1 SWAP2 DUP1 DUP4 EQ PUSH2 0x1B38 JUMPI DUP1 DUP4 GT PUSH2 0x1B22 JUMPI PUSH2 0x1B1D PUSH2 0x25E SWAP4 PUSH2 0x16BC SWAP3 PUSH2 0x1508 JUMP JUMPDEST PUSH2 0x1AEF JUMP JUMPDEST PUSH2 0x1B1D PUSH2 0x1B32 SWAP2 PUSH2 0x25E SWAP5 PUSH2 0x1508 JUMP JUMPDEST SWAP1 PUSH2 0x153C JUMP JUMPDEST POP SWAP1 POP SWAP1 JUMP JUMPDEST SWAP1 PUSH0 PUSH1 0x20 SWAP2 PUSH2 0x1B4A PUSH0 SWAP1 JUMP JUMPDEST POP DUP3 DUP2 MLOAD SWAP2 ADD DUP3 DUP6 GAS CALL ISZERO PUSH2 0xAE8 JUMPI RETURNDATASIZE PUSH0 MLOAD SWAP1 PUSH2 0x1B69 PUSH2 0x10E3 PUSH0 PUSH2 0x2E5 JUMP JUMPDEST SUB PUSH2 0x1BAE JUMPI POP PUSH2 0x1B78 DUP2 PUSH2 0x4C0 JUMP JUMPDEST EXTCODESIZE PUSH2 0x1B85 PUSH2 0x10E3 PUSH0 PUSH2 0x2E5 JUMP JUMPDEST EQ JUMPDEST PUSH2 0x1B8E JUMPI POP JUMP JUMPDEST PUSH2 0xA88 PUSH2 0x1B9B PUSH0 SWAP3 PUSH2 0x4C0 JUMP JUMPDEST PUSH4 0x5274AFE7 PUSH1 0xE0 SHL DUP4 MSTORE PUSH1 0x4 DUP4 ADD PUSH2 0x620 JUMP JUMPDEST PUSH2 0x1BBB PUSH2 0x10E3 PUSH1 0x1 PUSH2 0x2E5 JUMP JUMPDEST EQ ISZERO PUSH2 0x1B87 JUMP INVALID LOG2 PUSH5 0x6970667358 0x22 SLT KECCAK256 0xB9 0xBC PUSH19 0xAF3F9557A386E75FF3464E83A88F088FBC6CFE PUSH5 0x110801FC93 SWAP9 DELEGATECALL 0xE9 0xCE PUSH5 0x736F6C6343 STOP ADDMOD SAR STOP CALLER "
        },
        "methodIdentifiers": {
          "MIN_DECIMALS()": "33d263f2",
          "MIN_DURATION()": "b6a6d177",
          "SCALE_DECIMALS()": "ad9161cc",
          "SLIPPAGE_SCALE()": "24938e9f",
          "calculateNativeAssetAmount(uint256)": "9cfbce51",
          "calculateStreamingAssetAmount(uint256)": "98018b8b",
          "claim()": "4e71d92d",
          "claimCooldown()": "fdea3657",
          "getNativeAssetAmountOwed()": "aa5c9691",
          "getStreamEnd()": "6eb6a820",
          "getStreamState()": "2ae4e931",
          "initialize()": "8129fc1c",
          "lastClaimTimestamp()": "607af397",
          "minimumNoticePeriod()": "414a6279",
          "nativeAssetDecimals()": "f47083bc",
          "nativeAssetOracle()": "efb1ad5d",
          "nativeAssetOracleDecimals()": "b001a482",
          "nativeAssetStreamingAmount()": "3e52531a",
          "nativeAssetSuppliedAmount()": "b7d03c8f",
          "recipient()": "66d003ac",
          "rescueToken(address)": "4460d3cf",
          "returnAddress()": "943640c3",
          "slippage()": "3e032a3b",
          "startTimestamp()": "e6fd48bc",
          "streamCreator()": "ef4a57d1",
          "streamDuration()": "64cbe5f9",
          "streamingAsset()": "41f1d3c1",
          "streamingAssetClaimedAmount()": "4aca04a8",
          "streamingAssetDecimals()": "ab579f45",
          "streamingAssetOracle()": "e5945ad7",
          "streamingAssetOracleDecimals()": "c797af7e",
          "sweepCooldown()": "14e853b5",
          "sweepRemaining()": "95098763",
          "terminateStream(uint256)": "9049a1e3",
          "terminationTimestamp()": "0bbfc833"
        }
      }
    }
  }
}