{
  "contracts-exposed/$_/@openzeppelin/contracts/token/ERC20/utils/SafeERC20.sol": {
    "$SafeERC20": {
      "abi": [
        {
          "inputs": [],
          "stateMutability": "payable",
          "type": "constructor"
        },
        {
          "inputs": [
            {
              "internalType": "address",
              "name": "spender",
              "type": "address"
            },
            {
              "internalType": "uint256",
              "name": "currentAllowance",
              "type": "uint256"
            },
            {
              "internalType": "uint256",
              "name": "requestedDecrease",
              "type": "uint256"
            }
          ],
          "name": "SafeERC20FailedDecreaseAllowance",
          "type": "error"
        },
        {
          "inputs": [
            {
              "internalType": "address",
              "name": "token",
              "type": "address"
            }
          ],
          "name": "SafeERC20FailedOperation",
          "type": "error"
        },
        {
          "anonymous": false,
          "inputs": [
            {
              "indexed": false,
              "internalType": "bool",
              "name": "ret0",
              "type": "bool"
            }
          ],
          "name": "return$trySafeTransfer",
          "type": "event"
        },
        {
          "anonymous": false,
          "inputs": [
            {
              "indexed": false,
              "internalType": "bool",
              "name": "ret0",
              "type": "bool"
            }
          ],
          "name": "return$trySafeTransferFrom",
          "type": "event"
        },
        {
          "inputs": [
            {
              "internalType": "contract IERC1363",
              "name": "token",
              "type": "address"
            },
            {
              "internalType": "address",
              "name": "to",
              "type": "address"
            },
            {
              "internalType": "uint256",
              "name": "value",
              "type": "uint256"
            },
            {
              "internalType": "bytes",
              "name": "data",
              "type": "bytes"
            }
          ],
          "name": "$approveAndCallRelaxed",
          "outputs": [],
          "stateMutability": "payable",
          "type": "function"
        },
        {
          "inputs": [
            {
              "internalType": "contract IERC20",
              "name": "token",
              "type": "address"
            },
            {
              "internalType": "address",
              "name": "spender",
              "type": "address"
            },
            {
              "internalType": "uint256",
              "name": "value",
              "type": "uint256"
            }
          ],
          "name": "$forceApprove",
          "outputs": [],
          "stateMutability": "payable",
          "type": "function"
        },
        {
          "inputs": [
            {
              "internalType": "contract IERC20",
              "name": "token",
              "type": "address"
            },
            {
              "internalType": "address",
              "name": "spender",
              "type": "address"
            },
            {
              "internalType": "uint256",
              "name": "requestedDecrease",
              "type": "uint256"
            }
          ],
          "name": "$safeDecreaseAllowance",
          "outputs": [],
          "stateMutability": "payable",
          "type": "function"
        },
        {
          "inputs": [
            {
              "internalType": "contract IERC20",
              "name": "token",
              "type": "address"
            },
            {
              "internalType": "address",
              "name": "spender",
              "type": "address"
            },
            {
              "internalType": "uint256",
              "name": "value",
              "type": "uint256"
            }
          ],
          "name": "$safeIncreaseAllowance",
          "outputs": [],
          "stateMutability": "payable",
          "type": "function"
        },
        {
          "inputs": [
            {
              "internalType": "contract IERC20",
              "name": "token",
              "type": "address"
            },
            {
              "internalType": "address",
              "name": "to",
              "type": "address"
            },
            {
              "internalType": "uint256",
              "name": "value",
              "type": "uint256"
            }
          ],
          "name": "$safeTransfer",
          "outputs": [],
          "stateMutability": "payable",
          "type": "function"
        },
        {
          "inputs": [
            {
              "internalType": "contract IERC20",
              "name": "token",
              "type": "address"
            },
            {
              "internalType": "address",
              "name": "from",
              "type": "address"
            },
            {
              "internalType": "address",
              "name": "to",
              "type": "address"
            },
            {
              "internalType": "uint256",
              "name": "value",
              "type": "uint256"
            }
          ],
          "name": "$safeTransferFrom",
          "outputs": [],
          "stateMutability": "payable",
          "type": "function"
        },
        {
          "inputs": [
            {
              "internalType": "contract IERC1363",
              "name": "token",
              "type": "address"
            },
            {
              "internalType": "address",
              "name": "to",
              "type": "address"
            },
            {
              "internalType": "uint256",
              "name": "value",
              "type": "uint256"
            },
            {
              "internalType": "bytes",
              "name": "data",
              "type": "bytes"
            }
          ],
          "name": "$transferAndCallRelaxed",
          "outputs": [],
          "stateMutability": "payable",
          "type": "function"
        },
        {
          "inputs": [
            {
              "internalType": "contract IERC1363",
              "name": "token",
              "type": "address"
            },
            {
              "internalType": "address",
              "name": "from",
              "type": "address"
            },
            {
              "internalType": "address",
              "name": "to",
              "type": "address"
            },
            {
              "internalType": "uint256",
              "name": "value",
              "type": "uint256"
            },
            {
              "internalType": "bytes",
              "name": "data",
              "type": "bytes"
            }
          ],
          "name": "$transferFromAndCallRelaxed",
          "outputs": [],
          "stateMutability": "payable",
          "type": "function"
        },
        {
          "inputs": [
            {
              "internalType": "contract IERC20",
              "name": "token",
              "type": "address"
            },
            {
              "internalType": "address",
              "name": "to",
              "type": "address"
            },
            {
              "internalType": "uint256",
              "name": "value",
              "type": "uint256"
            }
          ],
          "name": "$trySafeTransfer",
          "outputs": [
            {
              "internalType": "bool",
              "name": "ret0",
              "type": "bool"
            }
          ],
          "stateMutability": "payable",
          "type": "function"
        },
        {
          "inputs": [
            {
              "internalType": "contract IERC20",
              "name": "token",
              "type": "address"
            },
            {
              "internalType": "address",
              "name": "from",
              "type": "address"
            },
            {
              "internalType": "address",
              "name": "to",
              "type": "address"
            },
            {
              "internalType": "uint256",
              "name": "value",
              "type": "uint256"
            }
          ],
          "name": "$trySafeTransferFrom",
          "outputs": [
            {
              "internalType": "bool",
              "name": "ret0",
              "type": "bool"
            }
          ],
          "stateMutability": "payable",
          "type": "function"
        },
        {
          "inputs": [],
          "name": "__hh_exposed_bytecode_marker",
          "outputs": [
            {
              "internalType": "bytes32",
              "name": "",
              "type": "bytes32"
            }
          ],
          "stateMutability": "view",
          "type": "function"
        },
        {
          "stateMutability": "payable",
          "type": "receive"
        }
      ],
      "evm": {
        "bytecode": {
          "linkReferences": {},
          "object": "60806040819052610c936100158239610c9390f3fe6080604052600436101561001a575b3615610018575f80fd5b005b5f3560e01c806329b3dfeb146100c9578063342db739146100c457806341fe424e146100bf5780635e12330a146100ba5780636bec7603146100b55780637359698e146100b05780637da4e8da146100ab5780637e96cc48146100a657806395b47960146100a1578063a76fec851461009c5763cea9cc130361000e57610398565b610321565b61030d565b6102f6565b6102e2565b6102cb565b6102b7565b6102a0565b6101ef565b61018d565b610161565b6001600160a01b031690565b90565b6001600160a01b0381165b036100ef57565b5f80fd5b90503590610100826100dd565b565b6001600160a01b0381166100e8565b9050359061010082610102565b806100e8565b905035906101008261011e565b90916060828403126100ef576100da61014a84846100f3565b93604061015a8260208701610111565b9401610124565b61017561016f366004610131565b916103b2565b60405180805b0390f35b5f9103126100ef57565b9052565b346100ef5761019d36600461017f565b6040516e1a185c991a185d0b595e1c1bdcd959608a1b8152602090f35b6080818303126100ef576101ce82826100f3565b926100da6101df8460208501610111565b93606061015a8260408701610111565b61017b6102096102003660046101ba565b929190916103bd565b6040515b91829182901515815260200190565b909182601f830112156100ef5781359167ffffffffffffffff83116100ef5760200192600183028401116100ef57565b906080828203126100ef5761026181836100f3565b9261026f8260208501610111565b9261027d8360408301610124565b92606082013567ffffffffffffffff81116100ef5761029c920161021c565b9091565b6101756102ae36600461024c565b939290926104b2565b6101756102c5366004610131565b916104c6565b6101756102d93660046101ba565b929190916104d1565b6101756102f0366004610131565b916104dd565b61017561030436600461024c565b939290926104e8565b61017561031b366004610131565b916104fc565b61017b610209610332366004610131565b91610507565b91909160a0818403126100ef5761034f83826100f3565b9261035d8160208401610111565b9261036b8260408501610111565b926103798360608301610124565b92608082013567ffffffffffffffff81116100ef5761029c920161021c565b6101756103a6366004610338565b94939093929192610541565b9061010092916105d3565b6103c9939291906106e9565b907ff34ca15f8557b904c7c527a801a09a817acc04d37059bc9c959a874f380a5bca6103f88361020d60405190565b0390a1565b634e487b7160e01b5f52604160045260245ffd5b90601f01601f1916810190811067ffffffffffffffff82111761043357604052565b6103fd565b9061010061044560405190565b9283610411565b67ffffffffffffffff811161043357602090601f01601f19160190565b0190565b90825f939282370152565b9092919261048d6104888261044c565b610438565b93818552818301116100ef5761010091602085019061046d565b6100da913691610478565b92610100946104c0916104a7565b926107df565b9061010092916108c9565b90610100939291610902565b906101009291610944565b92610100946104f6916104a7565b92610993565b906101009291610a0f565b610512929190610aaf565b907f25e6ead769c4046c46d7581c440232488936e5195d919e4b7201e0928b2c6a386103f88361020d60405190565b936101009561054f916104a7565b93610b02565b6100da906100ce906001600160a01b031682565b6100da90610555565b6100da90610569565b905051906101008261011e565b906020828203126100ef576100da9161057b565b6040513d5f823e3d90fd5b6001600160a01b0390911681526060810193926101009290916040916105cf905b6020830152565b0152565b909291926106256020826105e685610572565b6105ef30610572565b60405180958194829361060663dd62ed3e60e01b90565b84526001600160a01b0390811660048501521660248301526044820190565b03915afa90811561069a575f9161066b575b5084811061064d57929361010093035b91610a0f565b63e570110f60e01b5f9081529161066791869160046105a7565b035ffd5b61068d915060203d602011610693575b6106858183610411565b810190610588565b5f610637565b503d61067b565b61059c565b6106b86106b26100da9263ffffffff1690565b60e01b90565b6001600160e01b03191690565b6001600160a01b039182168152911660208201526060810192916101009160400152565b90610736906107276100da956004956106ff5f90565b5061070d6323b872dd61069f565b9361071760405190565b97889560208701908152016106c5565b60208201810382520383610411565b610b5c565b6100da6100da6100da9290565b8015156100e8565b9050519061010082610748565b906020828203126100ef576100da91610750565b90825f9392825e0152565b61079d6107a660209361046993610791815190565b80835293849260200190565b95869101610771565b601f01601f191690565b6107d26100da9492936105c860608401955f8501906001600160a01b03169052565b604081840391015261077c565b9092833b6107f36107ef5f61073b565b9190565b0361080b57509161080661010093610572565b6108c9565b91610817602092610572565b9361083d61082460405190565b9485938493630200057560e51b5b8552600485016107b0565b03815f865af1801561069a57610858915f9161087f57501590565b61085f5750565b635274afe760e01b5f9081526001600160a01b039091166004526024035ffd5b6108a1915060203d6020116108a5575b6108998183610411565b81019061075d565b1590565b503d61088f565b6001600160a01b0390911681526040810192916101009160200152565b6108fd600492610727610100956108e363a9059cbb61069f565b926108ed60405190565b96879460208601908152016108ac565b610bcd565b906108fd906107276101009560049561070d6323b872dd61069f565b634e487b7160e01b5f52601160045260245ffd5b9190820180921161093f57565b61091e565b906109546020826105e685610572565b03915afa93841561069a5761010094610647925f91610974575b50610932565b61098d915060203d602011610693576106858183610411565b5f61096e565b9092833b6109a36107ef5f61073b565b036109bb5750916109b661010093610572565b610a0f565b916109c7602092610572565b9361083d6109d460405190565b948593849363cae9ca5160e01b610832565b6101899061073b565b6001600160a01b03909116815260408101929161010091602001906109e6565b610a4091610a4f610a2363095ea7b361069f565b94610a2d60405190565b948591846004602085018a8152016108ac565b60208201810382520384610411565b610a5c6108a18484610b5c565b610a67575b50505050565b6004610aa0610aa695610a915f6108fd95610a8160405190565b95869460208601908152016109ef565b60208201810382520382610411565b82610bcd565b5f808080610a61565b6107366004926107276100da95610ac35f90565b506108e363a9059cbb61069f565b6001600160a01b0391821681529116602082015260408101919091526080606082018190526100da9291019061077c565b9093823b610b126107ef5f61073b565b03610b2a575092610b2561010094610572565b610902565b9361083d610b3a60209493610572565b95610b4460405190565b958694859463c1d34b8960e01b865260048601610ad1565b905f602091610b685f90565b50828151910182855af15f5190913d83610b83575b50505090565b90919250610b936107ef5f61073b565b03610bb957610ba29150610572565b3b610baf6107ef5f61073b565b115b5f8080610b7d565b50610bc76107ef600161073b565b14610bb1565b905f602091610bd95f90565b50828151910182855af11561059c573d5f5190610bf86107ef5f61073b565b03610c495750610c0781610572565b3b610c146107ef5f61073b565b145b610c1d5750565b610667610c2a5f92610572565b635274afe760e01b83526001600160a01b031660048301526024820190565b610c566107ef600161073b565b1415610c1656fea2646970667358221220c691e44ffb7ac00d7eb05e711b87489f253ef147d255b989bcb50265f1caaf8664736f6c634300081d0033",
          "opcodes": "PUSH1 0x80 PUSH1 0x40 DUP2 SWAP1 MSTORE PUSH2 0xC93 PUSH2 0x15 DUP3 CODECOPY PUSH2 0xC93 SWAP1 RETURN INVALID PUSH1 0x80 PUSH1 0x40 MSTORE PUSH1 0x4 CALLDATASIZE LT ISZERO PUSH2 0x1A JUMPI JUMPDEST CALLDATASIZE ISZERO PUSH2 0x18 JUMPI PUSH0 DUP1 REVERT JUMPDEST STOP JUMPDEST PUSH0 CALLDATALOAD PUSH1 0xE0 SHR DUP1 PUSH4 0x29B3DFEB EQ PUSH2 0xC9 JUMPI DUP1 PUSH4 0x342DB739 EQ PUSH2 0xC4 JUMPI DUP1 PUSH4 0x41FE424E EQ PUSH2 0xBF JUMPI DUP1 PUSH4 0x5E12330A EQ PUSH2 0xBA JUMPI DUP1 PUSH4 0x6BEC7603 EQ PUSH2 0xB5 JUMPI DUP1 PUSH4 0x7359698E EQ PUSH2 0xB0 JUMPI DUP1 PUSH4 0x7DA4E8DA EQ PUSH2 0xAB JUMPI DUP1 PUSH4 0x7E96CC48 EQ PUSH2 0xA6 JUMPI DUP1 PUSH4 0x95B47960 EQ PUSH2 0xA1 JUMPI DUP1 PUSH4 0xA76FEC85 EQ PUSH2 0x9C JUMPI PUSH4 0xCEA9CC13 SUB PUSH2 0xE JUMPI PUSH2 0x398 JUMP JUMPDEST PUSH2 0x321 JUMP JUMPDEST PUSH2 0x30D JUMP JUMPDEST PUSH2 0x2F6 JUMP JUMPDEST PUSH2 0x2E2 JUMP JUMPDEST PUSH2 0x2CB JUMP JUMPDEST PUSH2 0x2B7 JUMP JUMPDEST PUSH2 0x2A0 JUMP JUMPDEST PUSH2 0x1EF JUMP JUMPDEST PUSH2 0x18D JUMP JUMPDEST PUSH2 0x161 JUMP JUMPDEST PUSH1 0x1 PUSH1 0x1 PUSH1 0xA0 SHL SUB AND SWAP1 JUMP JUMPDEST SWAP1 JUMP JUMPDEST PUSH1 0x1 PUSH1 0x1 PUSH1 0xA0 SHL SUB DUP2 AND JUMPDEST SUB PUSH2 0xEF JUMPI JUMP JUMPDEST PUSH0 DUP1 REVERT JUMPDEST SWAP1 POP CALLDATALOAD SWAP1 PUSH2 0x100 DUP3 PUSH2 0xDD JUMP JUMPDEST JUMP JUMPDEST PUSH1 0x1 PUSH1 0x1 PUSH1 0xA0 SHL SUB DUP2 AND PUSH2 0xE8 JUMP JUMPDEST SWAP1 POP CALLDATALOAD SWAP1 PUSH2 0x100 DUP3 PUSH2 0x102 JUMP JUMPDEST DUP1 PUSH2 0xE8 JUMP JUMPDEST SWAP1 POP CALLDATALOAD SWAP1 PUSH2 0x100 DUP3 PUSH2 0x11E JUMP JUMPDEST SWAP1 SWAP2 PUSH1 0x60 DUP3 DUP5 SUB SLT PUSH2 0xEF JUMPI PUSH2 0xDA PUSH2 0x14A DUP5 DUP5 PUSH2 0xF3 JUMP JUMPDEST SWAP4 PUSH1 0x40 PUSH2 0x15A DUP3 PUSH1 0x20 DUP8 ADD PUSH2 0x111 JUMP JUMPDEST SWAP5 ADD PUSH2 0x124 JUMP JUMPDEST PUSH2 0x175 PUSH2 0x16F CALLDATASIZE PUSH1 0x4 PUSH2 0x131 JUMP JUMPDEST SWAP2 PUSH2 0x3B2 JUMP JUMPDEST PUSH1 0x40 MLOAD DUP1 DUP1 JUMPDEST SUB SWAP1 RETURN JUMPDEST PUSH0 SWAP2 SUB SLT PUSH2 0xEF JUMPI JUMP JUMPDEST SWAP1 MSTORE JUMP JUMPDEST CALLVALUE PUSH2 0xEF JUMPI PUSH2 0x19D CALLDATASIZE PUSH1 0x4 PUSH2 0x17F JUMP JUMPDEST PUSH1 0x40 MLOAD PUSH15 0x1A185C991A185D0B595E1C1BDCD959 PUSH1 0x8A SHL DUP2 MSTORE PUSH1 0x20 SWAP1 RETURN JUMPDEST PUSH1 0x80 DUP2 DUP4 SUB SLT PUSH2 0xEF JUMPI PUSH2 0x1CE DUP3 DUP3 PUSH2 0xF3 JUMP JUMPDEST SWAP3 PUSH2 0xDA PUSH2 0x1DF DUP5 PUSH1 0x20 DUP6 ADD PUSH2 0x111 JUMP JUMPDEST SWAP4 PUSH1 0x60 PUSH2 0x15A DUP3 PUSH1 0x40 DUP8 ADD PUSH2 0x111 JUMP JUMPDEST PUSH2 0x17B PUSH2 0x209 PUSH2 0x200 CALLDATASIZE PUSH1 0x4 PUSH2 0x1BA JUMP JUMPDEST SWAP3 SWAP2 SWAP1 SWAP2 PUSH2 0x3BD JUMP JUMPDEST PUSH1 0x40 MLOAD JUMPDEST SWAP2 DUP3 SWAP2 DUP3 SWAP1 ISZERO ISZERO DUP2 MSTORE PUSH1 0x20 ADD SWAP1 JUMP JUMPDEST SWAP1 SWAP2 DUP3 PUSH1 0x1F DUP4 ADD SLT ISZERO PUSH2 0xEF JUMPI DUP2 CALLDATALOAD SWAP2 PUSH8 0xFFFFFFFFFFFFFFFF DUP4 GT PUSH2 0xEF JUMPI PUSH1 0x20 ADD SWAP3 PUSH1 0x1 DUP4 MUL DUP5 ADD GT PUSH2 0xEF JUMPI JUMP JUMPDEST SWAP1 PUSH1 0x80 DUP3 DUP3 SUB SLT PUSH2 0xEF JUMPI PUSH2 0x261 DUP2 DUP4 PUSH2 0xF3 JUMP JUMPDEST SWAP3 PUSH2 0x26F DUP3 PUSH1 0x20 DUP6 ADD PUSH2 0x111 JUMP JUMPDEST SWAP3 PUSH2 0x27D DUP4 PUSH1 0x40 DUP4 ADD PUSH2 0x124 JUMP JUMPDEST SWAP3 PUSH1 0x60 DUP3 ADD CALLDATALOAD PUSH8 0xFFFFFFFFFFFFFFFF DUP2 GT PUSH2 0xEF JUMPI PUSH2 0x29C SWAP3 ADD PUSH2 0x21C JUMP JUMPDEST SWAP1 SWAP2 JUMP JUMPDEST PUSH2 0x175 PUSH2 0x2AE CALLDATASIZE PUSH1 0x4 PUSH2 0x24C JUMP JUMPDEST SWAP4 SWAP3 SWAP1 SWAP3 PUSH2 0x4B2 JUMP JUMPDEST PUSH2 0x175 PUSH2 0x2C5 CALLDATASIZE PUSH1 0x4 PUSH2 0x131 JUMP JUMPDEST SWAP2 PUSH2 0x4C6 JUMP JUMPDEST PUSH2 0x175 PUSH2 0x2D9 CALLDATASIZE PUSH1 0x4 PUSH2 0x1BA JUMP JUMPDEST SWAP3 SWAP2 SWAP1 SWAP2 PUSH2 0x4D1 JUMP JUMPDEST PUSH2 0x175 PUSH2 0x2F0 CALLDATASIZE PUSH1 0x4 PUSH2 0x131 JUMP JUMPDEST SWAP2 PUSH2 0x4DD JUMP JUMPDEST PUSH2 0x175 PUSH2 0x304 CALLDATASIZE PUSH1 0x4 PUSH2 0x24C JUMP JUMPDEST SWAP4 SWAP3 SWAP1 SWAP3 PUSH2 0x4E8 JUMP JUMPDEST PUSH2 0x175 PUSH2 0x31B CALLDATASIZE PUSH1 0x4 PUSH2 0x131 JUMP JUMPDEST SWAP2 PUSH2 0x4FC JUMP JUMPDEST PUSH2 0x17B PUSH2 0x209 PUSH2 0x332 CALLDATASIZE PUSH1 0x4 PUSH2 0x131 JUMP JUMPDEST SWAP2 PUSH2 0x507 JUMP JUMPDEST SWAP2 SWAP1 SWAP2 PUSH1 0xA0 DUP2 DUP5 SUB SLT PUSH2 0xEF JUMPI PUSH2 0x34F DUP4 DUP3 PUSH2 0xF3 JUMP JUMPDEST SWAP3 PUSH2 0x35D DUP2 PUSH1 0x20 DUP5 ADD PUSH2 0x111 JUMP JUMPDEST SWAP3 PUSH2 0x36B DUP3 PUSH1 0x40 DUP6 ADD PUSH2 0x111 JUMP JUMPDEST SWAP3 PUSH2 0x379 DUP4 PUSH1 0x60 DUP4 ADD PUSH2 0x124 JUMP JUMPDEST SWAP3 PUSH1 0x80 DUP3 ADD CALLDATALOAD PUSH8 0xFFFFFFFFFFFFFFFF DUP2 GT PUSH2 0xEF JUMPI PUSH2 0x29C SWAP3 ADD PUSH2 0x21C JUMP JUMPDEST PUSH2 0x175 PUSH2 0x3A6 CALLDATASIZE PUSH1 0x4 PUSH2 0x338 JUMP JUMPDEST SWAP5 SWAP4 SWAP1 SWAP4 SWAP3 SWAP2 SWAP3 PUSH2 0x541 JUMP JUMPDEST SWAP1 PUSH2 0x100 SWAP3 SWAP2 PUSH2 0x5D3 JUMP JUMPDEST PUSH2 0x3C9 SWAP4 SWAP3 SWAP2 SWAP1 PUSH2 0x6E9 JUMP JUMPDEST SWAP1 PUSH32 0xF34CA15F8557B904C7C527A801A09A817ACC04D37059BC9C959A874F380A5BCA PUSH2 0x3F8 DUP4 PUSH2 0x20D PUSH1 0x40 MLOAD SWAP1 JUMP JUMPDEST SUB SWAP1 LOG1 JUMP JUMPDEST PUSH4 0x4E487B71 PUSH1 0xE0 SHL PUSH0 MSTORE PUSH1 0x41 PUSH1 0x4 MSTORE PUSH1 0x24 PUSH0 REVERT JUMPDEST SWAP1 PUSH1 0x1F ADD PUSH1 0x1F NOT AND DUP2 ADD SWAP1 DUP2 LT PUSH8 0xFFFFFFFFFFFFFFFF DUP3 GT OR PUSH2 0x433 JUMPI PUSH1 0x40 MSTORE JUMP JUMPDEST PUSH2 0x3FD JUMP JUMPDEST SWAP1 PUSH2 0x100 PUSH2 0x445 PUSH1 0x40 MLOAD SWAP1 JUMP JUMPDEST SWAP3 DUP4 PUSH2 0x411 JUMP JUMPDEST PUSH8 0xFFFFFFFFFFFFFFFF DUP2 GT PUSH2 0x433 JUMPI PUSH1 0x20 SWAP1 PUSH1 0x1F ADD PUSH1 0x1F NOT AND ADD SWAP1 JUMP JUMPDEST ADD SWAP1 JUMP JUMPDEST SWAP1 DUP3 PUSH0 SWAP4 SWAP3 DUP3 CALLDATACOPY ADD MSTORE JUMP JUMPDEST SWAP1 SWAP3 SWAP2 SWAP3 PUSH2 0x48D PUSH2 0x488 DUP3 PUSH2 0x44C JUMP JUMPDEST PUSH2 0x438 JUMP JUMPDEST SWAP4 DUP2 DUP6 MSTORE DUP2 DUP4 ADD GT PUSH2 0xEF JUMPI PUSH2 0x100 SWAP2 PUSH1 0x20 DUP6 ADD SWAP1 PUSH2 0x46D JUMP JUMPDEST PUSH2 0xDA SWAP2 CALLDATASIZE SWAP2 PUSH2 0x478 JUMP JUMPDEST SWAP3 PUSH2 0x100 SWAP5 PUSH2 0x4C0 SWAP2 PUSH2 0x4A7 JUMP JUMPDEST SWAP3 PUSH2 0x7DF JUMP JUMPDEST SWAP1 PUSH2 0x100 SWAP3 SWAP2 PUSH2 0x8C9 JUMP JUMPDEST SWAP1 PUSH2 0x100 SWAP4 SWAP3 SWAP2 PUSH2 0x902 JUMP JUMPDEST SWAP1 PUSH2 0x100 SWAP3 SWAP2 PUSH2 0x944 JUMP JUMPDEST SWAP3 PUSH2 0x100 SWAP5 PUSH2 0x4F6 SWAP2 PUSH2 0x4A7 JUMP JUMPDEST SWAP3 PUSH2 0x993 JUMP JUMPDEST SWAP1 PUSH2 0x100 SWAP3 SWAP2 PUSH2 0xA0F JUMP JUMPDEST PUSH2 0x512 SWAP3 SWAP2 SWAP1 PUSH2 0xAAF JUMP JUMPDEST SWAP1 PUSH32 0x25E6EAD769C4046C46D7581C440232488936E5195D919E4B7201E0928B2C6A38 PUSH2 0x3F8 DUP4 PUSH2 0x20D PUSH1 0x40 MLOAD SWAP1 JUMP JUMPDEST SWAP4 PUSH2 0x100 SWAP6 PUSH2 0x54F SWAP2 PUSH2 0x4A7 JUMP JUMPDEST SWAP4 PUSH2 0xB02 JUMP JUMPDEST PUSH2 0xDA SWAP1 PUSH2 0xCE SWAP1 PUSH1 0x1 PUSH1 0x1 PUSH1 0xA0 SHL SUB AND DUP3 JUMP JUMPDEST PUSH2 0xDA SWAP1 PUSH2 0x555 JUMP JUMPDEST PUSH2 0xDA SWAP1 PUSH2 0x569 JUMP JUMPDEST SWAP1 POP MLOAD SWAP1 PUSH2 0x100 DUP3 PUSH2 0x11E JUMP JUMPDEST SWAP1 PUSH1 0x20 DUP3 DUP3 SUB SLT PUSH2 0xEF JUMPI PUSH2 0xDA SWAP2 PUSH2 0x57B JUMP JUMPDEST PUSH1 0x40 MLOAD RETURNDATASIZE PUSH0 DUP3 RETURNDATACOPY RETURNDATASIZE SWAP1 REVERT JUMPDEST PUSH1 0x1 PUSH1 0x1 PUSH1 0xA0 SHL SUB SWAP1 SWAP2 AND DUP2 MSTORE PUSH1 0x60 DUP2 ADD SWAP4 SWAP3 PUSH2 0x100 SWAP3 SWAP1 SWAP2 PUSH1 0x40 SWAP2 PUSH2 0x5CF SWAP1 JUMPDEST PUSH1 0x20 DUP4 ADD MSTORE JUMP JUMPDEST ADD MSTORE JUMP JUMPDEST SWAP1 SWAP3 SWAP2 SWAP3 PUSH2 0x625 PUSH1 0x20 DUP3 PUSH2 0x5E6 DUP6 PUSH2 0x572 JUMP JUMPDEST PUSH2 0x5EF ADDRESS PUSH2 0x572 JUMP JUMPDEST PUSH1 0x40 MLOAD DUP1 SWAP6 DUP2 SWAP5 DUP3 SWAP4 PUSH2 0x606 PUSH4 0xDD62ED3E PUSH1 0xE0 SHL SWAP1 JUMP JUMPDEST DUP5 MSTORE PUSH1 0x1 PUSH1 0x1 PUSH1 0xA0 SHL SUB SWAP1 DUP2 AND PUSH1 0x4 DUP6 ADD MSTORE AND PUSH1 0x24 DUP4 ADD MSTORE PUSH1 0x44 DUP3 ADD SWAP1 JUMP JUMPDEST SUB SWAP2 GAS STATICCALL SWAP1 DUP2 ISZERO PUSH2 0x69A JUMPI PUSH0 SWAP2 PUSH2 0x66B JUMPI JUMPDEST POP DUP5 DUP2 LT PUSH2 0x64D JUMPI SWAP3 SWAP4 PUSH2 0x100 SWAP4 SUB JUMPDEST SWAP2 PUSH2 0xA0F JUMP JUMPDEST PUSH4 0xE570110F PUSH1 0xE0 SHL PUSH0 SWAP1 DUP2 MSTORE SWAP2 PUSH2 0x667 SWAP2 DUP7 SWAP2 PUSH1 0x4 PUSH2 0x5A7 JUMP JUMPDEST SUB PUSH0 REVERT JUMPDEST PUSH2 0x68D SWAP2 POP PUSH1 0x20 RETURNDATASIZE PUSH1 0x20 GT PUSH2 0x693 JUMPI JUMPDEST PUSH2 0x685 DUP2 DUP4 PUSH2 0x411 JUMP JUMPDEST DUP2 ADD SWAP1 PUSH2 0x588 JUMP JUMPDEST PUSH0 PUSH2 0x637 JUMP JUMPDEST POP RETURNDATASIZE PUSH2 0x67B JUMP JUMPDEST PUSH2 0x59C JUMP JUMPDEST PUSH2 0x6B8 PUSH2 0x6B2 PUSH2 0xDA SWAP3 PUSH4 0xFFFFFFFF AND SWAP1 JUMP JUMPDEST PUSH1 0xE0 SHL SWAP1 JUMP JUMPDEST PUSH1 0x1 PUSH1 0x1 PUSH1 0xE0 SHL SUB NOT AND SWAP1 JUMP JUMPDEST PUSH1 0x1 PUSH1 0x1 PUSH1 0xA0 SHL SUB SWAP2 DUP3 AND DUP2 MSTORE SWAP2 AND PUSH1 0x20 DUP3 ADD MSTORE PUSH1 0x60 DUP2 ADD SWAP3 SWAP2 PUSH2 0x100 SWAP2 PUSH1 0x40 ADD MSTORE JUMP JUMPDEST SWAP1 PUSH2 0x736 SWAP1 PUSH2 0x727 PUSH2 0xDA SWAP6 PUSH1 0x4 SWAP6 PUSH2 0x6FF PUSH0 SWAP1 JUMP JUMPDEST POP PUSH2 0x70D PUSH4 0x23B872DD PUSH2 0x69F JUMP JUMPDEST SWAP4 PUSH2 0x717 PUSH1 0x40 MLOAD SWAP1 JUMP JUMPDEST SWAP8 DUP9 SWAP6 PUSH1 0x20 DUP8 ADD SWAP1 DUP2 MSTORE ADD PUSH2 0x6C5 JUMP JUMPDEST PUSH1 0x20 DUP3 ADD DUP2 SUB DUP3 MSTORE SUB DUP4 PUSH2 0x411 JUMP JUMPDEST PUSH2 0xB5C JUMP JUMPDEST PUSH2 0xDA PUSH2 0xDA PUSH2 0xDA SWAP3 SWAP1 JUMP JUMPDEST DUP1 ISZERO ISZERO PUSH2 0xE8 JUMP JUMPDEST SWAP1 POP MLOAD SWAP1 PUSH2 0x100 DUP3 PUSH2 0x748 JUMP JUMPDEST SWAP1 PUSH1 0x20 DUP3 DUP3 SUB SLT PUSH2 0xEF JUMPI PUSH2 0xDA SWAP2 PUSH2 0x750 JUMP JUMPDEST SWAP1 DUP3 PUSH0 SWAP4 SWAP3 DUP3 MCOPY ADD MSTORE JUMP JUMPDEST PUSH2 0x79D PUSH2 0x7A6 PUSH1 0x20 SWAP4 PUSH2 0x469 SWAP4 PUSH2 0x791 DUP2 MLOAD SWAP1 JUMP JUMPDEST DUP1 DUP4 MSTORE SWAP4 DUP5 SWAP3 PUSH1 0x20 ADD SWAP1 JUMP JUMPDEST SWAP6 DUP7 SWAP2 ADD PUSH2 0x771 JUMP JUMPDEST PUSH1 0x1F ADD PUSH1 0x1F NOT AND SWAP1 JUMP JUMPDEST PUSH2 0x7D2 PUSH2 0xDA SWAP5 SWAP3 SWAP4 PUSH2 0x5C8 PUSH1 0x60 DUP5 ADD SWAP6 PUSH0 DUP6 ADD SWAP1 PUSH1 0x1 PUSH1 0x1 PUSH1 0xA0 SHL SUB AND SWAP1 MSTORE JUMP JUMPDEST PUSH1 0x40 DUP2 DUP5 SUB SWAP2 ADD MSTORE PUSH2 0x77C JUMP JUMPDEST SWAP1 SWAP3 DUP4 EXTCODESIZE PUSH2 0x7F3 PUSH2 0x7EF PUSH0 PUSH2 0x73B JUMP JUMPDEST SWAP2 SWAP1 JUMP JUMPDEST SUB PUSH2 0x80B JUMPI POP SWAP2 PUSH2 0x806 PUSH2 0x100 SWAP4 PUSH2 0x572 JUMP JUMPDEST PUSH2 0x8C9 JUMP JUMPDEST SWAP2 PUSH2 0x817 PUSH1 0x20 SWAP3 PUSH2 0x572 JUMP JUMPDEST SWAP4 PUSH2 0x83D PUSH2 0x824 PUSH1 0x40 MLOAD SWAP1 JUMP JUMPDEST SWAP5 DUP6 SWAP4 DUP5 SWAP4 PUSH4 0x2000575 PUSH1 0xE5 SHL JUMPDEST DUP6 MSTORE PUSH1 0x4 DUP6 ADD PUSH2 0x7B0 JUMP JUMPDEST SUB DUP2 PUSH0 DUP7 GAS CALL DUP1 ISZERO PUSH2 0x69A JUMPI PUSH2 0x858 SWAP2 PUSH0 SWAP2 PUSH2 0x87F JUMPI POP ISZERO SWAP1 JUMP JUMPDEST PUSH2 0x85F JUMPI POP JUMP JUMPDEST PUSH4 0x5274AFE7 PUSH1 0xE0 SHL PUSH0 SWAP1 DUP2 MSTORE PUSH1 0x1 PUSH1 0x1 PUSH1 0xA0 SHL SUB SWAP1 SWAP2 AND PUSH1 0x4 MSTORE PUSH1 0x24 SUB PUSH0 REVERT JUMPDEST PUSH2 0x8A1 SWAP2 POP PUSH1 0x20 RETURNDATASIZE PUSH1 0x20 GT PUSH2 0x8A5 JUMPI JUMPDEST PUSH2 0x899 DUP2 DUP4 PUSH2 0x411 JUMP JUMPDEST DUP2 ADD SWAP1 PUSH2 0x75D JUMP JUMPDEST ISZERO SWAP1 JUMP JUMPDEST POP RETURNDATASIZE PUSH2 0x88F JUMP JUMPDEST PUSH1 0x1 PUSH1 0x1 PUSH1 0xA0 SHL SUB SWAP1 SWAP2 AND DUP2 MSTORE PUSH1 0x40 DUP2 ADD SWAP3 SWAP2 PUSH2 0x100 SWAP2 PUSH1 0x20 ADD MSTORE JUMP JUMPDEST PUSH2 0x8FD PUSH1 0x4 SWAP3 PUSH2 0x727 PUSH2 0x100 SWAP6 PUSH2 0x8E3 PUSH4 0xA9059CBB PUSH2 0x69F JUMP JUMPDEST SWAP3 PUSH2 0x8ED PUSH1 0x40 MLOAD SWAP1 JUMP JUMPDEST SWAP7 DUP8 SWAP5 PUSH1 0x20 DUP7 ADD SWAP1 DUP2 MSTORE ADD PUSH2 0x8AC JUMP JUMPDEST PUSH2 0xBCD JUMP JUMPDEST SWAP1 PUSH2 0x8FD SWAP1 PUSH2 0x727 PUSH2 0x100 SWAP6 PUSH1 0x4 SWAP6 PUSH2 0x70D PUSH4 0x23B872DD PUSH2 0x69F JUMP JUMPDEST PUSH4 0x4E487B71 PUSH1 0xE0 SHL PUSH0 MSTORE PUSH1 0x11 PUSH1 0x4 MSTORE PUSH1 0x24 PUSH0 REVERT JUMPDEST SWAP2 SWAP1 DUP3 ADD DUP1 SWAP3 GT PUSH2 0x93F JUMPI JUMP JUMPDEST PUSH2 0x91E JUMP JUMPDEST SWAP1 PUSH2 0x954 PUSH1 0x20 DUP3 PUSH2 0x5E6 DUP6 PUSH2 0x572 JUMP JUMPDEST SUB SWAP2 GAS STATICCALL SWAP4 DUP5 ISZERO PUSH2 0x69A JUMPI PUSH2 0x100 SWAP5 PUSH2 0x647 SWAP3 PUSH0 SWAP2 PUSH2 0x974 JUMPI JUMPDEST POP PUSH2 0x932 JUMP JUMPDEST PUSH2 0x98D SWAP2 POP PUSH1 0x20 RETURNDATASIZE PUSH1 0x20 GT PUSH2 0x693 JUMPI PUSH2 0x685 DUP2 DUP4 PUSH2 0x411 JUMP JUMPDEST PUSH0 PUSH2 0x96E JUMP JUMPDEST SWAP1 SWAP3 DUP4 EXTCODESIZE PUSH2 0x9A3 PUSH2 0x7EF PUSH0 PUSH2 0x73B JUMP JUMPDEST SUB PUSH2 0x9BB JUMPI POP SWAP2 PUSH2 0x9B6 PUSH2 0x100 SWAP4 PUSH2 0x572 JUMP JUMPDEST PUSH2 0xA0F JUMP JUMPDEST SWAP2 PUSH2 0x9C7 PUSH1 0x20 SWAP3 PUSH2 0x572 JUMP JUMPDEST SWAP4 PUSH2 0x83D PUSH2 0x9D4 PUSH1 0x40 MLOAD SWAP1 JUMP JUMPDEST SWAP5 DUP6 SWAP4 DUP5 SWAP4 PUSH4 0xCAE9CA51 PUSH1 0xE0 SHL PUSH2 0x832 JUMP JUMPDEST PUSH2 0x189 SWAP1 PUSH2 0x73B JUMP JUMPDEST PUSH1 0x1 PUSH1 0x1 PUSH1 0xA0 SHL SUB SWAP1 SWAP2 AND DUP2 MSTORE PUSH1 0x40 DUP2 ADD SWAP3 SWAP2 PUSH2 0x100 SWAP2 PUSH1 0x20 ADD SWAP1 PUSH2 0x9E6 JUMP JUMPDEST PUSH2 0xA40 SWAP2 PUSH2 0xA4F PUSH2 0xA23 PUSH4 0x95EA7B3 PUSH2 0x69F JUMP JUMPDEST SWAP5 PUSH2 0xA2D PUSH1 0x40 MLOAD SWAP1 JUMP JUMPDEST SWAP5 DUP6 SWAP2 DUP5 PUSH1 0x4 PUSH1 0x20 DUP6 ADD DUP11 DUP2 MSTORE ADD PUSH2 0x8AC JUMP JUMPDEST PUSH1 0x20 DUP3 ADD DUP2 SUB DUP3 MSTORE SUB DUP5 PUSH2 0x411 JUMP JUMPDEST PUSH2 0xA5C PUSH2 0x8A1 DUP5 DUP5 PUSH2 0xB5C JUMP JUMPDEST PUSH2 0xA67 JUMPI JUMPDEST POP POP POP POP JUMP JUMPDEST PUSH1 0x4 PUSH2 0xAA0 PUSH2 0xAA6 SWAP6 PUSH2 0xA91 PUSH0 PUSH2 0x8FD SWAP6 PUSH2 0xA81 PUSH1 0x40 MLOAD SWAP1 JUMP JUMPDEST SWAP6 DUP7 SWAP5 PUSH1 0x20 DUP7 ADD SWAP1 DUP2 MSTORE ADD PUSH2 0x9EF JUMP JUMPDEST PUSH1 0x20 DUP3 ADD DUP2 SUB DUP3 MSTORE SUB DUP3 PUSH2 0x411 JUMP JUMPDEST DUP3 PUSH2 0xBCD JUMP JUMPDEST PUSH0 DUP1 DUP1 DUP1 PUSH2 0xA61 JUMP JUMPDEST PUSH2 0x736 PUSH1 0x4 SWAP3 PUSH2 0x727 PUSH2 0xDA SWAP6 PUSH2 0xAC3 PUSH0 SWAP1 JUMP JUMPDEST POP PUSH2 0x8E3 PUSH4 0xA9059CBB PUSH2 0x69F JUMP JUMPDEST PUSH1 0x1 PUSH1 0x1 PUSH1 0xA0 SHL SUB SWAP2 DUP3 AND DUP2 MSTORE SWAP2 AND PUSH1 0x20 DUP3 ADD MSTORE PUSH1 0x40 DUP2 ADD SWAP2 SWAP1 SWAP2 MSTORE PUSH1 0x80 PUSH1 0x60 DUP3 ADD DUP2 SWAP1 MSTORE PUSH2 0xDA SWAP3 SWAP2 ADD SWAP1 PUSH2 0x77C JUMP JUMPDEST SWAP1 SWAP4 DUP3 EXTCODESIZE PUSH2 0xB12 PUSH2 0x7EF PUSH0 PUSH2 0x73B JUMP JUMPDEST SUB PUSH2 0xB2A JUMPI POP SWAP3 PUSH2 0xB25 PUSH2 0x100 SWAP5 PUSH2 0x572 JUMP JUMPDEST PUSH2 0x902 JUMP JUMPDEST SWAP4 PUSH2 0x83D PUSH2 0xB3A PUSH1 0x20 SWAP5 SWAP4 PUSH2 0x572 JUMP JUMPDEST SWAP6 PUSH2 0xB44 PUSH1 0x40 MLOAD SWAP1 JUMP JUMPDEST SWAP6 DUP7 SWAP5 DUP6 SWAP5 PUSH4 0xC1D34B89 PUSH1 0xE0 SHL DUP7 MSTORE PUSH1 0x4 DUP7 ADD PUSH2 0xAD1 JUMP JUMPDEST SWAP1 PUSH0 PUSH1 0x20 SWAP2 PUSH2 0xB68 PUSH0 SWAP1 JUMP JUMPDEST POP DUP3 DUP2 MLOAD SWAP2 ADD DUP3 DUP6 GAS CALL PUSH0 MLOAD SWAP1 SWAP2 RETURNDATASIZE DUP4 PUSH2 0xB83 JUMPI JUMPDEST POP POP POP SWAP1 JUMP JUMPDEST SWAP1 SWAP2 SWAP3 POP PUSH2 0xB93 PUSH2 0x7EF PUSH0 PUSH2 0x73B JUMP JUMPDEST SUB PUSH2 0xBB9 JUMPI PUSH2 0xBA2 SWAP2 POP PUSH2 0x572 JUMP JUMPDEST EXTCODESIZE PUSH2 0xBAF PUSH2 0x7EF PUSH0 PUSH2 0x73B JUMP JUMPDEST GT JUMPDEST PUSH0 DUP1 DUP1 PUSH2 0xB7D JUMP JUMPDEST POP PUSH2 0xBC7 PUSH2 0x7EF PUSH1 0x1 PUSH2 0x73B JUMP JUMPDEST EQ PUSH2 0xBB1 JUMP JUMPDEST SWAP1 PUSH0 PUSH1 0x20 SWAP2 PUSH2 0xBD9 PUSH0 SWAP1 JUMP JUMPDEST POP DUP3 DUP2 MLOAD SWAP2 ADD DUP3 DUP6 GAS CALL ISZERO PUSH2 0x59C JUMPI RETURNDATASIZE PUSH0 MLOAD SWAP1 PUSH2 0xBF8 PUSH2 0x7EF PUSH0 PUSH2 0x73B JUMP JUMPDEST SUB PUSH2 0xC49 JUMPI POP PUSH2 0xC07 DUP2 PUSH2 0x572 JUMP JUMPDEST EXTCODESIZE PUSH2 0xC14 PUSH2 0x7EF PUSH0 PUSH2 0x73B JUMP JUMPDEST EQ JUMPDEST PUSH2 0xC1D JUMPI POP JUMP JUMPDEST PUSH2 0x667 PUSH2 0xC2A PUSH0 SWAP3 PUSH2 0x572 JUMP JUMPDEST PUSH4 0x5274AFE7 PUSH1 0xE0 SHL DUP4 MSTORE PUSH1 0x1 PUSH1 0x1 PUSH1 0xA0 SHL SUB AND PUSH1 0x4 DUP4 ADD MSTORE PUSH1 0x24 DUP3 ADD SWAP1 JUMP JUMPDEST PUSH2 0xC56 PUSH2 0x7EF PUSH1 0x1 PUSH2 0x73B JUMP JUMPDEST EQ ISZERO PUSH2 0xC16 JUMP INVALID LOG2 PUSH5 0x6970667358 0x22 SLT KECCAK256 0xC6 SWAP2 RETF 0x4F EXTSTATICCALL PUSH27 0xC00D7EB05E711B87489F253EF147D255B989BCB50265F1CAAF8664 PUSH20 0x6F6C634300081D00330000000000000000000000 "
        },
        "methodIdentifiers": {
          "$approveAndCallRelaxed(address,address,uint256,bytes)": "7e96cc48",
          "$forceApprove(address,address,uint256)": "95b47960",
          "$safeDecreaseAllowance(address,address,uint256)": "29b3dfeb",
          "$safeIncreaseAllowance(address,address,uint256)": "7da4e8da",
          "$safeTransfer(address,address,uint256)": "6bec7603",
          "$safeTransferFrom(address,address,address,uint256)": "7359698e",
          "$transferAndCallRelaxed(address,address,uint256,bytes)": "5e12330a",
          "$transferFromAndCallRelaxed(address,address,address,uint256,bytes)": "cea9cc13",
          "$trySafeTransfer(address,address,uint256)": "a76fec85",
          "$trySafeTransferFrom(address,address,address,uint256)": "41fe424e",
          "__hh_exposed_bytecode_marker()": "342db739"
        }
      }
    }
  }
}