{
  "contracts-exposed/Streamer.sol": {
    "$Streamer": {
      "abi": [
        {
          "inputs": [
            {
              "internalType": "contract IERC20",
              "name": "_streamingAsset",
              "type": "address"
            },
            {
              "internalType": "contract AggregatorV3Interface",
              "name": "_streamingAssetOracle",
              "type": "address"
            },
            {
              "internalType": "contract AggregatorV3Interface",
              "name": "_nativeAssetOracle",
              "type": "address"
            },
            {
              "internalType": "address",
              "name": "_returnAddress",
              "type": "address"
            },
            {
              "internalType": "address",
              "name": "_streamCreator",
              "type": "address"
            },
            {
              "internalType": "address",
              "name": "_recipient",
              "type": "address"
            },
            {
              "internalType": "uint8",
              "name": "_streamingAssetDecimals",
              "type": "uint8"
            },
            {
              "internalType": "uint8",
              "name": "_nativeAssetDecimals",
              "type": "uint8"
            },
            {
              "internalType": "uint256",
              "name": "_nativeAssetStreamingAmount",
              "type": "uint256"
            },
            {
              "internalType": "uint256",
              "name": "_slippage",
              "type": "uint256"
            },
            {
              "internalType": "uint256",
              "name": "_claimCooldown",
              "type": "uint256"
            },
            {
              "internalType": "uint256",
              "name": "_sweepCooldown",
              "type": "uint256"
            },
            {
              "internalType": "uint256",
              "name": "_streamDuration",
              "type": "uint256"
            },
            {
              "internalType": "uint256",
              "name": "_minimumNoticePeriod",
              "type": "uint256"
            }
          ],
          "stateMutability": "payable",
          "type": "constructor"
        },
        {
          "inputs": [],
          "name": "AlreadyInitialized",
          "type": "error"
        },
        {
          "inputs": [],
          "name": "AlreadyTerminated",
          "type": "error"
        },
        {
          "inputs": [],
          "name": "CantRescueStreamingAsset",
          "type": "error"
        },
        {
          "inputs": [],
          "name": "CreatorCannotSweepYet",
          "type": "error"
        },
        {
          "inputs": [],
          "name": "DecimalsNotInBounds",
          "type": "error"
        },
        {
          "inputs": [],
          "name": "DurationTooShort",
          "type": "error"
        },
        {
          "inputs": [],
          "name": "InvalidPrice",
          "type": "error"
        },
        {
          "inputs": [
            {
              "internalType": "uint256",
              "name": "balance",
              "type": "uint256"
            },
            {
              "internalType": "uint256",
              "name": "streamingAmount",
              "type": "uint256"
            }
          ],
          "name": "NotEnoughBalance",
          "type": "error"
        },
        {
          "inputs": [],
          "name": "NotInitialized",
          "type": "error"
        },
        {
          "inputs": [],
          "name": "NotReceiver",
          "type": "error"
        },
        {
          "inputs": [],
          "name": "NotStreamCreator",
          "type": "error"
        },
        {
          "inputs": [],
          "name": "NoticePeriodExceedsStreamDuration",
          "type": "error"
        },
        {
          "inputs": [
            {
              "internalType": "address",
              "name": "token",
              "type": "address"
            }
          ],
          "name": "SafeERC20FailedOperation",
          "type": "error"
        },
        {
          "inputs": [],
          "name": "SlippageExceedsScaleFactor",
          "type": "error"
        },
        {
          "inputs": [],
          "name": "StreamNotFinished",
          "type": "error"
        },
        {
          "inputs": [],
          "name": "StreamingAmountTooLow",
          "type": "error"
        },
        {
          "inputs": [],
          "name": "SweepCooldownNotPassed",
          "type": "error"
        },
        {
          "inputs": [
            {
              "internalType": "uint256",
              "name": "terminationTimestamp",
              "type": "uint256"
            }
          ],
          "name": "TerminationIsAfterStream",
          "type": "error"
        },
        {
          "inputs": [],
          "name": "ZeroAddress",
          "type": "error"
        },
        {
          "inputs": [],
          "name": "ZeroAmount",
          "type": "error"
        },
        {
          "anonymous": false,
          "inputs": [
            {
              "indexed": false,
              "internalType": "uint256",
              "name": "streamingAssetAmount",
              "type": "uint256"
            },
            {
              "indexed": false,
              "internalType": "uint256",
              "name": "nativeAssetAmount",
              "type": "uint256"
            }
          ],
          "name": "Claimed",
          "type": "event"
        },
        {
          "anonymous": false,
          "inputs": [],
          "name": "Initialized",
          "type": "event"
        },
        {
          "anonymous": false,
          "inputs": [
            {
              "indexed": false,
              "internalType": "uint256",
              "name": "balanceRequired",
              "type": "uint256"
            },
            {
              "indexed": false,
              "internalType": "uint256",
              "name": "balance",
              "type": "uint256"
            }
          ],
          "name": "InsufficientAssetBalance",
          "type": "event"
        },
        {
          "anonymous": false,
          "inputs": [
            {
              "indexed": false,
              "internalType": "address",
              "name": "token",
              "type": "address"
            },
            {
              "indexed": false,
              "internalType": "uint256",
              "name": "balance",
              "type": "uint256"
            }
          ],
          "name": "Rescued",
          "type": "event"
        },
        {
          "anonymous": false,
          "inputs": [
            {
              "indexed": false,
              "internalType": "uint256",
              "name": "amount",
              "type": "uint256"
            }
          ],
          "name": "Swept",
          "type": "event"
        },
        {
          "anonymous": false,
          "inputs": [
            {
              "indexed": false,
              "internalType": "uint256",
              "name": "terminationTimestamp",
              "type": "uint256"
            }
          ],
          "name": "Terminated",
          "type": "event"
        },
        {
          "inputs": [],
          "name": "$onlyStreamCreator",
          "outputs": [],
          "stateMutability": "payable",
          "type": "function"
        },
        {
          "inputs": [
            {
              "internalType": "uint256",
              "name": "amount",
              "type": "uint256"
            },
            {
              "internalType": "uint256",
              "name": "fromDecimals",
              "type": "uint256"
            },
            {
              "internalType": "uint256",
              "name": "toDecimals",
              "type": "uint256"
            }
          ],
          "name": "$scaleAmount",
          "outputs": [
            {
              "internalType": "uint256",
              "name": "ret0",
              "type": "uint256"
            }
          ],
          "stateMutability": "pure",
          "type": "function"
        },
        {
          "inputs": [],
          "name": "MIN_DECIMALS",
          "outputs": [
            {
              "internalType": "uint8",
              "name": "",
              "type": "uint8"
            }
          ],
          "stateMutability": "view",
          "type": "function"
        },
        {
          "inputs": [],
          "name": "MIN_DURATION",
          "outputs": [
            {
              "internalType": "uint256",
              "name": "",
              "type": "uint256"
            }
          ],
          "stateMutability": "view",
          "type": "function"
        },
        {
          "inputs": [],
          "name": "SCALE_DECIMALS",
          "outputs": [
            {
              "internalType": "uint8",
              "name": "",
              "type": "uint8"
            }
          ],
          "stateMutability": "view",
          "type": "function"
        },
        {
          "inputs": [],
          "name": "SLIPPAGE_SCALE",
          "outputs": [
            {
              "internalType": "uint256",
              "name": "",
              "type": "uint256"
            }
          ],
          "stateMutability": "view",
          "type": "function"
        },
        {
          "inputs": [],
          "name": "__hh_exposed_bytecode_marker",
          "outputs": [
            {
              "internalType": "bytes32",
              "name": "",
              "type": "bytes32"
            }
          ],
          "stateMutability": "view",
          "type": "function"
        },
        {
          "inputs": [
            {
              "internalType": "uint256",
              "name": "streamingAssetAmount",
              "type": "uint256"
            }
          ],
          "name": "calculateNativeAssetAmount",
          "outputs": [
            {
              "internalType": "uint256",
              "name": "",
              "type": "uint256"
            }
          ],
          "stateMutability": "view",
          "type": "function"
        },
        {
          "inputs": [
            {
              "internalType": "uint256",
              "name": "nativeAssetAmount",
              "type": "uint256"
            }
          ],
          "name": "calculateStreamingAssetAmount",
          "outputs": [
            {
              "internalType": "uint256",
              "name": "",
              "type": "uint256"
            }
          ],
          "stateMutability": "view",
          "type": "function"
        },
        {
          "inputs": [],
          "name": "claim",
          "outputs": [],
          "stateMutability": "nonpayable",
          "type": "function"
        },
        {
          "inputs": [],
          "name": "claimCooldown",
          "outputs": [
            {
              "internalType": "uint256",
              "name": "",
              "type": "uint256"
            }
          ],
          "stateMutability": "view",
          "type": "function"
        },
        {
          "inputs": [],
          "name": "getNativeAssetAmountOwed",
          "outputs": [
            {
              "internalType": "uint256",
              "name": "",
              "type": "uint256"
            }
          ],
          "stateMutability": "view",
          "type": "function"
        },
        {
          "inputs": [],
          "name": "getStreamEnd",
          "outputs": [
            {
              "internalType": "uint256",
              "name": "",
              "type": "uint256"
            }
          ],
          "stateMutability": "view",
          "type": "function"
        },
        {
          "inputs": [],
          "name": "getStreamState",
          "outputs": [
            {
              "internalType": "enum StreamState",
              "name": "",
              "type": "uint8"
            }
          ],
          "stateMutability": "view",
          "type": "function"
        },
        {
          "inputs": [],
          "name": "initialize",
          "outputs": [],
          "stateMutability": "nonpayable",
          "type": "function"
        },
        {
          "inputs": [],
          "name": "lastClaimTimestamp",
          "outputs": [
            {
              "internalType": "uint256",
              "name": "",
              "type": "uint256"
            }
          ],
          "stateMutability": "view",
          "type": "function"
        },
        {
          "inputs": [],
          "name": "minimumNoticePeriod",
          "outputs": [
            {
              "internalType": "uint256",
              "name": "",
              "type": "uint256"
            }
          ],
          "stateMutability": "view",
          "type": "function"
        },
        {
          "inputs": [],
          "name": "nativeAssetDecimals",
          "outputs": [
            {
              "internalType": "uint8",
              "name": "",
              "type": "uint8"
            }
          ],
          "stateMutability": "view",
          "type": "function"
        },
        {
          "inputs": [],
          "name": "nativeAssetOracle",
          "outputs": [
            {
              "internalType": "contract AggregatorV3Interface",
              "name": "",
              "type": "address"
            }
          ],
          "stateMutability": "view",
          "type": "function"
        },
        {
          "inputs": [],
          "name": "nativeAssetOracleDecimals",
          "outputs": [
            {
              "internalType": "uint8",
              "name": "",
              "type": "uint8"
            }
          ],
          "stateMutability": "view",
          "type": "function"
        },
        {
          "inputs": [],
          "name": "nativeAssetStreamingAmount",
          "outputs": [
            {
              "internalType": "uint256",
              "name": "",
              "type": "uint256"
            }
          ],
          "stateMutability": "view",
          "type": "function"
        },
        {
          "inputs": [],
          "name": "nativeAssetSuppliedAmount",
          "outputs": [
            {
              "internalType": "uint256",
              "name": "",
              "type": "uint256"
            }
          ],
          "stateMutability": "view",
          "type": "function"
        },
        {
          "inputs": [],
          "name": "recipient",
          "outputs": [
            {
              "internalType": "address",
              "name": "",
              "type": "address"
            }
          ],
          "stateMutability": "view",
          "type": "function"
        },
        {
          "inputs": [
            {
              "internalType": "contract IERC20",
              "name": "token",
              "type": "address"
            }
          ],
          "name": "rescueToken",
          "outputs": [],
          "stateMutability": "nonpayable",
          "type": "function"
        },
        {
          "inputs": [],
          "name": "returnAddress",
          "outputs": [
            {
              "internalType": "address",
              "name": "",
              "type": "address"
            }
          ],
          "stateMutability": "view",
          "type": "function"
        },
        {
          "inputs": [],
          "name": "slippage",
          "outputs": [
            {
              "internalType": "uint256",
              "name": "",
              "type": "uint256"
            }
          ],
          "stateMutability": "view",
          "type": "function"
        },
        {
          "inputs": [],
          "name": "startTimestamp",
          "outputs": [
            {
              "internalType": "uint256",
              "name": "",
              "type": "uint256"
            }
          ],
          "stateMutability": "view",
          "type": "function"
        },
        {
          "inputs": [],
          "name": "streamCreator",
          "outputs": [
            {
              "internalType": "address",
              "name": "",
              "type": "address"
            }
          ],
          "stateMutability": "view",
          "type": "function"
        },
        {
          "inputs": [],
          "name": "streamDuration",
          "outputs": [
            {
              "internalType": "uint256",
              "name": "",
              "type": "uint256"
            }
          ],
          "stateMutability": "view",
          "type": "function"
        },
        {
          "inputs": [],
          "name": "streamingAsset",
          "outputs": [
            {
              "internalType": "contract IERC20",
              "name": "",
              "type": "address"
            }
          ],
          "stateMutability": "view",
          "type": "function"
        },
        {
          "inputs": [],
          "name": "streamingAssetClaimedAmount",
          "outputs": [
            {
              "internalType": "uint256",
              "name": "",
              "type": "uint256"
            }
          ],
          "stateMutability": "view",
          "type": "function"
        },
        {
          "inputs": [],
          "name": "streamingAssetDecimals",
          "outputs": [
            {
              "internalType": "uint8",
              "name": "",
              "type": "uint8"
            }
          ],
          "stateMutability": "view",
          "type": "function"
        },
        {
          "inputs": [],
          "name": "streamingAssetOracle",
          "outputs": [
            {
              "internalType": "contract AggregatorV3Interface",
              "name": "",
              "type": "address"
            }
          ],
          "stateMutability": "view",
          "type": "function"
        },
        {
          "inputs": [],
          "name": "streamingAssetOracleDecimals",
          "outputs": [
            {
              "internalType": "uint8",
              "name": "",
              "type": "uint8"
            }
          ],
          "stateMutability": "view",
          "type": "function"
        },
        {
          "inputs": [],
          "name": "sweepCooldown",
          "outputs": [
            {
              "internalType": "uint256",
              "name": "",
              "type": "uint256"
            }
          ],
          "stateMutability": "view",
          "type": "function"
        },
        {
          "inputs": [],
          "name": "sweepRemaining",
          "outputs": [],
          "stateMutability": "nonpayable",
          "type": "function"
        },
        {
          "inputs": [
            {
              "internalType": "uint256",
              "name": "_terminationTimestamp",
              "type": "uint256"
            }
          ],
          "name": "terminateStream",
          "outputs": [],
          "stateMutability": "nonpayable",
          "type": "function"
        },
        {
          "inputs": [],
          "name": "terminationTimestamp",
          "outputs": [
            {
              "internalType": "uint256",
              "name": "",
              "type": "uint256"
            }
          ],
          "stateMutability": "view",
          "type": "function"
        },
        {
          "stateMutability": "payable",
          "type": "receive"
        }
      ],
      "evm": {
        "bytecode": {
          "linkReferences": {},
          "object": "610280604052610028610010610354565b9c9b909b9a919a999299989398979497969596610382565b604051611d0c6108a082396080518181816105cb01528181610bee01528181610e320152818161116b0152611455015260a0518181816109940152818161166901526118e1015260c051818181610a2b015281816116dd0152611954015260e0518181816107c501528181610c9201526114c10152610100518181816109f201528181610b160152818161100d015281816110cb0152818161128c0152818161142001526115180152610120518181816107250152610dbc01526101405181818161050e015281816111d40152611aac0152610160518181816104d501526117b0015261018051818181610a9d0152610fcb01526101a0518181816102fa015261156a01526101c0518181816106d3015281816110980152611b1301526101e051818181610547015281816112f8015261139b0152610200518181816108670152818161184a0152611a0b015261022051818181610a640152818161181b0152611a3501526102405181818161095b0152818161175401526119cb0152610260518181816108cd01526117eb0152611d0c90f35b634e487b7160e01b5f52604160045260245ffd5b90601f01601f191681019081106001600160401b038211176101f157604052565b6101bc565b9061020a61020360405190565b92836101d0565b565b6001600160a01b031690565b90565b6001600160a01b0381165b0361022d57565b5f80fd5b9050519061020a8261021b565b6001600160a01b038116610226565b9050519061020a8261023e565b60ff8116610226565b9050519061020a8261025a565b80610226565b9050519061020a82610270565b91906101c08382031261022d5761029a8184610231565b926102a88260208301610231565b926102b68360408401610231565b926102c4816060850161024d565b926102d2826080830161024d565b926102e08360a0840161024d565b926102ee8160c08501610263565b926102fc8260e08301610263565b9261030b836101008401610276565b9261031a816101208501610276565b92610329826101408301610276565b9261021861033b846101608501610276565b936101a061034d826101808701610276565b9401610276565b6103726125ac80380380610367816101f6565b928339810190610283565b909192939495969798999a9b9c9d565b9061020a9d9c9b9a999897969594939291610509565b61020c6102186102189290565b61021890610398565b6102189061020c906001600160a01b031682565b610218906103ae565b610218906103c2565b6102186102186102189290565b6102186305f5e1006103d4565b610218620151806103d4565b9060208282031261022d5761021891610263565b6040513d5f823e3d90fd5b6104266102186102189290565b60ff1690565b6102186006610419565b6001600160501b038116610226565b9050519061020a82610436565b919060a08382031261022d576104688184610445565b926104768260208301610276565b926102186104878460408501610276565b9360806104978260608701610276565b9401610445565b634e487b7160e01b5f52601160045260245ffd5b818102929181159184041417156104c557565b61049e565b60ff16604d81116104c557600a0a90565b634e487b7160e01b5f52601260045260245ffd5b906104f9565b9190565b908115610504570490565b6104db565b6105125f6103a5565b6001600160a01b0381166001600160a01b0388161461088e576001600160a01b0381166001600160a01b0387161461088e576001600160a01b0381166001600160a01b0386161461088e5761058661057961056c846103cb565b926001600160a01b031690565b916001600160a01b031690565b1461088e576105945f6103d4565b891461087d576105a56102186103e1565b8a1161086c576105b36103ee565b808c1061085b57808d1061085b57808e1061085b578e1061085b578c8e1161084a576105de826103cb565b63313ce5679060206105ef60405190565b80926105fb8560e01b90565b825260049082905afa908115610789575f9161082b575b5061024052610620846103cb565b9061063461062d60405190565b9160e01b90565b8152602081600481855afa908115610789575f916107fc575b506102605261065a61042c565b60ff811660ff8a16109081156107eb575b81156107c9575b811561079f575b5061078e5760a061068960405190565b633fabe5a360e21b815291829060049082905afa908115610789575f91610757575b506106b55f6103d4565b811315610747576106d16106cb6106ec926103d4565b8b6104b2565b6106e66106e16102605160ff1690565b6104ca565b906104ef565b6106fb6104f56102188b6104ca565b106107365760805260a05260c05260e052610100526101205261020052610220526101405261016052610180526101a0526101c0526101e052565b63cde8c83560e01b5f908152600490fd5b62bfc92160e01b5f908152600490fd5b610779915060a03d60a011610782575b61077181836101d0565b810190610452565b505050906106ab565b503d610767565b61040e565b6370c5eb6160e11b5f908152600490fd5b90506107c26107bb6107b46102605160ff1690565b9260ff1690565b9160ff1690565b105f610679565b90506107d86102405160ff1690565b6107e460ff83166107bb565b1090610672565b905060ff811660ff8b16109061066b565b61081e915060203d602011610824575b61081681836101d0565b8101906103fa565b5f61064d565b503d61080c565b610844915060203d6020116108245761081681836101d0565b5f610612565b6325c6702760e11b5f908152600490fd5b6325c3636760e01b5f908152600490fd5b63c189a4d360e01b5f908152600490fd5b631f2a200560e01b5f908152600490fd5b63d92e233d60e01b5f908152600490fdfe6080604052600436101561001a575b3615610018575f80fd5b005b5f3560e01c80630bbfc8331461027957806314e853b51461027457806324938e9f1461026f5780632ae4e9311461026a578063320d7b3d1461026557806333d263f214610260578063342db7391461025b5780633e032a3b146102565780633e52531a14610251578063414a62791461024c57806341f1d3c1146102475780634460d3cf146102425780634aca04a81461023d5780634e71d92d1461023857806359ac8f0714610233578063607af3971461022e57806364cbe5f91461022957806366d003ac146102245780636eb6a8201461021f5780638129fc1c1461021a5780639049a1e314610215578063943640c314610210578063950987631461020b57806398018b8b146102065780639cfbce5114610201578063aa5c9691146101fc578063ab579f45146101f7578063ad9161cc146101f2578063b001a482146101ed578063b6a6d177146101e8578063b7d03c8f146101e3578063c797af7e146101de578063e5945ad7146101d9578063e6fd48bc146101d4578063ef4a57d1146101cf578063efb1ad5d146101ca578063f47083bc146101c55763fdea36570361000e57610a88565b610a4f565b610a16565b6109dd565b6109c2565b61097f565b610946565b61092b565b610905565b6108b8565b61089d565b610852565b610837565b61081c565b610801565b6107e9565b6107b0565b610798565b61076c565b610751565b610710565b6106be565b6106a3565b610685565b61066d565b610652565b61062a565b6105b6565b610532565b6104f9565b6104c0565b6104a5565b610458565b610417565b6103aa565b610340565b6102e5565b6102b6565b5f91031261028857565b5f80fd5b610297916008021c81565b90565b90610297915461028c565b6102975f600261029a565b9052565b565b34610288576102c636600461027e565b6102e16102d16102a5565b6040519182918290815260200190565b0390f35b34610288576102f536600461027e565b6102e17f00000000000000000000000000000000000000000000000000000000000000006102d1565b6102976102976102979290565b6102976305f5e10061031e565b61029761032b565b346102885761035036600461027e565b6102e16102d1610338565b634e487b7160e01b5f52602160045260245ffd5b6004111561037957565b61035b565b906102b48261036f565b6102979061037e565b6102b090610388565b6020810192916102b49190610391565b34610288576103ba36600461027e565b6102e16103c5610ad4565b6040519182918261039a565b805b0361028857565b905035906102b4826103d1565b90916060828403126102885761029761040084846103da565b93604061041082602087016103da565b94016103da565b34610288576102e16102d161042d3660046103e7565b91610b06565b6104406102976102979290565b60ff1690565b6102976006610433565b610297610446565b346102885761046836600461027e565b6102e1610473610450565b6040519182918260ff909116815260200190565b6e1a185c991a185d0b595e1c1bdcd959608a1b90565b610297610487565b34610288576104b536600461027e565b6102e16102d161049d565b34610288576104d036600461027e565b6102e17f00000000000000000000000000000000000000000000000000000000000000006102d1565b346102885761050936600461027e565b6102e17f00000000000000000000000000000000000000000000000000000000000000006102d1565b346102885761054236600461027e565b6102e17f00000000000000000000000000000000000000000000000000000000000000006102d1565b6102979061057f906001600160a01b031682565b6001600160a01b031690565b6102979061056b565b6102979061058b565b6102b090610594565b6020810192916102b4919061059d565b34610288576105c636600461027e565b6102e17f00000000000000000000000000000000000000000000000000000000000000005b604051918291826105a6565b6102979061057f565b6103d3816105f7565b905035906102b482610600565b906020828203126102885761029791610609565b346102885761064261063d366004610616565b610d1c565b604051005b6102975f600461029a565b346102885761066236600461027e565b6102e16102d1610647565b346102885761067d36600461027e565b610642610d99565b61069036600461027e565b610642611041565b6102975f600161029a565b34610288576106b336600461027e565b6102e16102d1610698565b34610288576106ce36600461027e565b6102e17f00000000000000000000000000000000000000000000000000000000000000006102d1565b6102b09061057f565b6020810192916102b491906106f7565b346102885761072036600461027e565b6102e17f00000000000000000000000000000000000000000000000000000000000000005b60405191829182610700565b346102885761076136600461027e565b6102e16102d1611049565b346102885761077c36600461027e565b61064261127f565b9060208282031261028857610297916103da565b34610288576106426107ab366004610784565b6113f7565b34610288576107c036600461027e565b6102e17f0000000000000000000000000000000000000000000000000000000000000000610745565b34610288576107f936600461027e565b610642611400565b34610288576102e16102d1610817366004610784565b611664565b34610288576102e16102d1610832366004610784565b6118dc565b346102885761084736600461027e565b6102e16102d1611a9f565b346102885761086236600461027e565b6102e17f0000000000000000000000000000000000000000000000000000000000000000610473565b6102976012610433565b61029761088b565b34610288576108ad36600461027e565b6102e1610473610895565b34610288576108c836600461027e565b6102e17f0000000000000000000000000000000000000000000000000000000000000000610473565b6102976201518061031e565b6102976108f1565b346102885761091536600461027e565b6102e16102d16108fd565b6102975f600361029a565b346102885761093b36600461027e565b6102e16102d1610920565b346102885761095636600461027e565b6102e17f0000000000000000000000000000000000000000000000000000000000000000610473565b346102885761098f36600461027e565b6102e17f00000000000000000000000000000000000000000000000000000000000000006105eb565b6102975f8061029a565b34610288576109d236600461027e565b6102e16102d16109b8565b34610288576109ed36600461027e565b6102e17f0000000000000000000000000000000000000000000000000000000000000000610745565b3461028857610a2636600461027e565b6102e17f00000000000000000000000000000000000000000000000000000000000000006105eb565b3461028857610a5f36600461027e565b6102e17f0000000000000000000000000000000000000000000000000000000000000000610473565b3461028857610a9836600461027e565b6102e17f00000000000000000000000000000000000000000000000000000000000000006102d1565b61029790610440565b6102979054610ac1565b610adc611049565b610ae55f61031e565b8114610b0157421015610afc576102976005610aca565b600390565b505f90565b610297929190611ba8565b610b3a7f000000000000000000000000000000000000000000000000000000000000000061057f565b610b433361057f565b03610b51576102b490610be9565b639c867e2160e01b5f90815260045b035ffd5b634e487b7160e01b5f52604160045260245ffd5b90601f01601f1916810190811067ffffffffffffffff821117610b9a57604052565b610b64565b905051906102b4826103d1565b906020828203126102885761029791610b9f565b6040513d5f823e3d90fd5b9160206102b4929493610be560408201965f8301906106f7565b0152565b610c127f00000000000000000000000000000000000000000000000000000000000000006105f7565b610c1b826105f7565b14610d0b5780610c2d610c5592610594565b6020610c3830610594565b6040519485918291906370a0823160e01b5b835260048301610700565b0381845afa918215610d06577f8aec0ce3dadffacf4b7a963e0fed1ff2e6151b4c95d4a65acafa9d1299630402935f93610cd1575b5082610cb7917f000000000000000000000000000000000000000000000000000000000000000090611c0f565b610ccc610cc360405190565b92839283610bcb565b0390a1565b610cb7919350610cf89060203d602011610cff575b610cf08183610b78565b810190610bac565b9290610c8a565b503d610ce6565b610bc0565b63bf27c04f60e01b5f908152600490fd5b6102b490610b11565b6102979081565b6102979054610d25565b634e487b7160e01b5f52601160045260245ffd5b91908201809211610d5757565b610d36565b9081526040810192916102b49160200152565b905f19905b9181191691161790565b90610d8e610297610d959261031e565b8254610d6f565b9055565b610da36005610aca565b610db5610daf5f61037e565b9161037e565b14610ff7577f0000000000000000000000000000000000000000000000000000000000000000610de48161057f565b610ded3361057f565b141580610fb8575b610fa757610e01611a9f565b80610e0b5f61031e565b8114610f9657610e1a90611664565b918290610e265f61031e565b8414610f9657610e84937f0000000000000000000000000000000000000000000000000000000000000000906020610e5d83610594565b610e6630610594565b90610e7060405190565b988992839182916370a0823160e01b610c4a565b03915afa908115610d06577fc83b5086ce94ec8d5a88a9f5fea4b18a522bb238ed0d2d8abd959549a80c16b8965f92610f75575b50808210610f23575b5050610f0e918391610ed4426001610d7e565b610ef1610eea87610ee56003610d2c565b610d4a565b6003610d7e565b610f09610f0284610ee56004610d2c565b6004610d7e565b611c0f565b610ccc610f1a60405190565b92839283610d5c565b81610f0e9492939650610f6b95507f521d4ec08ea54943095f5f84755de8b51e1222628c06daa159d618c8c5fda56a91610f5f610f1a60405190565b0390a1819384926118dc565b9491819350610ec1565b610f8f91925060203d602011610cff57610cf08183610b78565b905f610eb8565b631f2a200560e01b5f908152600490fd5b635a06399f60e11b5f908152600490fd5b50610ff0610297610fc96001610d2c565b7f000000000000000000000000000000000000000000000000000000000000000090610d4a565b4210610df5565b6321c4e35760e21b5f908152600490fd5b6110317f000000000000000000000000000000000000000000000000000000000000000061057f565b61103a3361057f565b03610b5157565b6102b4611008565b6110536005610aca565b61105f610daf5f61037e565b146110bd5761106e6005610aca565b61107b610daf600261037e565b0361108a576102976002610d2c565b6102976110965f610d2c565b7f000000000000000000000000000000000000000000000000000000000000000090610d4a565b6102975f61031e565b6110ef7f000000000000000000000000000000000000000000000000000000000000000061057f565b6110f83361057f565b03610b51576102b4611125565b9060ff90610d74565b9061111e610297610d9592610388565b8254611105565b61112f6005610aca565b61113b610daf5f61037e565b0361126f5761114a425f610d7e565b611155426001610d7e565b6111616001600561110e565b6111b6602061118f7f0000000000000000000000000000000000000000000000000000000000000000610594565b61119830610594565b906111a260405190565b938492839182916370a0823160e01b610c4a565b03915afa908115610d06575f91611250575b506111d2816118dc565b7f000000000000000000000000000000000000000000000000000000000000000091908290611200565b9190565b106112385750507f5daa87a0e9463431830481fd4b6e3403442dfb9a12b9c07597e9f61d50b633c861123160405190565b8080610ccc565b634787a10360e11b5f90815291610b60916004610d5c565b611269915060203d602011610cff57610cf08183610b78565b5f6111c8565b62dc149f60e41b5f908152600490fd5b6102b46110c6565b6112b07f000000000000000000000000000000000000000000000000000000000000000061057f565b6112b93361057f565b03610b51576102b4906112cc6005610aca565b906002916112dc610daf8461037e565b146113e6576112ea5f61031e565b81036113935761132361131d7f000000000000000000000000000000000000000000000000000000000000000042610d4a565b83610d7e565b61132c82610d2c565b61133e6111fc6102976110965f610d2c565b1161137c5750610ccc6102d1826113777f9a9cad27a1bdce3d7cb0602aaf727dfaad03ba6524d9bca7b9615867fa6802b494600561110e565b610d2c565b6351fe048360e11b5f908152600491909152602490fd5b6113c06102977f000000000000000000000000000000000000000000000000000000000000000042610d4a565b81106113d5576113d08183610d7e565b611323565b6325c3636760e01b5f908152600490fd5b632aaa685560e11b5f908152600490fd5b6102b490611287565b61140a6005610aca565b611416610daf5f61037e565b0361150b576114447f000000000000000000000000000000000000000000000000000000000000000061057f565b61144d3361057f565b03610b51575b7f0000000000000000000000000000000000000000000000000000000000000000611482602061118f83610594565b03915afa8015610d06577f7f221332ee403570bf4d61630b58189ea566ff1635269001e9df6a890f413dd892610ccc925f926114e6575b50816102d1917f000000000000000000000000000000000000000000000000000000000000000090611c0f565b6102d19192506115049060203d602011610cff57610cf08183610b78565b91906114b9565b611513611049565b61153c7f000000000000000000000000000000000000000000000000000000000000000061057f565b6115453361057f565b036115615742116114535763a33e709960e01b5f908152600490fd5b61029761158f917f000000000000000000000000000000000000000000000000000000000000000090610d4a565b42116114535763042f54af60e01b5f908152600490fd5b69ffffffffffffffffffff81166103d3565b905051906102b4826115a6565b919060a083820312610288576115db81846115b8565b926115e98260208301610b9f565b926102976115fa8460408501610b9f565b93608061160a8260608701610b9f565b94016115b8565b6102976102976102979260ff1690565b91908203918211610d5757565b81810292918115918404141715610d5757565b634e487b7160e01b5f52601260045260245ffd5b811561165f570490565b611641565b61168d7f0000000000000000000000000000000000000000000000000000000000000000610594565b63feaf968c9160a061169e60405190565b80936116aa8660e01b90565b825260049082905afa918215610d06575f926118b8575b506116cb5f61031e565b8213156118745760a061170d936117017f0000000000000000000000000000000000000000000000000000000000000000610594565b60405195869260e01b90565b825260049082905afa928315610d06575f93611884575b5061172e5f61031e565b83131561187457610297926117db6118449261183f61174f61179f9661031e565b6118157f0000000000000000000000000000000000000000000000000000000000000000916117e66117e061179461178e61178861088b565b96611611565b95611611565b9a8b80968195611ba8565b6117db6117aa61032b565b916117d57f000000000000000000000000000000000000000000000000000000000000000084611621565b9061162e565b611655565b9761031e565b61180f7f0000000000000000000000000000000000000000000000000000000000000000611611565b90611ba8565b9261180f7f0000000000000000000000000000000000000000000000000000000000000000611611565b61162e565b9061186e7f0000000000000000000000000000000000000000000000000000000000000000611611565b91611ba8565b62bfc92160e01b5f908152600490fd5b6118a791935060a03d60a0116118b1575b61189f8183610b78565b8101906115c5565b5050509290611724565b503d611895565b6118d291925060a03d60a0116118b15761189f8183610b78565b50505091906116c1565b6119057f0000000000000000000000000000000000000000000000000000000000000000610594565b63feaf968c60a061191560405190565b80936119218460e01b90565b825260049082905afa918215610d06575f92611a7b575b506119425f61031e565b8213156118745760a0611984916119787f0000000000000000000000000000000000000000000000000000000000000000610594565b60405193849260e01b90565b825260049082905afa908115610d06575f91611a59575b506119a55f61031e565b81131561187457610297926117db611a2f9261183f6119c661179f9661031e565b611a057f0000000000000000000000000000000000000000000000000000000000000000916117e66119ff61179461178e61178861088b565b9561031e565b9461180f7f0000000000000000000000000000000000000000000000000000000000000000611611565b9061186e7f0000000000000000000000000000000000000000000000000000000000000000611611565b611a72915060a03d60a0116118b15761189f8183610b78565b5050509061199b565b611a9591925060a03d60a0116118b15761189f8183610b78565b5050509190611938565b5f611aaa6003610d2c565b7f000000000000000000000000000000000000000000000000000000000000000090811115611b8f57611adb611049565b611ae45f61031e565b8114611b8357610297925080421015611b485750611b11611b38916117d5611b0b5f610d2c565b42611621565b7f000000000000000000000000000000000000000000000000000000000000000090611655565b611b426003610d2c565b90611621565b611b526005610aca565b611b5f610daf600261037e565b03611b7d57611b78916117d5611b1192611b425f610d2c565b611b38565b50611b38565b5050506102975f61031e565b50506102975f61031e565b604d8111610d5757600a0a90565b9091808314611be357808311611bcd57611bc8610297936117d592611621565b611b9a565b611bc8611bdd9161029794611621565b90611655565b50905090565b611c02611bfc6102979263ffffffff1690565b60e01b90565b6001600160e01b03191690565b611c52600492611c436102b495611c2963a9059cbb611be9565b92611c3360405190565b9687946020860190815201610bcb565b60208201810382520383610b78565b905f602091611c5e5f90565b50828151910182855af115610bc0573d5f5190611c7d6111fc5f61031e565b03611cc25750611c8c81610594565b3b611c996111fc5f61031e565b145b611ca25750565b610b60611caf5f92610594565b635274afe760e01b835260048301610700565b611ccf6111fc600161031e565b1415611c9b56fea2646970667358221220a85b5354dbeb94ae02452a0657b84762816c1d096f5b405e05fd90ca1f9148a864736f6c634300081d0033",
          "opcodes": "PUSH2 0x280 PUSH1 0x40 MSTORE PUSH2 0x28 PUSH2 0x10 PUSH2 0x354 JUMP JUMPDEST SWAP13 SWAP12 SWAP1 SWAP12 SWAP11 SWAP2 SWAP11 SWAP10 SWAP3 SWAP10 SWAP9 SWAP4 SWAP9 SWAP8 SWAP5 SWAP8 SWAP7 SWAP6 SWAP7 PUSH2 0x382 JUMP JUMPDEST PUSH1 0x40 MLOAD PUSH2 0x1D0C PUSH2 0x8A0 DUP3 CODECOPY PUSH1 0x80 MLOAD DUP2 DUP2 DUP2 PUSH2 0x5CB ADD MSTORE DUP2 DUP2 PUSH2 0xBEE ADD MSTORE DUP2 DUP2 PUSH2 0xE32 ADD MSTORE DUP2 DUP2 PUSH2 0x116B ADD MSTORE PUSH2 0x1455 ADD MSTORE PUSH1 0xA0 MLOAD DUP2 DUP2 DUP2 PUSH2 0x994 ADD MSTORE DUP2 DUP2 PUSH2 0x1669 ADD MSTORE PUSH2 0x18E1 ADD MSTORE PUSH1 0xC0 MLOAD DUP2 DUP2 DUP2 PUSH2 0xA2B ADD MSTORE DUP2 DUP2 PUSH2 0x16DD ADD MSTORE PUSH2 0x1954 ADD MSTORE PUSH1 0xE0 MLOAD DUP2 DUP2 DUP2 PUSH2 0x7C5 ADD MSTORE DUP2 DUP2 PUSH2 0xC92 ADD MSTORE PUSH2 0x14C1 ADD MSTORE PUSH2 0x100 MLOAD DUP2 DUP2 DUP2 PUSH2 0x9F2 ADD MSTORE DUP2 DUP2 PUSH2 0xB16 ADD MSTORE DUP2 DUP2 PUSH2 0x100D ADD MSTORE DUP2 DUP2 PUSH2 0x10CB ADD MSTORE DUP2 DUP2 PUSH2 0x128C ADD MSTORE DUP2 DUP2 PUSH2 0x1420 ADD MSTORE PUSH2 0x1518 ADD MSTORE PUSH2 0x120 MLOAD DUP2 DUP2 DUP2 PUSH2 0x725 ADD MSTORE PUSH2 0xDBC ADD MSTORE PUSH2 0x140 MLOAD DUP2 DUP2 DUP2 PUSH2 0x50E ADD MSTORE DUP2 DUP2 PUSH2 0x11D4 ADD MSTORE PUSH2 0x1AAC ADD MSTORE PUSH2 0x160 MLOAD DUP2 DUP2 DUP2 PUSH2 0x4D5 ADD MSTORE PUSH2 0x17B0 ADD MSTORE PUSH2 0x180 MLOAD DUP2 DUP2 DUP2 PUSH2 0xA9D ADD MSTORE PUSH2 0xFCB ADD MSTORE PUSH2 0x1A0 MLOAD DUP2 DUP2 DUP2 PUSH2 0x2FA ADD MSTORE PUSH2 0x156A ADD MSTORE PUSH2 0x1C0 MLOAD DUP2 DUP2 DUP2 PUSH2 0x6D3 ADD MSTORE DUP2 DUP2 PUSH2 0x1098 ADD MSTORE PUSH2 0x1B13 ADD MSTORE PUSH2 0x1E0 MLOAD DUP2 DUP2 DUP2 PUSH2 0x547 ADD MSTORE DUP2 DUP2 PUSH2 0x12F8 ADD MSTORE PUSH2 0x139B ADD MSTORE PUSH2 0x200 MLOAD DUP2 DUP2 DUP2 PUSH2 0x867 ADD MSTORE DUP2 DUP2 PUSH2 0x184A ADD MSTORE PUSH2 0x1A0B ADD MSTORE PUSH2 0x220 MLOAD DUP2 DUP2 DUP2 PUSH2 0xA64 ADD MSTORE DUP2 DUP2 PUSH2 0x181B ADD MSTORE PUSH2 0x1A35 ADD MSTORE PUSH2 0x240 MLOAD DUP2 DUP2 DUP2 PUSH2 0x95B ADD MSTORE DUP2 DUP2 PUSH2 0x1754 ADD MSTORE PUSH2 0x19CB ADD MSTORE PUSH2 0x260 MLOAD DUP2 DUP2 DUP2 PUSH2 0x8CD ADD MSTORE PUSH2 0x17EB ADD MSTORE PUSH2 0x1D0C SWAP1 RETURN JUMPDEST PUSH4 0x4E487B71 PUSH1 0xE0 SHL PUSH0 MSTORE PUSH1 0x41 PUSH1 0x4 MSTORE PUSH1 0x24 PUSH0 REVERT JUMPDEST SWAP1 PUSH1 0x1F ADD PUSH1 0x1F NOT AND DUP2 ADD SWAP1 DUP2 LT PUSH1 0x1 PUSH1 0x1 PUSH1 0x40 SHL SUB DUP3 GT OR PUSH2 0x1F1 JUMPI PUSH1 0x40 MSTORE JUMP JUMPDEST PUSH2 0x1BC JUMP JUMPDEST SWAP1 PUSH2 0x20A PUSH2 0x203 PUSH1 0x40 MLOAD SWAP1 JUMP JUMPDEST SWAP3 DUP4 PUSH2 0x1D0 JUMP JUMPDEST JUMP JUMPDEST PUSH1 0x1 PUSH1 0x1 PUSH1 0xA0 SHL SUB AND SWAP1 JUMP JUMPDEST SWAP1 JUMP JUMPDEST PUSH1 0x1 PUSH1 0x1 PUSH1 0xA0 SHL SUB DUP2 AND JUMPDEST SUB PUSH2 0x22D JUMPI JUMP JUMPDEST PUSH0 DUP1 REVERT JUMPDEST SWAP1 POP MLOAD SWAP1 PUSH2 0x20A DUP3 PUSH2 0x21B JUMP JUMPDEST PUSH1 0x1 PUSH1 0x1 PUSH1 0xA0 SHL SUB DUP2 AND PUSH2 0x226 JUMP JUMPDEST SWAP1 POP MLOAD SWAP1 PUSH2 0x20A DUP3 PUSH2 0x23E JUMP JUMPDEST PUSH1 0xFF DUP2 AND PUSH2 0x226 JUMP JUMPDEST SWAP1 POP MLOAD SWAP1 PUSH2 0x20A DUP3 PUSH2 0x25A JUMP JUMPDEST DUP1 PUSH2 0x226 JUMP JUMPDEST SWAP1 POP MLOAD SWAP1 PUSH2 0x20A DUP3 PUSH2 0x270 JUMP JUMPDEST SWAP2 SWAP1 PUSH2 0x1C0 DUP4 DUP3 SUB SLT PUSH2 0x22D JUMPI PUSH2 0x29A DUP2 DUP5 PUSH2 0x231 JUMP JUMPDEST SWAP3 PUSH2 0x2A8 DUP3 PUSH1 0x20 DUP4 ADD PUSH2 0x231 JUMP JUMPDEST SWAP3 PUSH2 0x2B6 DUP4 PUSH1 0x40 DUP5 ADD PUSH2 0x231 JUMP JUMPDEST SWAP3 PUSH2 0x2C4 DUP2 PUSH1 0x60 DUP6 ADD PUSH2 0x24D JUMP JUMPDEST SWAP3 PUSH2 0x2D2 DUP3 PUSH1 0x80 DUP4 ADD PUSH2 0x24D JUMP JUMPDEST SWAP3 PUSH2 0x2E0 DUP4 PUSH1 0xA0 DUP5 ADD PUSH2 0x24D JUMP JUMPDEST SWAP3 PUSH2 0x2EE DUP2 PUSH1 0xC0 DUP6 ADD PUSH2 0x263 JUMP JUMPDEST SWAP3 PUSH2 0x2FC DUP3 PUSH1 0xE0 DUP4 ADD PUSH2 0x263 JUMP JUMPDEST SWAP3 PUSH2 0x30B DUP4 PUSH2 0x100 DUP5 ADD PUSH2 0x276 JUMP JUMPDEST SWAP3 PUSH2 0x31A DUP2 PUSH2 0x120 DUP6 ADD PUSH2 0x276 JUMP JUMPDEST SWAP3 PUSH2 0x329 DUP3 PUSH2 0x140 DUP4 ADD PUSH2 0x276 JUMP JUMPDEST SWAP3 PUSH2 0x218 PUSH2 0x33B DUP5 PUSH2 0x160 DUP6 ADD PUSH2 0x276 JUMP JUMPDEST SWAP4 PUSH2 0x1A0 PUSH2 0x34D DUP3 PUSH2 0x180 DUP8 ADD PUSH2 0x276 JUMP JUMPDEST SWAP5 ADD PUSH2 0x276 JUMP JUMPDEST PUSH2 0x372 PUSH2 0x25AC DUP1 CODESIZE SUB DUP1 PUSH2 0x367 DUP2 PUSH2 0x1F6 JUMP JUMPDEST SWAP3 DUP4 CODECOPY DUP2 ADD SWAP1 PUSH2 0x283 JUMP JUMPDEST SWAP1 SWAP2 SWAP3 SWAP4 SWAP5 SWAP6 SWAP7 SWAP8 SWAP9 SWAP10 SWAP11 SWAP12 SWAP13 SWAP14 JUMP JUMPDEST SWAP1 PUSH2 0x20A SWAP14 SWAP13 SWAP12 SWAP11 SWAP10 SWAP9 SWAP8 SWAP7 SWAP6 SWAP5 SWAP4 SWAP3 SWAP2 PUSH2 0x509 JUMP JUMPDEST PUSH2 0x20C PUSH2 0x218 PUSH2 0x218 SWAP3 SWAP1 JUMP JUMPDEST PUSH2 0x218 SWAP1 PUSH2 0x398 JUMP JUMPDEST PUSH2 0x218 SWAP1 PUSH2 0x20C SWAP1 PUSH1 0x1 PUSH1 0x1 PUSH1 0xA0 SHL SUB AND DUP3 JUMP JUMPDEST PUSH2 0x218 SWAP1 PUSH2 0x3AE JUMP JUMPDEST PUSH2 0x218 SWAP1 PUSH2 0x3C2 JUMP JUMPDEST PUSH2 0x218 PUSH2 0x218 PUSH2 0x218 SWAP3 SWAP1 JUMP JUMPDEST PUSH2 0x218 PUSH4 0x5F5E100 PUSH2 0x3D4 JUMP JUMPDEST PUSH2 0x218 PUSH3 0x15180 PUSH2 0x3D4 JUMP JUMPDEST SWAP1 PUSH1 0x20 DUP3 DUP3 SUB SLT PUSH2 0x22D JUMPI PUSH2 0x218 SWAP2 PUSH2 0x263 JUMP JUMPDEST PUSH1 0x40 MLOAD RETURNDATASIZE PUSH0 DUP3 RETURNDATACOPY RETURNDATASIZE SWAP1 REVERT JUMPDEST PUSH2 0x426 PUSH2 0x218 PUSH2 0x218 SWAP3 SWAP1 JUMP JUMPDEST PUSH1 0xFF AND SWAP1 JUMP JUMPDEST PUSH2 0x218 PUSH1 0x6 PUSH2 0x419 JUMP JUMPDEST PUSH1 0x1 PUSH1 0x1 PUSH1 0x50 SHL SUB DUP2 AND PUSH2 0x226 JUMP JUMPDEST SWAP1 POP MLOAD SWAP1 PUSH2 0x20A DUP3 PUSH2 0x436 JUMP JUMPDEST SWAP2 SWAP1 PUSH1 0xA0 DUP4 DUP3 SUB SLT PUSH2 0x22D JUMPI PUSH2 0x468 DUP2 DUP5 PUSH2 0x445 JUMP JUMPDEST SWAP3 PUSH2 0x476 DUP3 PUSH1 0x20 DUP4 ADD PUSH2 0x276 JUMP JUMPDEST SWAP3 PUSH2 0x218 PUSH2 0x487 DUP5 PUSH1 0x40 DUP6 ADD PUSH2 0x276 JUMP JUMPDEST SWAP4 PUSH1 0x80 PUSH2 0x497 DUP3 PUSH1 0x60 DUP8 ADD PUSH2 0x276 JUMP JUMPDEST SWAP5 ADD PUSH2 0x445 JUMP JUMPDEST PUSH4 0x4E487B71 PUSH1 0xE0 SHL PUSH0 MSTORE PUSH1 0x11 PUSH1 0x4 MSTORE PUSH1 0x24 PUSH0 REVERT JUMPDEST DUP2 DUP2 MUL SWAP3 SWAP2 DUP2 ISZERO SWAP2 DUP5 DIV EQ OR ISZERO PUSH2 0x4C5 JUMPI JUMP JUMPDEST PUSH2 0x49E JUMP JUMPDEST PUSH1 0xFF AND PUSH1 0x4D DUP2 GT PUSH2 0x4C5 JUMPI PUSH1 0xA EXP SWAP1 JUMP JUMPDEST PUSH4 0x4E487B71 PUSH1 0xE0 SHL PUSH0 MSTORE PUSH1 0x12 PUSH1 0x4 MSTORE PUSH1 0x24 PUSH0 REVERT JUMPDEST SWAP1 PUSH2 0x4F9 JUMP JUMPDEST SWAP2 SWAP1 JUMP JUMPDEST SWAP1 DUP2 ISZERO PUSH2 0x504 JUMPI DIV SWAP1 JUMP JUMPDEST PUSH2 0x4DB JUMP JUMPDEST PUSH2 0x512 PUSH0 PUSH2 0x3A5 JUMP JUMPDEST PUSH1 0x1 PUSH1 0x1 PUSH1 0xA0 SHL SUB DUP2 AND PUSH1 0x1 PUSH1 0x1 PUSH1 0xA0 SHL SUB DUP9 AND EQ PUSH2 0x88E JUMPI PUSH1 0x1 PUSH1 0x1 PUSH1 0xA0 SHL SUB DUP2 AND PUSH1 0x1 PUSH1 0x1 PUSH1 0xA0 SHL SUB DUP8 AND EQ PUSH2 0x88E JUMPI PUSH1 0x1 PUSH1 0x1 PUSH1 0xA0 SHL SUB DUP2 AND PUSH1 0x1 PUSH1 0x1 PUSH1 0xA0 SHL SUB DUP7 AND EQ PUSH2 0x88E JUMPI PUSH2 0x586 PUSH2 0x579 PUSH2 0x56C DUP5 PUSH2 0x3CB JUMP JUMPDEST SWAP3 PUSH1 0x1 PUSH1 0x1 PUSH1 0xA0 SHL SUB AND SWAP1 JUMP JUMPDEST SWAP2 PUSH1 0x1 PUSH1 0x1 PUSH1 0xA0 SHL SUB AND SWAP1 JUMP JUMPDEST EQ PUSH2 0x88E JUMPI PUSH2 0x594 PUSH0 PUSH2 0x3D4 JUMP JUMPDEST DUP10 EQ PUSH2 0x87D JUMPI PUSH2 0x5A5 PUSH2 0x218 PUSH2 0x3E1 JUMP JUMPDEST DUP11 GT PUSH2 0x86C JUMPI PUSH2 0x5B3 PUSH2 0x3EE JUMP JUMPDEST DUP1 DUP13 LT PUSH2 0x85B JUMPI DUP1 DUP14 LT PUSH2 0x85B JUMPI DUP1 DUP15 LT PUSH2 0x85B JUMPI DUP15 LT PUSH2 0x85B JUMPI DUP13 DUP15 GT PUSH2 0x84A JUMPI PUSH2 0x5DE DUP3 PUSH2 0x3CB JUMP JUMPDEST PUSH4 0x313CE567 SWAP1 PUSH1 0x20 PUSH2 0x5EF PUSH1 0x40 MLOAD SWAP1 JUMP JUMPDEST DUP1 SWAP3 PUSH2 0x5FB DUP6 PUSH1 0xE0 SHL SWAP1 JUMP JUMPDEST DUP3 MSTORE PUSH1 0x4 SWAP1 DUP3 SWAP1 GAS STATICCALL SWAP1 DUP2 ISZERO PUSH2 0x789 JUMPI PUSH0 SWAP2 PUSH2 0x82B JUMPI JUMPDEST POP PUSH2 0x240 MSTORE PUSH2 0x620 DUP5 PUSH2 0x3CB JUMP JUMPDEST SWAP1 PUSH2 0x634 PUSH2 0x62D PUSH1 0x40 MLOAD SWAP1 JUMP JUMPDEST SWAP2 PUSH1 0xE0 SHL SWAP1 JUMP JUMPDEST DUP2 MSTORE PUSH1 0x20 DUP2 PUSH1 0x4 DUP2 DUP6 GAS STATICCALL SWAP1 DUP2 ISZERO PUSH2 0x789 JUMPI PUSH0 SWAP2 PUSH2 0x7FC JUMPI JUMPDEST POP PUSH2 0x260 MSTORE PUSH2 0x65A PUSH2 0x42C JUMP JUMPDEST PUSH1 0xFF DUP2 AND PUSH1 0xFF DUP11 AND LT SWAP1 DUP2 ISZERO PUSH2 0x7EB JUMPI JUMPDEST DUP2 ISZERO PUSH2 0x7C9 JUMPI JUMPDEST DUP2 ISZERO PUSH2 0x79F JUMPI JUMPDEST POP PUSH2 0x78E JUMPI PUSH1 0xA0 PUSH2 0x689 PUSH1 0x40 MLOAD SWAP1 JUMP JUMPDEST PUSH4 0x3FABE5A3 PUSH1 0xE2 SHL DUP2 MSTORE SWAP2 DUP3 SWAP1 PUSH1 0x4 SWAP1 DUP3 SWAP1 GAS STATICCALL SWAP1 DUP2 ISZERO PUSH2 0x789 JUMPI PUSH0 SWAP2 PUSH2 0x757 JUMPI JUMPDEST POP PUSH2 0x6B5 PUSH0 PUSH2 0x3D4 JUMP JUMPDEST DUP2 SGT ISZERO PUSH2 0x747 JUMPI PUSH2 0x6D1 PUSH2 0x6CB PUSH2 0x6EC SWAP3 PUSH2 0x3D4 JUMP JUMPDEST DUP12 PUSH2 0x4B2 JUMP JUMPDEST PUSH2 0x6E6 PUSH2 0x6E1 PUSH2 0x260 MLOAD PUSH1 0xFF AND SWAP1 JUMP JUMPDEST PUSH2 0x4CA JUMP JUMPDEST SWAP1 PUSH2 0x4EF JUMP JUMPDEST PUSH2 0x6FB PUSH2 0x4F5 PUSH2 0x218 DUP12 PUSH2 0x4CA JUMP JUMPDEST LT PUSH2 0x736 JUMPI PUSH1 0x80 MSTORE PUSH1 0xA0 MSTORE PUSH1 0xC0 MSTORE PUSH1 0xE0 MSTORE PUSH2 0x100 MSTORE PUSH2 0x120 MSTORE PUSH2 0x200 MSTORE PUSH2 0x220 MSTORE PUSH2 0x140 MSTORE PUSH2 0x160 MSTORE PUSH2 0x180 MSTORE PUSH2 0x1A0 MSTORE PUSH2 0x1C0 MSTORE PUSH2 0x1E0 MSTORE JUMP JUMPDEST PUSH4 0xCDE8C835 PUSH1 0xE0 SHL PUSH0 SWAP1 DUP2 MSTORE PUSH1 0x4 SWAP1 REVERT JUMPDEST PUSH3 0xBFC921 PUSH1 0xE0 SHL PUSH0 SWAP1 DUP2 MSTORE PUSH1 0x4 SWAP1 REVERT JUMPDEST PUSH2 0x779 SWAP2 POP PUSH1 0xA0 RETURNDATASIZE PUSH1 0xA0 GT PUSH2 0x782 JUMPI JUMPDEST PUSH2 0x771 DUP2 DUP4 PUSH2 0x1D0 JUMP JUMPDEST DUP2 ADD SWAP1 PUSH2 0x452 JUMP JUMPDEST POP POP POP SWAP1 PUSH2 0x6AB JUMP JUMPDEST POP RETURNDATASIZE PUSH2 0x767 JUMP JUMPDEST PUSH2 0x40E JUMP JUMPDEST PUSH4 0x70C5EB61 PUSH1 0xE1 SHL PUSH0 SWAP1 DUP2 MSTORE PUSH1 0x4 SWAP1 REVERT JUMPDEST SWAP1 POP PUSH2 0x7C2 PUSH2 0x7BB PUSH2 0x7B4 PUSH2 0x260 MLOAD PUSH1 0xFF AND SWAP1 JUMP JUMPDEST SWAP3 PUSH1 0xFF AND SWAP1 JUMP JUMPDEST SWAP2 PUSH1 0xFF AND SWAP1 JUMP JUMPDEST LT PUSH0 PUSH2 0x679 JUMP JUMPDEST SWAP1 POP PUSH2 0x7D8 PUSH2 0x240 MLOAD PUSH1 0xFF AND SWAP1 JUMP JUMPDEST PUSH2 0x7E4 PUSH1 0xFF DUP4 AND PUSH2 0x7BB JUMP JUMPDEST LT SWAP1 PUSH2 0x672 JUMP JUMPDEST SWAP1 POP PUSH1 0xFF DUP2 AND PUSH1 0xFF DUP12 AND LT SWAP1 PUSH2 0x66B JUMP JUMPDEST PUSH2 0x81E SWAP2 POP PUSH1 0x20 RETURNDATASIZE PUSH1 0x20 GT PUSH2 0x824 JUMPI JUMPDEST PUSH2 0x816 DUP2 DUP4 PUSH2 0x1D0 JUMP JUMPDEST DUP2 ADD SWAP1 PUSH2 0x3FA JUMP JUMPDEST PUSH0 PUSH2 0x64D JUMP JUMPDEST POP RETURNDATASIZE PUSH2 0x80C JUMP JUMPDEST PUSH2 0x844 SWAP2 POP PUSH1 0x20 RETURNDATASIZE PUSH1 0x20 GT PUSH2 0x824 JUMPI PUSH2 0x816 DUP2 DUP4 PUSH2 0x1D0 JUMP JUMPDEST PUSH0 PUSH2 0x612 JUMP JUMPDEST PUSH4 0x25C67027 PUSH1 0xE1 SHL PUSH0 SWAP1 DUP2 MSTORE PUSH1 0x4 SWAP1 REVERT JUMPDEST PUSH4 0x25C36367 PUSH1 0xE0 SHL PUSH0 SWAP1 DUP2 MSTORE PUSH1 0x4 SWAP1 REVERT JUMPDEST PUSH4 0xC189A4D3 PUSH1 0xE0 SHL PUSH0 SWAP1 DUP2 MSTORE PUSH1 0x4 SWAP1 REVERT JUMPDEST PUSH4 0x1F2A2005 PUSH1 0xE0 SHL PUSH0 SWAP1 DUP2 MSTORE PUSH1 0x4 SWAP1 REVERT JUMPDEST PUSH4 0xD92E233D PUSH1 0xE0 SHL PUSH0 SWAP1 DUP2 MSTORE PUSH1 0x4 SWAP1 REVERT INVALID PUSH1 0x80 PUSH1 0x40 MSTORE PUSH1 0x4 CALLDATASIZE LT ISZERO PUSH2 0x1A JUMPI JUMPDEST CALLDATASIZE ISZERO PUSH2 0x18 JUMPI PUSH0 DUP1 REVERT JUMPDEST STOP JUMPDEST PUSH0 CALLDATALOAD PUSH1 0xE0 SHR DUP1 PUSH4 0xBBFC833 EQ PUSH2 0x279 JUMPI DUP1 PUSH4 0x14E853B5 EQ PUSH2 0x274 JUMPI DUP1 PUSH4 0x24938E9F EQ PUSH2 0x26F JUMPI DUP1 PUSH4 0x2AE4E931 EQ PUSH2 0x26A JUMPI DUP1 PUSH4 0x320D7B3D EQ PUSH2 0x265 JUMPI DUP1 PUSH4 0x33D263F2 EQ PUSH2 0x260 JUMPI DUP1 PUSH4 0x342DB739 EQ PUSH2 0x25B JUMPI DUP1 PUSH4 0x3E032A3B EQ PUSH2 0x256 JUMPI DUP1 PUSH4 0x3E52531A EQ PUSH2 0x251 JUMPI DUP1 PUSH4 0x414A6279 EQ PUSH2 0x24C JUMPI DUP1 PUSH4 0x41F1D3C1 EQ PUSH2 0x247 JUMPI DUP1 PUSH4 0x4460D3CF EQ PUSH2 0x242 JUMPI DUP1 PUSH4 0x4ACA04A8 EQ PUSH2 0x23D JUMPI DUP1 PUSH4 0x4E71D92D EQ PUSH2 0x238 JUMPI DUP1 PUSH4 0x59AC8F07 EQ PUSH2 0x233 JUMPI DUP1 PUSH4 0x607AF397 EQ PUSH2 0x22E JUMPI DUP1 PUSH4 0x64CBE5F9 EQ PUSH2 0x229 JUMPI DUP1 PUSH4 0x66D003AC EQ PUSH2 0x224 JUMPI DUP1 PUSH4 0x6EB6A820 EQ PUSH2 0x21F JUMPI DUP1 PUSH4 0x8129FC1C EQ PUSH2 0x21A JUMPI DUP1 PUSH4 0x9049A1E3 EQ PUSH2 0x215 JUMPI DUP1 PUSH4 0x943640C3 EQ PUSH2 0x210 JUMPI DUP1 PUSH4 0x95098763 EQ PUSH2 0x20B JUMPI DUP1 PUSH4 0x98018B8B EQ PUSH2 0x206 JUMPI DUP1 PUSH4 0x9CFBCE51 EQ PUSH2 0x201 JUMPI DUP1 PUSH4 0xAA5C9691 EQ PUSH2 0x1FC JUMPI DUP1 PUSH4 0xAB579F45 EQ PUSH2 0x1F7 JUMPI DUP1 PUSH4 0xAD9161CC EQ PUSH2 0x1F2 JUMPI DUP1 PUSH4 0xB001A482 EQ PUSH2 0x1ED JUMPI DUP1 PUSH4 0xB6A6D177 EQ PUSH2 0x1E8 JUMPI DUP1 PUSH4 0xB7D03C8F EQ PUSH2 0x1E3 JUMPI DUP1 PUSH4 0xC797AF7E EQ PUSH2 0x1DE JUMPI DUP1 PUSH4 0xE5945AD7 EQ PUSH2 0x1D9 JUMPI DUP1 PUSH4 0xE6FD48BC EQ PUSH2 0x1D4 JUMPI DUP1 PUSH4 0xEF4A57D1 EQ PUSH2 0x1CF JUMPI DUP1 PUSH4 0xEFB1AD5D EQ PUSH2 0x1CA JUMPI DUP1 PUSH4 0xF47083BC EQ PUSH2 0x1C5 JUMPI PUSH4 0xFDEA3657 SUB PUSH2 0xE JUMPI PUSH2 0xA88 JUMP JUMPDEST PUSH2 0xA4F JUMP JUMPDEST PUSH2 0xA16 JUMP JUMPDEST PUSH2 0x9DD JUMP JUMPDEST PUSH2 0x9C2 JUMP JUMPDEST PUSH2 0x97F JUMP JUMPDEST PUSH2 0x946 JUMP JUMPDEST PUSH2 0x92B JUMP JUMPDEST PUSH2 0x905 JUMP JUMPDEST PUSH2 0x8B8 JUMP JUMPDEST PUSH2 0x89D JUMP JUMPDEST PUSH2 0x852 JUMP JUMPDEST PUSH2 0x837 JUMP JUMPDEST PUSH2 0x81C JUMP JUMPDEST PUSH2 0x801 JUMP JUMPDEST PUSH2 0x7E9 JUMP JUMPDEST PUSH2 0x7B0 JUMP JUMPDEST PUSH2 0x798 JUMP JUMPDEST PUSH2 0x76C JUMP JUMPDEST PUSH2 0x751 JUMP JUMPDEST PUSH2 0x710 JUMP JUMPDEST PUSH2 0x6BE JUMP JUMPDEST PUSH2 0x6A3 JUMP JUMPDEST PUSH2 0x685 JUMP JUMPDEST PUSH2 0x66D JUMP JUMPDEST PUSH2 0x652 JUMP JUMPDEST PUSH2 0x62A JUMP JUMPDEST PUSH2 0x5B6 JUMP JUMPDEST PUSH2 0x532 JUMP JUMPDEST PUSH2 0x4F9 JUMP JUMPDEST PUSH2 0x4C0 JUMP JUMPDEST PUSH2 0x4A5 JUMP JUMPDEST PUSH2 0x458 JUMP JUMPDEST PUSH2 0x417 JUMP JUMPDEST PUSH2 0x3AA JUMP JUMPDEST PUSH2 0x340 JUMP JUMPDEST PUSH2 0x2E5 JUMP JUMPDEST PUSH2 0x2B6 JUMP JUMPDEST PUSH0 SWAP2 SUB SLT PUSH2 0x288 JUMPI JUMP JUMPDEST PUSH0 DUP1 REVERT JUMPDEST PUSH2 0x297 SWAP2 PUSH1 0x8 MUL SHR DUP2 JUMP JUMPDEST SWAP1 JUMP JUMPDEST SWAP1 PUSH2 0x297 SWAP2 SLOAD PUSH2 0x28C JUMP JUMPDEST PUSH2 0x297 PUSH0 PUSH1 0x2 PUSH2 0x29A JUMP JUMPDEST SWAP1 MSTORE JUMP JUMPDEST JUMP JUMPDEST CALLVALUE PUSH2 0x288 JUMPI PUSH2 0x2C6 CALLDATASIZE PUSH1 0x4 PUSH2 0x27E JUMP JUMPDEST PUSH2 0x2E1 PUSH2 0x2D1 PUSH2 0x2A5 JUMP JUMPDEST PUSH1 0x40 MLOAD SWAP2 DUP3 SWAP2 DUP3 SWAP1 DUP2 MSTORE PUSH1 0x20 ADD SWAP1 JUMP JUMPDEST SUB SWAP1 RETURN JUMPDEST CALLVALUE PUSH2 0x288 JUMPI PUSH2 0x2F5 CALLDATASIZE PUSH1 0x4 PUSH2 0x27E JUMP JUMPDEST PUSH2 0x2E1 PUSH32 0x0 PUSH2 0x2D1 JUMP JUMPDEST PUSH2 0x297 PUSH2 0x297 PUSH2 0x297 SWAP3 SWAP1 JUMP JUMPDEST PUSH2 0x297 PUSH4 0x5F5E100 PUSH2 0x31E JUMP JUMPDEST PUSH2 0x297 PUSH2 0x32B JUMP JUMPDEST CALLVALUE PUSH2 0x288 JUMPI PUSH2 0x350 CALLDATASIZE PUSH1 0x4 PUSH2 0x27E JUMP JUMPDEST PUSH2 0x2E1 PUSH2 0x2D1 PUSH2 0x338 JUMP JUMPDEST PUSH4 0x4E487B71 PUSH1 0xE0 SHL PUSH0 MSTORE PUSH1 0x21 PUSH1 0x4 MSTORE PUSH1 0x24 PUSH0 REVERT JUMPDEST PUSH1 0x4 GT ISZERO PUSH2 0x379 JUMPI JUMP JUMPDEST PUSH2 0x35B JUMP JUMPDEST SWAP1 PUSH2 0x2B4 DUP3 PUSH2 0x36F JUMP JUMPDEST PUSH2 0x297 SWAP1 PUSH2 0x37E JUMP JUMPDEST PUSH2 0x2B0 SWAP1 PUSH2 0x388 JUMP JUMPDEST PUSH1 0x20 DUP2 ADD SWAP3 SWAP2 PUSH2 0x2B4 SWAP2 SWAP1 PUSH2 0x391 JUMP JUMPDEST CALLVALUE PUSH2 0x288 JUMPI PUSH2 0x3BA CALLDATASIZE PUSH1 0x4 PUSH2 0x27E JUMP JUMPDEST PUSH2 0x2E1 PUSH2 0x3C5 PUSH2 0xAD4 JUMP JUMPDEST PUSH1 0x40 MLOAD SWAP2 DUP3 SWAP2 DUP3 PUSH2 0x39A JUMP JUMPDEST DUP1 JUMPDEST SUB PUSH2 0x288 JUMPI JUMP JUMPDEST SWAP1 POP CALLDATALOAD SWAP1 PUSH2 0x2B4 DUP3 PUSH2 0x3D1 JUMP JUMPDEST SWAP1 SWAP2 PUSH1 0x60 DUP3 DUP5 SUB SLT PUSH2 0x288 JUMPI PUSH2 0x297 PUSH2 0x400 DUP5 DUP5 PUSH2 0x3DA JUMP JUMPDEST SWAP4 PUSH1 0x40 PUSH2 0x410 DUP3 PUSH1 0x20 DUP8 ADD PUSH2 0x3DA JUMP JUMPDEST SWAP5 ADD PUSH2 0x3DA JUMP JUMPDEST CALLVALUE PUSH2 0x288 JUMPI PUSH2 0x2E1 PUSH2 0x2D1 PUSH2 0x42D CALLDATASIZE PUSH1 0x4 PUSH2 0x3E7 JUMP JUMPDEST SWAP2 PUSH2 0xB06 JUMP JUMPDEST PUSH2 0x440 PUSH2 0x297 PUSH2 0x297 SWAP3 SWAP1 JUMP JUMPDEST PUSH1 0xFF AND SWAP1 JUMP JUMPDEST PUSH2 0x297 PUSH1 0x6 PUSH2 0x433 JUMP JUMPDEST PUSH2 0x297 PUSH2 0x446 JUMP JUMPDEST CALLVALUE PUSH2 0x288 JUMPI PUSH2 0x468 CALLDATASIZE PUSH1 0x4 PUSH2 0x27E JUMP JUMPDEST PUSH2 0x2E1 PUSH2 0x473 PUSH2 0x450 JUMP JUMPDEST PUSH1 0x40 MLOAD SWAP2 DUP3 SWAP2 DUP3 PUSH1 0xFF SWAP1 SWAP2 AND DUP2 MSTORE PUSH1 0x20 ADD SWAP1 JUMP JUMPDEST PUSH15 0x1A185C991A185D0B595E1C1BDCD959 PUSH1 0x8A SHL SWAP1 JUMP JUMPDEST PUSH2 0x297 PUSH2 0x487 JUMP JUMPDEST CALLVALUE PUSH2 0x288 JUMPI PUSH2 0x4B5 CALLDATASIZE PUSH1 0x4 PUSH2 0x27E JUMP JUMPDEST PUSH2 0x2E1 PUSH2 0x2D1 PUSH2 0x49D JUMP JUMPDEST CALLVALUE PUSH2 0x288 JUMPI PUSH2 0x4D0 CALLDATASIZE PUSH1 0x4 PUSH2 0x27E JUMP JUMPDEST PUSH2 0x2E1 PUSH32 0x0 PUSH2 0x2D1 JUMP JUMPDEST CALLVALUE PUSH2 0x288 JUMPI PUSH2 0x509 CALLDATASIZE PUSH1 0x4 PUSH2 0x27E JUMP JUMPDEST PUSH2 0x2E1 PUSH32 0x0 PUSH2 0x2D1 JUMP JUMPDEST CALLVALUE PUSH2 0x288 JUMPI PUSH2 0x542 CALLDATASIZE PUSH1 0x4 PUSH2 0x27E JUMP JUMPDEST PUSH2 0x2E1 PUSH32 0x0 PUSH2 0x2D1 JUMP JUMPDEST PUSH2 0x297 SWAP1 PUSH2 0x57F SWAP1 PUSH1 0x1 PUSH1 0x1 PUSH1 0xA0 SHL SUB AND DUP3 JUMP JUMPDEST PUSH1 0x1 PUSH1 0x1 PUSH1 0xA0 SHL SUB AND SWAP1 JUMP JUMPDEST PUSH2 0x297 SWAP1 PUSH2 0x56B JUMP JUMPDEST PUSH2 0x297 SWAP1 PUSH2 0x58B JUMP JUMPDEST PUSH2 0x2B0 SWAP1 PUSH2 0x594 JUMP JUMPDEST PUSH1 0x20 DUP2 ADD SWAP3 SWAP2 PUSH2 0x2B4 SWAP2 SWAP1 PUSH2 0x59D JUMP JUMPDEST CALLVALUE PUSH2 0x288 JUMPI PUSH2 0x5C6 CALLDATASIZE PUSH1 0x4 PUSH2 0x27E JUMP JUMPDEST PUSH2 0x2E1 PUSH32 0x0 JUMPDEST PUSH1 0x40 MLOAD SWAP2 DUP3 SWAP2 DUP3 PUSH2 0x5A6 JUMP JUMPDEST PUSH2 0x297 SWAP1 PUSH2 0x57F JUMP JUMPDEST PUSH2 0x3D3 DUP2 PUSH2 0x5F7 JUMP JUMPDEST SWAP1 POP CALLDATALOAD SWAP1 PUSH2 0x2B4 DUP3 PUSH2 0x600 JUMP JUMPDEST SWAP1 PUSH1 0x20 DUP3 DUP3 SUB SLT PUSH2 0x288 JUMPI PUSH2 0x297 SWAP2 PUSH2 0x609 JUMP JUMPDEST CALLVALUE PUSH2 0x288 JUMPI PUSH2 0x642 PUSH2 0x63D CALLDATASIZE PUSH1 0x4 PUSH2 0x616 JUMP JUMPDEST PUSH2 0xD1C JUMP JUMPDEST PUSH1 0x40 MLOAD STOP JUMPDEST PUSH2 0x297 PUSH0 PUSH1 0x4 PUSH2 0x29A JUMP JUMPDEST CALLVALUE PUSH2 0x288 JUMPI PUSH2 0x662 CALLDATASIZE PUSH1 0x4 PUSH2 0x27E JUMP JUMPDEST PUSH2 0x2E1 PUSH2 0x2D1 PUSH2 0x647 JUMP JUMPDEST CALLVALUE PUSH2 0x288 JUMPI PUSH2 0x67D CALLDATASIZE PUSH1 0x4 PUSH2 0x27E JUMP JUMPDEST PUSH2 0x642 PUSH2 0xD99 JUMP JUMPDEST PUSH2 0x690 CALLDATASIZE PUSH1 0x4 PUSH2 0x27E JUMP JUMPDEST PUSH2 0x642 PUSH2 0x1041 JUMP JUMPDEST PUSH2 0x297 PUSH0 PUSH1 0x1 PUSH2 0x29A JUMP JUMPDEST CALLVALUE PUSH2 0x288 JUMPI PUSH2 0x6B3 CALLDATASIZE PUSH1 0x4 PUSH2 0x27E JUMP JUMPDEST PUSH2 0x2E1 PUSH2 0x2D1 PUSH2 0x698 JUMP JUMPDEST CALLVALUE PUSH2 0x288 JUMPI PUSH2 0x6CE CALLDATASIZE PUSH1 0x4 PUSH2 0x27E JUMP JUMPDEST PUSH2 0x2E1 PUSH32 0x0 PUSH2 0x2D1 JUMP JUMPDEST PUSH2 0x2B0 SWAP1 PUSH2 0x57F JUMP JUMPDEST PUSH1 0x20 DUP2 ADD SWAP3 SWAP2 PUSH2 0x2B4 SWAP2 SWAP1 PUSH2 0x6F7 JUMP JUMPDEST CALLVALUE PUSH2 0x288 JUMPI PUSH2 0x720 CALLDATASIZE PUSH1 0x4 PUSH2 0x27E JUMP JUMPDEST PUSH2 0x2E1 PUSH32 0x0 JUMPDEST PUSH1 0x40 MLOAD SWAP2 DUP3 SWAP2 DUP3 PUSH2 0x700 JUMP JUMPDEST CALLVALUE PUSH2 0x288 JUMPI PUSH2 0x761 CALLDATASIZE PUSH1 0x4 PUSH2 0x27E JUMP JUMPDEST PUSH2 0x2E1 PUSH2 0x2D1 PUSH2 0x1049 JUMP JUMPDEST CALLVALUE PUSH2 0x288 JUMPI PUSH2 0x77C CALLDATASIZE PUSH1 0x4 PUSH2 0x27E JUMP JUMPDEST PUSH2 0x642 PUSH2 0x127F JUMP JUMPDEST SWAP1 PUSH1 0x20 DUP3 DUP3 SUB SLT PUSH2 0x288 JUMPI PUSH2 0x297 SWAP2 PUSH2 0x3DA JUMP JUMPDEST CALLVALUE PUSH2 0x288 JUMPI PUSH2 0x642 PUSH2 0x7AB CALLDATASIZE PUSH1 0x4 PUSH2 0x784 JUMP JUMPDEST PUSH2 0x13F7 JUMP JUMPDEST CALLVALUE PUSH2 0x288 JUMPI PUSH2 0x7C0 CALLDATASIZE PUSH1 0x4 PUSH2 0x27E JUMP JUMPDEST PUSH2 0x2E1 PUSH32 0x0 PUSH2 0x745 JUMP JUMPDEST CALLVALUE PUSH2 0x288 JUMPI PUSH2 0x7F9 CALLDATASIZE PUSH1 0x4 PUSH2 0x27E JUMP JUMPDEST PUSH2 0x642 PUSH2 0x1400 JUMP JUMPDEST CALLVALUE PUSH2 0x288 JUMPI PUSH2 0x2E1 PUSH2 0x2D1 PUSH2 0x817 CALLDATASIZE PUSH1 0x4 PUSH2 0x784 JUMP JUMPDEST PUSH2 0x1664 JUMP JUMPDEST CALLVALUE PUSH2 0x288 JUMPI PUSH2 0x2E1 PUSH2 0x2D1 PUSH2 0x832 CALLDATASIZE PUSH1 0x4 PUSH2 0x784 JUMP JUMPDEST PUSH2 0x18DC JUMP JUMPDEST CALLVALUE PUSH2 0x288 JUMPI PUSH2 0x847 CALLDATASIZE PUSH1 0x4 PUSH2 0x27E JUMP JUMPDEST PUSH2 0x2E1 PUSH2 0x2D1 PUSH2 0x1A9F JUMP JUMPDEST CALLVALUE PUSH2 0x288 JUMPI PUSH2 0x862 CALLDATASIZE PUSH1 0x4 PUSH2 0x27E JUMP JUMPDEST PUSH2 0x2E1 PUSH32 0x0 PUSH2 0x473 JUMP JUMPDEST PUSH2 0x297 PUSH1 0x12 PUSH2 0x433 JUMP JUMPDEST PUSH2 0x297 PUSH2 0x88B JUMP JUMPDEST CALLVALUE PUSH2 0x288 JUMPI PUSH2 0x8AD CALLDATASIZE PUSH1 0x4 PUSH2 0x27E JUMP JUMPDEST PUSH2 0x2E1 PUSH2 0x473 PUSH2 0x895 JUMP JUMPDEST CALLVALUE PUSH2 0x288 JUMPI PUSH2 0x8C8 CALLDATASIZE PUSH1 0x4 PUSH2 0x27E JUMP JUMPDEST PUSH2 0x2E1 PUSH32 0x0 PUSH2 0x473 JUMP JUMPDEST PUSH2 0x297 PUSH3 0x15180 PUSH2 0x31E JUMP JUMPDEST PUSH2 0x297 PUSH2 0x8F1 JUMP JUMPDEST CALLVALUE PUSH2 0x288 JUMPI PUSH2 0x915 CALLDATASIZE PUSH1 0x4 PUSH2 0x27E JUMP JUMPDEST PUSH2 0x2E1 PUSH2 0x2D1 PUSH2 0x8FD JUMP JUMPDEST PUSH2 0x297 PUSH0 PUSH1 0x3 PUSH2 0x29A JUMP JUMPDEST CALLVALUE PUSH2 0x288 JUMPI PUSH2 0x93B CALLDATASIZE PUSH1 0x4 PUSH2 0x27E JUMP JUMPDEST PUSH2 0x2E1 PUSH2 0x2D1 PUSH2 0x920 JUMP JUMPDEST CALLVALUE PUSH2 0x288 JUMPI PUSH2 0x956 CALLDATASIZE PUSH1 0x4 PUSH2 0x27E JUMP JUMPDEST PUSH2 0x2E1 PUSH32 0x0 PUSH2 0x473 JUMP JUMPDEST CALLVALUE PUSH2 0x288 JUMPI PUSH2 0x98F CALLDATASIZE PUSH1 0x4 PUSH2 0x27E JUMP JUMPDEST PUSH2 0x2E1 PUSH32 0x0 PUSH2 0x5EB JUMP JUMPDEST PUSH2 0x297 PUSH0 DUP1 PUSH2 0x29A JUMP JUMPDEST CALLVALUE PUSH2 0x288 JUMPI PUSH2 0x9D2 CALLDATASIZE PUSH1 0x4 PUSH2 0x27E JUMP JUMPDEST PUSH2 0x2E1 PUSH2 0x2D1 PUSH2 0x9B8 JUMP JUMPDEST CALLVALUE PUSH2 0x288 JUMPI PUSH2 0x9ED CALLDATASIZE PUSH1 0x4 PUSH2 0x27E JUMP JUMPDEST PUSH2 0x2E1 PUSH32 0x0 PUSH2 0x745 JUMP JUMPDEST CALLVALUE PUSH2 0x288 JUMPI PUSH2 0xA26 CALLDATASIZE PUSH1 0x4 PUSH2 0x27E JUMP JUMPDEST PUSH2 0x2E1 PUSH32 0x0 PUSH2 0x5EB JUMP JUMPDEST CALLVALUE PUSH2 0x288 JUMPI PUSH2 0xA5F CALLDATASIZE PUSH1 0x4 PUSH2 0x27E JUMP JUMPDEST PUSH2 0x2E1 PUSH32 0x0 PUSH2 0x473 JUMP JUMPDEST CALLVALUE PUSH2 0x288 JUMPI PUSH2 0xA98 CALLDATASIZE PUSH1 0x4 PUSH2 0x27E JUMP JUMPDEST PUSH2 0x2E1 PUSH32 0x0 PUSH2 0x2D1 JUMP JUMPDEST PUSH2 0x297 SWAP1 PUSH2 0x440 JUMP JUMPDEST PUSH2 0x297 SWAP1 SLOAD PUSH2 0xAC1 JUMP JUMPDEST PUSH2 0xADC PUSH2 0x1049 JUMP JUMPDEST PUSH2 0xAE5 PUSH0 PUSH2 0x31E JUMP JUMPDEST DUP2 EQ PUSH2 0xB01 JUMPI TIMESTAMP LT ISZERO PUSH2 0xAFC JUMPI PUSH2 0x297 PUSH1 0x5 PUSH2 0xACA JUMP JUMPDEST PUSH1 0x3 SWAP1 JUMP JUMPDEST POP PUSH0 SWAP1 JUMP JUMPDEST PUSH2 0x297 SWAP3 SWAP2 SWAP1 PUSH2 0x1BA8 JUMP JUMPDEST PUSH2 0xB3A PUSH32 0x0 PUSH2 0x57F JUMP JUMPDEST PUSH2 0xB43 CALLER PUSH2 0x57F JUMP JUMPDEST SUB PUSH2 0xB51 JUMPI PUSH2 0x2B4 SWAP1 PUSH2 0xBE9 JUMP JUMPDEST PUSH4 0x9C867E21 PUSH1 0xE0 SHL PUSH0 SWAP1 DUP2 MSTORE PUSH1 0x4 JUMPDEST SUB PUSH0 REVERT JUMPDEST PUSH4 0x4E487B71 PUSH1 0xE0 SHL PUSH0 MSTORE PUSH1 0x41 PUSH1 0x4 MSTORE PUSH1 0x24 PUSH0 REVERT JUMPDEST SWAP1 PUSH1 0x1F ADD PUSH1 0x1F NOT AND DUP2 ADD SWAP1 DUP2 LT PUSH8 0xFFFFFFFFFFFFFFFF DUP3 GT OR PUSH2 0xB9A JUMPI PUSH1 0x40 MSTORE JUMP JUMPDEST PUSH2 0xB64 JUMP JUMPDEST SWAP1 POP MLOAD SWAP1 PUSH2 0x2B4 DUP3 PUSH2 0x3D1 JUMP JUMPDEST SWAP1 PUSH1 0x20 DUP3 DUP3 SUB SLT PUSH2 0x288 JUMPI PUSH2 0x297 SWAP2 PUSH2 0xB9F JUMP JUMPDEST PUSH1 0x40 MLOAD RETURNDATASIZE PUSH0 DUP3 RETURNDATACOPY RETURNDATASIZE SWAP1 REVERT JUMPDEST SWAP2 PUSH1 0x20 PUSH2 0x2B4 SWAP3 SWAP5 SWAP4 PUSH2 0xBE5 PUSH1 0x40 DUP3 ADD SWAP7 PUSH0 DUP4 ADD SWAP1 PUSH2 0x6F7 JUMP JUMPDEST ADD MSTORE JUMP JUMPDEST PUSH2 0xC12 PUSH32 0x0 PUSH2 0x5F7 JUMP JUMPDEST PUSH2 0xC1B DUP3 PUSH2 0x5F7 JUMP JUMPDEST EQ PUSH2 0xD0B JUMPI DUP1 PUSH2 0xC2D PUSH2 0xC55 SWAP3 PUSH2 0x594 JUMP JUMPDEST PUSH1 0x20 PUSH2 0xC38 ADDRESS PUSH2 0x594 JUMP JUMPDEST PUSH1 0x40 MLOAD SWAP5 DUP6 SWAP2 DUP3 SWAP2 SWAP1 PUSH4 0x70A08231 PUSH1 0xE0 SHL JUMPDEST DUP4 MSTORE PUSH1 0x4 DUP4 ADD PUSH2 0x700 JUMP JUMPDEST SUB DUP2 DUP5 GAS STATICCALL SWAP2 DUP3 ISZERO PUSH2 0xD06 JUMPI PUSH32 0x8AEC0CE3DADFFACF4B7A963E0FED1FF2E6151B4C95D4A65ACAFA9D1299630402 SWAP4 PUSH0 SWAP4 PUSH2 0xCD1 JUMPI JUMPDEST POP DUP3 PUSH2 0xCB7 SWAP2 PUSH32 0x0 SWAP1 PUSH2 0x1C0F JUMP JUMPDEST PUSH2 0xCCC PUSH2 0xCC3 PUSH1 0x40 MLOAD SWAP1 JUMP JUMPDEST SWAP3 DUP4 SWAP3 DUP4 PUSH2 0xBCB JUMP JUMPDEST SUB SWAP1 LOG1 JUMP JUMPDEST PUSH2 0xCB7 SWAP2 SWAP4 POP PUSH2 0xCF8 SWAP1 PUSH1 0x20 RETURNDATASIZE PUSH1 0x20 GT PUSH2 0xCFF JUMPI JUMPDEST PUSH2 0xCF0 DUP2 DUP4 PUSH2 0xB78 JUMP JUMPDEST DUP2 ADD SWAP1 PUSH2 0xBAC JUMP JUMPDEST SWAP3 SWAP1 PUSH2 0xC8A JUMP JUMPDEST POP RETURNDATASIZE PUSH2 0xCE6 JUMP JUMPDEST PUSH2 0xBC0 JUMP JUMPDEST PUSH4 0xBF27C04F PUSH1 0xE0 SHL PUSH0 SWAP1 DUP2 MSTORE PUSH1 0x4 SWAP1 REVERT JUMPDEST PUSH2 0x2B4 SWAP1 PUSH2 0xB11 JUMP JUMPDEST PUSH2 0x297 SWAP1 DUP2 JUMP JUMPDEST PUSH2 0x297 SWAP1 SLOAD PUSH2 0xD25 JUMP JUMPDEST PUSH4 0x4E487B71 PUSH1 0xE0 SHL PUSH0 MSTORE PUSH1 0x11 PUSH1 0x4 MSTORE PUSH1 0x24 PUSH0 REVERT JUMPDEST SWAP2 SWAP1 DUP3 ADD DUP1 SWAP3 GT PUSH2 0xD57 JUMPI JUMP JUMPDEST PUSH2 0xD36 JUMP JUMPDEST SWAP1 DUP2 MSTORE PUSH1 0x40 DUP2 ADD SWAP3 SWAP2 PUSH2 0x2B4 SWAP2 PUSH1 0x20 ADD MSTORE JUMP JUMPDEST SWAP1 PUSH0 NOT SWAP1 JUMPDEST SWAP2 DUP2 NOT AND SWAP2 AND OR SWAP1 JUMP JUMPDEST SWAP1 PUSH2 0xD8E PUSH2 0x297 PUSH2 0xD95 SWAP3 PUSH2 0x31E JUMP JUMPDEST DUP3 SLOAD PUSH2 0xD6F JUMP JUMPDEST SWAP1 SSTORE JUMP JUMPDEST PUSH2 0xDA3 PUSH1 0x5 PUSH2 0xACA JUMP JUMPDEST PUSH2 0xDB5 PUSH2 0xDAF PUSH0 PUSH2 0x37E JUMP JUMPDEST SWAP2 PUSH2 0x37E JUMP JUMPDEST EQ PUSH2 0xFF7 JUMPI PUSH32 0x0 PUSH2 0xDE4 DUP2 PUSH2 0x57F JUMP JUMPDEST PUSH2 0xDED CALLER PUSH2 0x57F JUMP JUMPDEST EQ ISZERO DUP1 PUSH2 0xFB8 JUMPI JUMPDEST PUSH2 0xFA7 JUMPI PUSH2 0xE01 PUSH2 0x1A9F JUMP JUMPDEST DUP1 PUSH2 0xE0B PUSH0 PUSH2 0x31E JUMP JUMPDEST DUP2 EQ PUSH2 0xF96 JUMPI PUSH2 0xE1A SWAP1 PUSH2 0x1664 JUMP JUMPDEST SWAP2 DUP3 SWAP1 PUSH2 0xE26 PUSH0 PUSH2 0x31E JUMP JUMPDEST DUP5 EQ PUSH2 0xF96 JUMPI PUSH2 0xE84 SWAP4 PUSH32 0x0 SWAP1 PUSH1 0x20 PUSH2 0xE5D DUP4 PUSH2 0x594 JUMP JUMPDEST PUSH2 0xE66 ADDRESS PUSH2 0x594 JUMP JUMPDEST SWAP1 PUSH2 0xE70 PUSH1 0x40 MLOAD SWAP1 JUMP JUMPDEST SWAP9 DUP10 SWAP3 DUP4 SWAP2 DUP3 SWAP2 PUSH4 0x70A08231 PUSH1 0xE0 SHL PUSH2 0xC4A JUMP JUMPDEST SUB SWAP2 GAS STATICCALL SWAP1 DUP2 ISZERO PUSH2 0xD06 JUMPI PUSH32 0xC83B5086CE94EC8D5A88A9F5FEA4B18A522BB238ED0D2D8ABD959549A80C16B8 SWAP7 PUSH0 SWAP3 PUSH2 0xF75 JUMPI JUMPDEST POP DUP1 DUP3 LT PUSH2 0xF23 JUMPI JUMPDEST POP POP PUSH2 0xF0E SWAP2 DUP4 SWAP2 PUSH2 0xED4 TIMESTAMP PUSH1 0x1 PUSH2 0xD7E JUMP JUMPDEST PUSH2 0xEF1 PUSH2 0xEEA DUP8 PUSH2 0xEE5 PUSH1 0x3 PUSH2 0xD2C JUMP JUMPDEST PUSH2 0xD4A JUMP JUMPDEST PUSH1 0x3 PUSH2 0xD7E JUMP JUMPDEST PUSH2 0xF09 PUSH2 0xF02 DUP5 PUSH2 0xEE5 PUSH1 0x4 PUSH2 0xD2C JUMP JUMPDEST PUSH1 0x4 PUSH2 0xD7E JUMP JUMPDEST PUSH2 0x1C0F JUMP JUMPDEST PUSH2 0xCCC PUSH2 0xF1A PUSH1 0x40 MLOAD SWAP1 JUMP JUMPDEST SWAP3 DUP4 SWAP3 DUP4 PUSH2 0xD5C JUMP JUMPDEST DUP2 PUSH2 0xF0E SWAP5 SWAP3 SWAP4 SWAP7 POP PUSH2 0xF6B SWAP6 POP PUSH32 0x521D4EC08EA54943095F5F84755DE8B51E1222628C06DAA159D618C8C5FDA56A SWAP2 PUSH2 0xF5F PUSH2 0xF1A PUSH1 0x40 MLOAD SWAP1 JUMP JUMPDEST SUB SWAP1 LOG1 DUP2 SWAP4 DUP5 SWAP3 PUSH2 0x18DC JUMP JUMPDEST SWAP5 SWAP2 DUP2 SWAP4 POP PUSH2 0xEC1 JUMP JUMPDEST PUSH2 0xF8F SWAP2 SWAP3 POP PUSH1 0x20 RETURNDATASIZE PUSH1 0x20 GT PUSH2 0xCFF JUMPI PUSH2 0xCF0 DUP2 DUP4 PUSH2 0xB78 JUMP JUMPDEST SWAP1 PUSH0 PUSH2 0xEB8 JUMP JUMPDEST PUSH4 0x1F2A2005 PUSH1 0xE0 SHL PUSH0 SWAP1 DUP2 MSTORE PUSH1 0x4 SWAP1 REVERT JUMPDEST PUSH4 0x5A06399F PUSH1 0xE1 SHL PUSH0 SWAP1 DUP2 MSTORE PUSH1 0x4 SWAP1 REVERT JUMPDEST POP PUSH2 0xFF0 PUSH2 0x297 PUSH2 0xFC9 PUSH1 0x1 PUSH2 0xD2C JUMP JUMPDEST PUSH32 0x0 SWAP1 PUSH2 0xD4A JUMP JUMPDEST TIMESTAMP LT PUSH2 0xDF5 JUMP JUMPDEST PUSH4 0x21C4E357 PUSH1 0xE2 SHL PUSH0 SWAP1 DUP2 MSTORE PUSH1 0x4 SWAP1 REVERT JUMPDEST PUSH2 0x1031 PUSH32 0x0 PUSH2 0x57F JUMP JUMPDEST PUSH2 0x103A CALLER PUSH2 0x57F JUMP JUMPDEST SUB PUSH2 0xB51 JUMPI JUMP JUMPDEST PUSH2 0x2B4 PUSH2 0x1008 JUMP JUMPDEST PUSH2 0x1053 PUSH1 0x5 PUSH2 0xACA JUMP JUMPDEST PUSH2 0x105F PUSH2 0xDAF PUSH0 PUSH2 0x37E JUMP JUMPDEST EQ PUSH2 0x10BD JUMPI PUSH2 0x106E PUSH1 0x5 PUSH2 0xACA JUMP JUMPDEST PUSH2 0x107B PUSH2 0xDAF PUSH1 0x2 PUSH2 0x37E JUMP JUMPDEST SUB PUSH2 0x108A JUMPI PUSH2 0x297 PUSH1 0x2 PUSH2 0xD2C JUMP JUMPDEST PUSH2 0x297 PUSH2 0x1096 PUSH0 PUSH2 0xD2C JUMP JUMPDEST PUSH32 0x0 SWAP1 PUSH2 0xD4A JUMP JUMPDEST PUSH2 0x297 PUSH0 PUSH2 0x31E JUMP JUMPDEST PUSH2 0x10EF PUSH32 0x0 PUSH2 0x57F JUMP JUMPDEST PUSH2 0x10F8 CALLER PUSH2 0x57F JUMP JUMPDEST SUB PUSH2 0xB51 JUMPI PUSH2 0x2B4 PUSH2 0x1125 JUMP JUMPDEST SWAP1 PUSH1 0xFF SWAP1 PUSH2 0xD74 JUMP JUMPDEST SWAP1 PUSH2 0x111E PUSH2 0x297 PUSH2 0xD95 SWAP3 PUSH2 0x388 JUMP JUMPDEST DUP3 SLOAD PUSH2 0x1105 JUMP JUMPDEST PUSH2 0x112F PUSH1 0x5 PUSH2 0xACA JUMP JUMPDEST PUSH2 0x113B PUSH2 0xDAF PUSH0 PUSH2 0x37E JUMP JUMPDEST SUB PUSH2 0x126F JUMPI PUSH2 0x114A TIMESTAMP PUSH0 PUSH2 0xD7E JUMP JUMPDEST PUSH2 0x1155 TIMESTAMP PUSH1 0x1 PUSH2 0xD7E JUMP JUMPDEST PUSH2 0x1161 PUSH1 0x1 PUSH1 0x5 PUSH2 0x110E JUMP JUMPDEST PUSH2 0x11B6 PUSH1 0x20 PUSH2 0x118F PUSH32 0x0 PUSH2 0x594 JUMP JUMPDEST PUSH2 0x1198 ADDRESS PUSH2 0x594 JUMP JUMPDEST SWAP1 PUSH2 0x11A2 PUSH1 0x40 MLOAD SWAP1 JUMP JUMPDEST SWAP4 DUP5 SWAP3 DUP4 SWAP2 DUP3 SWAP2 PUSH4 0x70A08231 PUSH1 0xE0 SHL PUSH2 0xC4A JUMP JUMPDEST SUB SWAP2 GAS STATICCALL SWAP1 DUP2 ISZERO PUSH2 0xD06 JUMPI PUSH0 SWAP2 PUSH2 0x1250 JUMPI JUMPDEST POP PUSH2 0x11D2 DUP2 PUSH2 0x18DC JUMP JUMPDEST PUSH32 0x0 SWAP2 SWAP1 DUP3 SWAP1 PUSH2 0x1200 JUMP JUMPDEST SWAP2 SWAP1 JUMP JUMPDEST LT PUSH2 0x1238 JUMPI POP POP PUSH32 0x5DAA87A0E9463431830481FD4B6E3403442DFB9A12B9C07597E9F61D50B633C8 PUSH2 0x1231 PUSH1 0x40 MLOAD SWAP1 JUMP JUMPDEST DUP1 DUP1 PUSH2 0xCCC JUMP JUMPDEST PUSH4 0x4787A103 PUSH1 0xE1 SHL PUSH0 SWAP1 DUP2 MSTORE SWAP2 PUSH2 0xB60 SWAP2 PUSH1 0x4 PUSH2 0xD5C JUMP JUMPDEST PUSH2 0x1269 SWAP2 POP PUSH1 0x20 RETURNDATASIZE PUSH1 0x20 GT PUSH2 0xCFF JUMPI PUSH2 0xCF0 DUP2 DUP4 PUSH2 0xB78 JUMP JUMPDEST PUSH0 PUSH2 0x11C8 JUMP JUMPDEST PUSH3 0xDC149F PUSH1 0xE4 SHL PUSH0 SWAP1 DUP2 MSTORE PUSH1 0x4 SWAP1 REVERT JUMPDEST PUSH2 0x2B4 PUSH2 0x10C6 JUMP JUMPDEST PUSH2 0x12B0 PUSH32 0x0 PUSH2 0x57F JUMP JUMPDEST PUSH2 0x12B9 CALLER PUSH2 0x57F JUMP JUMPDEST SUB PUSH2 0xB51 JUMPI PUSH2 0x2B4 SWAP1 PUSH2 0x12CC PUSH1 0x5 PUSH2 0xACA JUMP JUMPDEST SWAP1 PUSH1 0x2 SWAP2 PUSH2 0x12DC PUSH2 0xDAF DUP5 PUSH2 0x37E JUMP JUMPDEST EQ PUSH2 0x13E6 JUMPI PUSH2 0x12EA PUSH0 PUSH2 0x31E JUMP JUMPDEST DUP2 SUB PUSH2 0x1393 JUMPI PUSH2 0x1323 PUSH2 0x131D PUSH32 0x0 TIMESTAMP PUSH2 0xD4A JUMP JUMPDEST DUP4 PUSH2 0xD7E JUMP JUMPDEST PUSH2 0x132C DUP3 PUSH2 0xD2C JUMP JUMPDEST PUSH2 0x133E PUSH2 0x11FC PUSH2 0x297 PUSH2 0x1096 PUSH0 PUSH2 0xD2C JUMP JUMPDEST GT PUSH2 0x137C JUMPI POP PUSH2 0xCCC PUSH2 0x2D1 DUP3 PUSH2 0x1377 PUSH32 0x9A9CAD27A1BDCE3D7CB0602AAF727DFAAD03BA6524D9BCA7B9615867FA6802B4 SWAP5 PUSH1 0x5 PUSH2 0x110E JUMP JUMPDEST PUSH2 0xD2C JUMP JUMPDEST PUSH4 0x51FE0483 PUSH1 0xE1 SHL PUSH0 SWAP1 DUP2 MSTORE PUSH1 0x4 SWAP2 SWAP1 SWAP2 MSTORE PUSH1 0x24 SWAP1 REVERT JUMPDEST PUSH2 0x13C0 PUSH2 0x297 PUSH32 0x0 TIMESTAMP PUSH2 0xD4A JUMP JUMPDEST DUP2 LT PUSH2 0x13D5 JUMPI PUSH2 0x13D0 DUP2 DUP4 PUSH2 0xD7E JUMP JUMPDEST PUSH2 0x1323 JUMP JUMPDEST PUSH4 0x25C36367 PUSH1 0xE0 SHL PUSH0 SWAP1 DUP2 MSTORE PUSH1 0x4 SWAP1 REVERT JUMPDEST PUSH4 0x2AAA6855 PUSH1 0xE1 SHL PUSH0 SWAP1 DUP2 MSTORE PUSH1 0x4 SWAP1 REVERT JUMPDEST PUSH2 0x2B4 SWAP1 PUSH2 0x1287 JUMP JUMPDEST PUSH2 0x140A PUSH1 0x5 PUSH2 0xACA JUMP JUMPDEST PUSH2 0x1416 PUSH2 0xDAF PUSH0 PUSH2 0x37E JUMP JUMPDEST SUB PUSH2 0x150B JUMPI PUSH2 0x1444 PUSH32 0x0 PUSH2 0x57F JUMP JUMPDEST PUSH2 0x144D CALLER PUSH2 0x57F JUMP JUMPDEST SUB PUSH2 0xB51 JUMPI JUMPDEST PUSH32 0x0 PUSH2 0x1482 PUSH1 0x20 PUSH2 0x118F DUP4 PUSH2 0x594 JUMP JUMPDEST SUB SWAP2 GAS STATICCALL DUP1 ISZERO PUSH2 0xD06 JUMPI PUSH32 0x7F221332EE403570BF4D61630B58189EA566FF1635269001E9DF6A890F413DD8 SWAP3 PUSH2 0xCCC SWAP3 PUSH0 SWAP3 PUSH2 0x14E6 JUMPI JUMPDEST POP DUP2 PUSH2 0x2D1 SWAP2 PUSH32 0x0 SWAP1 PUSH2 0x1C0F JUMP JUMPDEST PUSH2 0x2D1 SWAP2 SWAP3 POP PUSH2 0x1504 SWAP1 PUSH1 0x20 RETURNDATASIZE PUSH1 0x20 GT PUSH2 0xCFF JUMPI PUSH2 0xCF0 DUP2 DUP4 PUSH2 0xB78 JUMP JUMPDEST SWAP2 SWAP1 PUSH2 0x14B9 JUMP JUMPDEST PUSH2 0x1513 PUSH2 0x1049 JUMP JUMPDEST PUSH2 0x153C PUSH32 0x0 PUSH2 0x57F JUMP JUMPDEST PUSH2 0x1545 CALLER PUSH2 0x57F JUMP JUMPDEST SUB PUSH2 0x1561 JUMPI TIMESTAMP GT PUSH2 0x1453 JUMPI PUSH4 0xA33E7099 PUSH1 0xE0 SHL PUSH0 SWAP1 DUP2 MSTORE PUSH1 0x4 SWAP1 REVERT JUMPDEST PUSH2 0x297 PUSH2 0x158F SWAP2 PUSH32 0x0 SWAP1 PUSH2 0xD4A JUMP JUMPDEST TIMESTAMP GT PUSH2 0x1453 JUMPI PUSH4 0x42F54AF PUSH1 0xE0 SHL PUSH0 SWAP1 DUP2 MSTORE PUSH1 0x4 SWAP1 REVERT JUMPDEST PUSH10 0xFFFFFFFFFFFFFFFFFFFF DUP2 AND PUSH2 0x3D3 JUMP JUMPDEST SWAP1 POP MLOAD SWAP1 PUSH2 0x2B4 DUP3 PUSH2 0x15A6 JUMP JUMPDEST SWAP2 SWAP1 PUSH1 0xA0 DUP4 DUP3 SUB SLT PUSH2 0x288 JUMPI PUSH2 0x15DB DUP2 DUP5 PUSH2 0x15B8 JUMP JUMPDEST SWAP3 PUSH2 0x15E9 DUP3 PUSH1 0x20 DUP4 ADD PUSH2 0xB9F JUMP JUMPDEST SWAP3 PUSH2 0x297 PUSH2 0x15FA DUP5 PUSH1 0x40 DUP6 ADD PUSH2 0xB9F JUMP JUMPDEST SWAP4 PUSH1 0x80 PUSH2 0x160A DUP3 PUSH1 0x60 DUP8 ADD PUSH2 0xB9F JUMP JUMPDEST SWAP5 ADD PUSH2 0x15B8 JUMP JUMPDEST PUSH2 0x297 PUSH2 0x297 PUSH2 0x297 SWAP3 PUSH1 0xFF AND SWAP1 JUMP JUMPDEST SWAP2 SWAP1 DUP3 SUB SWAP2 DUP3 GT PUSH2 0xD57 JUMPI JUMP JUMPDEST DUP2 DUP2 MUL SWAP3 SWAP2 DUP2 ISZERO SWAP2 DUP5 DIV EQ OR ISZERO PUSH2 0xD57 JUMPI JUMP JUMPDEST PUSH4 0x4E487B71 PUSH1 0xE0 SHL PUSH0 MSTORE PUSH1 0x12 PUSH1 0x4 MSTORE PUSH1 0x24 PUSH0 REVERT JUMPDEST DUP2 ISZERO PUSH2 0x165F JUMPI DIV SWAP1 JUMP JUMPDEST PUSH2 0x1641 JUMP JUMPDEST PUSH2 0x168D PUSH32 0x0 PUSH2 0x594 JUMP JUMPDEST PUSH4 0xFEAF968C SWAP2 PUSH1 0xA0 PUSH2 0x169E PUSH1 0x40 MLOAD SWAP1 JUMP JUMPDEST DUP1 SWAP4 PUSH2 0x16AA DUP7 PUSH1 0xE0 SHL SWAP1 JUMP JUMPDEST DUP3 MSTORE PUSH1 0x4 SWAP1 DUP3 SWAP1 GAS STATICCALL SWAP2 DUP3 ISZERO PUSH2 0xD06 JUMPI PUSH0 SWAP3 PUSH2 0x18B8 JUMPI JUMPDEST POP PUSH2 0x16CB PUSH0 PUSH2 0x31E JUMP JUMPDEST DUP3 SGT ISZERO PUSH2 0x1874 JUMPI PUSH1 0xA0 PUSH2 0x170D SWAP4 PUSH2 0x1701 PUSH32 0x0 PUSH2 0x594 JUMP JUMPDEST PUSH1 0x40 MLOAD SWAP6 DUP7 SWAP3 PUSH1 0xE0 SHL SWAP1 JUMP JUMPDEST DUP3 MSTORE PUSH1 0x4 SWAP1 DUP3 SWAP1 GAS STATICCALL SWAP3 DUP4 ISZERO PUSH2 0xD06 JUMPI PUSH0 SWAP4 PUSH2 0x1884 JUMPI JUMPDEST POP PUSH2 0x172E PUSH0 PUSH2 0x31E JUMP JUMPDEST DUP4 SGT ISZERO PUSH2 0x1874 JUMPI PUSH2 0x297 SWAP3 PUSH2 0x17DB PUSH2 0x1844 SWAP3 PUSH2 0x183F PUSH2 0x174F PUSH2 0x179F SWAP7 PUSH2 0x31E JUMP JUMPDEST PUSH2 0x1815 PUSH32 0x0 SWAP2 PUSH2 0x17E6 PUSH2 0x17E0 PUSH2 0x1794 PUSH2 0x178E PUSH2 0x1788 PUSH2 0x88B JUMP JUMPDEST SWAP7 PUSH2 0x1611 JUMP JUMPDEST SWAP6 PUSH2 0x1611 JUMP JUMPDEST SWAP11 DUP12 DUP1 SWAP7 DUP2 SWAP6 PUSH2 0x1BA8 JUMP JUMPDEST PUSH2 0x17DB PUSH2 0x17AA PUSH2 0x32B JUMP JUMPDEST SWAP2 PUSH2 0x17D5 PUSH32 0x0 DUP5 PUSH2 0x1621 JUMP JUMPDEST SWAP1 PUSH2 0x162E JUMP JUMPDEST PUSH2 0x1655 JUMP JUMPDEST SWAP8 PUSH2 0x31E JUMP JUMPDEST PUSH2 0x180F PUSH32 0x0 PUSH2 0x1611 JUMP JUMPDEST SWAP1 PUSH2 0x1BA8 JUMP JUMPDEST SWAP3 PUSH2 0x180F PUSH32 0x0 PUSH2 0x1611 JUMP JUMPDEST PUSH2 0x162E JUMP JUMPDEST SWAP1 PUSH2 0x186E PUSH32 0x0 PUSH2 0x1611 JUMP JUMPDEST SWAP2 PUSH2 0x1BA8 JUMP JUMPDEST PUSH3 0xBFC921 PUSH1 0xE0 SHL PUSH0 SWAP1 DUP2 MSTORE PUSH1 0x4 SWAP1 REVERT JUMPDEST PUSH2 0x18A7 SWAP2 SWAP4 POP PUSH1 0xA0 RETURNDATASIZE PUSH1 0xA0 GT PUSH2 0x18B1 JUMPI JUMPDEST PUSH2 0x189F DUP2 DUP4 PUSH2 0xB78 JUMP JUMPDEST DUP2 ADD SWAP1 PUSH2 0x15C5 JUMP JUMPDEST POP POP POP SWAP3 SWAP1 PUSH2 0x1724 JUMP JUMPDEST POP RETURNDATASIZE PUSH2 0x1895 JUMP JUMPDEST PUSH2 0x18D2 SWAP2 SWAP3 POP PUSH1 0xA0 RETURNDATASIZE PUSH1 0xA0 GT PUSH2 0x18B1 JUMPI PUSH2 0x189F DUP2 DUP4 PUSH2 0xB78 JUMP JUMPDEST POP POP POP SWAP2 SWAP1 PUSH2 0x16C1 JUMP JUMPDEST PUSH2 0x1905 PUSH32 0x0 PUSH2 0x594 JUMP JUMPDEST PUSH4 0xFEAF968C PUSH1 0xA0 PUSH2 0x1915 PUSH1 0x40 MLOAD SWAP1 JUMP JUMPDEST DUP1 SWAP4 PUSH2 0x1921 DUP5 PUSH1 0xE0 SHL SWAP1 JUMP JUMPDEST DUP3 MSTORE PUSH1 0x4 SWAP1 DUP3 SWAP1 GAS STATICCALL SWAP2 DUP3 ISZERO PUSH2 0xD06 JUMPI PUSH0 SWAP3 PUSH2 0x1A7B JUMPI JUMPDEST POP PUSH2 0x1942 PUSH0 PUSH2 0x31E JUMP JUMPDEST DUP3 SGT ISZERO PUSH2 0x1874 JUMPI PUSH1 0xA0 PUSH2 0x1984 SWAP2 PUSH2 0x1978 PUSH32 0x0 PUSH2 0x594 JUMP JUMPDEST PUSH1 0x40 MLOAD SWAP4 DUP5 SWAP3 PUSH1 0xE0 SHL SWAP1 JUMP JUMPDEST DUP3 MSTORE PUSH1 0x4 SWAP1 DUP3 SWAP1 GAS STATICCALL SWAP1 DUP2 ISZERO PUSH2 0xD06 JUMPI PUSH0 SWAP2 PUSH2 0x1A59 JUMPI JUMPDEST POP PUSH2 0x19A5 PUSH0 PUSH2 0x31E JUMP JUMPDEST DUP2 SGT ISZERO PUSH2 0x1874 JUMPI PUSH2 0x297 SWAP3 PUSH2 0x17DB PUSH2 0x1A2F SWAP3 PUSH2 0x183F PUSH2 0x19C6 PUSH2 0x179F SWAP7 PUSH2 0x31E JUMP JUMPDEST PUSH2 0x1A05 PUSH32 0x0 SWAP2 PUSH2 0x17E6 PUSH2 0x19FF PUSH2 0x1794 PUSH2 0x178E PUSH2 0x1788 PUSH2 0x88B JUMP JUMPDEST SWAP6 PUSH2 0x31E JUMP JUMPDEST SWAP5 PUSH2 0x180F PUSH32 0x0 PUSH2 0x1611 JUMP JUMPDEST SWAP1 PUSH2 0x186E PUSH32 0x0 PUSH2 0x1611 JUMP JUMPDEST PUSH2 0x1A72 SWAP2 POP PUSH1 0xA0 RETURNDATASIZE PUSH1 0xA0 GT PUSH2 0x18B1 JUMPI PUSH2 0x189F DUP2 DUP4 PUSH2 0xB78 JUMP JUMPDEST POP POP POP SWAP1 PUSH2 0x199B JUMP JUMPDEST PUSH2 0x1A95 SWAP2 SWAP3 POP PUSH1 0xA0 RETURNDATASIZE PUSH1 0xA0 GT PUSH2 0x18B1 JUMPI PUSH2 0x189F DUP2 DUP4 PUSH2 0xB78 JUMP JUMPDEST POP POP POP SWAP2 SWAP1 PUSH2 0x1938 JUMP JUMPDEST PUSH0 PUSH2 0x1AAA PUSH1 0x3 PUSH2 0xD2C JUMP JUMPDEST PUSH32 0x0 SWAP1 DUP2 GT ISZERO PUSH2 0x1B8F JUMPI PUSH2 0x1ADB PUSH2 0x1049 JUMP JUMPDEST PUSH2 0x1AE4 PUSH0 PUSH2 0x31E JUMP JUMPDEST DUP2 EQ PUSH2 0x1B83 JUMPI PUSH2 0x297 SWAP3 POP DUP1 TIMESTAMP LT ISZERO PUSH2 0x1B48 JUMPI POP PUSH2 0x1B11 PUSH2 0x1B38 SWAP2 PUSH2 0x17D5 PUSH2 0x1B0B PUSH0 PUSH2 0xD2C JUMP JUMPDEST TIMESTAMP PUSH2 0x1621 JUMP JUMPDEST PUSH32 0x0 SWAP1 PUSH2 0x1655 JUMP JUMPDEST PUSH2 0x1B42 PUSH1 0x3 PUSH2 0xD2C JUMP JUMPDEST SWAP1 PUSH2 0x1621 JUMP JUMPDEST PUSH2 0x1B52 PUSH1 0x5 PUSH2 0xACA JUMP JUMPDEST PUSH2 0x1B5F PUSH2 0xDAF PUSH1 0x2 PUSH2 0x37E JUMP JUMPDEST SUB PUSH2 0x1B7D JUMPI PUSH2 0x1B78 SWAP2 PUSH2 0x17D5 PUSH2 0x1B11 SWAP3 PUSH2 0x1B42 PUSH0 PUSH2 0xD2C JUMP JUMPDEST PUSH2 0x1B38 JUMP JUMPDEST POP PUSH2 0x1B38 JUMP JUMPDEST POP POP POP PUSH2 0x297 PUSH0 PUSH2 0x31E JUMP JUMPDEST POP POP PUSH2 0x297 PUSH0 PUSH2 0x31E JUMP JUMPDEST PUSH1 0x4D DUP2 GT PUSH2 0xD57 JUMPI PUSH1 0xA EXP SWAP1 JUMP JUMPDEST SWAP1 SWAP2 DUP1 DUP4 EQ PUSH2 0x1BE3 JUMPI DUP1 DUP4 GT PUSH2 0x1BCD JUMPI PUSH2 0x1BC8 PUSH2 0x297 SWAP4 PUSH2 0x17D5 SWAP3 PUSH2 0x1621 JUMP JUMPDEST PUSH2 0x1B9A JUMP JUMPDEST PUSH2 0x1BC8 PUSH2 0x1BDD SWAP2 PUSH2 0x297 SWAP5 PUSH2 0x1621 JUMP JUMPDEST SWAP1 PUSH2 0x1655 JUMP JUMPDEST POP SWAP1 POP SWAP1 JUMP JUMPDEST PUSH2 0x1C02 PUSH2 0x1BFC PUSH2 0x297 SWAP3 PUSH4 0xFFFFFFFF AND SWAP1 JUMP JUMPDEST PUSH1 0xE0 SHL SWAP1 JUMP JUMPDEST PUSH1 0x1 PUSH1 0x1 PUSH1 0xE0 SHL SUB NOT AND SWAP1 JUMP JUMPDEST PUSH2 0x1C52 PUSH1 0x4 SWAP3 PUSH2 0x1C43 PUSH2 0x2B4 SWAP6 PUSH2 0x1C29 PUSH4 0xA9059CBB PUSH2 0x1BE9 JUMP JUMPDEST SWAP3 PUSH2 0x1C33 PUSH1 0x40 MLOAD SWAP1 JUMP JUMPDEST SWAP7 DUP8 SWAP5 PUSH1 0x20 DUP7 ADD SWAP1 DUP2 MSTORE ADD PUSH2 0xBCB JUMP JUMPDEST PUSH1 0x20 DUP3 ADD DUP2 SUB DUP3 MSTORE SUB DUP4 PUSH2 0xB78 JUMP JUMPDEST SWAP1 PUSH0 PUSH1 0x20 SWAP2 PUSH2 0x1C5E PUSH0 SWAP1 JUMP JUMPDEST POP DUP3 DUP2 MLOAD SWAP2 ADD DUP3 DUP6 GAS CALL ISZERO PUSH2 0xBC0 JUMPI RETURNDATASIZE PUSH0 MLOAD SWAP1 PUSH2 0x1C7D PUSH2 0x11FC PUSH0 PUSH2 0x31E JUMP JUMPDEST SUB PUSH2 0x1CC2 JUMPI POP PUSH2 0x1C8C DUP2 PUSH2 0x594 JUMP JUMPDEST EXTCODESIZE PUSH2 0x1C99 PUSH2 0x11FC PUSH0 PUSH2 0x31E JUMP JUMPDEST EQ JUMPDEST PUSH2 0x1CA2 JUMPI POP JUMP JUMPDEST PUSH2 0xB60 PUSH2 0x1CAF PUSH0 SWAP3 PUSH2 0x594 JUMP JUMPDEST PUSH4 0x5274AFE7 PUSH1 0xE0 SHL DUP4 MSTORE PUSH1 0x4 DUP4 ADD PUSH2 0x700 JUMP JUMPDEST PUSH2 0x1CCF PUSH2 0x11FC PUSH1 0x1 PUSH2 0x31E JUMP JUMPDEST EQ ISZERO PUSH2 0x1C9B JUMP INVALID LOG2 PUSH5 0x6970667358 0x22 SLT KECCAK256 0xA8 JUMPDEST MSTORE8 SLOAD 0xDB 0xEB SWAP5 0xAE MUL GASLIMIT 0x2A MOD JUMPI 0xB8 SELFBALANCE PUSH3 0x816C1D MULMOD PUSH16 0x5B405E05FD90CA1F9148A864736F6C63 NUMBER STOP ADDMOD SAR STOP CALLER "
        },
        "methodIdentifiers": {
          "$onlyStreamCreator()": "59ac8f07",
          "$scaleAmount(uint256,uint256,uint256)": "320d7b3d",
          "MIN_DECIMALS()": "33d263f2",
          "MIN_DURATION()": "b6a6d177",
          "SCALE_DECIMALS()": "ad9161cc",
          "SLIPPAGE_SCALE()": "24938e9f",
          "__hh_exposed_bytecode_marker()": "342db739",
          "calculateNativeAssetAmount(uint256)": "9cfbce51",
          "calculateStreamingAssetAmount(uint256)": "98018b8b",
          "claim()": "4e71d92d",
          "claimCooldown()": "fdea3657",
          "getNativeAssetAmountOwed()": "aa5c9691",
          "getStreamEnd()": "6eb6a820",
          "getStreamState()": "2ae4e931",
          "initialize()": "8129fc1c",
          "lastClaimTimestamp()": "607af397",
          "minimumNoticePeriod()": "414a6279",
          "nativeAssetDecimals()": "f47083bc",
          "nativeAssetOracle()": "efb1ad5d",
          "nativeAssetOracleDecimals()": "b001a482",
          "nativeAssetStreamingAmount()": "3e52531a",
          "nativeAssetSuppliedAmount()": "b7d03c8f",
          "recipient()": "66d003ac",
          "rescueToken(address)": "4460d3cf",
          "returnAddress()": "943640c3",
          "slippage()": "3e032a3b",
          "startTimestamp()": "e6fd48bc",
          "streamCreator()": "ef4a57d1",
          "streamDuration()": "64cbe5f9",
          "streamingAsset()": "41f1d3c1",
          "streamingAssetClaimedAmount()": "4aca04a8",
          "streamingAssetDecimals()": "ab579f45",
          "streamingAssetOracle()": "e5945ad7",
          "streamingAssetOracleDecimals()": "c797af7e",
          "sweepCooldown()": "14e853b5",
          "sweepRemaining()": "95098763",
          "terminateStream(uint256)": "9049a1e3",
          "terminationTimestamp()": "0bbfc833"
        }
      }
    }
  }
}