{
  "contracts-exposed/$_/@openzeppelin/contracts/utils/Errors.sol": {
    "$Errors": {
      "abi": [
        {
          "inputs": [],
          "stateMutability": "payable",
          "type": "constructor"
        },
        {
          "inputs": [],
          "name": "__hh_exposed_bytecode_marker",
          "outputs": [
            {
              "internalType": "bytes32",
              "name": "",
              "type": "bytes32"
            }
          ],
          "stateMutability": "view",
          "type": "function"
        },
        {
          "stateMutability": "payable",
          "type": "receive"
        }
      ],
      "evm": {
        "bytecode": {
          "linkReferences": {},
          "object": "60806040819052609760128239609790f3fe608060405260043610156018575b36156016575f80fd5b005b5f3560e01c63342db73903600d576037565b5f910312603357565b5f80fd5b346033576044366004602a565b6040516e1a185c991a185d0b595e1c1bdcd959608a1b8152602090f3fea2646970667358221220878b6006a2f50e2371c64e1f1e075bf43ec8b9668c9f6a7a29cb72f224b278ee64736f6c634300081d0033",
          "opcodes": "PUSH1 0x80 PUSH1 0x40 DUP2 SWAP1 MSTORE PUSH1 0x97 PUSH1 0x12 DUP3 CODECOPY PUSH1 0x97 SWAP1 RETURN INVALID PUSH1 0x80 PUSH1 0x40 MSTORE PUSH1 0x4 CALLDATASIZE LT ISZERO PUSH1 0x18 JUMPI JUMPDEST CALLDATASIZE ISZERO PUSH1 0x16 JUMPI PUSH0 DUP1 REVERT JUMPDEST STOP JUMPDEST PUSH0 CALLDATALOAD PUSH1 0xE0 SHR PUSH4 0x342DB739 SUB PUSH1 0xD JUMPI PUSH1 0x37 JUMP JUMPDEST PUSH0 SWAP2 SUB SLT PUSH1 0x33 JUMPI JUMP JUMPDEST PUSH0 DUP1 REVERT JUMPDEST CALLVALUE PUSH1 0x33 JUMPI PUSH1 0x44 CALLDATASIZE PUSH1 0x4 PUSH1 0x2A JUMP JUMPDEST PUSH1 0x40 MLOAD PUSH15 0x1A185C991A185D0B595E1C1BDCD959 PUSH1 0x8A SHL DUP2 MSTORE PUSH1 0x20 SWAP1 RETURN INVALID LOG2 PUSH5 0x6970667358 0x22 SLT KECCAK256 DUP8 DUP12 PUSH1 0x6 LOG2 CREATE2 0xE 0x23 PUSH18 0xC64E1F1E075BF43EC8B9668C9F6A7A29CB72 CALLCODE 0x24 0xB2 PUSH25 0xEE64736F6C634300081D003300000000000000000000000000 "
        },
        "methodIdentifiers": {
          "__hh_exposed_bytecode_marker()": "342db739"
        }
      }
    }
  }
}