{
  "contracts-exposed/Streamer.sol": {
    "$Streamer": {
      "abi": [
        {
          "inputs": [
            {
              "internalType": "contract IERC20",
              "name": "_streamingAsset",
              "type": "address"
            },
            {
              "internalType": "contract AggregatorV3Interface",
              "name": "_streamingAssetOracle",
              "type": "address"
            },
            {
              "internalType": "contract AggregatorV3Interface",
              "name": "_nativeAssetOracle",
              "type": "address"
            },
            {
              "internalType": "address",
              "name": "_returnAddress",
              "type": "address"
            },
            {
              "internalType": "address",
              "name": "_streamCreator",
              "type": "address"
            },
            {
              "internalType": "address",
              "name": "_recipient",
              "type": "address"
            },
            {
              "internalType": "uint8",
              "name": "_streamingAssetDecimals",
              "type": "uint8"
            },
            {
              "internalType": "uint8",
              "name": "_nativeAssetDecimals",
              "type": "uint8"
            },
            {
              "internalType": "uint256",
              "name": "_nativeAssetStreamingAmount",
              "type": "uint256"
            },
            {
              "internalType": "uint256",
              "name": "_slippage",
              "type": "uint256"
            },
            {
              "internalType": "uint256",
              "name": "_claimCooldown",
              "type": "uint256"
            },
            {
              "internalType": "uint256",
              "name": "_sweepCooldown",
              "type": "uint256"
            },
            {
              "internalType": "uint256",
              "name": "_streamDuration",
              "type": "uint256"
            },
            {
              "internalType": "uint256",
              "name": "_minimumNoticePeriod",
              "type": "uint256"
            }
          ],
          "stateMutability": "payable",
          "type": "constructor"
        },
        {
          "inputs": [],
          "name": "AlreadyInitialized",
          "type": "error"
        },
        {
          "inputs": [],
          "name": "AlreadyTerminated",
          "type": "error"
        },
        {
          "inputs": [],
          "name": "CantRescueStreamingAsset",
          "type": "error"
        },
        {
          "inputs": [],
          "name": "CreatorCannotSweepYet",
          "type": "error"
        },
        {
          "inputs": [],
          "name": "DecimalsNotInBounds",
          "type": "error"
        },
        {
          "inputs": [],
          "name": "DurationTooShort",
          "type": "error"
        },
        {
          "inputs": [],
          "name": "InvalidPrice",
          "type": "error"
        },
        {
          "inputs": [
            {
              "internalType": "uint256",
              "name": "balance",
              "type": "uint256"
            },
            {
              "internalType": "uint256",
              "name": "streamingAmount",
              "type": "uint256"
            }
          ],
          "name": "NotEnoughBalance",
          "type": "error"
        },
        {
          "inputs": [],
          "name": "NotInitialized",
          "type": "error"
        },
        {
          "inputs": [],
          "name": "NotReceiver",
          "type": "error"
        },
        {
          "inputs": [],
          "name": "NotStreamCreator",
          "type": "error"
        },
        {
          "inputs": [],
          "name": "NoticePeriodExceedsStreamDuration",
          "type": "error"
        },
        {
          "inputs": [
            {
              "internalType": "address",
              "name": "token",
              "type": "address"
            }
          ],
          "name": "SafeERC20FailedOperation",
          "type": "error"
        },
        {
          "inputs": [],
          "name": "SlippageExceedsScaleFactor",
          "type": "error"
        },
        {
          "inputs": [],
          "name": "StreamNotFinished",
          "type": "error"
        },
        {
          "inputs": [],
          "name": "StreamingAmountTooLow",
          "type": "error"
        },
        {
          "inputs": [],
          "name": "SweepCooldownNotPassed",
          "type": "error"
        },
        {
          "inputs": [
            {
              "internalType": "uint256",
              "name": "terminationTimestamp",
              "type": "uint256"
            }
          ],
          "name": "TerminationIsAfterStream",
          "type": "error"
        },
        {
          "inputs": [],
          "name": "ZeroAddress",
          "type": "error"
        },
        {
          "inputs": [],
          "name": "ZeroAmount",
          "type": "error"
        },
        {
          "anonymous": false,
          "inputs": [
            {
              "indexed": false,
              "internalType": "uint256",
              "name": "streamingAssetAmount",
              "type": "uint256"
            },
            {
              "indexed": false,
              "internalType": "uint256",
              "name": "nativeAssetAmount",
              "type": "uint256"
            }
          ],
          "name": "Claimed",
          "type": "event"
        },
        {
          "anonymous": false,
          "inputs": [],
          "name": "Initialized",
          "type": "event"
        },
        {
          "anonymous": false,
          "inputs": [
            {
              "indexed": false,
              "internalType": "uint256",
              "name": "balanceRequired",
              "type": "uint256"
            },
            {
              "indexed": false,
              "internalType": "uint256",
              "name": "balance",
              "type": "uint256"
            }
          ],
          "name": "InsufficientAssetBalance",
          "type": "event"
        },
        {
          "anonymous": false,
          "inputs": [
            {
              "indexed": false,
              "internalType": "address",
              "name": "token",
              "type": "address"
            },
            {
              "indexed": false,
              "internalType": "uint256",
              "name": "balance",
              "type": "uint256"
            }
          ],
          "name": "Rescued",
          "type": "event"
        },
        {
          "anonymous": false,
          "inputs": [
            {
              "indexed": false,
              "internalType": "uint256",
              "name": "amount",
              "type": "uint256"
            }
          ],
          "name": "Swept",
          "type": "event"
        },
        {
          "anonymous": false,
          "inputs": [
            {
              "indexed": false,
              "internalType": "uint256",
              "name": "terminationTimestamp",
              "type": "uint256"
            }
          ],
          "name": "Terminated",
          "type": "event"
        },
        {
          "inputs": [],
          "name": "$onlyStreamCreator",
          "outputs": [],
          "stateMutability": "payable",
          "type": "function"
        },
        {
          "inputs": [
            {
              "internalType": "uint256",
              "name": "amount",
              "type": "uint256"
            },
            {
              "internalType": "uint256",
              "name": "fromDecimals",
              "type": "uint256"
            },
            {
              "internalType": "uint256",
              "name": "toDecimals",
              "type": "uint256"
            }
          ],
          "name": "$scaleAmount",
          "outputs": [
            {
              "internalType": "uint256",
              "name": "ret0",
              "type": "uint256"
            }
          ],
          "stateMutability": "pure",
          "type": "function"
        },
        {
          "inputs": [],
          "name": "MIN_DECIMALS",
          "outputs": [
            {
              "internalType": "uint8",
              "name": "",
              "type": "uint8"
            }
          ],
          "stateMutability": "view",
          "type": "function"
        },
        {
          "inputs": [],
          "name": "MIN_DURATION",
          "outputs": [
            {
              "internalType": "uint256",
              "name": "",
              "type": "uint256"
            }
          ],
          "stateMutability": "view",
          "type": "function"
        },
        {
          "inputs": [],
          "name": "SCALE_DECIMALS",
          "outputs": [
            {
              "internalType": "uint8",
              "name": "",
              "type": "uint8"
            }
          ],
          "stateMutability": "view",
          "type": "function"
        },
        {
          "inputs": [],
          "name": "SCALE_FACTOR",
          "outputs": [
            {
              "internalType": "uint256",
              "name": "",
              "type": "uint256"
            }
          ],
          "stateMutability": "view",
          "type": "function"
        },
        {
          "inputs": [],
          "name": "SLIPPAGE_SCALE",
          "outputs": [
            {
              "internalType": "uint256",
              "name": "",
              "type": "uint256"
            }
          ],
          "stateMutability": "view",
          "type": "function"
        },
        {
          "inputs": [],
          "name": "__hh_exposed_bytecode_marker",
          "outputs": [
            {
              "internalType": "bytes32",
              "name": "",
              "type": "bytes32"
            }
          ],
          "stateMutability": "view",
          "type": "function"
        },
        {
          "inputs": [
            {
              "internalType": "uint256",
              "name": "streamingAssetAmount",
              "type": "uint256"
            }
          ],
          "name": "calculateNativeAssetAmount",
          "outputs": [
            {
              "internalType": "uint256",
              "name": "",
              "type": "uint256"
            }
          ],
          "stateMutability": "view",
          "type": "function"
        },
        {
          "inputs": [
            {
              "internalType": "uint256",
              "name": "nativeAssetAmount",
              "type": "uint256"
            }
          ],
          "name": "calculateStreamingAssetAmount",
          "outputs": [
            {
              "internalType": "uint256",
              "name": "",
              "type": "uint256"
            }
          ],
          "stateMutability": "view",
          "type": "function"
        },
        {
          "inputs": [],
          "name": "claim",
          "outputs": [],
          "stateMutability": "nonpayable",
          "type": "function"
        },
        {
          "inputs": [],
          "name": "claimCooldown",
          "outputs": [
            {
              "internalType": "uint256",
              "name": "",
              "type": "uint256"
            }
          ],
          "stateMutability": "view",
          "type": "function"
        },
        {
          "inputs": [],
          "name": "getNativeAssetAmountOwed",
          "outputs": [
            {
              "internalType": "uint256",
              "name": "",
              "type": "uint256"
            }
          ],
          "stateMutability": "view",
          "type": "function"
        },
        {
          "inputs": [],
          "name": "getStreamEnd",
          "outputs": [
            {
              "internalType": "uint256",
              "name": "",
              "type": "uint256"
            }
          ],
          "stateMutability": "view",
          "type": "function"
        },
        {
          "inputs": [],
          "name": "getStreamState",
          "outputs": [
            {
              "internalType": "enum StreamState",
              "name": "",
              "type": "uint8"
            }
          ],
          "stateMutability": "view",
          "type": "function"
        },
        {
          "inputs": [],
          "name": "initialize",
          "outputs": [],
          "stateMutability": "nonpayable",
          "type": "function"
        },
        {
          "inputs": [],
          "name": "lastClaimTimestamp",
          "outputs": [
            {
              "internalType": "uint256",
              "name": "",
              "type": "uint256"
            }
          ],
          "stateMutability": "view",
          "type": "function"
        },
        {
          "inputs": [],
          "name": "minimumNoticePeriod",
          "outputs": [
            {
              "internalType": "uint256",
              "name": "",
              "type": "uint256"
            }
          ],
          "stateMutability": "view",
          "type": "function"
        },
        {
          "inputs": [],
          "name": "nativeAssetDecimals",
          "outputs": [
            {
              "internalType": "uint8",
              "name": "",
              "type": "uint8"
            }
          ],
          "stateMutability": "view",
          "type": "function"
        },
        {
          "inputs": [],
          "name": "nativeAssetOracle",
          "outputs": [
            {
              "internalType": "contract AggregatorV3Interface",
              "name": "",
              "type": "address"
            }
          ],
          "stateMutability": "view",
          "type": "function"
        },
        {
          "inputs": [],
          "name": "nativeAssetOracleDecimals",
          "outputs": [
            {
              "internalType": "uint8",
              "name": "",
              "type": "uint8"
            }
          ],
          "stateMutability": "view",
          "type": "function"
        },
        {
          "inputs": [],
          "name": "nativeAssetStreamingAmount",
          "outputs": [
            {
              "internalType": "uint256",
              "name": "",
              "type": "uint256"
            }
          ],
          "stateMutability": "view",
          "type": "function"
        },
        {
          "inputs": [],
          "name": "nativeAssetSuppliedAmount",
          "outputs": [
            {
              "internalType": "uint256",
              "name": "",
              "type": "uint256"
            }
          ],
          "stateMutability": "view",
          "type": "function"
        },
        {
          "inputs": [],
          "name": "recipient",
          "outputs": [
            {
              "internalType": "address",
              "name": "",
              "type": "address"
            }
          ],
          "stateMutability": "view",
          "type": "function"
        },
        {
          "inputs": [
            {
              "internalType": "contract IERC20",
              "name": "token",
              "type": "address"
            }
          ],
          "name": "rescueToken",
          "outputs": [],
          "stateMutability": "nonpayable",
          "type": "function"
        },
        {
          "inputs": [],
          "name": "returnAddress",
          "outputs": [
            {
              "internalType": "address",
              "name": "",
              "type": "address"
            }
          ],
          "stateMutability": "view",
          "type": "function"
        },
        {
          "inputs": [],
          "name": "slippage",
          "outputs": [
            {
              "internalType": "uint256",
              "name": "",
              "type": "uint256"
            }
          ],
          "stateMutability": "view",
          "type": "function"
        },
        {
          "inputs": [],
          "name": "startTimestamp",
          "outputs": [
            {
              "internalType": "uint256",
              "name": "",
              "type": "uint256"
            }
          ],
          "stateMutability": "view",
          "type": "function"
        },
        {
          "inputs": [],
          "name": "streamCreator",
          "outputs": [
            {
              "internalType": "address",
              "name": "",
              "type": "address"
            }
          ],
          "stateMutability": "view",
          "type": "function"
        },
        {
          "inputs": [],
          "name": "streamDuration",
          "outputs": [
            {
              "internalType": "uint256",
              "name": "",
              "type": "uint256"
            }
          ],
          "stateMutability": "view",
          "type": "function"
        },
        {
          "inputs": [],
          "name": "streamingAsset",
          "outputs": [
            {
              "internalType": "contract IERC20",
              "name": "",
              "type": "address"
            }
          ],
          "stateMutability": "view",
          "type": "function"
        },
        {
          "inputs": [],
          "name": "streamingAssetClaimedAmount",
          "outputs": [
            {
              "internalType": "uint256",
              "name": "",
              "type": "uint256"
            }
          ],
          "stateMutability": "view",
          "type": "function"
        },
        {
          "inputs": [],
          "name": "streamingAssetDecimals",
          "outputs": [
            {
              "internalType": "uint8",
              "name": "",
              "type": "uint8"
            }
          ],
          "stateMutability": "view",
          "type": "function"
        },
        {
          "inputs": [],
          "name": "streamingAssetOracle",
          "outputs": [
            {
              "internalType": "contract AggregatorV3Interface",
              "name": "",
              "type": "address"
            }
          ],
          "stateMutability": "view",
          "type": "function"
        },
        {
          "inputs": [],
          "name": "streamingAssetOracleDecimals",
          "outputs": [
            {
              "internalType": "uint8",
              "name": "",
              "type": "uint8"
            }
          ],
          "stateMutability": "view",
          "type": "function"
        },
        {
          "inputs": [],
          "name": "sweepCooldown",
          "outputs": [
            {
              "internalType": "uint256",
              "name": "",
              "type": "uint256"
            }
          ],
          "stateMutability": "view",
          "type": "function"
        },
        {
          "inputs": [],
          "name": "sweepRemaining",
          "outputs": [],
          "stateMutability": "nonpayable",
          "type": "function"
        },
        {
          "inputs": [
            {
              "internalType": "uint256",
              "name": "_terminationTimestamp",
              "type": "uint256"
            }
          ],
          "name": "terminateStream",
          "outputs": [],
          "stateMutability": "nonpayable",
          "type": "function"
        },
        {
          "inputs": [],
          "name": "terminationTimestamp",
          "outputs": [
            {
              "internalType": "uint256",
              "name": "",
              "type": "uint256"
            }
          ],
          "stateMutability": "view",
          "type": "function"
        },
        {
          "stateMutability": "payable",
          "type": "receive"
        }
      ],
      "evm": {
        "bytecode": {
          "linkReferences": {},
          "object": "610280604052610028610010610354565b9c9b909b9a919a999299989398979497969596610382565b604051611d576108a082396080518181816105db01528181610c2101528181610e650152818161119e0152611488015260a0518181816109d80152818161169c0152611928015260c051818181610a6f01528181611711015261199c015260e0518181816107d501528181610cc501526114f4015261010051818181610a3601528181610b4901528181611040015281816110fe015281816112bf01528181611453015261154b0152610120518181816107350152610def01526101405181818161051e015281816112070152611af70152610160518181816104e501526117e7015261018051818181610ae10152610ffe01526101a05181818161030a015261159d01526101c0518181816106e3015281816110cb0152611b5e01526101e0518181816105570152818161132b01526113ce015261020051818181610877015281816118930152611a56015261022051818181610aa8015281816118520152611a8001526102405181818161096b0152818161178b0152611a160152610260518181816108dd01526118220152611d5790f35b634e487b7160e01b5f52604160045260245ffd5b90601f01601f191681019081106001600160401b038211176101f157604052565b6101bc565b9061020a61020360405190565b92836101d0565b565b6001600160a01b031690565b90565b6001600160a01b0381165b0361022d57565b5f80fd5b9050519061020a8261021b565b6001600160a01b038116610226565b9050519061020a8261023e565b60ff8116610226565b9050519061020a8261025a565b80610226565b9050519061020a82610270565b91906101c08382031261022d5761029a8184610231565b926102a88260208301610231565b926102b68360408401610231565b926102c4816060850161024d565b926102d2826080830161024d565b926102e08360a0840161024d565b926102ee8160c08501610263565b926102fc8260e08301610263565b9261030b836101008401610276565b9261031a816101208501610276565b92610329826101408301610276565b9261021861033b846101608501610276565b936101a061034d826101808701610276565b9401610276565b6103726125f780380380610367816101f6565b928339810190610283565b909192939495969798999a9b9c9d565b9061020a9d9c9b9a999897969594939291610509565b61020c6102186102189290565b61021890610398565b6102189061020c906001600160a01b031682565b610218906103ae565b610218906103c2565b6102186102186102189290565b6102186305f5e1006103d4565b610218620151806103d4565b9060208282031261022d5761021891610263565b6040513d5f823e3d90fd5b6104266102186102189290565b60ff1690565b6102186006610419565b6001600160501b038116610226565b9050519061020a82610436565b919060a08382031261022d576104688184610445565b926104768260208301610276565b926102186104878460408501610276565b9360806104978260608701610276565b9401610445565b634e487b7160e01b5f52601160045260245ffd5b818102929181159184041417156104c557565b61049e565b60ff16604d81116104c557600a0a90565b634e487b7160e01b5f52601260045260245ffd5b906104f9565b9190565b908115610504570490565b6104db565b6105125f6103a5565b6001600160a01b0381166001600160a01b0388161461088e576001600160a01b0381166001600160a01b0387161461088e576001600160a01b0381166001600160a01b0386161461088e5761058661057961056c846103cb565b926001600160a01b031690565b916001600160a01b031690565b1461088e576105945f6103d4565b891461087d576105a56102186103e1565b8a1161086c576105b36103ee565b808c1061085b57808d1061085b57808e1061085b578e1061085b578c8e1161084a576105de826103cb565b63313ce5679060206105ef60405190565b80926105fb8560e01b90565b825260049082905afa908115610789575f9161082b575b5061024052610620846103cb565b9061063461062d60405190565b9160e01b90565b8152602081600481855afa908115610789575f916107fc575b506102605261065a61042c565b60ff811660ff8a16109081156107eb575b81156107c9575b811561079f575b5061078e5760a061068960405190565b633fabe5a360e21b815291829060049082905afa908115610789575f91610757575b506106b55f6103d4565b811315610747576106d16106cb6106ec926103d4565b8b6104b2565b6106e66106e16102605160ff1690565b6104ca565b906104ef565b6106fb6104f56102188b6104ca565b106107365760805260a05260c05260e052610100526101205261020052610220526101405261016052610180526101a0526101c0526101e052565b63cde8c83560e01b5f908152600490fd5b62bfc92160e01b5f908152600490fd5b610779915060a03d60a011610782575b61077181836101d0565b810190610452565b505050906106ab565b503d610767565b61040e565b6370c5eb6160e11b5f908152600490fd5b90506107c26107bb6107b46102605160ff1690565b9260ff1690565b9160ff1690565b105f610679565b90506107d86102405160ff1690565b6107e460ff83166107bb565b1090610672565b905060ff811660ff8b16109061066b565b61081e915060203d602011610824575b61081681836101d0565b8101906103fa565b5f61064d565b503d61080c565b610844915060203d6020116108245761081681836101d0565b5f610612565b6325c6702760e11b5f908152600490fd5b6325c3636760e01b5f908152600490fd5b63c189a4d360e01b5f908152600490fd5b631f2a200560e01b5f908152600490fd5b63d92e233d60e01b5f908152600490fdfe6080604052600436101561001a575b3615610018575f80fd5b005b5f3560e01c80630bbfc8331461028957806314e853b51461028457806324938e9f1461027f5780632ae4e9311461027a578063320d7b3d1461027557806333d263f214610270578063342db7391461026b5780633e032a3b146102665780633e52531a14610261578063414a62791461025c57806341f1d3c1146102575780634460d3cf146102525780634aca04a81461024d5780634e71d92d1461024857806359ac8f0714610243578063607af3971461023e57806364cbe5f91461023957806366d003ac146102345780636eb6a8201461022f5780638129fc1c1461022a5780639049a1e314610225578063943640c314610220578063950987631461021b57806398018b8b146102165780639cfbce5114610211578063aa5c96911461020c578063ab579f4514610207578063ad9161cc14610202578063b001a482146101fd578063b6a6d177146101f8578063b7d03c8f146101f3578063c797af7e146101ee578063ce4b5bbe146101e9578063e5945ad7146101e4578063e6fd48bc146101df578063ef4a57d1146101da578063efb1ad5d146101d5578063f47083bc146101d05763fdea36570361000e57610acc565b610a93565b610a5a565b610a21565b610a06565b6109c3565b6109a8565b610956565b61093b565b610915565b6108c8565b6108ad565b610862565b610847565b61082c565b610811565b6107f9565b6107c0565b6107a8565b61077c565b610761565b610720565b6106ce565b6106b3565b610695565b61067d565b610662565b61063a565b6105c6565b610542565b610509565b6104d0565b6104b5565b610468565b610427565b6103ba565b610350565b6102f5565b6102c6565b5f91031261029857565b5f80fd5b6102a7916008021c81565b90565b906102a7915461029c565b6102a75f60026102aa565b9052565b565b34610298576102d636600461028e565b6102f16102e16102b5565b6040519182918290815260200190565b0390f35b346102985761030536600461028e565b6102f17f00000000000000000000000000000000000000000000000000000000000000006102e1565b6102a76102a76102a79290565b6102a76305f5e10061032e565b6102a761033b565b346102985761036036600461028e565b6102f16102e1610348565b634e487b7160e01b5f52602160045260245ffd5b6004111561038957565b61036b565b906102c48261037f565b6102a79061038e565b6102c090610398565b6020810192916102c491906103a1565b34610298576103ca36600461028e565b6102f16103d5610b18565b604051918291826103aa565b805b0361029857565b905035906102c4826103e1565b9091606082840312610298576102a761041084846103ea565b93604061042082602087016103ea565b94016103ea565b34610298576102f16102e161043d3660046103f7565b91610b39565b6104506102a76102a79290565b60ff1690565b6102a76006610443565b6102a7610456565b346102985761047836600461028e565b6102f1610483610460565b6040519182918260ff909116815260200190565b6e1a185c991a185d0b595e1c1bdcd959608a1b90565b6102a7610497565b34610298576104c536600461028e565b6102f16102e16104ad565b34610298576104e036600461028e565b6102f17f00000000000000000000000000000000000000000000000000000000000000006102e1565b346102985761051936600461028e565b6102f17f00000000000000000000000000000000000000000000000000000000000000006102e1565b346102985761055236600461028e565b6102f17f00000000000000000000000000000000000000000000000000000000000000006102e1565b6102a79061058f906001600160a01b031682565b6001600160a01b031690565b6102a79061057b565b6102a79061059b565b6102c0906105a4565b6020810192916102c491906105ad565b34610298576105d636600461028e565b6102f17f00000000000000000000000000000000000000000000000000000000000000005b604051918291826105b6565b6102a79061058f565b6103e381610607565b905035906102c482610610565b90602082820312610298576102a791610619565b346102985761065261064d366004610626565b610d4f565b604051005b6102a75f60046102aa565b346102985761067236600461028e565b6102f16102e1610657565b346102985761068d36600461028e565b610652610dcc565b6106a036600461028e565b610652611074565b6102a75f60016102aa565b34610298576106c336600461028e565b6102f16102e16106a8565b34610298576106de36600461028e565b6102f17f00000000000000000000000000000000000000000000000000000000000000006102e1565b6102c09061058f565b6020810192916102c49190610707565b346102985761073036600461028e565b6102f17f00000000000000000000000000000000000000000000000000000000000000005b60405191829182610710565b346102985761077136600461028e565b6102f16102e161107c565b346102985761078c36600461028e565b6106526112b2565b90602082820312610298576102a7916103ea565b34610298576106526107bb366004610794565b61142a565b34610298576107d036600461028e565b6102f17f0000000000000000000000000000000000000000000000000000000000000000610755565b346102985761080936600461028e565b610652611433565b34610298576102f16102e1610827366004610794565b611697565b34610298576102f16102e1610842366004610794565b611923565b346102985761085736600461028e565b6102f16102e1611aea565b346102985761087236600461028e565b6102f17f0000000000000000000000000000000000000000000000000000000000000000610483565b6102a76012610443565b6102a761089b565b34610298576108bd36600461028e565b6102f16104836108a5565b34610298576108d836600461028e565b6102f17f0000000000000000000000000000000000000000000000000000000000000000610483565b6102a76201518061032e565b6102a7610901565b346102985761092536600461028e565b6102f16102e161090d565b6102a75f60036102aa565b346102985761094b36600461028e565b6102f16102e1610930565b346102985761096636600461028e565b6102f17f0000000000000000000000000000000000000000000000000000000000000000610483565b6102a7670de0b6b3a764000061032e565b6102a761098f565b34610298576109b836600461028e565b6102f16102e16109a0565b34610298576109d336600461028e565b6102f17f00000000000000000000000000000000000000000000000000000000000000006105fb565b6102a75f806102aa565b3461029857610a1636600461028e565b6102f16102e16109fc565b3461029857610a3136600461028e565b6102f17f0000000000000000000000000000000000000000000000000000000000000000610755565b3461029857610a6a36600461028e565b6102f17f00000000000000000000000000000000000000000000000000000000000000006105fb565b3461029857610aa336600461028e565b6102f17f0000000000000000000000000000000000000000000000000000000000000000610483565b3461029857610adc36600461028e565b6102f17f00000000000000000000000000000000000000000000000000000000000000006102e1565b6102a790610450565b6102a79054610b05565b610b236102a761107c565b421015610b34576102a76005610b0e565b600390565b6102a7929190611bf3565b610b6d7f000000000000000000000000000000000000000000000000000000000000000061058f565b610b763361058f565b03610b84576102c490610c1c565b639c867e2160e01b5f90815260045b035ffd5b634e487b7160e01b5f52604160045260245ffd5b90601f01601f1916810190811067ffffffffffffffff821117610bcd57604052565b610b97565b905051906102c4826103e1565b90602082820312610298576102a791610bd2565b6040513d5f823e3d90fd5b9160206102c4929493610c1860408201965f830190610707565b0152565b610c457f0000000000000000000000000000000000000000000000000000000000000000610607565b610c4e82610607565b14610d3e5780610c60610c88926105a4565b6020610c6b306105a4565b6040519485918291906370a0823160e01b5b835260048301610710565b0381845afa918215610d39577f8aec0ce3dadffacf4b7a963e0fed1ff2e6151b4c95d4a65acafa9d1299630402935f93610d04575b5082610cea917f000000000000000000000000000000000000000000000000000000000000000090611c5a565b610cff610cf660405190565b92839283610bfe565b0390a1565b610cea919350610d2b9060203d602011610d32575b610d238183610bab565b810190610bdf565b9290610cbd565b503d610d19565b610bf3565b63bf27c04f60e01b5f908152600490fd5b6102c490610b44565b6102a79081565b6102a79054610d58565b634e487b7160e01b5f52601160045260245ffd5b91908201809211610d8a57565b610d69565b9081526040810192916102c49160200152565b905f19905b9181191691161790565b90610dc16102a7610dc89261032e565b8254610da2565b9055565b610dd66005610b0e565b610de8610de25f61038e565b9161038e565b1461102a577f0000000000000000000000000000000000000000000000000000000000000000610e178161058f565b610e203361058f565b141580610feb575b610fda57610e34611aea565b80610e3e5f61032e565b8114610fc957610e4d90611697565b918290610e595f61032e565b8414610fc957610eb7937f0000000000000000000000000000000000000000000000000000000000000000906020610e90836105a4565b610e99306105a4565b90610ea360405190565b988992839182916370a0823160e01b610c7d565b03915afa908115610d39577fc83b5086ce94ec8d5a88a9f5fea4b18a522bb238ed0d2d8abd959549a80c16b8965f92610fa8575b50808210610f56575b5050610f41918391610f07426001610db1565b610f24610f1d87610f186003610d5f565b610d7d565b6003610db1565b610f3c610f3584610f186004610d5f565b6004610db1565b611c5a565b610cff610f4d60405190565b92839283610d8f565b81610f419492939650610f9e95507f521d4ec08ea54943095f5f84755de8b51e1222628c06daa159d618c8c5fda56a91610f92610f4d60405190565b0390a181938492611923565b9491819350610ef4565b610fc291925060203d602011610d3257610d238183610bab565b905f610eeb565b631f2a200560e01b5f908152600490fd5b635a06399f60e11b5f908152600490fd5b506110236102a7610ffc6001610d5f565b7f000000000000000000000000000000000000000000000000000000000000000090610d7d565b4210610e28565b6321c4e35760e21b5f908152600490fd5b6110647f000000000000000000000000000000000000000000000000000000000000000061058f565b61106d3361058f565b03610b8457565b6102c461103b565b6110866005610b0e565b611092610de25f61038e565b146110f0576110a16005610b0e565b6110ae610de2600261038e565b036110bd576102a76002610d5f565b6102a76110c95f610d5f565b7f000000000000000000000000000000000000000000000000000000000000000090610d7d565b6102a75f61032e565b6111227f000000000000000000000000000000000000000000000000000000000000000061058f565b61112b3361058f565b03610b84576102c4611158565b9060ff90610da7565b906111516102a7610dc892610398565b8254611138565b6111626005610b0e565b61116e610de25f61038e565b036112a25761117d425f610db1565b611188426001610db1565b61119460016005611141565b6111e960206111c27f00000000000000000000000000000000000000000000000000000000000000006105a4565b6111cb306105a4565b906111d560405190565b938492839182916370a0823160e01b610c7d565b03915afa908115610d39575f91611283575b5061120581611923565b7f000000000000000000000000000000000000000000000000000000000000000091908290611233565b9190565b1061126b5750507f5daa87a0e9463431830481fd4b6e3403442dfb9a12b9c07597e9f61d50b633c861126460405190565b8080610cff565b634787a10360e11b5f90815291610b93916004610d8f565b61129c915060203d602011610d3257610d238183610bab565b5f6111fb565b62dc149f60e41b5f908152600490fd5b6102c46110f9565b6112e37f000000000000000000000000000000000000000000000000000000000000000061058f565b6112ec3361058f565b03610b84576102c4906112ff6005610b0e565b9060029161130f610de28461038e565b146114195761131d5f61032e565b81036113c6576113566113507f000000000000000000000000000000000000000000000000000000000000000042610d7d565b83610db1565b61135f82610d5f565b61137161122f6102a76110c95f610d5f565b116113af5750610cff6102e1826113aa7f9a9cad27a1bdce3d7cb0602aaf727dfaad03ba6524d9bca7b9615867fa6802b4946005611141565b610d5f565b6351fe048360e11b5f908152600491909152602490fd5b6113f36102a77f000000000000000000000000000000000000000000000000000000000000000042610d7d565b8110611408576114038183610db1565b611356565b6325c3636760e01b5f908152600490fd5b632aaa685560e11b5f908152600490fd5b6102c4906112ba565b61143d6005610b0e565b611449610de25f61038e565b0361153e576114777f000000000000000000000000000000000000000000000000000000000000000061058f565b6114803361058f565b03610b84575b7f00000000000000000000000000000000000000000000000000000000000000006114b560206111c2836105a4565b03915afa8015610d39577f7f221332ee403570bf4d61630b58189ea566ff1635269001e9df6a890f413dd892610cff925f92611519575b50816102e1917f000000000000000000000000000000000000000000000000000000000000000090611c5a565b6102e19192506115379060203d602011610d3257610d238183610bab565b91906114ec565b61154661107c565b61156f7f000000000000000000000000000000000000000000000000000000000000000061058f565b6115783361058f565b036115945742116114865763a33e709960e01b5f908152600490fd5b6102a76115c2917f000000000000000000000000000000000000000000000000000000000000000090610d7d565b42116114865763042f54af60e01b5f908152600490fd5b69ffffffffffffffffffff81166103e3565b905051906102c4826115d9565b919060a0838203126102985761160e81846115eb565b9261161c8260208301610bd2565b926102a761162d8460408501610bd2565b93608061163d8260608701610bd2565b94016115eb565b6102a76102a76102a79260ff1690565b91908203918211610d8a57565b81810292918115918404141715610d8a57565b634e487b7160e01b5f52601260045260245ffd5b8115611692570490565b611674565b6116c07f00000000000000000000000000000000000000000000000000000000000000006105a4565b9063feaf968c9160a06116d260405190565b80926116de8660e01b90565b825260049082905afa908115610d39575f91611901575b506116ff5f61032e565b8113156118bd5760a0611741936117357f00000000000000000000000000000000000000000000000000000000000000006105a4565b60405195869260e01b90565b825260049082905afa928315610d39575f936118cd575b506117625f61032e565b8313156118bd576102a79261181261187b6117d69461187661178661188d9661032e565b61184c7f00000000000000000000000000000000000000000000000000000000000000009161181d6118176117cb6117c56117bf61089b565b96611644565b95611644565b9b8c80968195611bf3565b6118126117e161033b565b9161180c7f000000000000000000000000000000000000000000000000000000000000000084611654565b90611661565b611688565b9861032e565b6118467f0000000000000000000000000000000000000000000000000000000000000000611644565b90611bf3565b926118467f0000000000000000000000000000000000000000000000000000000000000000611644565b611661565b61187661188661098f565b8092611688565b906118b77f0000000000000000000000000000000000000000000000000000000000000000611644565b91611bf3565b62bfc92160e01b5f908152600490fd5b6118f091935060a03d60a0116118fa575b6118e88183610bab565b8101906115f8565b5050509290611758565b503d6118de565b61191a915060a03d60a0116118fa576118e88183610bab565b505050906116f5565b61194c7f00000000000000000000000000000000000000000000000000000000000000006105a4565b63feaf968c9060a061195d60405190565b80926119698560e01b90565b825260049082905afa908115610d39575f91611ac8575b5061198a5f61032e565b8113156118bd5760a06119cc926119c07f00000000000000000000000000000000000000000000000000000000000000006105a4565b60405194859260e01b90565b825260049082905afa918215610d39575f92611aa4575b506119ed5f61032e565b8213156118bd576102a79261181261187b6117d694611876611a11611a7a9661032e565b611a507f00000000000000000000000000000000000000000000000000000000000000009161181d611a4a6117cb6117c56117bf61089b565b9561032e565b956118467f0000000000000000000000000000000000000000000000000000000000000000611644565b906118b77f0000000000000000000000000000000000000000000000000000000000000000611644565b611abe91925060a03d60a0116118fa576118e88183610bab565b50505091906119e3565b611ae1915060a03d60a0116118fa576118e88183610bab565b50505090611980565b5f611af56003610d5f565b7f000000000000000000000000000000000000000000000000000000000000000090811115611bda57611b2661107c565b611b2f5f61032e565b8114611bce576102a7925080421015611b935750611b5c611b839161180c611b565f610d5f565b42611654565b7f000000000000000000000000000000000000000000000000000000000000000090611688565b611b8d6003610d5f565b90611654565b611b9d6005610b0e565b611baa610de2600261038e565b03611bc857611bc39161180c611b5c92611b8d5f610d5f565b611b83565b50611b83565b5050506102a75f61032e565b50506102a75f61032e565b604d8111610d8a57600a0a90565b9091808314611c2e57808311611c1857611c136102a79361180c92611654565b611be5565b611c13611c28916102a794611654565b90611688565b50905090565b611c4d611c476102a79263ffffffff1690565b60e01b90565b6001600160e01b03191690565b611c9d600492611c8e6102c495611c7463a9059cbb611c34565b92611c7e60405190565b9687946020860190815201610bfe565b60208201810382520383610bab565b905f602091611ca95f90565b50828151910182855af115610bf3573d5f5190611cc861122f5f61032e565b03611d0d5750611cd7816105a4565b3b611ce461122f5f61032e565b145b611ced5750565b610b93611cfa5f926105a4565b635274afe760e01b835260048301610710565b611d1a61122f600161032e565b1415611ce656fea2646970667358221220dff24300f9c06f7e9129a900ff29046a8999786bc33fe39a3466a5f5c6cd367964736f6c634300081d0033",
          "opcodes": "PUSH2 0x280 PUSH1 0x40 MSTORE PUSH2 0x28 PUSH2 0x10 PUSH2 0x354 JUMP JUMPDEST SWAP13 SWAP12 SWAP1 SWAP12 SWAP11 SWAP2 SWAP11 SWAP10 SWAP3 SWAP10 SWAP9 SWAP4 SWAP9 SWAP8 SWAP5 SWAP8 SWAP7 SWAP6 SWAP7 PUSH2 0x382 JUMP JUMPDEST PUSH1 0x40 MLOAD PUSH2 0x1D57 PUSH2 0x8A0 DUP3 CODECOPY PUSH1 0x80 MLOAD DUP2 DUP2 DUP2 PUSH2 0x5DB ADD MSTORE DUP2 DUP2 PUSH2 0xC21 ADD MSTORE DUP2 DUP2 PUSH2 0xE65 ADD MSTORE DUP2 DUP2 PUSH2 0x119E ADD MSTORE PUSH2 0x1488 ADD MSTORE PUSH1 0xA0 MLOAD DUP2 DUP2 DUP2 PUSH2 0x9D8 ADD MSTORE DUP2 DUP2 PUSH2 0x169C ADD MSTORE PUSH2 0x1928 ADD MSTORE PUSH1 0xC0 MLOAD DUP2 DUP2 DUP2 PUSH2 0xA6F ADD MSTORE DUP2 DUP2 PUSH2 0x1711 ADD MSTORE PUSH2 0x199C ADD MSTORE PUSH1 0xE0 MLOAD DUP2 DUP2 DUP2 PUSH2 0x7D5 ADD MSTORE DUP2 DUP2 PUSH2 0xCC5 ADD MSTORE PUSH2 0x14F4 ADD MSTORE PUSH2 0x100 MLOAD DUP2 DUP2 DUP2 PUSH2 0xA36 ADD MSTORE DUP2 DUP2 PUSH2 0xB49 ADD MSTORE DUP2 DUP2 PUSH2 0x1040 ADD MSTORE DUP2 DUP2 PUSH2 0x10FE ADD MSTORE DUP2 DUP2 PUSH2 0x12BF ADD MSTORE DUP2 DUP2 PUSH2 0x1453 ADD MSTORE PUSH2 0x154B ADD MSTORE PUSH2 0x120 MLOAD DUP2 DUP2 DUP2 PUSH2 0x735 ADD MSTORE PUSH2 0xDEF ADD MSTORE PUSH2 0x140 MLOAD DUP2 DUP2 DUP2 PUSH2 0x51E ADD MSTORE DUP2 DUP2 PUSH2 0x1207 ADD MSTORE PUSH2 0x1AF7 ADD MSTORE PUSH2 0x160 MLOAD DUP2 DUP2 DUP2 PUSH2 0x4E5 ADD MSTORE PUSH2 0x17E7 ADD MSTORE PUSH2 0x180 MLOAD DUP2 DUP2 DUP2 PUSH2 0xAE1 ADD MSTORE PUSH2 0xFFE ADD MSTORE PUSH2 0x1A0 MLOAD DUP2 DUP2 DUP2 PUSH2 0x30A ADD MSTORE PUSH2 0x159D ADD MSTORE PUSH2 0x1C0 MLOAD DUP2 DUP2 DUP2 PUSH2 0x6E3 ADD MSTORE DUP2 DUP2 PUSH2 0x10CB ADD MSTORE PUSH2 0x1B5E ADD MSTORE PUSH2 0x1E0 MLOAD DUP2 DUP2 DUP2 PUSH2 0x557 ADD MSTORE DUP2 DUP2 PUSH2 0x132B ADD MSTORE PUSH2 0x13CE ADD MSTORE PUSH2 0x200 MLOAD DUP2 DUP2 DUP2 PUSH2 0x877 ADD MSTORE DUP2 DUP2 PUSH2 0x1893 ADD MSTORE PUSH2 0x1A56 ADD MSTORE PUSH2 0x220 MLOAD DUP2 DUP2 DUP2 PUSH2 0xAA8 ADD MSTORE DUP2 DUP2 PUSH2 0x1852 ADD MSTORE PUSH2 0x1A80 ADD MSTORE PUSH2 0x240 MLOAD DUP2 DUP2 DUP2 PUSH2 0x96B ADD MSTORE DUP2 DUP2 PUSH2 0x178B ADD MSTORE PUSH2 0x1A16 ADD MSTORE PUSH2 0x260 MLOAD DUP2 DUP2 DUP2 PUSH2 0x8DD ADD MSTORE PUSH2 0x1822 ADD MSTORE PUSH2 0x1D57 SWAP1 RETURN JUMPDEST PUSH4 0x4E487B71 PUSH1 0xE0 SHL PUSH0 MSTORE PUSH1 0x41 PUSH1 0x4 MSTORE PUSH1 0x24 PUSH0 REVERT JUMPDEST SWAP1 PUSH1 0x1F ADD PUSH1 0x1F NOT AND DUP2 ADD SWAP1 DUP2 LT PUSH1 0x1 PUSH1 0x1 PUSH1 0x40 SHL SUB DUP3 GT OR PUSH2 0x1F1 JUMPI PUSH1 0x40 MSTORE JUMP JUMPDEST PUSH2 0x1BC JUMP JUMPDEST SWAP1 PUSH2 0x20A PUSH2 0x203 PUSH1 0x40 MLOAD SWAP1 JUMP JUMPDEST SWAP3 DUP4 PUSH2 0x1D0 JUMP JUMPDEST JUMP JUMPDEST PUSH1 0x1 PUSH1 0x1 PUSH1 0xA0 SHL SUB AND SWAP1 JUMP JUMPDEST SWAP1 JUMP JUMPDEST PUSH1 0x1 PUSH1 0x1 PUSH1 0xA0 SHL SUB DUP2 AND JUMPDEST SUB PUSH2 0x22D JUMPI JUMP JUMPDEST PUSH0 DUP1 REVERT JUMPDEST SWAP1 POP MLOAD SWAP1 PUSH2 0x20A DUP3 PUSH2 0x21B JUMP JUMPDEST PUSH1 0x1 PUSH1 0x1 PUSH1 0xA0 SHL SUB DUP2 AND PUSH2 0x226 JUMP JUMPDEST SWAP1 POP MLOAD SWAP1 PUSH2 0x20A DUP3 PUSH2 0x23E JUMP JUMPDEST PUSH1 0xFF DUP2 AND PUSH2 0x226 JUMP JUMPDEST SWAP1 POP MLOAD SWAP1 PUSH2 0x20A DUP3 PUSH2 0x25A JUMP JUMPDEST DUP1 PUSH2 0x226 JUMP JUMPDEST SWAP1 POP MLOAD SWAP1 PUSH2 0x20A DUP3 PUSH2 0x270 JUMP JUMPDEST SWAP2 SWAP1 PUSH2 0x1C0 DUP4 DUP3 SUB SLT PUSH2 0x22D JUMPI PUSH2 0x29A DUP2 DUP5 PUSH2 0x231 JUMP JUMPDEST SWAP3 PUSH2 0x2A8 DUP3 PUSH1 0x20 DUP4 ADD PUSH2 0x231 JUMP JUMPDEST SWAP3 PUSH2 0x2B6 DUP4 PUSH1 0x40 DUP5 ADD PUSH2 0x231 JUMP JUMPDEST SWAP3 PUSH2 0x2C4 DUP2 PUSH1 0x60 DUP6 ADD PUSH2 0x24D JUMP JUMPDEST SWAP3 PUSH2 0x2D2 DUP3 PUSH1 0x80 DUP4 ADD PUSH2 0x24D JUMP JUMPDEST SWAP3 PUSH2 0x2E0 DUP4 PUSH1 0xA0 DUP5 ADD PUSH2 0x24D JUMP JUMPDEST SWAP3 PUSH2 0x2EE DUP2 PUSH1 0xC0 DUP6 ADD PUSH2 0x263 JUMP JUMPDEST SWAP3 PUSH2 0x2FC DUP3 PUSH1 0xE0 DUP4 ADD PUSH2 0x263 JUMP JUMPDEST SWAP3 PUSH2 0x30B DUP4 PUSH2 0x100 DUP5 ADD PUSH2 0x276 JUMP JUMPDEST SWAP3 PUSH2 0x31A DUP2 PUSH2 0x120 DUP6 ADD PUSH2 0x276 JUMP JUMPDEST SWAP3 PUSH2 0x329 DUP3 PUSH2 0x140 DUP4 ADD PUSH2 0x276 JUMP JUMPDEST SWAP3 PUSH2 0x218 PUSH2 0x33B DUP5 PUSH2 0x160 DUP6 ADD PUSH2 0x276 JUMP JUMPDEST SWAP4 PUSH2 0x1A0 PUSH2 0x34D DUP3 PUSH2 0x180 DUP8 ADD PUSH2 0x276 JUMP JUMPDEST SWAP5 ADD PUSH2 0x276 JUMP JUMPDEST PUSH2 0x372 PUSH2 0x25F7 DUP1 CODESIZE SUB DUP1 PUSH2 0x367 DUP2 PUSH2 0x1F6 JUMP JUMPDEST SWAP3 DUP4 CODECOPY DUP2 ADD SWAP1 PUSH2 0x283 JUMP JUMPDEST SWAP1 SWAP2 SWAP3 SWAP4 SWAP5 SWAP6 SWAP7 SWAP8 SWAP9 SWAP10 SWAP11 SWAP12 SWAP13 SWAP14 JUMP JUMPDEST SWAP1 PUSH2 0x20A SWAP14 SWAP13 SWAP12 SWAP11 SWAP10 SWAP9 SWAP8 SWAP7 SWAP6 SWAP5 SWAP4 SWAP3 SWAP2 PUSH2 0x509 JUMP JUMPDEST PUSH2 0x20C PUSH2 0x218 PUSH2 0x218 SWAP3 SWAP1 JUMP JUMPDEST PUSH2 0x218 SWAP1 PUSH2 0x398 JUMP JUMPDEST PUSH2 0x218 SWAP1 PUSH2 0x20C SWAP1 PUSH1 0x1 PUSH1 0x1 PUSH1 0xA0 SHL SUB AND DUP3 JUMP JUMPDEST PUSH2 0x218 SWAP1 PUSH2 0x3AE JUMP JUMPDEST PUSH2 0x218 SWAP1 PUSH2 0x3C2 JUMP JUMPDEST PUSH2 0x218 PUSH2 0x218 PUSH2 0x218 SWAP3 SWAP1 JUMP JUMPDEST PUSH2 0x218 PUSH4 0x5F5E100 PUSH2 0x3D4 JUMP JUMPDEST PUSH2 0x218 PUSH3 0x15180 PUSH2 0x3D4 JUMP JUMPDEST SWAP1 PUSH1 0x20 DUP3 DUP3 SUB SLT PUSH2 0x22D JUMPI PUSH2 0x218 SWAP2 PUSH2 0x263 JUMP JUMPDEST PUSH1 0x40 MLOAD RETURNDATASIZE PUSH0 DUP3 RETURNDATACOPY RETURNDATASIZE SWAP1 REVERT JUMPDEST PUSH2 0x426 PUSH2 0x218 PUSH2 0x218 SWAP3 SWAP1 JUMP JUMPDEST PUSH1 0xFF AND SWAP1 JUMP JUMPDEST PUSH2 0x218 PUSH1 0x6 PUSH2 0x419 JUMP JUMPDEST PUSH1 0x1 PUSH1 0x1 PUSH1 0x50 SHL SUB DUP2 AND PUSH2 0x226 JUMP JUMPDEST SWAP1 POP MLOAD SWAP1 PUSH2 0x20A DUP3 PUSH2 0x436 JUMP JUMPDEST SWAP2 SWAP1 PUSH1 0xA0 DUP4 DUP3 SUB SLT PUSH2 0x22D JUMPI PUSH2 0x468 DUP2 DUP5 PUSH2 0x445 JUMP JUMPDEST SWAP3 PUSH2 0x476 DUP3 PUSH1 0x20 DUP4 ADD PUSH2 0x276 JUMP JUMPDEST SWAP3 PUSH2 0x218 PUSH2 0x487 DUP5 PUSH1 0x40 DUP6 ADD PUSH2 0x276 JUMP JUMPDEST SWAP4 PUSH1 0x80 PUSH2 0x497 DUP3 PUSH1 0x60 DUP8 ADD PUSH2 0x276 JUMP JUMPDEST SWAP5 ADD PUSH2 0x445 JUMP JUMPDEST PUSH4 0x4E487B71 PUSH1 0xE0 SHL PUSH0 MSTORE PUSH1 0x11 PUSH1 0x4 MSTORE PUSH1 0x24 PUSH0 REVERT JUMPDEST DUP2 DUP2 MUL SWAP3 SWAP2 DUP2 ISZERO SWAP2 DUP5 DIV EQ OR ISZERO PUSH2 0x4C5 JUMPI JUMP JUMPDEST PUSH2 0x49E JUMP JUMPDEST PUSH1 0xFF AND PUSH1 0x4D DUP2 GT PUSH2 0x4C5 JUMPI PUSH1 0xA EXP SWAP1 JUMP JUMPDEST PUSH4 0x4E487B71 PUSH1 0xE0 SHL PUSH0 MSTORE PUSH1 0x12 PUSH1 0x4 MSTORE PUSH1 0x24 PUSH0 REVERT JUMPDEST SWAP1 PUSH2 0x4F9 JUMP JUMPDEST SWAP2 SWAP1 JUMP JUMPDEST SWAP1 DUP2 ISZERO PUSH2 0x504 JUMPI DIV SWAP1 JUMP JUMPDEST PUSH2 0x4DB JUMP JUMPDEST PUSH2 0x512 PUSH0 PUSH2 0x3A5 JUMP JUMPDEST PUSH1 0x1 PUSH1 0x1 PUSH1 0xA0 SHL SUB DUP2 AND PUSH1 0x1 PUSH1 0x1 PUSH1 0xA0 SHL SUB DUP9 AND EQ PUSH2 0x88E JUMPI PUSH1 0x1 PUSH1 0x1 PUSH1 0xA0 SHL SUB DUP2 AND PUSH1 0x1 PUSH1 0x1 PUSH1 0xA0 SHL SUB DUP8 AND EQ PUSH2 0x88E JUMPI PUSH1 0x1 PUSH1 0x1 PUSH1 0xA0 SHL SUB DUP2 AND PUSH1 0x1 PUSH1 0x1 PUSH1 0xA0 SHL SUB DUP7 AND EQ PUSH2 0x88E JUMPI PUSH2 0x586 PUSH2 0x579 PUSH2 0x56C DUP5 PUSH2 0x3CB JUMP JUMPDEST SWAP3 PUSH1 0x1 PUSH1 0x1 PUSH1 0xA0 SHL SUB AND SWAP1 JUMP JUMPDEST SWAP2 PUSH1 0x1 PUSH1 0x1 PUSH1 0xA0 SHL SUB AND SWAP1 JUMP JUMPDEST EQ PUSH2 0x88E JUMPI PUSH2 0x594 PUSH0 PUSH2 0x3D4 JUMP JUMPDEST DUP10 EQ PUSH2 0x87D JUMPI PUSH2 0x5A5 PUSH2 0x218 PUSH2 0x3E1 JUMP JUMPDEST DUP11 GT PUSH2 0x86C JUMPI PUSH2 0x5B3 PUSH2 0x3EE JUMP JUMPDEST DUP1 DUP13 LT PUSH2 0x85B JUMPI DUP1 DUP14 LT PUSH2 0x85B JUMPI DUP1 DUP15 LT PUSH2 0x85B JUMPI DUP15 LT PUSH2 0x85B JUMPI DUP13 DUP15 GT PUSH2 0x84A JUMPI PUSH2 0x5DE DUP3 PUSH2 0x3CB JUMP JUMPDEST PUSH4 0x313CE567 SWAP1 PUSH1 0x20 PUSH2 0x5EF PUSH1 0x40 MLOAD SWAP1 JUMP JUMPDEST DUP1 SWAP3 PUSH2 0x5FB DUP6 PUSH1 0xE0 SHL SWAP1 JUMP JUMPDEST DUP3 MSTORE PUSH1 0x4 SWAP1 DUP3 SWAP1 GAS STATICCALL SWAP1 DUP2 ISZERO PUSH2 0x789 JUMPI PUSH0 SWAP2 PUSH2 0x82B JUMPI JUMPDEST POP PUSH2 0x240 MSTORE PUSH2 0x620 DUP5 PUSH2 0x3CB JUMP JUMPDEST SWAP1 PUSH2 0x634 PUSH2 0x62D PUSH1 0x40 MLOAD SWAP1 JUMP JUMPDEST SWAP2 PUSH1 0xE0 SHL SWAP1 JUMP JUMPDEST DUP2 MSTORE PUSH1 0x20 DUP2 PUSH1 0x4 DUP2 DUP6 GAS STATICCALL SWAP1 DUP2 ISZERO PUSH2 0x789 JUMPI PUSH0 SWAP2 PUSH2 0x7FC JUMPI JUMPDEST POP PUSH2 0x260 MSTORE PUSH2 0x65A PUSH2 0x42C JUMP JUMPDEST PUSH1 0xFF DUP2 AND PUSH1 0xFF DUP11 AND LT SWAP1 DUP2 ISZERO PUSH2 0x7EB JUMPI JUMPDEST DUP2 ISZERO PUSH2 0x7C9 JUMPI JUMPDEST DUP2 ISZERO PUSH2 0x79F JUMPI JUMPDEST POP PUSH2 0x78E JUMPI PUSH1 0xA0 PUSH2 0x689 PUSH1 0x40 MLOAD SWAP1 JUMP JUMPDEST PUSH4 0x3FABE5A3 PUSH1 0xE2 SHL DUP2 MSTORE SWAP2 DUP3 SWAP1 PUSH1 0x4 SWAP1 DUP3 SWAP1 GAS STATICCALL SWAP1 DUP2 ISZERO PUSH2 0x789 JUMPI PUSH0 SWAP2 PUSH2 0x757 JUMPI JUMPDEST POP PUSH2 0x6B5 PUSH0 PUSH2 0x3D4 JUMP JUMPDEST DUP2 SGT ISZERO PUSH2 0x747 JUMPI PUSH2 0x6D1 PUSH2 0x6CB PUSH2 0x6EC SWAP3 PUSH2 0x3D4 JUMP JUMPDEST DUP12 PUSH2 0x4B2 JUMP JUMPDEST PUSH2 0x6E6 PUSH2 0x6E1 PUSH2 0x260 MLOAD PUSH1 0xFF AND SWAP1 JUMP JUMPDEST PUSH2 0x4CA JUMP JUMPDEST SWAP1 PUSH2 0x4EF JUMP JUMPDEST PUSH2 0x6FB PUSH2 0x4F5 PUSH2 0x218 DUP12 PUSH2 0x4CA JUMP JUMPDEST LT PUSH2 0x736 JUMPI PUSH1 0x80 MSTORE PUSH1 0xA0 MSTORE PUSH1 0xC0 MSTORE PUSH1 0xE0 MSTORE PUSH2 0x100 MSTORE PUSH2 0x120 MSTORE PUSH2 0x200 MSTORE PUSH2 0x220 MSTORE PUSH2 0x140 MSTORE PUSH2 0x160 MSTORE PUSH2 0x180 MSTORE PUSH2 0x1A0 MSTORE PUSH2 0x1C0 MSTORE PUSH2 0x1E0 MSTORE JUMP JUMPDEST PUSH4 0xCDE8C835 PUSH1 0xE0 SHL PUSH0 SWAP1 DUP2 MSTORE PUSH1 0x4 SWAP1 REVERT JUMPDEST PUSH3 0xBFC921 PUSH1 0xE0 SHL PUSH0 SWAP1 DUP2 MSTORE PUSH1 0x4 SWAP1 REVERT JUMPDEST PUSH2 0x779 SWAP2 POP PUSH1 0xA0 RETURNDATASIZE PUSH1 0xA0 GT PUSH2 0x782 JUMPI JUMPDEST PUSH2 0x771 DUP2 DUP4 PUSH2 0x1D0 JUMP JUMPDEST DUP2 ADD SWAP1 PUSH2 0x452 JUMP JUMPDEST POP POP POP SWAP1 PUSH2 0x6AB JUMP JUMPDEST POP RETURNDATASIZE PUSH2 0x767 JUMP JUMPDEST PUSH2 0x40E JUMP JUMPDEST PUSH4 0x70C5EB61 PUSH1 0xE1 SHL PUSH0 SWAP1 DUP2 MSTORE PUSH1 0x4 SWAP1 REVERT JUMPDEST SWAP1 POP PUSH2 0x7C2 PUSH2 0x7BB PUSH2 0x7B4 PUSH2 0x260 MLOAD PUSH1 0xFF AND SWAP1 JUMP JUMPDEST SWAP3 PUSH1 0xFF AND SWAP1 JUMP JUMPDEST SWAP2 PUSH1 0xFF AND SWAP1 JUMP JUMPDEST LT PUSH0 PUSH2 0x679 JUMP JUMPDEST SWAP1 POP PUSH2 0x7D8 PUSH2 0x240 MLOAD PUSH1 0xFF AND SWAP1 JUMP JUMPDEST PUSH2 0x7E4 PUSH1 0xFF DUP4 AND PUSH2 0x7BB JUMP JUMPDEST LT SWAP1 PUSH2 0x672 JUMP JUMPDEST SWAP1 POP PUSH1 0xFF DUP2 AND PUSH1 0xFF DUP12 AND LT SWAP1 PUSH2 0x66B JUMP JUMPDEST PUSH2 0x81E SWAP2 POP PUSH1 0x20 RETURNDATASIZE PUSH1 0x20 GT PUSH2 0x824 JUMPI JUMPDEST PUSH2 0x816 DUP2 DUP4 PUSH2 0x1D0 JUMP JUMPDEST DUP2 ADD SWAP1 PUSH2 0x3FA JUMP JUMPDEST PUSH0 PUSH2 0x64D JUMP JUMPDEST POP RETURNDATASIZE PUSH2 0x80C JUMP JUMPDEST PUSH2 0x844 SWAP2 POP PUSH1 0x20 RETURNDATASIZE PUSH1 0x20 GT PUSH2 0x824 JUMPI PUSH2 0x816 DUP2 DUP4 PUSH2 0x1D0 JUMP JUMPDEST PUSH0 PUSH2 0x612 JUMP JUMPDEST PUSH4 0x25C67027 PUSH1 0xE1 SHL PUSH0 SWAP1 DUP2 MSTORE PUSH1 0x4 SWAP1 REVERT JUMPDEST PUSH4 0x25C36367 PUSH1 0xE0 SHL PUSH0 SWAP1 DUP2 MSTORE PUSH1 0x4 SWAP1 REVERT JUMPDEST PUSH4 0xC189A4D3 PUSH1 0xE0 SHL PUSH0 SWAP1 DUP2 MSTORE PUSH1 0x4 SWAP1 REVERT JUMPDEST PUSH4 0x1F2A2005 PUSH1 0xE0 SHL PUSH0 SWAP1 DUP2 MSTORE PUSH1 0x4 SWAP1 REVERT JUMPDEST PUSH4 0xD92E233D PUSH1 0xE0 SHL PUSH0 SWAP1 DUP2 MSTORE PUSH1 0x4 SWAP1 REVERT INVALID PUSH1 0x80 PUSH1 0x40 MSTORE PUSH1 0x4 CALLDATASIZE LT ISZERO PUSH2 0x1A JUMPI JUMPDEST CALLDATASIZE ISZERO PUSH2 0x18 JUMPI PUSH0 DUP1 REVERT JUMPDEST STOP JUMPDEST PUSH0 CALLDATALOAD PUSH1 0xE0 SHR DUP1 PUSH4 0xBBFC833 EQ PUSH2 0x289 JUMPI DUP1 PUSH4 0x14E853B5 EQ PUSH2 0x284 JUMPI DUP1 PUSH4 0x24938E9F EQ PUSH2 0x27F JUMPI DUP1 PUSH4 0x2AE4E931 EQ PUSH2 0x27A JUMPI DUP1 PUSH4 0x320D7B3D EQ PUSH2 0x275 JUMPI DUP1 PUSH4 0x33D263F2 EQ PUSH2 0x270 JUMPI DUP1 PUSH4 0x342DB739 EQ PUSH2 0x26B JUMPI DUP1 PUSH4 0x3E032A3B EQ PUSH2 0x266 JUMPI DUP1 PUSH4 0x3E52531A EQ PUSH2 0x261 JUMPI DUP1 PUSH4 0x414A6279 EQ PUSH2 0x25C JUMPI DUP1 PUSH4 0x41F1D3C1 EQ PUSH2 0x257 JUMPI DUP1 PUSH4 0x4460D3CF EQ PUSH2 0x252 JUMPI DUP1 PUSH4 0x4ACA04A8 EQ PUSH2 0x24D JUMPI DUP1 PUSH4 0x4E71D92D EQ PUSH2 0x248 JUMPI DUP1 PUSH4 0x59AC8F07 EQ PUSH2 0x243 JUMPI DUP1 PUSH4 0x607AF397 EQ PUSH2 0x23E JUMPI DUP1 PUSH4 0x64CBE5F9 EQ PUSH2 0x239 JUMPI DUP1 PUSH4 0x66D003AC EQ PUSH2 0x234 JUMPI DUP1 PUSH4 0x6EB6A820 EQ PUSH2 0x22F JUMPI DUP1 PUSH4 0x8129FC1C EQ PUSH2 0x22A JUMPI DUP1 PUSH4 0x9049A1E3 EQ PUSH2 0x225 JUMPI DUP1 PUSH4 0x943640C3 EQ PUSH2 0x220 JUMPI DUP1 PUSH4 0x95098763 EQ PUSH2 0x21B JUMPI DUP1 PUSH4 0x98018B8B EQ PUSH2 0x216 JUMPI DUP1 PUSH4 0x9CFBCE51 EQ PUSH2 0x211 JUMPI DUP1 PUSH4 0xAA5C9691 EQ PUSH2 0x20C JUMPI DUP1 PUSH4 0xAB579F45 EQ PUSH2 0x207 JUMPI DUP1 PUSH4 0xAD9161CC EQ PUSH2 0x202 JUMPI DUP1 PUSH4 0xB001A482 EQ PUSH2 0x1FD JUMPI DUP1 PUSH4 0xB6A6D177 EQ PUSH2 0x1F8 JUMPI DUP1 PUSH4 0xB7D03C8F EQ PUSH2 0x1F3 JUMPI DUP1 PUSH4 0xC797AF7E EQ PUSH2 0x1EE JUMPI DUP1 PUSH4 0xCE4B5BBE EQ PUSH2 0x1E9 JUMPI DUP1 PUSH4 0xE5945AD7 EQ PUSH2 0x1E4 JUMPI DUP1 PUSH4 0xE6FD48BC EQ PUSH2 0x1DF JUMPI DUP1 PUSH4 0xEF4A57D1 EQ PUSH2 0x1DA JUMPI DUP1 PUSH4 0xEFB1AD5D EQ PUSH2 0x1D5 JUMPI DUP1 PUSH4 0xF47083BC EQ PUSH2 0x1D0 JUMPI PUSH4 0xFDEA3657 SUB PUSH2 0xE JUMPI PUSH2 0xACC JUMP JUMPDEST PUSH2 0xA93 JUMP JUMPDEST PUSH2 0xA5A JUMP JUMPDEST PUSH2 0xA21 JUMP JUMPDEST PUSH2 0xA06 JUMP JUMPDEST PUSH2 0x9C3 JUMP JUMPDEST PUSH2 0x9A8 JUMP JUMPDEST PUSH2 0x956 JUMP JUMPDEST PUSH2 0x93B JUMP JUMPDEST PUSH2 0x915 JUMP JUMPDEST PUSH2 0x8C8 JUMP JUMPDEST PUSH2 0x8AD JUMP JUMPDEST PUSH2 0x862 JUMP JUMPDEST PUSH2 0x847 JUMP JUMPDEST PUSH2 0x82C JUMP JUMPDEST PUSH2 0x811 JUMP JUMPDEST PUSH2 0x7F9 JUMP JUMPDEST PUSH2 0x7C0 JUMP JUMPDEST PUSH2 0x7A8 JUMP JUMPDEST PUSH2 0x77C JUMP JUMPDEST PUSH2 0x761 JUMP JUMPDEST PUSH2 0x720 JUMP JUMPDEST PUSH2 0x6CE JUMP JUMPDEST PUSH2 0x6B3 JUMP JUMPDEST PUSH2 0x695 JUMP JUMPDEST PUSH2 0x67D JUMP JUMPDEST PUSH2 0x662 JUMP JUMPDEST PUSH2 0x63A JUMP JUMPDEST PUSH2 0x5C6 JUMP JUMPDEST PUSH2 0x542 JUMP JUMPDEST PUSH2 0x509 JUMP JUMPDEST PUSH2 0x4D0 JUMP JUMPDEST PUSH2 0x4B5 JUMP JUMPDEST PUSH2 0x468 JUMP JUMPDEST PUSH2 0x427 JUMP JUMPDEST PUSH2 0x3BA JUMP JUMPDEST PUSH2 0x350 JUMP JUMPDEST PUSH2 0x2F5 JUMP JUMPDEST PUSH2 0x2C6 JUMP JUMPDEST PUSH0 SWAP2 SUB SLT PUSH2 0x298 JUMPI JUMP JUMPDEST PUSH0 DUP1 REVERT JUMPDEST PUSH2 0x2A7 SWAP2 PUSH1 0x8 MUL SHR DUP2 JUMP JUMPDEST SWAP1 JUMP JUMPDEST SWAP1 PUSH2 0x2A7 SWAP2 SLOAD PUSH2 0x29C JUMP JUMPDEST PUSH2 0x2A7 PUSH0 PUSH1 0x2 PUSH2 0x2AA JUMP JUMPDEST SWAP1 MSTORE JUMP JUMPDEST JUMP JUMPDEST CALLVALUE PUSH2 0x298 JUMPI PUSH2 0x2D6 CALLDATASIZE PUSH1 0x4 PUSH2 0x28E JUMP JUMPDEST PUSH2 0x2F1 PUSH2 0x2E1 PUSH2 0x2B5 JUMP JUMPDEST PUSH1 0x40 MLOAD SWAP2 DUP3 SWAP2 DUP3 SWAP1 DUP2 MSTORE PUSH1 0x20 ADD SWAP1 JUMP JUMPDEST SUB SWAP1 RETURN JUMPDEST CALLVALUE PUSH2 0x298 JUMPI PUSH2 0x305 CALLDATASIZE PUSH1 0x4 PUSH2 0x28E JUMP JUMPDEST PUSH2 0x2F1 PUSH32 0x0 PUSH2 0x2E1 JUMP JUMPDEST PUSH2 0x2A7 PUSH2 0x2A7 PUSH2 0x2A7 SWAP3 SWAP1 JUMP JUMPDEST PUSH2 0x2A7 PUSH4 0x5F5E100 PUSH2 0x32E JUMP JUMPDEST PUSH2 0x2A7 PUSH2 0x33B JUMP JUMPDEST CALLVALUE PUSH2 0x298 JUMPI PUSH2 0x360 CALLDATASIZE PUSH1 0x4 PUSH2 0x28E JUMP JUMPDEST PUSH2 0x2F1 PUSH2 0x2E1 PUSH2 0x348 JUMP JUMPDEST PUSH4 0x4E487B71 PUSH1 0xE0 SHL PUSH0 MSTORE PUSH1 0x21 PUSH1 0x4 MSTORE PUSH1 0x24 PUSH0 REVERT JUMPDEST PUSH1 0x4 GT ISZERO PUSH2 0x389 JUMPI JUMP JUMPDEST PUSH2 0x36B JUMP JUMPDEST SWAP1 PUSH2 0x2C4 DUP3 PUSH2 0x37F JUMP JUMPDEST PUSH2 0x2A7 SWAP1 PUSH2 0x38E JUMP JUMPDEST PUSH2 0x2C0 SWAP1 PUSH2 0x398 JUMP JUMPDEST PUSH1 0x20 DUP2 ADD SWAP3 SWAP2 PUSH2 0x2C4 SWAP2 SWAP1 PUSH2 0x3A1 JUMP JUMPDEST CALLVALUE PUSH2 0x298 JUMPI PUSH2 0x3CA CALLDATASIZE PUSH1 0x4 PUSH2 0x28E JUMP JUMPDEST PUSH2 0x2F1 PUSH2 0x3D5 PUSH2 0xB18 JUMP JUMPDEST PUSH1 0x40 MLOAD SWAP2 DUP3 SWAP2 DUP3 PUSH2 0x3AA JUMP JUMPDEST DUP1 JUMPDEST SUB PUSH2 0x298 JUMPI JUMP JUMPDEST SWAP1 POP CALLDATALOAD SWAP1 PUSH2 0x2C4 DUP3 PUSH2 0x3E1 JUMP JUMPDEST SWAP1 SWAP2 PUSH1 0x60 DUP3 DUP5 SUB SLT PUSH2 0x298 JUMPI PUSH2 0x2A7 PUSH2 0x410 DUP5 DUP5 PUSH2 0x3EA JUMP JUMPDEST SWAP4 PUSH1 0x40 PUSH2 0x420 DUP3 PUSH1 0x20 DUP8 ADD PUSH2 0x3EA JUMP JUMPDEST SWAP5 ADD PUSH2 0x3EA JUMP JUMPDEST CALLVALUE PUSH2 0x298 JUMPI PUSH2 0x2F1 PUSH2 0x2E1 PUSH2 0x43D CALLDATASIZE PUSH1 0x4 PUSH2 0x3F7 JUMP JUMPDEST SWAP2 PUSH2 0xB39 JUMP JUMPDEST PUSH2 0x450 PUSH2 0x2A7 PUSH2 0x2A7 SWAP3 SWAP1 JUMP JUMPDEST PUSH1 0xFF AND SWAP1 JUMP JUMPDEST PUSH2 0x2A7 PUSH1 0x6 PUSH2 0x443 JUMP JUMPDEST PUSH2 0x2A7 PUSH2 0x456 JUMP JUMPDEST CALLVALUE PUSH2 0x298 JUMPI PUSH2 0x478 CALLDATASIZE PUSH1 0x4 PUSH2 0x28E JUMP JUMPDEST PUSH2 0x2F1 PUSH2 0x483 PUSH2 0x460 JUMP JUMPDEST PUSH1 0x40 MLOAD SWAP2 DUP3 SWAP2 DUP3 PUSH1 0xFF SWAP1 SWAP2 AND DUP2 MSTORE PUSH1 0x20 ADD SWAP1 JUMP JUMPDEST PUSH15 0x1A185C991A185D0B595E1C1BDCD959 PUSH1 0x8A SHL SWAP1 JUMP JUMPDEST PUSH2 0x2A7 PUSH2 0x497 JUMP JUMPDEST CALLVALUE PUSH2 0x298 JUMPI PUSH2 0x4C5 CALLDATASIZE PUSH1 0x4 PUSH2 0x28E JUMP JUMPDEST PUSH2 0x2F1 PUSH2 0x2E1 PUSH2 0x4AD JUMP JUMPDEST CALLVALUE PUSH2 0x298 JUMPI PUSH2 0x4E0 CALLDATASIZE PUSH1 0x4 PUSH2 0x28E JUMP JUMPDEST PUSH2 0x2F1 PUSH32 0x0 PUSH2 0x2E1 JUMP JUMPDEST CALLVALUE PUSH2 0x298 JUMPI PUSH2 0x519 CALLDATASIZE PUSH1 0x4 PUSH2 0x28E JUMP JUMPDEST PUSH2 0x2F1 PUSH32 0x0 PUSH2 0x2E1 JUMP JUMPDEST CALLVALUE PUSH2 0x298 JUMPI PUSH2 0x552 CALLDATASIZE PUSH1 0x4 PUSH2 0x28E JUMP JUMPDEST PUSH2 0x2F1 PUSH32 0x0 PUSH2 0x2E1 JUMP JUMPDEST PUSH2 0x2A7 SWAP1 PUSH2 0x58F SWAP1 PUSH1 0x1 PUSH1 0x1 PUSH1 0xA0 SHL SUB AND DUP3 JUMP JUMPDEST PUSH1 0x1 PUSH1 0x1 PUSH1 0xA0 SHL SUB AND SWAP1 JUMP JUMPDEST PUSH2 0x2A7 SWAP1 PUSH2 0x57B JUMP JUMPDEST PUSH2 0x2A7 SWAP1 PUSH2 0x59B JUMP JUMPDEST PUSH2 0x2C0 SWAP1 PUSH2 0x5A4 JUMP JUMPDEST PUSH1 0x20 DUP2 ADD SWAP3 SWAP2 PUSH2 0x2C4 SWAP2 SWAP1 PUSH2 0x5AD JUMP JUMPDEST CALLVALUE PUSH2 0x298 JUMPI PUSH2 0x5D6 CALLDATASIZE PUSH1 0x4 PUSH2 0x28E JUMP JUMPDEST PUSH2 0x2F1 PUSH32 0x0 JUMPDEST PUSH1 0x40 MLOAD SWAP2 DUP3 SWAP2 DUP3 PUSH2 0x5B6 JUMP JUMPDEST PUSH2 0x2A7 SWAP1 PUSH2 0x58F JUMP JUMPDEST PUSH2 0x3E3 DUP2 PUSH2 0x607 JUMP JUMPDEST SWAP1 POP CALLDATALOAD SWAP1 PUSH2 0x2C4 DUP3 PUSH2 0x610 JUMP JUMPDEST SWAP1 PUSH1 0x20 DUP3 DUP3 SUB SLT PUSH2 0x298 JUMPI PUSH2 0x2A7 SWAP2 PUSH2 0x619 JUMP JUMPDEST CALLVALUE PUSH2 0x298 JUMPI PUSH2 0x652 PUSH2 0x64D CALLDATASIZE PUSH1 0x4 PUSH2 0x626 JUMP JUMPDEST PUSH2 0xD4F JUMP JUMPDEST PUSH1 0x40 MLOAD STOP JUMPDEST PUSH2 0x2A7 PUSH0 PUSH1 0x4 PUSH2 0x2AA JUMP JUMPDEST CALLVALUE PUSH2 0x298 JUMPI PUSH2 0x672 CALLDATASIZE PUSH1 0x4 PUSH2 0x28E JUMP JUMPDEST PUSH2 0x2F1 PUSH2 0x2E1 PUSH2 0x657 JUMP JUMPDEST CALLVALUE PUSH2 0x298 JUMPI PUSH2 0x68D CALLDATASIZE PUSH1 0x4 PUSH2 0x28E JUMP JUMPDEST PUSH2 0x652 PUSH2 0xDCC JUMP JUMPDEST PUSH2 0x6A0 CALLDATASIZE PUSH1 0x4 PUSH2 0x28E JUMP JUMPDEST PUSH2 0x652 PUSH2 0x1074 JUMP JUMPDEST PUSH2 0x2A7 PUSH0 PUSH1 0x1 PUSH2 0x2AA JUMP JUMPDEST CALLVALUE PUSH2 0x298 JUMPI PUSH2 0x6C3 CALLDATASIZE PUSH1 0x4 PUSH2 0x28E JUMP JUMPDEST PUSH2 0x2F1 PUSH2 0x2E1 PUSH2 0x6A8 JUMP JUMPDEST CALLVALUE PUSH2 0x298 JUMPI PUSH2 0x6DE CALLDATASIZE PUSH1 0x4 PUSH2 0x28E JUMP JUMPDEST PUSH2 0x2F1 PUSH32 0x0 PUSH2 0x2E1 JUMP JUMPDEST PUSH2 0x2C0 SWAP1 PUSH2 0x58F JUMP JUMPDEST PUSH1 0x20 DUP2 ADD SWAP3 SWAP2 PUSH2 0x2C4 SWAP2 SWAP1 PUSH2 0x707 JUMP JUMPDEST CALLVALUE PUSH2 0x298 JUMPI PUSH2 0x730 CALLDATASIZE PUSH1 0x4 PUSH2 0x28E JUMP JUMPDEST PUSH2 0x2F1 PUSH32 0x0 JUMPDEST PUSH1 0x40 MLOAD SWAP2 DUP3 SWAP2 DUP3 PUSH2 0x710 JUMP JUMPDEST CALLVALUE PUSH2 0x298 JUMPI PUSH2 0x771 CALLDATASIZE PUSH1 0x4 PUSH2 0x28E JUMP JUMPDEST PUSH2 0x2F1 PUSH2 0x2E1 PUSH2 0x107C JUMP JUMPDEST CALLVALUE PUSH2 0x298 JUMPI PUSH2 0x78C CALLDATASIZE PUSH1 0x4 PUSH2 0x28E JUMP JUMPDEST PUSH2 0x652 PUSH2 0x12B2 JUMP JUMPDEST SWAP1 PUSH1 0x20 DUP3 DUP3 SUB SLT PUSH2 0x298 JUMPI PUSH2 0x2A7 SWAP2 PUSH2 0x3EA JUMP JUMPDEST CALLVALUE PUSH2 0x298 JUMPI PUSH2 0x652 PUSH2 0x7BB CALLDATASIZE PUSH1 0x4 PUSH2 0x794 JUMP JUMPDEST PUSH2 0x142A JUMP JUMPDEST CALLVALUE PUSH2 0x298 JUMPI PUSH2 0x7D0 CALLDATASIZE PUSH1 0x4 PUSH2 0x28E JUMP JUMPDEST PUSH2 0x2F1 PUSH32 0x0 PUSH2 0x755 JUMP JUMPDEST CALLVALUE PUSH2 0x298 JUMPI PUSH2 0x809 CALLDATASIZE PUSH1 0x4 PUSH2 0x28E JUMP JUMPDEST PUSH2 0x652 PUSH2 0x1433 JUMP JUMPDEST CALLVALUE PUSH2 0x298 JUMPI PUSH2 0x2F1 PUSH2 0x2E1 PUSH2 0x827 CALLDATASIZE PUSH1 0x4 PUSH2 0x794 JUMP JUMPDEST PUSH2 0x1697 JUMP JUMPDEST CALLVALUE PUSH2 0x298 JUMPI PUSH2 0x2F1 PUSH2 0x2E1 PUSH2 0x842 CALLDATASIZE PUSH1 0x4 PUSH2 0x794 JUMP JUMPDEST PUSH2 0x1923 JUMP JUMPDEST CALLVALUE PUSH2 0x298 JUMPI PUSH2 0x857 CALLDATASIZE PUSH1 0x4 PUSH2 0x28E JUMP JUMPDEST PUSH2 0x2F1 PUSH2 0x2E1 PUSH2 0x1AEA JUMP JUMPDEST CALLVALUE PUSH2 0x298 JUMPI PUSH2 0x872 CALLDATASIZE PUSH1 0x4 PUSH2 0x28E JUMP JUMPDEST PUSH2 0x2F1 PUSH32 0x0 PUSH2 0x483 JUMP JUMPDEST PUSH2 0x2A7 PUSH1 0x12 PUSH2 0x443 JUMP JUMPDEST PUSH2 0x2A7 PUSH2 0x89B JUMP JUMPDEST CALLVALUE PUSH2 0x298 JUMPI PUSH2 0x8BD CALLDATASIZE PUSH1 0x4 PUSH2 0x28E JUMP JUMPDEST PUSH2 0x2F1 PUSH2 0x483 PUSH2 0x8A5 JUMP JUMPDEST CALLVALUE PUSH2 0x298 JUMPI PUSH2 0x8D8 CALLDATASIZE PUSH1 0x4 PUSH2 0x28E JUMP JUMPDEST PUSH2 0x2F1 PUSH32 0x0 PUSH2 0x483 JUMP JUMPDEST PUSH2 0x2A7 PUSH3 0x15180 PUSH2 0x32E JUMP JUMPDEST PUSH2 0x2A7 PUSH2 0x901 JUMP JUMPDEST CALLVALUE PUSH2 0x298 JUMPI PUSH2 0x925 CALLDATASIZE PUSH1 0x4 PUSH2 0x28E JUMP JUMPDEST PUSH2 0x2F1 PUSH2 0x2E1 PUSH2 0x90D JUMP JUMPDEST PUSH2 0x2A7 PUSH0 PUSH1 0x3 PUSH2 0x2AA JUMP JUMPDEST CALLVALUE PUSH2 0x298 JUMPI PUSH2 0x94B CALLDATASIZE PUSH1 0x4 PUSH2 0x28E JUMP JUMPDEST PUSH2 0x2F1 PUSH2 0x2E1 PUSH2 0x930 JUMP JUMPDEST CALLVALUE PUSH2 0x298 JUMPI PUSH2 0x966 CALLDATASIZE PUSH1 0x4 PUSH2 0x28E JUMP JUMPDEST PUSH2 0x2F1 PUSH32 0x0 PUSH2 0x483 JUMP JUMPDEST PUSH2 0x2A7 PUSH8 0xDE0B6B3A7640000 PUSH2 0x32E JUMP JUMPDEST PUSH2 0x2A7 PUSH2 0x98F JUMP JUMPDEST CALLVALUE PUSH2 0x298 JUMPI PUSH2 0x9B8 CALLDATASIZE PUSH1 0x4 PUSH2 0x28E JUMP JUMPDEST PUSH2 0x2F1 PUSH2 0x2E1 PUSH2 0x9A0 JUMP JUMPDEST CALLVALUE PUSH2 0x298 JUMPI PUSH2 0x9D3 CALLDATASIZE PUSH1 0x4 PUSH2 0x28E JUMP JUMPDEST PUSH2 0x2F1 PUSH32 0x0 PUSH2 0x5FB JUMP JUMPDEST PUSH2 0x2A7 PUSH0 DUP1 PUSH2 0x2AA JUMP JUMPDEST CALLVALUE PUSH2 0x298 JUMPI PUSH2 0xA16 CALLDATASIZE PUSH1 0x4 PUSH2 0x28E JUMP JUMPDEST PUSH2 0x2F1 PUSH2 0x2E1 PUSH2 0x9FC JUMP JUMPDEST CALLVALUE PUSH2 0x298 JUMPI PUSH2 0xA31 CALLDATASIZE PUSH1 0x4 PUSH2 0x28E JUMP JUMPDEST PUSH2 0x2F1 PUSH32 0x0 PUSH2 0x755 JUMP JUMPDEST CALLVALUE PUSH2 0x298 JUMPI PUSH2 0xA6A CALLDATASIZE PUSH1 0x4 PUSH2 0x28E JUMP JUMPDEST PUSH2 0x2F1 PUSH32 0x0 PUSH2 0x5FB JUMP JUMPDEST CALLVALUE PUSH2 0x298 JUMPI PUSH2 0xAA3 CALLDATASIZE PUSH1 0x4 PUSH2 0x28E JUMP JUMPDEST PUSH2 0x2F1 PUSH32 0x0 PUSH2 0x483 JUMP JUMPDEST CALLVALUE PUSH2 0x298 JUMPI PUSH2 0xADC CALLDATASIZE PUSH1 0x4 PUSH2 0x28E JUMP JUMPDEST PUSH2 0x2F1 PUSH32 0x0 PUSH2 0x2E1 JUMP JUMPDEST PUSH2 0x2A7 SWAP1 PUSH2 0x450 JUMP JUMPDEST PUSH2 0x2A7 SWAP1 SLOAD PUSH2 0xB05 JUMP JUMPDEST PUSH2 0xB23 PUSH2 0x2A7 PUSH2 0x107C JUMP JUMPDEST TIMESTAMP LT ISZERO PUSH2 0xB34 JUMPI PUSH2 0x2A7 PUSH1 0x5 PUSH2 0xB0E JUMP JUMPDEST PUSH1 0x3 SWAP1 JUMP JUMPDEST PUSH2 0x2A7 SWAP3 SWAP2 SWAP1 PUSH2 0x1BF3 JUMP JUMPDEST PUSH2 0xB6D PUSH32 0x0 PUSH2 0x58F JUMP JUMPDEST PUSH2 0xB76 CALLER PUSH2 0x58F JUMP JUMPDEST SUB PUSH2 0xB84 JUMPI PUSH2 0x2C4 SWAP1 PUSH2 0xC1C JUMP JUMPDEST PUSH4 0x9C867E21 PUSH1 0xE0 SHL PUSH0 SWAP1 DUP2 MSTORE PUSH1 0x4 JUMPDEST SUB PUSH0 REVERT JUMPDEST PUSH4 0x4E487B71 PUSH1 0xE0 SHL PUSH0 MSTORE PUSH1 0x41 PUSH1 0x4 MSTORE PUSH1 0x24 PUSH0 REVERT JUMPDEST SWAP1 PUSH1 0x1F ADD PUSH1 0x1F NOT AND DUP2 ADD SWAP1 DUP2 LT PUSH8 0xFFFFFFFFFFFFFFFF DUP3 GT OR PUSH2 0xBCD JUMPI PUSH1 0x40 MSTORE JUMP JUMPDEST PUSH2 0xB97 JUMP JUMPDEST SWAP1 POP MLOAD SWAP1 PUSH2 0x2C4 DUP3 PUSH2 0x3E1 JUMP JUMPDEST SWAP1 PUSH1 0x20 DUP3 DUP3 SUB SLT PUSH2 0x298 JUMPI PUSH2 0x2A7 SWAP2 PUSH2 0xBD2 JUMP JUMPDEST PUSH1 0x40 MLOAD RETURNDATASIZE PUSH0 DUP3 RETURNDATACOPY RETURNDATASIZE SWAP1 REVERT JUMPDEST SWAP2 PUSH1 0x20 PUSH2 0x2C4 SWAP3 SWAP5 SWAP4 PUSH2 0xC18 PUSH1 0x40 DUP3 ADD SWAP7 PUSH0 DUP4 ADD SWAP1 PUSH2 0x707 JUMP JUMPDEST ADD MSTORE JUMP JUMPDEST PUSH2 0xC45 PUSH32 0x0 PUSH2 0x607 JUMP JUMPDEST PUSH2 0xC4E DUP3 PUSH2 0x607 JUMP JUMPDEST EQ PUSH2 0xD3E JUMPI DUP1 PUSH2 0xC60 PUSH2 0xC88 SWAP3 PUSH2 0x5A4 JUMP JUMPDEST PUSH1 0x20 PUSH2 0xC6B ADDRESS PUSH2 0x5A4 JUMP JUMPDEST PUSH1 0x40 MLOAD SWAP5 DUP6 SWAP2 DUP3 SWAP2 SWAP1 PUSH4 0x70A08231 PUSH1 0xE0 SHL JUMPDEST DUP4 MSTORE PUSH1 0x4 DUP4 ADD PUSH2 0x710 JUMP JUMPDEST SUB DUP2 DUP5 GAS STATICCALL SWAP2 DUP3 ISZERO PUSH2 0xD39 JUMPI PUSH32 0x8AEC0CE3DADFFACF4B7A963E0FED1FF2E6151B4C95D4A65ACAFA9D1299630402 SWAP4 PUSH0 SWAP4 PUSH2 0xD04 JUMPI JUMPDEST POP DUP3 PUSH2 0xCEA SWAP2 PUSH32 0x0 SWAP1 PUSH2 0x1C5A JUMP JUMPDEST PUSH2 0xCFF PUSH2 0xCF6 PUSH1 0x40 MLOAD SWAP1 JUMP JUMPDEST SWAP3 DUP4 SWAP3 DUP4 PUSH2 0xBFE JUMP JUMPDEST SUB SWAP1 LOG1 JUMP JUMPDEST PUSH2 0xCEA SWAP2 SWAP4 POP PUSH2 0xD2B SWAP1 PUSH1 0x20 RETURNDATASIZE PUSH1 0x20 GT PUSH2 0xD32 JUMPI JUMPDEST PUSH2 0xD23 DUP2 DUP4 PUSH2 0xBAB JUMP JUMPDEST DUP2 ADD SWAP1 PUSH2 0xBDF JUMP JUMPDEST SWAP3 SWAP1 PUSH2 0xCBD JUMP JUMPDEST POP RETURNDATASIZE PUSH2 0xD19 JUMP JUMPDEST PUSH2 0xBF3 JUMP JUMPDEST PUSH4 0xBF27C04F PUSH1 0xE0 SHL PUSH0 SWAP1 DUP2 MSTORE PUSH1 0x4 SWAP1 REVERT JUMPDEST PUSH2 0x2C4 SWAP1 PUSH2 0xB44 JUMP JUMPDEST PUSH2 0x2A7 SWAP1 DUP2 JUMP JUMPDEST PUSH2 0x2A7 SWAP1 SLOAD PUSH2 0xD58 JUMP JUMPDEST PUSH4 0x4E487B71 PUSH1 0xE0 SHL PUSH0 MSTORE PUSH1 0x11 PUSH1 0x4 MSTORE PUSH1 0x24 PUSH0 REVERT JUMPDEST SWAP2 SWAP1 DUP3 ADD DUP1 SWAP3 GT PUSH2 0xD8A JUMPI JUMP JUMPDEST PUSH2 0xD69 JUMP JUMPDEST SWAP1 DUP2 MSTORE PUSH1 0x40 DUP2 ADD SWAP3 SWAP2 PUSH2 0x2C4 SWAP2 PUSH1 0x20 ADD MSTORE JUMP JUMPDEST SWAP1 PUSH0 NOT SWAP1 JUMPDEST SWAP2 DUP2 NOT AND SWAP2 AND OR SWAP1 JUMP JUMPDEST SWAP1 PUSH2 0xDC1 PUSH2 0x2A7 PUSH2 0xDC8 SWAP3 PUSH2 0x32E JUMP JUMPDEST DUP3 SLOAD PUSH2 0xDA2 JUMP JUMPDEST SWAP1 SSTORE JUMP JUMPDEST PUSH2 0xDD6 PUSH1 0x5 PUSH2 0xB0E JUMP JUMPDEST PUSH2 0xDE8 PUSH2 0xDE2 PUSH0 PUSH2 0x38E JUMP JUMPDEST SWAP2 PUSH2 0x38E JUMP JUMPDEST EQ PUSH2 0x102A JUMPI PUSH32 0x0 PUSH2 0xE17 DUP2 PUSH2 0x58F JUMP JUMPDEST PUSH2 0xE20 CALLER PUSH2 0x58F JUMP JUMPDEST EQ ISZERO DUP1 PUSH2 0xFEB JUMPI JUMPDEST PUSH2 0xFDA JUMPI PUSH2 0xE34 PUSH2 0x1AEA JUMP JUMPDEST DUP1 PUSH2 0xE3E PUSH0 PUSH2 0x32E JUMP JUMPDEST DUP2 EQ PUSH2 0xFC9 JUMPI PUSH2 0xE4D SWAP1 PUSH2 0x1697 JUMP JUMPDEST SWAP2 DUP3 SWAP1 PUSH2 0xE59 PUSH0 PUSH2 0x32E JUMP JUMPDEST DUP5 EQ PUSH2 0xFC9 JUMPI PUSH2 0xEB7 SWAP4 PUSH32 0x0 SWAP1 PUSH1 0x20 PUSH2 0xE90 DUP4 PUSH2 0x5A4 JUMP JUMPDEST PUSH2 0xE99 ADDRESS PUSH2 0x5A4 JUMP JUMPDEST SWAP1 PUSH2 0xEA3 PUSH1 0x40 MLOAD SWAP1 JUMP JUMPDEST SWAP9 DUP10 SWAP3 DUP4 SWAP2 DUP3 SWAP2 PUSH4 0x70A08231 PUSH1 0xE0 SHL PUSH2 0xC7D JUMP JUMPDEST SUB SWAP2 GAS STATICCALL SWAP1 DUP2 ISZERO PUSH2 0xD39 JUMPI PUSH32 0xC83B5086CE94EC8D5A88A9F5FEA4B18A522BB238ED0D2D8ABD959549A80C16B8 SWAP7 PUSH0 SWAP3 PUSH2 0xFA8 JUMPI JUMPDEST POP DUP1 DUP3 LT PUSH2 0xF56 JUMPI JUMPDEST POP POP PUSH2 0xF41 SWAP2 DUP4 SWAP2 PUSH2 0xF07 TIMESTAMP PUSH1 0x1 PUSH2 0xDB1 JUMP JUMPDEST PUSH2 0xF24 PUSH2 0xF1D DUP8 PUSH2 0xF18 PUSH1 0x3 PUSH2 0xD5F JUMP JUMPDEST PUSH2 0xD7D JUMP JUMPDEST PUSH1 0x3 PUSH2 0xDB1 JUMP JUMPDEST PUSH2 0xF3C PUSH2 0xF35 DUP5 PUSH2 0xF18 PUSH1 0x4 PUSH2 0xD5F JUMP JUMPDEST PUSH1 0x4 PUSH2 0xDB1 JUMP JUMPDEST PUSH2 0x1C5A JUMP JUMPDEST PUSH2 0xCFF PUSH2 0xF4D PUSH1 0x40 MLOAD SWAP1 JUMP JUMPDEST SWAP3 DUP4 SWAP3 DUP4 PUSH2 0xD8F JUMP JUMPDEST DUP2 PUSH2 0xF41 SWAP5 SWAP3 SWAP4 SWAP7 POP PUSH2 0xF9E SWAP6 POP PUSH32 0x521D4EC08EA54943095F5F84755DE8B51E1222628C06DAA159D618C8C5FDA56A SWAP2 PUSH2 0xF92 PUSH2 0xF4D PUSH1 0x40 MLOAD SWAP1 JUMP JUMPDEST SUB SWAP1 LOG1 DUP2 SWAP4 DUP5 SWAP3 PUSH2 0x1923 JUMP JUMPDEST SWAP5 SWAP2 DUP2 SWAP4 POP PUSH2 0xEF4 JUMP JUMPDEST PUSH2 0xFC2 SWAP2 SWAP3 POP PUSH1 0x20 RETURNDATASIZE PUSH1 0x20 GT PUSH2 0xD32 JUMPI PUSH2 0xD23 DUP2 DUP4 PUSH2 0xBAB JUMP JUMPDEST SWAP1 PUSH0 PUSH2 0xEEB JUMP JUMPDEST PUSH4 0x1F2A2005 PUSH1 0xE0 SHL PUSH0 SWAP1 DUP2 MSTORE PUSH1 0x4 SWAP1 REVERT JUMPDEST PUSH4 0x5A06399F PUSH1 0xE1 SHL PUSH0 SWAP1 DUP2 MSTORE PUSH1 0x4 SWAP1 REVERT JUMPDEST POP PUSH2 0x1023 PUSH2 0x2A7 PUSH2 0xFFC PUSH1 0x1 PUSH2 0xD5F JUMP JUMPDEST PUSH32 0x0 SWAP1 PUSH2 0xD7D JUMP JUMPDEST TIMESTAMP LT PUSH2 0xE28 JUMP JUMPDEST PUSH4 0x21C4E357 PUSH1 0xE2 SHL PUSH0 SWAP1 DUP2 MSTORE PUSH1 0x4 SWAP1 REVERT JUMPDEST PUSH2 0x1064 PUSH32 0x0 PUSH2 0x58F JUMP JUMPDEST PUSH2 0x106D CALLER PUSH2 0x58F JUMP JUMPDEST SUB PUSH2 0xB84 JUMPI JUMP JUMPDEST PUSH2 0x2C4 PUSH2 0x103B JUMP JUMPDEST PUSH2 0x1086 PUSH1 0x5 PUSH2 0xB0E JUMP JUMPDEST PUSH2 0x1092 PUSH2 0xDE2 PUSH0 PUSH2 0x38E JUMP JUMPDEST EQ PUSH2 0x10F0 JUMPI PUSH2 0x10A1 PUSH1 0x5 PUSH2 0xB0E JUMP JUMPDEST PUSH2 0x10AE PUSH2 0xDE2 PUSH1 0x2 PUSH2 0x38E JUMP JUMPDEST SUB PUSH2 0x10BD JUMPI PUSH2 0x2A7 PUSH1 0x2 PUSH2 0xD5F JUMP JUMPDEST PUSH2 0x2A7 PUSH2 0x10C9 PUSH0 PUSH2 0xD5F JUMP JUMPDEST PUSH32 0x0 SWAP1 PUSH2 0xD7D JUMP JUMPDEST PUSH2 0x2A7 PUSH0 PUSH2 0x32E JUMP JUMPDEST PUSH2 0x1122 PUSH32 0x0 PUSH2 0x58F JUMP JUMPDEST PUSH2 0x112B CALLER PUSH2 0x58F JUMP JUMPDEST SUB PUSH2 0xB84 JUMPI PUSH2 0x2C4 PUSH2 0x1158 JUMP JUMPDEST SWAP1 PUSH1 0xFF SWAP1 PUSH2 0xDA7 JUMP JUMPDEST SWAP1 PUSH2 0x1151 PUSH2 0x2A7 PUSH2 0xDC8 SWAP3 PUSH2 0x398 JUMP JUMPDEST DUP3 SLOAD PUSH2 0x1138 JUMP JUMPDEST PUSH2 0x1162 PUSH1 0x5 PUSH2 0xB0E JUMP JUMPDEST PUSH2 0x116E PUSH2 0xDE2 PUSH0 PUSH2 0x38E JUMP JUMPDEST SUB PUSH2 0x12A2 JUMPI PUSH2 0x117D TIMESTAMP PUSH0 PUSH2 0xDB1 JUMP JUMPDEST PUSH2 0x1188 TIMESTAMP PUSH1 0x1 PUSH2 0xDB1 JUMP JUMPDEST PUSH2 0x1194 PUSH1 0x1 PUSH1 0x5 PUSH2 0x1141 JUMP JUMPDEST PUSH2 0x11E9 PUSH1 0x20 PUSH2 0x11C2 PUSH32 0x0 PUSH2 0x5A4 JUMP JUMPDEST PUSH2 0x11CB ADDRESS PUSH2 0x5A4 JUMP JUMPDEST SWAP1 PUSH2 0x11D5 PUSH1 0x40 MLOAD SWAP1 JUMP JUMPDEST SWAP4 DUP5 SWAP3 DUP4 SWAP2 DUP3 SWAP2 PUSH4 0x70A08231 PUSH1 0xE0 SHL PUSH2 0xC7D JUMP JUMPDEST SUB SWAP2 GAS STATICCALL SWAP1 DUP2 ISZERO PUSH2 0xD39 JUMPI PUSH0 SWAP2 PUSH2 0x1283 JUMPI JUMPDEST POP PUSH2 0x1205 DUP2 PUSH2 0x1923 JUMP JUMPDEST PUSH32 0x0 SWAP2 SWAP1 DUP3 SWAP1 PUSH2 0x1233 JUMP JUMPDEST SWAP2 SWAP1 JUMP JUMPDEST LT PUSH2 0x126B JUMPI POP POP PUSH32 0x5DAA87A0E9463431830481FD4B6E3403442DFB9A12B9C07597E9F61D50B633C8 PUSH2 0x1264 PUSH1 0x40 MLOAD SWAP1 JUMP JUMPDEST DUP1 DUP1 PUSH2 0xCFF JUMP JUMPDEST PUSH4 0x4787A103 PUSH1 0xE1 SHL PUSH0 SWAP1 DUP2 MSTORE SWAP2 PUSH2 0xB93 SWAP2 PUSH1 0x4 PUSH2 0xD8F JUMP JUMPDEST PUSH2 0x129C SWAP2 POP PUSH1 0x20 RETURNDATASIZE PUSH1 0x20 GT PUSH2 0xD32 JUMPI PUSH2 0xD23 DUP2 DUP4 PUSH2 0xBAB JUMP JUMPDEST PUSH0 PUSH2 0x11FB JUMP JUMPDEST PUSH3 0xDC149F PUSH1 0xE4 SHL PUSH0 SWAP1 DUP2 MSTORE PUSH1 0x4 SWAP1 REVERT JUMPDEST PUSH2 0x2C4 PUSH2 0x10F9 JUMP JUMPDEST PUSH2 0x12E3 PUSH32 0x0 PUSH2 0x58F JUMP JUMPDEST PUSH2 0x12EC CALLER PUSH2 0x58F JUMP JUMPDEST SUB PUSH2 0xB84 JUMPI PUSH2 0x2C4 SWAP1 PUSH2 0x12FF PUSH1 0x5 PUSH2 0xB0E JUMP JUMPDEST SWAP1 PUSH1 0x2 SWAP2 PUSH2 0x130F PUSH2 0xDE2 DUP5 PUSH2 0x38E JUMP JUMPDEST EQ PUSH2 0x1419 JUMPI PUSH2 0x131D PUSH0 PUSH2 0x32E JUMP JUMPDEST DUP2 SUB PUSH2 0x13C6 JUMPI PUSH2 0x1356 PUSH2 0x1350 PUSH32 0x0 TIMESTAMP PUSH2 0xD7D JUMP JUMPDEST DUP4 PUSH2 0xDB1 JUMP JUMPDEST PUSH2 0x135F DUP3 PUSH2 0xD5F JUMP JUMPDEST PUSH2 0x1371 PUSH2 0x122F PUSH2 0x2A7 PUSH2 0x10C9 PUSH0 PUSH2 0xD5F JUMP JUMPDEST GT PUSH2 0x13AF JUMPI POP PUSH2 0xCFF PUSH2 0x2E1 DUP3 PUSH2 0x13AA PUSH32 0x9A9CAD27A1BDCE3D7CB0602AAF727DFAAD03BA6524D9BCA7B9615867FA6802B4 SWAP5 PUSH1 0x5 PUSH2 0x1141 JUMP JUMPDEST PUSH2 0xD5F JUMP JUMPDEST PUSH4 0x51FE0483 PUSH1 0xE1 SHL PUSH0 SWAP1 DUP2 MSTORE PUSH1 0x4 SWAP2 SWAP1 SWAP2 MSTORE PUSH1 0x24 SWAP1 REVERT JUMPDEST PUSH2 0x13F3 PUSH2 0x2A7 PUSH32 0x0 TIMESTAMP PUSH2 0xD7D JUMP JUMPDEST DUP2 LT PUSH2 0x1408 JUMPI PUSH2 0x1403 DUP2 DUP4 PUSH2 0xDB1 JUMP JUMPDEST PUSH2 0x1356 JUMP JUMPDEST PUSH4 0x25C36367 PUSH1 0xE0 SHL PUSH0 SWAP1 DUP2 MSTORE PUSH1 0x4 SWAP1 REVERT JUMPDEST PUSH4 0x2AAA6855 PUSH1 0xE1 SHL PUSH0 SWAP1 DUP2 MSTORE PUSH1 0x4 SWAP1 REVERT JUMPDEST PUSH2 0x2C4 SWAP1 PUSH2 0x12BA JUMP JUMPDEST PUSH2 0x143D PUSH1 0x5 PUSH2 0xB0E JUMP JUMPDEST PUSH2 0x1449 PUSH2 0xDE2 PUSH0 PUSH2 0x38E JUMP JUMPDEST SUB PUSH2 0x153E JUMPI PUSH2 0x1477 PUSH32 0x0 PUSH2 0x58F JUMP JUMPDEST PUSH2 0x1480 CALLER PUSH2 0x58F JUMP JUMPDEST SUB PUSH2 0xB84 JUMPI JUMPDEST PUSH32 0x0 PUSH2 0x14B5 PUSH1 0x20 PUSH2 0x11C2 DUP4 PUSH2 0x5A4 JUMP JUMPDEST SUB SWAP2 GAS STATICCALL DUP1 ISZERO PUSH2 0xD39 JUMPI PUSH32 0x7F221332EE403570BF4D61630B58189EA566FF1635269001E9DF6A890F413DD8 SWAP3 PUSH2 0xCFF SWAP3 PUSH0 SWAP3 PUSH2 0x1519 JUMPI JUMPDEST POP DUP2 PUSH2 0x2E1 SWAP2 PUSH32 0x0 SWAP1 PUSH2 0x1C5A JUMP JUMPDEST PUSH2 0x2E1 SWAP2 SWAP3 POP PUSH2 0x1537 SWAP1 PUSH1 0x20 RETURNDATASIZE PUSH1 0x20 GT PUSH2 0xD32 JUMPI PUSH2 0xD23 DUP2 DUP4 PUSH2 0xBAB JUMP JUMPDEST SWAP2 SWAP1 PUSH2 0x14EC JUMP JUMPDEST PUSH2 0x1546 PUSH2 0x107C JUMP JUMPDEST PUSH2 0x156F PUSH32 0x0 PUSH2 0x58F JUMP JUMPDEST PUSH2 0x1578 CALLER PUSH2 0x58F JUMP JUMPDEST SUB PUSH2 0x1594 JUMPI TIMESTAMP GT PUSH2 0x1486 JUMPI PUSH4 0xA33E7099 PUSH1 0xE0 SHL PUSH0 SWAP1 DUP2 MSTORE PUSH1 0x4 SWAP1 REVERT JUMPDEST PUSH2 0x2A7 PUSH2 0x15C2 SWAP2 PUSH32 0x0 SWAP1 PUSH2 0xD7D JUMP JUMPDEST TIMESTAMP GT PUSH2 0x1486 JUMPI PUSH4 0x42F54AF PUSH1 0xE0 SHL PUSH0 SWAP1 DUP2 MSTORE PUSH1 0x4 SWAP1 REVERT JUMPDEST PUSH10 0xFFFFFFFFFFFFFFFFFFFF DUP2 AND PUSH2 0x3E3 JUMP JUMPDEST SWAP1 POP MLOAD SWAP1 PUSH2 0x2C4 DUP3 PUSH2 0x15D9 JUMP JUMPDEST SWAP2 SWAP1 PUSH1 0xA0 DUP4 DUP3 SUB SLT PUSH2 0x298 JUMPI PUSH2 0x160E DUP2 DUP5 PUSH2 0x15EB JUMP JUMPDEST SWAP3 PUSH2 0x161C DUP3 PUSH1 0x20 DUP4 ADD PUSH2 0xBD2 JUMP JUMPDEST SWAP3 PUSH2 0x2A7 PUSH2 0x162D DUP5 PUSH1 0x40 DUP6 ADD PUSH2 0xBD2 JUMP JUMPDEST SWAP4 PUSH1 0x80 PUSH2 0x163D DUP3 PUSH1 0x60 DUP8 ADD PUSH2 0xBD2 JUMP JUMPDEST SWAP5 ADD PUSH2 0x15EB JUMP JUMPDEST PUSH2 0x2A7 PUSH2 0x2A7 PUSH2 0x2A7 SWAP3 PUSH1 0xFF AND SWAP1 JUMP JUMPDEST SWAP2 SWAP1 DUP3 SUB SWAP2 DUP3 GT PUSH2 0xD8A JUMPI JUMP JUMPDEST DUP2 DUP2 MUL SWAP3 SWAP2 DUP2 ISZERO SWAP2 DUP5 DIV EQ OR ISZERO PUSH2 0xD8A JUMPI JUMP JUMPDEST PUSH4 0x4E487B71 PUSH1 0xE0 SHL PUSH0 MSTORE PUSH1 0x12 PUSH1 0x4 MSTORE PUSH1 0x24 PUSH0 REVERT JUMPDEST DUP2 ISZERO PUSH2 0x1692 JUMPI DIV SWAP1 JUMP JUMPDEST PUSH2 0x1674 JUMP JUMPDEST PUSH2 0x16C0 PUSH32 0x0 PUSH2 0x5A4 JUMP JUMPDEST SWAP1 PUSH4 0xFEAF968C SWAP2 PUSH1 0xA0 PUSH2 0x16D2 PUSH1 0x40 MLOAD SWAP1 JUMP JUMPDEST DUP1 SWAP3 PUSH2 0x16DE DUP7 PUSH1 0xE0 SHL SWAP1 JUMP JUMPDEST DUP3 MSTORE PUSH1 0x4 SWAP1 DUP3 SWAP1 GAS STATICCALL SWAP1 DUP2 ISZERO PUSH2 0xD39 JUMPI PUSH0 SWAP2 PUSH2 0x1901 JUMPI JUMPDEST POP PUSH2 0x16FF PUSH0 PUSH2 0x32E JUMP JUMPDEST DUP2 SGT ISZERO PUSH2 0x18BD JUMPI PUSH1 0xA0 PUSH2 0x1741 SWAP4 PUSH2 0x1735 PUSH32 0x0 PUSH2 0x5A4 JUMP JUMPDEST PUSH1 0x40 MLOAD SWAP6 DUP7 SWAP3 PUSH1 0xE0 SHL SWAP1 JUMP JUMPDEST DUP3 MSTORE PUSH1 0x4 SWAP1 DUP3 SWAP1 GAS STATICCALL SWAP3 DUP4 ISZERO PUSH2 0xD39 JUMPI PUSH0 SWAP4 PUSH2 0x18CD JUMPI JUMPDEST POP PUSH2 0x1762 PUSH0 PUSH2 0x32E JUMP JUMPDEST DUP4 SGT ISZERO PUSH2 0x18BD JUMPI PUSH2 0x2A7 SWAP3 PUSH2 0x1812 PUSH2 0x187B PUSH2 0x17D6 SWAP5 PUSH2 0x1876 PUSH2 0x1786 PUSH2 0x188D SWAP7 PUSH2 0x32E JUMP JUMPDEST PUSH2 0x184C PUSH32 0x0 SWAP2 PUSH2 0x181D PUSH2 0x1817 PUSH2 0x17CB PUSH2 0x17C5 PUSH2 0x17BF PUSH2 0x89B JUMP JUMPDEST SWAP7 PUSH2 0x1644 JUMP JUMPDEST SWAP6 PUSH2 0x1644 JUMP JUMPDEST SWAP12 DUP13 DUP1 SWAP7 DUP2 SWAP6 PUSH2 0x1BF3 JUMP JUMPDEST PUSH2 0x1812 PUSH2 0x17E1 PUSH2 0x33B JUMP JUMPDEST SWAP2 PUSH2 0x180C PUSH32 0x0 DUP5 PUSH2 0x1654 JUMP JUMPDEST SWAP1 PUSH2 0x1661 JUMP JUMPDEST PUSH2 0x1688 JUMP JUMPDEST SWAP9 PUSH2 0x32E JUMP JUMPDEST PUSH2 0x1846 PUSH32 0x0 PUSH2 0x1644 JUMP JUMPDEST SWAP1 PUSH2 0x1BF3 JUMP JUMPDEST SWAP3 PUSH2 0x1846 PUSH32 0x0 PUSH2 0x1644 JUMP JUMPDEST PUSH2 0x1661 JUMP JUMPDEST PUSH2 0x1876 PUSH2 0x1886 PUSH2 0x98F JUMP JUMPDEST DUP1 SWAP3 PUSH2 0x1688 JUMP JUMPDEST SWAP1 PUSH2 0x18B7 PUSH32 0x0 PUSH2 0x1644 JUMP JUMPDEST SWAP2 PUSH2 0x1BF3 JUMP JUMPDEST PUSH3 0xBFC921 PUSH1 0xE0 SHL PUSH0 SWAP1 DUP2 MSTORE PUSH1 0x4 SWAP1 REVERT JUMPDEST PUSH2 0x18F0 SWAP2 SWAP4 POP PUSH1 0xA0 RETURNDATASIZE PUSH1 0xA0 GT PUSH2 0x18FA JUMPI JUMPDEST PUSH2 0x18E8 DUP2 DUP4 PUSH2 0xBAB JUMP JUMPDEST DUP2 ADD SWAP1 PUSH2 0x15F8 JUMP JUMPDEST POP POP POP SWAP3 SWAP1 PUSH2 0x1758 JUMP JUMPDEST POP RETURNDATASIZE PUSH2 0x18DE JUMP JUMPDEST PUSH2 0x191A SWAP2 POP PUSH1 0xA0 RETURNDATASIZE PUSH1 0xA0 GT PUSH2 0x18FA JUMPI PUSH2 0x18E8 DUP2 DUP4 PUSH2 0xBAB JUMP JUMPDEST POP POP POP SWAP1 PUSH2 0x16F5 JUMP JUMPDEST PUSH2 0x194C PUSH32 0x0 PUSH2 0x5A4 JUMP JUMPDEST PUSH4 0xFEAF968C SWAP1 PUSH1 0xA0 PUSH2 0x195D PUSH1 0x40 MLOAD SWAP1 JUMP JUMPDEST DUP1 SWAP3 PUSH2 0x1969 DUP6 PUSH1 0xE0 SHL SWAP1 JUMP JUMPDEST DUP3 MSTORE PUSH1 0x4 SWAP1 DUP3 SWAP1 GAS STATICCALL SWAP1 DUP2 ISZERO PUSH2 0xD39 JUMPI PUSH0 SWAP2 PUSH2 0x1AC8 JUMPI JUMPDEST POP PUSH2 0x198A PUSH0 PUSH2 0x32E JUMP JUMPDEST DUP2 SGT ISZERO PUSH2 0x18BD JUMPI PUSH1 0xA0 PUSH2 0x19CC SWAP3 PUSH2 0x19C0 PUSH32 0x0 PUSH2 0x5A4 JUMP JUMPDEST PUSH1 0x40 MLOAD SWAP5 DUP6 SWAP3 PUSH1 0xE0 SHL SWAP1 JUMP JUMPDEST DUP3 MSTORE PUSH1 0x4 SWAP1 DUP3 SWAP1 GAS STATICCALL SWAP2 DUP3 ISZERO PUSH2 0xD39 JUMPI PUSH0 SWAP3 PUSH2 0x1AA4 JUMPI JUMPDEST POP PUSH2 0x19ED PUSH0 PUSH2 0x32E JUMP JUMPDEST DUP3 SGT ISZERO PUSH2 0x18BD JUMPI PUSH2 0x2A7 SWAP3 PUSH2 0x1812 PUSH2 0x187B PUSH2 0x17D6 SWAP5 PUSH2 0x1876 PUSH2 0x1A11 PUSH2 0x1A7A SWAP7 PUSH2 0x32E JUMP JUMPDEST PUSH2 0x1A50 PUSH32 0x0 SWAP2 PUSH2 0x181D PUSH2 0x1A4A PUSH2 0x17CB PUSH2 0x17C5 PUSH2 0x17BF PUSH2 0x89B JUMP JUMPDEST SWAP6 PUSH2 0x32E JUMP JUMPDEST SWAP6 PUSH2 0x1846 PUSH32 0x0 PUSH2 0x1644 JUMP JUMPDEST SWAP1 PUSH2 0x18B7 PUSH32 0x0 PUSH2 0x1644 JUMP JUMPDEST PUSH2 0x1ABE SWAP2 SWAP3 POP PUSH1 0xA0 RETURNDATASIZE PUSH1 0xA0 GT PUSH2 0x18FA JUMPI PUSH2 0x18E8 DUP2 DUP4 PUSH2 0xBAB JUMP JUMPDEST POP POP POP SWAP2 SWAP1 PUSH2 0x19E3 JUMP JUMPDEST PUSH2 0x1AE1 SWAP2 POP PUSH1 0xA0 RETURNDATASIZE PUSH1 0xA0 GT PUSH2 0x18FA JUMPI PUSH2 0x18E8 DUP2 DUP4 PUSH2 0xBAB JUMP JUMPDEST POP POP POP SWAP1 PUSH2 0x1980 JUMP JUMPDEST PUSH0 PUSH2 0x1AF5 PUSH1 0x3 PUSH2 0xD5F JUMP JUMPDEST PUSH32 0x0 SWAP1 DUP2 GT ISZERO PUSH2 0x1BDA JUMPI PUSH2 0x1B26 PUSH2 0x107C JUMP JUMPDEST PUSH2 0x1B2F PUSH0 PUSH2 0x32E JUMP JUMPDEST DUP2 EQ PUSH2 0x1BCE JUMPI PUSH2 0x2A7 SWAP3 POP DUP1 TIMESTAMP LT ISZERO PUSH2 0x1B93 JUMPI POP PUSH2 0x1B5C PUSH2 0x1B83 SWAP2 PUSH2 0x180C PUSH2 0x1B56 PUSH0 PUSH2 0xD5F JUMP JUMPDEST TIMESTAMP PUSH2 0x1654 JUMP JUMPDEST PUSH32 0x0 SWAP1 PUSH2 0x1688 JUMP JUMPDEST PUSH2 0x1B8D PUSH1 0x3 PUSH2 0xD5F JUMP JUMPDEST SWAP1 PUSH2 0x1654 JUMP JUMPDEST PUSH2 0x1B9D PUSH1 0x5 PUSH2 0xB0E JUMP JUMPDEST PUSH2 0x1BAA PUSH2 0xDE2 PUSH1 0x2 PUSH2 0x38E JUMP JUMPDEST SUB PUSH2 0x1BC8 JUMPI PUSH2 0x1BC3 SWAP2 PUSH2 0x180C PUSH2 0x1B5C SWAP3 PUSH2 0x1B8D PUSH0 PUSH2 0xD5F JUMP JUMPDEST PUSH2 0x1B83 JUMP JUMPDEST POP PUSH2 0x1B83 JUMP JUMPDEST POP POP POP PUSH2 0x2A7 PUSH0 PUSH2 0x32E JUMP JUMPDEST POP POP PUSH2 0x2A7 PUSH0 PUSH2 0x32E JUMP JUMPDEST PUSH1 0x4D DUP2 GT PUSH2 0xD8A JUMPI PUSH1 0xA EXP SWAP1 JUMP JUMPDEST SWAP1 SWAP2 DUP1 DUP4 EQ PUSH2 0x1C2E JUMPI DUP1 DUP4 GT PUSH2 0x1C18 JUMPI PUSH2 0x1C13 PUSH2 0x2A7 SWAP4 PUSH2 0x180C SWAP3 PUSH2 0x1654 JUMP JUMPDEST PUSH2 0x1BE5 JUMP JUMPDEST PUSH2 0x1C13 PUSH2 0x1C28 SWAP2 PUSH2 0x2A7 SWAP5 PUSH2 0x1654 JUMP JUMPDEST SWAP1 PUSH2 0x1688 JUMP JUMPDEST POP SWAP1 POP SWAP1 JUMP JUMPDEST PUSH2 0x1C4D PUSH2 0x1C47 PUSH2 0x2A7 SWAP3 PUSH4 0xFFFFFFFF AND SWAP1 JUMP JUMPDEST PUSH1 0xE0 SHL SWAP1 JUMP JUMPDEST PUSH1 0x1 PUSH1 0x1 PUSH1 0xE0 SHL SUB NOT AND SWAP1 JUMP JUMPDEST PUSH2 0x1C9D PUSH1 0x4 SWAP3 PUSH2 0x1C8E PUSH2 0x2C4 SWAP6 PUSH2 0x1C74 PUSH4 0xA9059CBB PUSH2 0x1C34 JUMP JUMPDEST SWAP3 PUSH2 0x1C7E PUSH1 0x40 MLOAD SWAP1 JUMP JUMPDEST SWAP7 DUP8 SWAP5 PUSH1 0x20 DUP7 ADD SWAP1 DUP2 MSTORE ADD PUSH2 0xBFE JUMP JUMPDEST PUSH1 0x20 DUP3 ADD DUP2 SUB DUP3 MSTORE SUB DUP4 PUSH2 0xBAB JUMP JUMPDEST SWAP1 PUSH0 PUSH1 0x20 SWAP2 PUSH2 0x1CA9 PUSH0 SWAP1 JUMP JUMPDEST POP DUP3 DUP2 MLOAD SWAP2 ADD DUP3 DUP6 GAS CALL ISZERO PUSH2 0xBF3 JUMPI RETURNDATASIZE PUSH0 MLOAD SWAP1 PUSH2 0x1CC8 PUSH2 0x122F PUSH0 PUSH2 0x32E JUMP JUMPDEST SUB PUSH2 0x1D0D JUMPI POP PUSH2 0x1CD7 DUP2 PUSH2 0x5A4 JUMP JUMPDEST EXTCODESIZE PUSH2 0x1CE4 PUSH2 0x122F PUSH0 PUSH2 0x32E JUMP JUMPDEST EQ JUMPDEST PUSH2 0x1CED JUMPI POP JUMP JUMPDEST PUSH2 0xB93 PUSH2 0x1CFA PUSH0 SWAP3 PUSH2 0x5A4 JUMP JUMPDEST PUSH4 0x5274AFE7 PUSH1 0xE0 SHL DUP4 MSTORE PUSH1 0x4 DUP4 ADD PUSH2 0x710 JUMP JUMPDEST PUSH2 0x1D1A PUSH2 0x122F PUSH1 0x1 PUSH2 0x32E JUMP JUMPDEST EQ ISZERO PUSH2 0x1CE6 JUMP INVALID LOG2 PUSH5 0x6970667358 0x22 SLT KECCAK256 0xDF CALLCODE NUMBER STOP EXTDELEGATECALL 0xC0 PUSH16 0x7E9129A900FF29046A8999786BC33FE3 SWAP11 CALLVALUE PUSH7 0xA5F5C6CD367964 PUSH20 0x6F6C634300081D00330000000000000000000000 "
        },
        "methodIdentifiers": {
          "$onlyStreamCreator()": "59ac8f07",
          "$scaleAmount(uint256,uint256,uint256)": "320d7b3d",
          "MIN_DECIMALS()": "33d263f2",
          "MIN_DURATION()": "b6a6d177",
          "SCALE_DECIMALS()": "ad9161cc",
          "SCALE_FACTOR()": "ce4b5bbe",
          "SLIPPAGE_SCALE()": "24938e9f",
          "__hh_exposed_bytecode_marker()": "342db739",
          "calculateNativeAssetAmount(uint256)": "9cfbce51",
          "calculateStreamingAssetAmount(uint256)": "98018b8b",
          "claim()": "4e71d92d",
          "claimCooldown()": "fdea3657",
          "getNativeAssetAmountOwed()": "aa5c9691",
          "getStreamEnd()": "6eb6a820",
          "getStreamState()": "2ae4e931",
          "initialize()": "8129fc1c",
          "lastClaimTimestamp()": "607af397",
          "minimumNoticePeriod()": "414a6279",
          "nativeAssetDecimals()": "f47083bc",
          "nativeAssetOracle()": "efb1ad5d",
          "nativeAssetOracleDecimals()": "b001a482",
          "nativeAssetStreamingAmount()": "3e52531a",
          "nativeAssetSuppliedAmount()": "b7d03c8f",
          "recipient()": "66d003ac",
          "rescueToken(address)": "4460d3cf",
          "returnAddress()": "943640c3",
          "slippage()": "3e032a3b",
          "startTimestamp()": "e6fd48bc",
          "streamCreator()": "ef4a57d1",
          "streamDuration()": "64cbe5f9",
          "streamingAsset()": "41f1d3c1",
          "streamingAssetClaimedAmount()": "4aca04a8",
          "streamingAssetDecimals()": "ab579f45",
          "streamingAssetOracle()": "e5945ad7",
          "streamingAssetOracleDecimals()": "c797af7e",
          "sweepCooldown()": "14e853b5",
          "sweepRemaining()": "95098763",
          "terminateStream(uint256)": "9049a1e3",
          "terminationTimestamp()": "0bbfc833"
        }
      }
    }
  }
}