{
  "contracts/Streamer.sol": {
    "Streamer": {
      "abi": [
        {
          "inputs": [
            {
              "internalType": "contract IERC20",
              "name": "_streamingAsset",
              "type": "address"
            },
            {
              "internalType": "contract AggregatorV3Interface",
              "name": "_streamingAssetOracle",
              "type": "address"
            },
            {
              "internalType": "contract AggregatorV3Interface",
              "name": "_nativeAssetOracle",
              "type": "address"
            },
            {
              "internalType": "address",
              "name": "_returnAddress",
              "type": "address"
            },
            {
              "internalType": "address",
              "name": "_streamCreator",
              "type": "address"
            },
            {
              "internalType": "address",
              "name": "_recipient",
              "type": "address"
            },
            {
              "internalType": "uint8",
              "name": "_streamingAssetDecimals",
              "type": "uint8"
            },
            {
              "internalType": "uint8",
              "name": "_nativeAssetDecimals",
              "type": "uint8"
            },
            {
              "internalType": "uint256",
              "name": "_nativeAssetStreamingAmount",
              "type": "uint256"
            },
            {
              "internalType": "uint256",
              "name": "_slippage",
              "type": "uint256"
            },
            {
              "internalType": "uint256",
              "name": "_claimCooldown",
              "type": "uint256"
            },
            {
              "internalType": "uint256",
              "name": "_sweepCooldown",
              "type": "uint256"
            },
            {
              "internalType": "uint256",
              "name": "_streamDuration",
              "type": "uint256"
            },
            {
              "internalType": "uint256",
              "name": "_minimumNoticePeriod",
              "type": "uint256"
            }
          ],
          "stateMutability": "nonpayable",
          "type": "constructor"
        },
        {
          "inputs": [],
          "name": "AlreadyInitialized",
          "type": "error"
        },
        {
          "inputs": [],
          "name": "AlreadyTerminated",
          "type": "error"
        },
        {
          "inputs": [],
          "name": "CantRescueStreamingAsset",
          "type": "error"
        },
        {
          "inputs": [],
          "name": "CreatorCannotSweepYet",
          "type": "error"
        },
        {
          "inputs": [],
          "name": "DecimalsNotInBounds",
          "type": "error"
        },
        {
          "inputs": [],
          "name": "DurationTooShort",
          "type": "error"
        },
        {
          "inputs": [],
          "name": "InvalidPrice",
          "type": "error"
        },
        {
          "inputs": [
            {
              "internalType": "uint256",
              "name": "balance",
              "type": "uint256"
            },
            {
              "internalType": "uint256",
              "name": "streamingAmount",
              "type": "uint256"
            }
          ],
          "name": "NotEnoughBalance",
          "type": "error"
        },
        {
          "inputs": [],
          "name": "NotInitialized",
          "type": "error"
        },
        {
          "inputs": [],
          "name": "NotReceiver",
          "type": "error"
        },
        {
          "inputs": [],
          "name": "NotStreamCreator",
          "type": "error"
        },
        {
          "inputs": [],
          "name": "NoticePeriodExceedsStreamDuration",
          "type": "error"
        },
        {
          "inputs": [
            {
              "internalType": "address",
              "name": "token",
              "type": "address"
            }
          ],
          "name": "SafeERC20FailedOperation",
          "type": "error"
        },
        {
          "inputs": [],
          "name": "SlippageExceedsScaleFactor",
          "type": "error"
        },
        {
          "inputs": [],
          "name": "StreamNotFinished",
          "type": "error"
        },
        {
          "inputs": [],
          "name": "StreamingAmountTooLow",
          "type": "error"
        },
        {
          "inputs": [],
          "name": "SweepCooldownNotPassed",
          "type": "error"
        },
        {
          "inputs": [
            {
              "internalType": "uint256",
              "name": "terminationTimestamp",
              "type": "uint256"
            }
          ],
          "name": "TerminationIsAfterStream",
          "type": "error"
        },
        {
          "inputs": [],
          "name": "ZeroAddress",
          "type": "error"
        },
        {
          "inputs": [],
          "name": "ZeroAmount",
          "type": "error"
        },
        {
          "anonymous": false,
          "inputs": [
            {
              "indexed": false,
              "internalType": "uint256",
              "name": "streamingAssetAmount",
              "type": "uint256"
            },
            {
              "indexed": false,
              "internalType": "uint256",
              "name": "nativeAssetAmount",
              "type": "uint256"
            }
          ],
          "name": "Claimed",
          "type": "event"
        },
        {
          "anonymous": false,
          "inputs": [],
          "name": "Initialized",
          "type": "event"
        },
        {
          "anonymous": false,
          "inputs": [
            {
              "indexed": false,
              "internalType": "uint256",
              "name": "balanceRequired",
              "type": "uint256"
            },
            {
              "indexed": false,
              "internalType": "uint256",
              "name": "balance",
              "type": "uint256"
            }
          ],
          "name": "InsufficientAssetBalance",
          "type": "event"
        },
        {
          "anonymous": false,
          "inputs": [
            {
              "indexed": false,
              "internalType": "address",
              "name": "token",
              "type": "address"
            },
            {
              "indexed": false,
              "internalType": "uint256",
              "name": "balance",
              "type": "uint256"
            }
          ],
          "name": "Rescued",
          "type": "event"
        },
        {
          "anonymous": false,
          "inputs": [
            {
              "indexed": false,
              "internalType": "uint256",
              "name": "amount",
              "type": "uint256"
            }
          ],
          "name": "Swept",
          "type": "event"
        },
        {
          "anonymous": false,
          "inputs": [
            {
              "indexed": false,
              "internalType": "uint256",
              "name": "terminationTimestamp",
              "type": "uint256"
            }
          ],
          "name": "Terminated",
          "type": "event"
        },
        {
          "inputs": [],
          "name": "MIN_DECIMALS",
          "outputs": [
            {
              "internalType": "uint8",
              "name": "",
              "type": "uint8"
            }
          ],
          "stateMutability": "view",
          "type": "function"
        },
        {
          "inputs": [],
          "name": "MIN_DURATION",
          "outputs": [
            {
              "internalType": "uint256",
              "name": "",
              "type": "uint256"
            }
          ],
          "stateMutability": "view",
          "type": "function"
        },
        {
          "inputs": [],
          "name": "SCALE_DECIMALS",
          "outputs": [
            {
              "internalType": "uint8",
              "name": "",
              "type": "uint8"
            }
          ],
          "stateMutability": "view",
          "type": "function"
        },
        {
          "inputs": [],
          "name": "SCALE_FACTOR",
          "outputs": [
            {
              "internalType": "uint256",
              "name": "",
              "type": "uint256"
            }
          ],
          "stateMutability": "view",
          "type": "function"
        },
        {
          "inputs": [],
          "name": "SLIPPAGE_SCALE",
          "outputs": [
            {
              "internalType": "uint256",
              "name": "",
              "type": "uint256"
            }
          ],
          "stateMutability": "view",
          "type": "function"
        },
        {
          "inputs": [
            {
              "internalType": "uint256",
              "name": "streamingAssetAmount",
              "type": "uint256"
            }
          ],
          "name": "calculateNativeAssetAmount",
          "outputs": [
            {
              "internalType": "uint256",
              "name": "",
              "type": "uint256"
            }
          ],
          "stateMutability": "view",
          "type": "function"
        },
        {
          "inputs": [
            {
              "internalType": "uint256",
              "name": "nativeAssetAmount",
              "type": "uint256"
            }
          ],
          "name": "calculateStreamingAssetAmount",
          "outputs": [
            {
              "internalType": "uint256",
              "name": "",
              "type": "uint256"
            }
          ],
          "stateMutability": "view",
          "type": "function"
        },
        {
          "inputs": [],
          "name": "claim",
          "outputs": [],
          "stateMutability": "nonpayable",
          "type": "function"
        },
        {
          "inputs": [],
          "name": "claimCooldown",
          "outputs": [
            {
              "internalType": "uint256",
              "name": "",
              "type": "uint256"
            }
          ],
          "stateMutability": "view",
          "type": "function"
        },
        {
          "inputs": [],
          "name": "getNativeAssetAmountOwed",
          "outputs": [
            {
              "internalType": "uint256",
              "name": "",
              "type": "uint256"
            }
          ],
          "stateMutability": "view",
          "type": "function"
        },
        {
          "inputs": [],
          "name": "getStreamEnd",
          "outputs": [
            {
              "internalType": "uint256",
              "name": "",
              "type": "uint256"
            }
          ],
          "stateMutability": "view",
          "type": "function"
        },
        {
          "inputs": [],
          "name": "getStreamState",
          "outputs": [
            {
              "internalType": "enum StreamState",
              "name": "",
              "type": "uint8"
            }
          ],
          "stateMutability": "view",
          "type": "function"
        },
        {
          "inputs": [],
          "name": "initialize",
          "outputs": [],
          "stateMutability": "nonpayable",
          "type": "function"
        },
        {
          "inputs": [],
          "name": "lastClaimTimestamp",
          "outputs": [
            {
              "internalType": "uint256",
              "name": "",
              "type": "uint256"
            }
          ],
          "stateMutability": "view",
          "type": "function"
        },
        {
          "inputs": [],
          "name": "minimumNoticePeriod",
          "outputs": [
            {
              "internalType": "uint256",
              "name": "",
              "type": "uint256"
            }
          ],
          "stateMutability": "view",
          "type": "function"
        },
        {
          "inputs": [],
          "name": "nativeAssetDecimals",
          "outputs": [
            {
              "internalType": "uint8",
              "name": "",
              "type": "uint8"
            }
          ],
          "stateMutability": "view",
          "type": "function"
        },
        {
          "inputs": [],
          "name": "nativeAssetOracle",
          "outputs": [
            {
              "internalType": "contract AggregatorV3Interface",
              "name": "",
              "type": "address"
            }
          ],
          "stateMutability": "view",
          "type": "function"
        },
        {
          "inputs": [],
          "name": "nativeAssetOracleDecimals",
          "outputs": [
            {
              "internalType": "uint8",
              "name": "",
              "type": "uint8"
            }
          ],
          "stateMutability": "view",
          "type": "function"
        },
        {
          "inputs": [],
          "name": "nativeAssetStreamingAmount",
          "outputs": [
            {
              "internalType": "uint256",
              "name": "",
              "type": "uint256"
            }
          ],
          "stateMutability": "view",
          "type": "function"
        },
        {
          "inputs": [],
          "name": "nativeAssetSuppliedAmount",
          "outputs": [
            {
              "internalType": "uint256",
              "name": "",
              "type": "uint256"
            }
          ],
          "stateMutability": "view",
          "type": "function"
        },
        {
          "inputs": [],
          "name": "recipient",
          "outputs": [
            {
              "internalType": "address",
              "name": "",
              "type": "address"
            }
          ],
          "stateMutability": "view",
          "type": "function"
        },
        {
          "inputs": [
            {
              "internalType": "contract IERC20",
              "name": "token",
              "type": "address"
            }
          ],
          "name": "rescueToken",
          "outputs": [],
          "stateMutability": "nonpayable",
          "type": "function"
        },
        {
          "inputs": [],
          "name": "returnAddress",
          "outputs": [
            {
              "internalType": "address",
              "name": "",
              "type": "address"
            }
          ],
          "stateMutability": "view",
          "type": "function"
        },
        {
          "inputs": [],
          "name": "slippage",
          "outputs": [
            {
              "internalType": "uint256",
              "name": "",
              "type": "uint256"
            }
          ],
          "stateMutability": "view",
          "type": "function"
        },
        {
          "inputs": [],
          "name": "startTimestamp",
          "outputs": [
            {
              "internalType": "uint256",
              "name": "",
              "type": "uint256"
            }
          ],
          "stateMutability": "view",
          "type": "function"
        },
        {
          "inputs": [],
          "name": "streamCreator",
          "outputs": [
            {
              "internalType": "address",
              "name": "",
              "type": "address"
            }
          ],
          "stateMutability": "view",
          "type": "function"
        },
        {
          "inputs": [],
          "name": "streamDuration",
          "outputs": [
            {
              "internalType": "uint256",
              "name": "",
              "type": "uint256"
            }
          ],
          "stateMutability": "view",
          "type": "function"
        },
        {
          "inputs": [],
          "name": "streamingAsset",
          "outputs": [
            {
              "internalType": "contract IERC20",
              "name": "",
              "type": "address"
            }
          ],
          "stateMutability": "view",
          "type": "function"
        },
        {
          "inputs": [],
          "name": "streamingAssetClaimedAmount",
          "outputs": [
            {
              "internalType": "uint256",
              "name": "",
              "type": "uint256"
            }
          ],
          "stateMutability": "view",
          "type": "function"
        },
        {
          "inputs": [],
          "name": "streamingAssetDecimals",
          "outputs": [
            {
              "internalType": "uint8",
              "name": "",
              "type": "uint8"
            }
          ],
          "stateMutability": "view",
          "type": "function"
        },
        {
          "inputs": [],
          "name": "streamingAssetOracle",
          "outputs": [
            {
              "internalType": "contract AggregatorV3Interface",
              "name": "",
              "type": "address"
            }
          ],
          "stateMutability": "view",
          "type": "function"
        },
        {
          "inputs": [],
          "name": "streamingAssetOracleDecimals",
          "outputs": [
            {
              "internalType": "uint8",
              "name": "",
              "type": "uint8"
            }
          ],
          "stateMutability": "view",
          "type": "function"
        },
        {
          "inputs": [],
          "name": "sweepCooldown",
          "outputs": [
            {
              "internalType": "uint256",
              "name": "",
              "type": "uint256"
            }
          ],
          "stateMutability": "view",
          "type": "function"
        },
        {
          "inputs": [],
          "name": "sweepRemaining",
          "outputs": [],
          "stateMutability": "nonpayable",
          "type": "function"
        },
        {
          "inputs": [
            {
              "internalType": "uint256",
              "name": "_terminationTimestamp",
              "type": "uint256"
            }
          ],
          "name": "terminateStream",
          "outputs": [],
          "stateMutability": "nonpayable",
          "type": "function"
        },
        {
          "inputs": [],
          "name": "terminationTimestamp",
          "outputs": [
            {
              "internalType": "uint256",
              "name": "",
              "type": "uint256"
            }
          ],
          "stateMutability": "view",
          "type": "function"
        }
      ],
      "evm": {
        "bytecode": {
          "linkReferences": {},
          "object": "610280604052346101ba5761002d610015610352565b9c9b909b9a919a9992999893989794979695966104f1565b604051611c43610888823960805181818161050701528181610b4901528181610d8d01528181611085015261136f015260a05181818161090b01528181611583015261180f015260c0518181816109a2015281816115f80152611883015260e05181818161070801528181610bed01526113db01526101005181818161096901528181610a7101528181610fe5015281816111a60152818161133a01526114320152610120518181816106550152610d1701526101405181818161044a015281816110ee01526119de01526101605181818161041101526116ce015261018051818181610a140152610f2601526101a0518181816102d1015261148401526101c05181818161060301528181610fb20152611a4501526101e0518181816104830152818161121201526112b50152610200518181816107aa0152818161177a015261193d0152610220518181816109db01528181611739015261196701526102405181818161089e0152818161167201526118fd01526102605181818161081001526117090152611c4390f35b5f80fd5b634e487b7160e01b5f52604160045260245ffd5b90601f01601f191681019081106001600160401b038211176101f357604052565b6101be565b9061020c61020560405190565b92836101d2565b565b6001600160a01b031690565b90565b6001600160a01b0381165b036101ba57565b9050519061020c8261021d565b6001600160a01b038116610228565b9050519061020c8261023c565b60ff8116610228565b9050519061020c82610258565b80610228565b9050519061020c8261026e565b91906101c0838203126101ba57610298818461022f565b926102a6826020830161022f565b926102b4836040840161022f565b926102c2816060850161024b565b926102d0826080830161024b565b926102de8360a0840161024b565b926102ec8160c08501610261565b926102fa8260e08301610261565b92610309836101008401610274565b92610318816101208501610274565b92610327826101408301610274565b9261021a610339846101608501610274565b936101a061034b826101808701610274565b9401610274565b6103706124cb80380380610365816101f8565b928339810190610281565b909192939495969798999a9b9c9d565b61020e61021a61021a9290565b61021a90610380565b61021a9061020e906001600160a01b031682565b61021a90610396565b61021a906103aa565b61021a61021a61021a9290565b61021a6305f5e1006103bc565b61021a620151806103bc565b906020828203126101ba5761021a91610261565b6040513d5f823e3d90fd5b61040e61021a61021a9290565b60ff1690565b61021a6006610401565b6001600160501b038116610228565b9050519061020c8261041e565b919060a0838203126101ba57610450818461042d565b9261045e8260208301610274565b9261021a61046f8460408501610274565b93608061047f8260608701610274565b940161042d565b634e487b7160e01b5f52601160045260245ffd5b818102929181159184041417156104ad57565b610486565b60ff16604d81116104ad57600a0a90565b634e487b7160e01b5f52601260045260245ffd5b906104e1565b9190565b9081156104ec570490565b6104c3565b6104fa5f61038d565b6001600160a01b0381166001600160a01b03881614610876576001600160a01b0381166001600160a01b03871614610876576001600160a01b0381166001600160a01b038616146108765761056e610561610554846103b3565b926001600160a01b031690565b916001600160a01b031690565b146108765761057c5f6103bc565b89146108655761058d61021a6103c9565b8a116108545761059b6103d6565b808c1061084357808d1061084357808e10610843578e10610843578c8e11610832576105c6826103b3565b63313ce5679060206105d760405190565b80926105e38560e01b90565b825260049082905afa908115610771575f91610813575b5061024052610608846103b3565b9061061c61061560405190565b9160e01b90565b8152602081600481855afa908115610771575f916107e4575b5061026052610642610414565b60ff811660ff8a16109081156107d3575b81156107b1575b8115610787575b506107765760a061067160405190565b633fabe5a360e21b815291829060049082905afa908115610771575f9161073f575b5061069d5f6103bc565b81131561072f576106b96106b36106d4926103bc565b8b61049a565b6106ce6106c96102605160ff1690565b6104b2565b906104d7565b6106e36104dd61021a8b6104b2565b1061071e5760805260a05260c05260e052610100526101205261020052610220526101405261016052610180526101a0526101c0526101e052565b63cde8c83560e01b5f908152600490fd5b62bfc92160e01b5f908152600490fd5b610761915060a03d60a01161076a575b61075981836101d2565b81019061043a565b50505090610693565b503d61074f565b6103f6565b6370c5eb6160e11b5f908152600490fd5b90506107aa6107a361079c6102605160ff1690565b9260ff1690565b9160ff1690565b105f610661565b90506107c06102405160ff1690565b6107cc60ff83166107a3565b109061065a565b905060ff811660ff8b161090610653565b610806915060203d60201161080c575b6107fe81836101d2565b8101906103e2565b5f610635565b503d6107f4565b61082c915060203d60201161080c576107fe81836101d2565b5f6105fa565b6325c6702760e11b5f908152600490fd5b6325c3636760e01b5f908152600490fd5b63c189a4d360e01b5f908152600490fd5b631f2a200560e01b5f908152600490fd5b63d92e233d60e01b5f908152600490fdfe60806040526004361015610011575f80fd5b5f3560e01c80630bbfc8331461025057806314e853b51461024b57806324938e9f146102465780632ae4e9311461024157806333d263f21461023c5780633e032a3b146102375780633e52531a14610232578063414a62791461022d57806341f1d3c1146102285780634460d3cf146102235780634aca04a81461021e5780634e71d92d14610219578063607af3971461021457806364cbe5f91461020f57806366d003ac1461020a5780636eb6a820146102055780638129fc1c146102005780639049a1e3146101fb578063943640c3146101f657806395098763146101f157806398018b8b146101ec5780639cfbce51146101e7578063aa5c9691146101e2578063ab579f45146101dd578063ad9161cc146101d8578063b001a482146101d3578063b6a6d177146101ce578063b7d03c8f146101c9578063c797af7e146101c4578063ce4b5bbe146101bf578063e5945ad7146101ba578063e6fd48bc146101b5578063ef4a57d1146101b0578063efb1ad5d146101ab578063f47083bc146101a65763fdea36570361025f576109ff565b6109c6565b61098d565b610954565b610939565b6108f6565b6108db565b610889565b61086e565b610848565b6107fb565b6107e0565b610795565b61077a565b61075f565b610744565b61072c565b6106f3565b6106db565b61069c565b610681565b610640565b6105ee565b6105d3565b6105b0565b610595565b61056d565b6104f2565b61046e565b610435565b6103fc565b6103cd565b610381565b610317565b6102bc565b61028d565b5f91031261025f57565b5f80fd5b61026e916008021c81565b90565b9061026e9154610263565b61026e5f6002610271565b9052565b565b3461025f5761029d366004610255565b6102b86102a861027c565b6040519182918290815260200190565b0390f35b3461025f576102cc366004610255565b6102b87f00000000000000000000000000000000000000000000000000000000000000006102a8565b61026e61026e61026e9290565b61026e6305f5e1006102f5565b61026e610302565b3461025f57610327366004610255565b6102b86102a861030f565b634e487b7160e01b5f52602160045260245ffd5b6004111561035057565b610332565b9061028b82610346565b61026e90610355565b6102879061035f565b60208101929161028b9190610368565b3461025f57610391366004610255565b6102b861039c610a4b565b60405191829182610371565b6103b561026e61026e9290565b60ff1690565b61026e60066103a8565b61026e6103bb565b3461025f576103dd366004610255565b6102b86103e86103c5565b6040519182918260ff909116815260200190565b3461025f5761040c366004610255565b6102b87f00000000000000000000000000000000000000000000000000000000000000006102a8565b3461025f57610445366004610255565b6102b87f00000000000000000000000000000000000000000000000000000000000000006102a8565b3461025f5761047e366004610255565b6102b87f00000000000000000000000000000000000000000000000000000000000000006102a8565b61026e906104bb906001600160a01b031682565b6001600160a01b031690565b61026e906104a7565b61026e906104c7565b610287906104d0565b60208101929161028b91906104d9565b3461025f57610502366004610255565b6102b87f00000000000000000000000000000000000000000000000000000000000000005b604051918291826104e2565b61026e906104bb565b61054581610533565b0361025f57565b9050359061028b8261053c565b9060208282031261025f5761026e9161054c565b3461025f57610585610580366004610559565b610c77565b604051005b61026e5f6004610271565b3461025f576105a5366004610255565b6102b86102a861058a565b3461025f576105c0366004610255565b610585610cf4565b61026e5f6001610271565b3461025f576105e3366004610255565b6102b86102a86105c8565b3461025f576105fe366004610255565b6102b87f00000000000000000000000000000000000000000000000000000000000000006102a8565b610287906104bb565b60208101929161028b9190610627565b3461025f57610650366004610255565b6102b87f00000000000000000000000000000000000000000000000000000000000000005b60405191829182610630565b3461025f57610691366004610255565b6102b86102a8610f63565b3461025f576106ac366004610255565b610585611199565b80610545565b9050359061028b826106b4565b9060208282031261025f5761026e916106ba565b3461025f576105856106ee3660046106c7565b611311565b3461025f57610703366004610255565b6102b87f0000000000000000000000000000000000000000000000000000000000000000610675565b3461025f5761073c366004610255565b61058561131a565b3461025f576102b86102a861075a3660046106c7565b61157e565b3461025f576102b86102a86107753660046106c7565b61180a565b3461025f5761078a366004610255565b6102b86102a86119d1565b3461025f576107a5366004610255565b6102b87f00000000000000000000000000000000000000000000000000000000000000006103e8565b61026e60126103a8565b61026e6107ce565b3461025f576107f0366004610255565b6102b86103e86107d8565b3461025f5761080b366004610255565b6102b87f00000000000000000000000000000000000000000000000000000000000000006103e8565b61026e620151806102f5565b61026e610834565b3461025f57610858366004610255565b6102b86102a8610840565b61026e5f6003610271565b3461025f5761087e366004610255565b6102b86102a8610863565b3461025f57610899366004610255565b6102b87f00000000000000000000000000000000000000000000000000000000000000006103e8565b61026e670de0b6b3a76400006102f5565b61026e6108c2565b3461025f576108eb366004610255565b6102b86102a86108d3565b3461025f57610906366004610255565b6102b87f0000000000000000000000000000000000000000000000000000000000000000610527565b61026e5f80610271565b3461025f57610949366004610255565b6102b86102a861092f565b3461025f57610964366004610255565b6102b87f0000000000000000000000000000000000000000000000000000000000000000610675565b3461025f5761099d366004610255565b6102b87f0000000000000000000000000000000000000000000000000000000000000000610527565b3461025f576109d6366004610255565b6102b87f00000000000000000000000000000000000000000000000000000000000000006103e8565b3461025f57610a0f366004610255565b6102b87f00000000000000000000000000000000000000000000000000000000000000006102a8565b61026e906103b5565b61026e9054610a38565b610a5661026e610f63565b421015610a675761026e6005610a41565b600390565b610a957f00000000000000000000000000000000000000000000000000000000000000006104bb565b610a9e336104bb565b03610aac5761028b90610b44565b639c867e2160e01b5f90815260045b035ffd5b634e487b7160e01b5f52604160045260245ffd5b90601f01601f1916810190811067ffffffffffffffff821117610af557604052565b610abf565b9050519061028b826106b4565b9060208282031261025f5761026e91610afa565b6040513d5f823e3d90fd5b91602061028b929493610b4060408201965f830190610627565b0152565b610b6d7f0000000000000000000000000000000000000000000000000000000000000000610533565b610b7682610533565b14610c665780610b88610bb0926104d0565b6020610b93306104d0565b6040519485918291906370a0823160e01b5b835260048301610630565b0381845afa918215610c61577f8aec0ce3dadffacf4b7a963e0fed1ff2e6151b4c95d4a65acafa9d1299630402935f93610c2c575b5082610c12917f000000000000000000000000000000000000000000000000000000000000000090611af2565b610c27610c1e60405190565b92839283610b26565b0390a1565b610c12919350610c539060203d602011610c5a575b610c4b8183610ad3565b810190610b07565b9290610be5565b503d610c41565b610b1b565b63bf27c04f60e01b5f908152600490fd5b61028b90610a6c565b61026e9081565b61026e9054610c80565b634e487b7160e01b5f52601160045260245ffd5b91908201809211610cb257565b610c91565b90815260408101929161028b9160200152565b905f19905b9181191691161790565b90610ce961026e610cf0926102f5565b8254610cca565b9055565b610cfe6005610a41565b610d10610d0a5f610355565b91610355565b14610f52577f0000000000000000000000000000000000000000000000000000000000000000610d3f816104bb565b610d48336104bb565b141580610f13575b610f0257610d5c6119d1565b80610d665f6102f5565b8114610ef157610d759061157e565b918290610d815f6102f5565b8414610ef157610ddf937f0000000000000000000000000000000000000000000000000000000000000000906020610db8836104d0565b610dc1306104d0565b90610dcb60405190565b988992839182916370a0823160e01b610ba5565b03915afa908115610c61577fc83b5086ce94ec8d5a88a9f5fea4b18a522bb238ed0d2d8abd959549a80c16b8965f92610ed0575b50808210610e7e575b5050610e69918391610e2f426001610cd9565b610e4c610e4587610e406003610c87565b610ca5565b6003610cd9565b610e64610e5d84610e406004610c87565b6004610cd9565b611af2565b610c27610e7560405190565b92839283610cb7565b81610e699492939650610ec695507f521d4ec08ea54943095f5f84755de8b51e1222628c06daa159d618c8c5fda56a91610eba610e7560405190565b0390a18193849261180a565b9491819350610e1c565b610eea91925060203d602011610c5a57610c4b8183610ad3565b905f610e13565b631f2a200560e01b5f908152600490fd5b635a06399f60e11b5f908152600490fd5b50610f4b61026e610f246001610c87565b7f000000000000000000000000000000000000000000000000000000000000000090610ca5565b4210610d50565b6321c4e35760e21b5f908152600490fd5b610f6d6005610a41565b610f79610d0a5f610355565b14610fd757610f886005610a41565b610f95610d0a6002610355565b03610fa45761026e6002610c87565b61026e610fb05f610c87565b7f000000000000000000000000000000000000000000000000000000000000000090610ca5565b61026e5f6102f5565b6110097f00000000000000000000000000000000000000000000000000000000000000006104bb565b611012336104bb565b03610aac5761028b61103f565b9060ff90610ccf565b9061103861026e610cf09261035f565b825461101f565b6110496005610a41565b611055610d0a5f610355565b0361118957611064425f610cd9565b61106f426001610cd9565b61107b60016005611028565b6110d060206110a97f00000000000000000000000000000000000000000000000000000000000000006104d0565b6110b2306104d0565b906110bc60405190565b938492839182916370a0823160e01b610ba5565b03915afa908115610c61575f9161116a575b506110ec8161180a565b7f00000000000000000000000000000000000000000000000000000000000000009190829061111a565b9190565b106111525750507f5daa87a0e9463431830481fd4b6e3403442dfb9a12b9c07597e9f61d50b633c861114b60405190565b8080610c27565b634787a10360e11b5f90815291610abb916004610cb7565b611183915060203d602011610c5a57610c4b8183610ad3565b5f6110e2565b62dc149f60e41b5f908152600490fd5b61028b610fe0565b6111ca7f00000000000000000000000000000000000000000000000000000000000000006104bb565b6111d3336104bb565b03610aac5761028b906111e66005610a41565b906002916111f6610d0a84610355565b14611300576112045f6102f5565b81036112ad5761123d6112377f000000000000000000000000000000000000000000000000000000000000000042610ca5565b83610cd9565b61124682610c87565b61125861111661026e610fb05f610c87565b116112965750610c276102a8826112917f9a9cad27a1bdce3d7cb0602aaf727dfaad03ba6524d9bca7b9615867fa6802b4946005611028565b610c87565b6351fe048360e11b5f908152600491909152602490fd5b6112da61026e7f000000000000000000000000000000000000000000000000000000000000000042610ca5565b81106112ef576112ea8183610cd9565b61123d565b6325c3636760e01b5f908152600490fd5b632aaa685560e11b5f908152600490fd5b61028b906111a1565b6113246005610a41565b611330610d0a5f610355565b036114255761135e7f00000000000000000000000000000000000000000000000000000000000000006104bb565b611367336104bb565b03610aac575b7f000000000000000000000000000000000000000000000000000000000000000061139c60206110a9836104d0565b03915afa8015610c61577f7f221332ee403570bf4d61630b58189ea566ff1635269001e9df6a890f413dd892610c27925f92611400575b50816102a8917f000000000000000000000000000000000000000000000000000000000000000090611af2565b6102a891925061141e9060203d602011610c5a57610c4b8183610ad3565b91906113d3565b61142d610f63565b6114567f00000000000000000000000000000000000000000000000000000000000000006104bb565b61145f336104bb565b0361147b57421161136d5763a33e709960e01b5f908152600490fd5b61026e6114a9917f000000000000000000000000000000000000000000000000000000000000000090610ca5565b421161136d5763042f54af60e01b5f908152600490fd5b69ffffffffffffffffffff8116610545565b9050519061028b826114c0565b919060a08382031261025f576114f581846114d2565b926115038260208301610afa565b9261026e6115148460408501610afa565b9360806115248260608701610afa565b94016114d2565b61026e61026e61026e9260ff1690565b91908203918211610cb257565b81810292918115918404141715610cb257565b634e487b7160e01b5f52601260045260245ffd5b8115611579570490565b61155b565b6115a77f00000000000000000000000000000000000000000000000000000000000000006104d0565b9063feaf968c9160a06115b960405190565b80926115c58660e01b90565b825260049082905afa908115610c61575f916117e8575b506115e65f6102f5565b8113156117a45760a06116289361161c7f00000000000000000000000000000000000000000000000000000000000000006104d0565b60405195869260e01b90565b825260049082905afa928315610c61575f936117b4575b506116495f6102f5565b8313156117a45761026e926116f96117626116bd9461175d61166d611774966102f5565b6117337f0000000000000000000000000000000000000000000000000000000000000000916117046116fe6116b26116ac6116a66107ce565b9661152b565b9561152b565b9b8c80968195611b48565b6116f96116c8610302565b916116f37f00000000000000000000000000000000000000000000000000000000000000008461153b565b90611548565b61156f565b986102f5565b61172d7f000000000000000000000000000000000000000000000000000000000000000061152b565b90611b48565b9261172d7f000000000000000000000000000000000000000000000000000000000000000061152b565b611548565b61175d61176d6108c2565b809261156f565b9061179e7f000000000000000000000000000000000000000000000000000000000000000061152b565b91611b48565b62bfc92160e01b5f908152600490fd5b6117d791935060a03d60a0116117e1575b6117cf8183610ad3565b8101906114df565b505050929061163f565b503d6117c5565b611801915060a03d60a0116117e1576117cf8183610ad3565b505050906115dc565b6118337f00000000000000000000000000000000000000000000000000000000000000006104d0565b63feaf968c9060a061184460405190565b80926118508560e01b90565b825260049082905afa908115610c61575f916119af575b506118715f6102f5565b8113156117a45760a06118b3926118a77f00000000000000000000000000000000000000000000000000000000000000006104d0565b60405194859260e01b90565b825260049082905afa918215610c61575f9261198b575b506118d45f6102f5565b8213156117a45761026e926116f96117626116bd9461175d6118f8611961966102f5565b6119377f0000000000000000000000000000000000000000000000000000000000000000916117046119316116b26116ac6116a66107ce565b956102f5565b9561172d7f000000000000000000000000000000000000000000000000000000000000000061152b565b9061179e7f000000000000000000000000000000000000000000000000000000000000000061152b565b6119a591925060a03d60a0116117e1576117cf8183610ad3565b50505091906118ca565b6119c8915060a03d60a0116117e1576117cf8183610ad3565b50505090611867565b5f6119dc6003610c87565b7f000000000000000000000000000000000000000000000000000000000000000090811115611ac157611a0d610f63565b611a165f6102f5565b8114611ab55761026e925080421015611a7a5750611a43611a6a916116f3611a3d5f610c87565b4261153b565b7f00000000000000000000000000000000000000000000000000000000000000009061156f565b611a746003610c87565b9061153b565b611a846005610a41565b611a91610d0a6002610355565b03611aaf57611aaa916116f3611a4392611a745f610c87565b611a6a565b50611a6a565b50505061026e5f6102f5565b505061026e5f6102f5565b611ae5611adf61026e9263ffffffff1690565b60e01b90565b6001600160e01b03191690565b611b35600492611b2661028b95611b0c63a9059cbb611acc565b92611b1660405190565b9687946020860190815201610b26565b60208201810382520383610ad3565b611b89565b604d8111610cb257600a0a90565b9091808314611b8357808311611b6d57611b6861026e936116f39261153b565b611b3a565b611b68611b7d9161026e9461153b565b9061156f565b50905090565b905f602091611b955f90565b50828151910182855af115610b1b573d5f5190611bb46111165f6102f5565b03611bf95750611bc3816104d0565b3b611bd06111165f6102f5565b145b611bd95750565b610abb611be65f926104d0565b635274afe760e01b835260048301610630565b611c0661111660016102f5565b1415611bd256fea26469706673582212204d99ef5a15a0c582ccfbd2a6fd3178895ffa0cec7009e20de708b222ce8eeda064736f6c634300081d0033",
          "opcodes": "PUSH2 0x280 PUSH1 0x40 MSTORE CALLVALUE PUSH2 0x1BA JUMPI PUSH2 0x2D PUSH2 0x15 PUSH2 0x352 JUMP JUMPDEST SWAP13 SWAP12 SWAP1 SWAP12 SWAP11 SWAP2 SWAP11 SWAP10 SWAP3 SWAP10 SWAP9 SWAP4 SWAP9 SWAP8 SWAP5 SWAP8 SWAP7 SWAP6 SWAP7 PUSH2 0x4F1 JUMP JUMPDEST PUSH1 0x40 MLOAD PUSH2 0x1C43 PUSH2 0x888 DUP3 CODECOPY PUSH1 0x80 MLOAD DUP2 DUP2 DUP2 PUSH2 0x507 ADD MSTORE DUP2 DUP2 PUSH2 0xB49 ADD MSTORE DUP2 DUP2 PUSH2 0xD8D ADD MSTORE DUP2 DUP2 PUSH2 0x1085 ADD MSTORE PUSH2 0x136F ADD MSTORE PUSH1 0xA0 MLOAD DUP2 DUP2 DUP2 PUSH2 0x90B ADD MSTORE DUP2 DUP2 PUSH2 0x1583 ADD MSTORE PUSH2 0x180F ADD MSTORE PUSH1 0xC0 MLOAD DUP2 DUP2 DUP2 PUSH2 0x9A2 ADD MSTORE DUP2 DUP2 PUSH2 0x15F8 ADD MSTORE PUSH2 0x1883 ADD MSTORE PUSH1 0xE0 MLOAD DUP2 DUP2 DUP2 PUSH2 0x708 ADD MSTORE DUP2 DUP2 PUSH2 0xBED ADD MSTORE PUSH2 0x13DB ADD MSTORE PUSH2 0x100 MLOAD DUP2 DUP2 DUP2 PUSH2 0x969 ADD MSTORE DUP2 DUP2 PUSH2 0xA71 ADD MSTORE DUP2 DUP2 PUSH2 0xFE5 ADD MSTORE DUP2 DUP2 PUSH2 0x11A6 ADD MSTORE DUP2 DUP2 PUSH2 0x133A ADD MSTORE PUSH2 0x1432 ADD MSTORE PUSH2 0x120 MLOAD DUP2 DUP2 DUP2 PUSH2 0x655 ADD MSTORE PUSH2 0xD17 ADD MSTORE PUSH2 0x140 MLOAD DUP2 DUP2 DUP2 PUSH2 0x44A ADD MSTORE DUP2 DUP2 PUSH2 0x10EE ADD MSTORE PUSH2 0x19DE ADD MSTORE PUSH2 0x160 MLOAD DUP2 DUP2 DUP2 PUSH2 0x411 ADD MSTORE PUSH2 0x16CE ADD MSTORE PUSH2 0x180 MLOAD DUP2 DUP2 DUP2 PUSH2 0xA14 ADD MSTORE PUSH2 0xF26 ADD MSTORE PUSH2 0x1A0 MLOAD DUP2 DUP2 DUP2 PUSH2 0x2D1 ADD MSTORE PUSH2 0x1484 ADD MSTORE PUSH2 0x1C0 MLOAD DUP2 DUP2 DUP2 PUSH2 0x603 ADD MSTORE DUP2 DUP2 PUSH2 0xFB2 ADD MSTORE PUSH2 0x1A45 ADD MSTORE PUSH2 0x1E0 MLOAD DUP2 DUP2 DUP2 PUSH2 0x483 ADD MSTORE DUP2 DUP2 PUSH2 0x1212 ADD MSTORE PUSH2 0x12B5 ADD MSTORE PUSH2 0x200 MLOAD DUP2 DUP2 DUP2 PUSH2 0x7AA ADD MSTORE DUP2 DUP2 PUSH2 0x177A ADD MSTORE PUSH2 0x193D ADD MSTORE PUSH2 0x220 MLOAD DUP2 DUP2 DUP2 PUSH2 0x9DB ADD MSTORE DUP2 DUP2 PUSH2 0x1739 ADD MSTORE PUSH2 0x1967 ADD MSTORE PUSH2 0x240 MLOAD DUP2 DUP2 DUP2 PUSH2 0x89E ADD MSTORE DUP2 DUP2 PUSH2 0x1672 ADD MSTORE PUSH2 0x18FD ADD MSTORE PUSH2 0x260 MLOAD DUP2 DUP2 DUP2 PUSH2 0x810 ADD MSTORE PUSH2 0x1709 ADD MSTORE PUSH2 0x1C43 SWAP1 RETURN JUMPDEST PUSH0 DUP1 REVERT JUMPDEST PUSH4 0x4E487B71 PUSH1 0xE0 SHL PUSH0 MSTORE PUSH1 0x41 PUSH1 0x4 MSTORE PUSH1 0x24 PUSH0 REVERT JUMPDEST SWAP1 PUSH1 0x1F ADD PUSH1 0x1F NOT AND DUP2 ADD SWAP1 DUP2 LT PUSH1 0x1 PUSH1 0x1 PUSH1 0x40 SHL SUB DUP3 GT OR PUSH2 0x1F3 JUMPI PUSH1 0x40 MSTORE JUMP JUMPDEST PUSH2 0x1BE JUMP JUMPDEST SWAP1 PUSH2 0x20C PUSH2 0x205 PUSH1 0x40 MLOAD SWAP1 JUMP JUMPDEST SWAP3 DUP4 PUSH2 0x1D2 JUMP JUMPDEST JUMP JUMPDEST PUSH1 0x1 PUSH1 0x1 PUSH1 0xA0 SHL SUB AND SWAP1 JUMP JUMPDEST SWAP1 JUMP JUMPDEST PUSH1 0x1 PUSH1 0x1 PUSH1 0xA0 SHL SUB DUP2 AND JUMPDEST SUB PUSH2 0x1BA JUMPI JUMP JUMPDEST SWAP1 POP MLOAD SWAP1 PUSH2 0x20C DUP3 PUSH2 0x21D JUMP JUMPDEST PUSH1 0x1 PUSH1 0x1 PUSH1 0xA0 SHL SUB DUP2 AND PUSH2 0x228 JUMP JUMPDEST SWAP1 POP MLOAD SWAP1 PUSH2 0x20C DUP3 PUSH2 0x23C JUMP JUMPDEST PUSH1 0xFF DUP2 AND PUSH2 0x228 JUMP JUMPDEST SWAP1 POP MLOAD SWAP1 PUSH2 0x20C DUP3 PUSH2 0x258 JUMP JUMPDEST DUP1 PUSH2 0x228 JUMP JUMPDEST SWAP1 POP MLOAD SWAP1 PUSH2 0x20C DUP3 PUSH2 0x26E JUMP JUMPDEST SWAP2 SWAP1 PUSH2 0x1C0 DUP4 DUP3 SUB SLT PUSH2 0x1BA JUMPI PUSH2 0x298 DUP2 DUP5 PUSH2 0x22F JUMP JUMPDEST SWAP3 PUSH2 0x2A6 DUP3 PUSH1 0x20 DUP4 ADD PUSH2 0x22F JUMP JUMPDEST SWAP3 PUSH2 0x2B4 DUP4 PUSH1 0x40 DUP5 ADD PUSH2 0x22F JUMP JUMPDEST SWAP3 PUSH2 0x2C2 DUP2 PUSH1 0x60 DUP6 ADD PUSH2 0x24B JUMP JUMPDEST SWAP3 PUSH2 0x2D0 DUP3 PUSH1 0x80 DUP4 ADD PUSH2 0x24B JUMP JUMPDEST SWAP3 PUSH2 0x2DE DUP4 PUSH1 0xA0 DUP5 ADD PUSH2 0x24B JUMP JUMPDEST SWAP3 PUSH2 0x2EC DUP2 PUSH1 0xC0 DUP6 ADD PUSH2 0x261 JUMP JUMPDEST SWAP3 PUSH2 0x2FA DUP3 PUSH1 0xE0 DUP4 ADD PUSH2 0x261 JUMP JUMPDEST SWAP3 PUSH2 0x309 DUP4 PUSH2 0x100 DUP5 ADD PUSH2 0x274 JUMP JUMPDEST SWAP3 PUSH2 0x318 DUP2 PUSH2 0x120 DUP6 ADD PUSH2 0x274 JUMP JUMPDEST SWAP3 PUSH2 0x327 DUP3 PUSH2 0x140 DUP4 ADD PUSH2 0x274 JUMP JUMPDEST SWAP3 PUSH2 0x21A PUSH2 0x339 DUP5 PUSH2 0x160 DUP6 ADD PUSH2 0x274 JUMP JUMPDEST SWAP4 PUSH2 0x1A0 PUSH2 0x34B DUP3 PUSH2 0x180 DUP8 ADD PUSH2 0x274 JUMP JUMPDEST SWAP5 ADD PUSH2 0x274 JUMP JUMPDEST PUSH2 0x370 PUSH2 0x24CB DUP1 CODESIZE SUB DUP1 PUSH2 0x365 DUP2 PUSH2 0x1F8 JUMP JUMPDEST SWAP3 DUP4 CODECOPY DUP2 ADD SWAP1 PUSH2 0x281 JUMP JUMPDEST SWAP1 SWAP2 SWAP3 SWAP4 SWAP5 SWAP6 SWAP7 SWAP8 SWAP9 SWAP10 SWAP11 SWAP12 SWAP13 SWAP14 JUMP JUMPDEST PUSH2 0x20E PUSH2 0x21A PUSH2 0x21A SWAP3 SWAP1 JUMP JUMPDEST PUSH2 0x21A SWAP1 PUSH2 0x380 JUMP JUMPDEST PUSH2 0x21A SWAP1 PUSH2 0x20E SWAP1 PUSH1 0x1 PUSH1 0x1 PUSH1 0xA0 SHL SUB AND DUP3 JUMP JUMPDEST PUSH2 0x21A SWAP1 PUSH2 0x396 JUMP JUMPDEST PUSH2 0x21A SWAP1 PUSH2 0x3AA JUMP JUMPDEST PUSH2 0x21A PUSH2 0x21A PUSH2 0x21A SWAP3 SWAP1 JUMP JUMPDEST PUSH2 0x21A PUSH4 0x5F5E100 PUSH2 0x3BC JUMP JUMPDEST PUSH2 0x21A PUSH3 0x15180 PUSH2 0x3BC JUMP JUMPDEST SWAP1 PUSH1 0x20 DUP3 DUP3 SUB SLT PUSH2 0x1BA JUMPI PUSH2 0x21A SWAP2 PUSH2 0x261 JUMP JUMPDEST PUSH1 0x40 MLOAD RETURNDATASIZE PUSH0 DUP3 RETURNDATACOPY RETURNDATASIZE SWAP1 REVERT JUMPDEST PUSH2 0x40E PUSH2 0x21A PUSH2 0x21A SWAP3 SWAP1 JUMP JUMPDEST PUSH1 0xFF AND SWAP1 JUMP JUMPDEST PUSH2 0x21A PUSH1 0x6 PUSH2 0x401 JUMP JUMPDEST PUSH1 0x1 PUSH1 0x1 PUSH1 0x50 SHL SUB DUP2 AND PUSH2 0x228 JUMP JUMPDEST SWAP1 POP MLOAD SWAP1 PUSH2 0x20C DUP3 PUSH2 0x41E JUMP JUMPDEST SWAP2 SWAP1 PUSH1 0xA0 DUP4 DUP3 SUB SLT PUSH2 0x1BA JUMPI PUSH2 0x450 DUP2 DUP5 PUSH2 0x42D JUMP JUMPDEST SWAP3 PUSH2 0x45E DUP3 PUSH1 0x20 DUP4 ADD PUSH2 0x274 JUMP JUMPDEST SWAP3 PUSH2 0x21A PUSH2 0x46F DUP5 PUSH1 0x40 DUP6 ADD PUSH2 0x274 JUMP JUMPDEST SWAP4 PUSH1 0x80 PUSH2 0x47F DUP3 PUSH1 0x60 DUP8 ADD PUSH2 0x274 JUMP JUMPDEST SWAP5 ADD PUSH2 0x42D JUMP JUMPDEST PUSH4 0x4E487B71 PUSH1 0xE0 SHL PUSH0 MSTORE PUSH1 0x11 PUSH1 0x4 MSTORE PUSH1 0x24 PUSH0 REVERT JUMPDEST DUP2 DUP2 MUL SWAP3 SWAP2 DUP2 ISZERO SWAP2 DUP5 DIV EQ OR ISZERO PUSH2 0x4AD JUMPI JUMP JUMPDEST PUSH2 0x486 JUMP JUMPDEST PUSH1 0xFF AND PUSH1 0x4D DUP2 GT PUSH2 0x4AD JUMPI PUSH1 0xA EXP SWAP1 JUMP JUMPDEST PUSH4 0x4E487B71 PUSH1 0xE0 SHL PUSH0 MSTORE PUSH1 0x12 PUSH1 0x4 MSTORE PUSH1 0x24 PUSH0 REVERT JUMPDEST SWAP1 PUSH2 0x4E1 JUMP JUMPDEST SWAP2 SWAP1 JUMP JUMPDEST SWAP1 DUP2 ISZERO PUSH2 0x4EC JUMPI DIV SWAP1 JUMP JUMPDEST PUSH2 0x4C3 JUMP JUMPDEST PUSH2 0x4FA PUSH0 PUSH2 0x38D JUMP JUMPDEST PUSH1 0x1 PUSH1 0x1 PUSH1 0xA0 SHL SUB DUP2 AND PUSH1 0x1 PUSH1 0x1 PUSH1 0xA0 SHL SUB DUP9 AND EQ PUSH2 0x876 JUMPI PUSH1 0x1 PUSH1 0x1 PUSH1 0xA0 SHL SUB DUP2 AND PUSH1 0x1 PUSH1 0x1 PUSH1 0xA0 SHL SUB DUP8 AND EQ PUSH2 0x876 JUMPI PUSH1 0x1 PUSH1 0x1 PUSH1 0xA0 SHL SUB DUP2 AND PUSH1 0x1 PUSH1 0x1 PUSH1 0xA0 SHL SUB DUP7 AND EQ PUSH2 0x876 JUMPI PUSH2 0x56E PUSH2 0x561 PUSH2 0x554 DUP5 PUSH2 0x3B3 JUMP JUMPDEST SWAP3 PUSH1 0x1 PUSH1 0x1 PUSH1 0xA0 SHL SUB AND SWAP1 JUMP JUMPDEST SWAP2 PUSH1 0x1 PUSH1 0x1 PUSH1 0xA0 SHL SUB AND SWAP1 JUMP JUMPDEST EQ PUSH2 0x876 JUMPI PUSH2 0x57C PUSH0 PUSH2 0x3BC JUMP JUMPDEST DUP10 EQ PUSH2 0x865 JUMPI PUSH2 0x58D PUSH2 0x21A PUSH2 0x3C9 JUMP JUMPDEST DUP11 GT PUSH2 0x854 JUMPI PUSH2 0x59B PUSH2 0x3D6 JUMP JUMPDEST DUP1 DUP13 LT PUSH2 0x843 JUMPI DUP1 DUP14 LT PUSH2 0x843 JUMPI DUP1 DUP15 LT PUSH2 0x843 JUMPI DUP15 LT PUSH2 0x843 JUMPI DUP13 DUP15 GT PUSH2 0x832 JUMPI PUSH2 0x5C6 DUP3 PUSH2 0x3B3 JUMP JUMPDEST PUSH4 0x313CE567 SWAP1 PUSH1 0x20 PUSH2 0x5D7 PUSH1 0x40 MLOAD SWAP1 JUMP JUMPDEST DUP1 SWAP3 PUSH2 0x5E3 DUP6 PUSH1 0xE0 SHL SWAP1 JUMP JUMPDEST DUP3 MSTORE PUSH1 0x4 SWAP1 DUP3 SWAP1 GAS STATICCALL SWAP1 DUP2 ISZERO PUSH2 0x771 JUMPI PUSH0 SWAP2 PUSH2 0x813 JUMPI JUMPDEST POP PUSH2 0x240 MSTORE PUSH2 0x608 DUP5 PUSH2 0x3B3 JUMP JUMPDEST SWAP1 PUSH2 0x61C PUSH2 0x615 PUSH1 0x40 MLOAD SWAP1 JUMP JUMPDEST SWAP2 PUSH1 0xE0 SHL SWAP1 JUMP JUMPDEST DUP2 MSTORE PUSH1 0x20 DUP2 PUSH1 0x4 DUP2 DUP6 GAS STATICCALL SWAP1 DUP2 ISZERO PUSH2 0x771 JUMPI PUSH0 SWAP2 PUSH2 0x7E4 JUMPI JUMPDEST POP PUSH2 0x260 MSTORE PUSH2 0x642 PUSH2 0x414 JUMP JUMPDEST PUSH1 0xFF DUP2 AND PUSH1 0xFF DUP11 AND LT SWAP1 DUP2 ISZERO PUSH2 0x7D3 JUMPI JUMPDEST DUP2 ISZERO PUSH2 0x7B1 JUMPI JUMPDEST DUP2 ISZERO PUSH2 0x787 JUMPI JUMPDEST POP PUSH2 0x776 JUMPI PUSH1 0xA0 PUSH2 0x671 PUSH1 0x40 MLOAD SWAP1 JUMP JUMPDEST PUSH4 0x3FABE5A3 PUSH1 0xE2 SHL DUP2 MSTORE SWAP2 DUP3 SWAP1 PUSH1 0x4 SWAP1 DUP3 SWAP1 GAS STATICCALL SWAP1 DUP2 ISZERO PUSH2 0x771 JUMPI PUSH0 SWAP2 PUSH2 0x73F JUMPI JUMPDEST POP PUSH2 0x69D PUSH0 PUSH2 0x3BC JUMP JUMPDEST DUP2 SGT ISZERO PUSH2 0x72F JUMPI PUSH2 0x6B9 PUSH2 0x6B3 PUSH2 0x6D4 SWAP3 PUSH2 0x3BC JUMP JUMPDEST DUP12 PUSH2 0x49A JUMP JUMPDEST PUSH2 0x6CE PUSH2 0x6C9 PUSH2 0x260 MLOAD PUSH1 0xFF AND SWAP1 JUMP JUMPDEST PUSH2 0x4B2 JUMP JUMPDEST SWAP1 PUSH2 0x4D7 JUMP JUMPDEST PUSH2 0x6E3 PUSH2 0x4DD PUSH2 0x21A DUP12 PUSH2 0x4B2 JUMP JUMPDEST LT PUSH2 0x71E JUMPI PUSH1 0x80 MSTORE PUSH1 0xA0 MSTORE PUSH1 0xC0 MSTORE PUSH1 0xE0 MSTORE PUSH2 0x100 MSTORE PUSH2 0x120 MSTORE PUSH2 0x200 MSTORE PUSH2 0x220 MSTORE PUSH2 0x140 MSTORE PUSH2 0x160 MSTORE PUSH2 0x180 MSTORE PUSH2 0x1A0 MSTORE PUSH2 0x1C0 MSTORE PUSH2 0x1E0 MSTORE JUMP JUMPDEST PUSH4 0xCDE8C835 PUSH1 0xE0 SHL PUSH0 SWAP1 DUP2 MSTORE PUSH1 0x4 SWAP1 REVERT JUMPDEST PUSH3 0xBFC921 PUSH1 0xE0 SHL PUSH0 SWAP1 DUP2 MSTORE PUSH1 0x4 SWAP1 REVERT JUMPDEST PUSH2 0x761 SWAP2 POP PUSH1 0xA0 RETURNDATASIZE PUSH1 0xA0 GT PUSH2 0x76A JUMPI JUMPDEST PUSH2 0x759 DUP2 DUP4 PUSH2 0x1D2 JUMP JUMPDEST DUP2 ADD SWAP1 PUSH2 0x43A JUMP JUMPDEST POP POP POP SWAP1 PUSH2 0x693 JUMP JUMPDEST POP RETURNDATASIZE PUSH2 0x74F JUMP JUMPDEST PUSH2 0x3F6 JUMP JUMPDEST PUSH4 0x70C5EB61 PUSH1 0xE1 SHL PUSH0 SWAP1 DUP2 MSTORE PUSH1 0x4 SWAP1 REVERT JUMPDEST SWAP1 POP PUSH2 0x7AA PUSH2 0x7A3 PUSH2 0x79C PUSH2 0x260 MLOAD PUSH1 0xFF AND SWAP1 JUMP JUMPDEST SWAP3 PUSH1 0xFF AND SWAP1 JUMP JUMPDEST SWAP2 PUSH1 0xFF AND SWAP1 JUMP JUMPDEST LT PUSH0 PUSH2 0x661 JUMP JUMPDEST SWAP1 POP PUSH2 0x7C0 PUSH2 0x240 MLOAD PUSH1 0xFF AND SWAP1 JUMP JUMPDEST PUSH2 0x7CC PUSH1 0xFF DUP4 AND PUSH2 0x7A3 JUMP JUMPDEST LT SWAP1 PUSH2 0x65A JUMP JUMPDEST SWAP1 POP PUSH1 0xFF DUP2 AND PUSH1 0xFF DUP12 AND LT SWAP1 PUSH2 0x653 JUMP JUMPDEST PUSH2 0x806 SWAP2 POP PUSH1 0x20 RETURNDATASIZE PUSH1 0x20 GT PUSH2 0x80C JUMPI JUMPDEST PUSH2 0x7FE DUP2 DUP4 PUSH2 0x1D2 JUMP JUMPDEST DUP2 ADD SWAP1 PUSH2 0x3E2 JUMP JUMPDEST PUSH0 PUSH2 0x635 JUMP JUMPDEST POP RETURNDATASIZE PUSH2 0x7F4 JUMP JUMPDEST PUSH2 0x82C SWAP2 POP PUSH1 0x20 RETURNDATASIZE PUSH1 0x20 GT PUSH2 0x80C JUMPI PUSH2 0x7FE DUP2 DUP4 PUSH2 0x1D2 JUMP JUMPDEST PUSH0 PUSH2 0x5FA JUMP JUMPDEST PUSH4 0x25C67027 PUSH1 0xE1 SHL PUSH0 SWAP1 DUP2 MSTORE PUSH1 0x4 SWAP1 REVERT JUMPDEST PUSH4 0x25C36367 PUSH1 0xE0 SHL PUSH0 SWAP1 DUP2 MSTORE PUSH1 0x4 SWAP1 REVERT JUMPDEST PUSH4 0xC189A4D3 PUSH1 0xE0 SHL PUSH0 SWAP1 DUP2 MSTORE PUSH1 0x4 SWAP1 REVERT JUMPDEST PUSH4 0x1F2A2005 PUSH1 0xE0 SHL PUSH0 SWAP1 DUP2 MSTORE PUSH1 0x4 SWAP1 REVERT JUMPDEST PUSH4 0xD92E233D PUSH1 0xE0 SHL PUSH0 SWAP1 DUP2 MSTORE PUSH1 0x4 SWAP1 REVERT INVALID PUSH1 0x80 PUSH1 0x40 MSTORE PUSH1 0x4 CALLDATASIZE LT ISZERO PUSH2 0x11 JUMPI PUSH0 DUP1 REVERT JUMPDEST PUSH0 CALLDATALOAD PUSH1 0xE0 SHR DUP1 PUSH4 0xBBFC833 EQ PUSH2 0x250 JUMPI DUP1 PUSH4 0x14E853B5 EQ PUSH2 0x24B JUMPI DUP1 PUSH4 0x24938E9F EQ PUSH2 0x246 JUMPI DUP1 PUSH4 0x2AE4E931 EQ PUSH2 0x241 JUMPI DUP1 PUSH4 0x33D263F2 EQ PUSH2 0x23C JUMPI DUP1 PUSH4 0x3E032A3B EQ PUSH2 0x237 JUMPI DUP1 PUSH4 0x3E52531A EQ PUSH2 0x232 JUMPI DUP1 PUSH4 0x414A6279 EQ PUSH2 0x22D JUMPI DUP1 PUSH4 0x41F1D3C1 EQ PUSH2 0x228 JUMPI DUP1 PUSH4 0x4460D3CF EQ PUSH2 0x223 JUMPI DUP1 PUSH4 0x4ACA04A8 EQ PUSH2 0x21E JUMPI DUP1 PUSH4 0x4E71D92D EQ PUSH2 0x219 JUMPI DUP1 PUSH4 0x607AF397 EQ PUSH2 0x214 JUMPI DUP1 PUSH4 0x64CBE5F9 EQ PUSH2 0x20F JUMPI DUP1 PUSH4 0x66D003AC EQ PUSH2 0x20A JUMPI DUP1 PUSH4 0x6EB6A820 EQ PUSH2 0x205 JUMPI DUP1 PUSH4 0x8129FC1C EQ PUSH2 0x200 JUMPI DUP1 PUSH4 0x9049A1E3 EQ PUSH2 0x1FB JUMPI DUP1 PUSH4 0x943640C3 EQ PUSH2 0x1F6 JUMPI DUP1 PUSH4 0x95098763 EQ PUSH2 0x1F1 JUMPI DUP1 PUSH4 0x98018B8B EQ PUSH2 0x1EC JUMPI DUP1 PUSH4 0x9CFBCE51 EQ PUSH2 0x1E7 JUMPI DUP1 PUSH4 0xAA5C9691 EQ PUSH2 0x1E2 JUMPI DUP1 PUSH4 0xAB579F45 EQ PUSH2 0x1DD JUMPI DUP1 PUSH4 0xAD9161CC EQ PUSH2 0x1D8 JUMPI DUP1 PUSH4 0xB001A482 EQ PUSH2 0x1D3 JUMPI DUP1 PUSH4 0xB6A6D177 EQ PUSH2 0x1CE JUMPI DUP1 PUSH4 0xB7D03C8F EQ PUSH2 0x1C9 JUMPI DUP1 PUSH4 0xC797AF7E EQ PUSH2 0x1C4 JUMPI DUP1 PUSH4 0xCE4B5BBE EQ PUSH2 0x1BF JUMPI DUP1 PUSH4 0xE5945AD7 EQ PUSH2 0x1BA JUMPI DUP1 PUSH4 0xE6FD48BC EQ PUSH2 0x1B5 JUMPI DUP1 PUSH4 0xEF4A57D1 EQ PUSH2 0x1B0 JUMPI DUP1 PUSH4 0xEFB1AD5D EQ PUSH2 0x1AB JUMPI DUP1 PUSH4 0xF47083BC EQ PUSH2 0x1A6 JUMPI PUSH4 0xFDEA3657 SUB PUSH2 0x25F JUMPI PUSH2 0x9FF JUMP JUMPDEST PUSH2 0x9C6 JUMP JUMPDEST PUSH2 0x98D JUMP JUMPDEST PUSH2 0x954 JUMP JUMPDEST PUSH2 0x939 JUMP JUMPDEST PUSH2 0x8F6 JUMP JUMPDEST PUSH2 0x8DB JUMP JUMPDEST PUSH2 0x889 JUMP JUMPDEST PUSH2 0x86E JUMP JUMPDEST PUSH2 0x848 JUMP JUMPDEST PUSH2 0x7FB JUMP JUMPDEST PUSH2 0x7E0 JUMP JUMPDEST PUSH2 0x795 JUMP JUMPDEST PUSH2 0x77A JUMP JUMPDEST PUSH2 0x75F JUMP JUMPDEST PUSH2 0x744 JUMP JUMPDEST PUSH2 0x72C JUMP JUMPDEST PUSH2 0x6F3 JUMP JUMPDEST PUSH2 0x6DB JUMP JUMPDEST PUSH2 0x69C JUMP JUMPDEST PUSH2 0x681 JUMP JUMPDEST PUSH2 0x640 JUMP JUMPDEST PUSH2 0x5EE JUMP JUMPDEST PUSH2 0x5D3 JUMP JUMPDEST PUSH2 0x5B0 JUMP JUMPDEST PUSH2 0x595 JUMP JUMPDEST PUSH2 0x56D JUMP JUMPDEST PUSH2 0x4F2 JUMP JUMPDEST PUSH2 0x46E JUMP JUMPDEST PUSH2 0x435 JUMP JUMPDEST PUSH2 0x3FC JUMP JUMPDEST PUSH2 0x3CD JUMP JUMPDEST PUSH2 0x381 JUMP JUMPDEST PUSH2 0x317 JUMP JUMPDEST PUSH2 0x2BC JUMP JUMPDEST PUSH2 0x28D JUMP JUMPDEST PUSH0 SWAP2 SUB SLT PUSH2 0x25F JUMPI JUMP JUMPDEST PUSH0 DUP1 REVERT JUMPDEST PUSH2 0x26E SWAP2 PUSH1 0x8 MUL SHR DUP2 JUMP JUMPDEST SWAP1 JUMP JUMPDEST SWAP1 PUSH2 0x26E SWAP2 SLOAD PUSH2 0x263 JUMP JUMPDEST PUSH2 0x26E PUSH0 PUSH1 0x2 PUSH2 0x271 JUMP JUMPDEST SWAP1 MSTORE JUMP JUMPDEST JUMP JUMPDEST CALLVALUE PUSH2 0x25F JUMPI PUSH2 0x29D CALLDATASIZE PUSH1 0x4 PUSH2 0x255 JUMP JUMPDEST PUSH2 0x2B8 PUSH2 0x2A8 PUSH2 0x27C JUMP JUMPDEST PUSH1 0x40 MLOAD SWAP2 DUP3 SWAP2 DUP3 SWAP1 DUP2 MSTORE PUSH1 0x20 ADD SWAP1 JUMP JUMPDEST SUB SWAP1 RETURN JUMPDEST CALLVALUE PUSH2 0x25F JUMPI PUSH2 0x2CC CALLDATASIZE PUSH1 0x4 PUSH2 0x255 JUMP JUMPDEST PUSH2 0x2B8 PUSH32 0x0 PUSH2 0x2A8 JUMP JUMPDEST PUSH2 0x26E PUSH2 0x26E PUSH2 0x26E SWAP3 SWAP1 JUMP JUMPDEST PUSH2 0x26E PUSH4 0x5F5E100 PUSH2 0x2F5 JUMP JUMPDEST PUSH2 0x26E PUSH2 0x302 JUMP JUMPDEST CALLVALUE PUSH2 0x25F JUMPI PUSH2 0x327 CALLDATASIZE PUSH1 0x4 PUSH2 0x255 JUMP JUMPDEST PUSH2 0x2B8 PUSH2 0x2A8 PUSH2 0x30F JUMP JUMPDEST PUSH4 0x4E487B71 PUSH1 0xE0 SHL PUSH0 MSTORE PUSH1 0x21 PUSH1 0x4 MSTORE PUSH1 0x24 PUSH0 REVERT JUMPDEST PUSH1 0x4 GT ISZERO PUSH2 0x350 JUMPI JUMP JUMPDEST PUSH2 0x332 JUMP JUMPDEST SWAP1 PUSH2 0x28B DUP3 PUSH2 0x346 JUMP JUMPDEST PUSH2 0x26E SWAP1 PUSH2 0x355 JUMP JUMPDEST PUSH2 0x287 SWAP1 PUSH2 0x35F JUMP JUMPDEST PUSH1 0x20 DUP2 ADD SWAP3 SWAP2 PUSH2 0x28B SWAP2 SWAP1 PUSH2 0x368 JUMP JUMPDEST CALLVALUE PUSH2 0x25F JUMPI PUSH2 0x391 CALLDATASIZE PUSH1 0x4 PUSH2 0x255 JUMP JUMPDEST PUSH2 0x2B8 PUSH2 0x39C PUSH2 0xA4B JUMP JUMPDEST PUSH1 0x40 MLOAD SWAP2 DUP3 SWAP2 DUP3 PUSH2 0x371 JUMP JUMPDEST PUSH2 0x3B5 PUSH2 0x26E PUSH2 0x26E SWAP3 SWAP1 JUMP JUMPDEST PUSH1 0xFF AND SWAP1 JUMP JUMPDEST PUSH2 0x26E PUSH1 0x6 PUSH2 0x3A8 JUMP JUMPDEST PUSH2 0x26E PUSH2 0x3BB JUMP JUMPDEST CALLVALUE PUSH2 0x25F JUMPI PUSH2 0x3DD CALLDATASIZE PUSH1 0x4 PUSH2 0x255 JUMP JUMPDEST PUSH2 0x2B8 PUSH2 0x3E8 PUSH2 0x3C5 JUMP JUMPDEST PUSH1 0x40 MLOAD SWAP2 DUP3 SWAP2 DUP3 PUSH1 0xFF SWAP1 SWAP2 AND DUP2 MSTORE PUSH1 0x20 ADD SWAP1 JUMP JUMPDEST CALLVALUE PUSH2 0x25F JUMPI PUSH2 0x40C CALLDATASIZE PUSH1 0x4 PUSH2 0x255 JUMP JUMPDEST PUSH2 0x2B8 PUSH32 0x0 PUSH2 0x2A8 JUMP JUMPDEST CALLVALUE PUSH2 0x25F JUMPI PUSH2 0x445 CALLDATASIZE PUSH1 0x4 PUSH2 0x255 JUMP JUMPDEST PUSH2 0x2B8 PUSH32 0x0 PUSH2 0x2A8 JUMP JUMPDEST CALLVALUE PUSH2 0x25F JUMPI PUSH2 0x47E CALLDATASIZE PUSH1 0x4 PUSH2 0x255 JUMP JUMPDEST PUSH2 0x2B8 PUSH32 0x0 PUSH2 0x2A8 JUMP JUMPDEST PUSH2 0x26E SWAP1 PUSH2 0x4BB SWAP1 PUSH1 0x1 PUSH1 0x1 PUSH1 0xA0 SHL SUB AND DUP3 JUMP JUMPDEST PUSH1 0x1 PUSH1 0x1 PUSH1 0xA0 SHL SUB AND SWAP1 JUMP JUMPDEST PUSH2 0x26E SWAP1 PUSH2 0x4A7 JUMP JUMPDEST PUSH2 0x26E SWAP1 PUSH2 0x4C7 JUMP JUMPDEST PUSH2 0x287 SWAP1 PUSH2 0x4D0 JUMP JUMPDEST PUSH1 0x20 DUP2 ADD SWAP3 SWAP2 PUSH2 0x28B SWAP2 SWAP1 PUSH2 0x4D9 JUMP JUMPDEST CALLVALUE PUSH2 0x25F JUMPI PUSH2 0x502 CALLDATASIZE PUSH1 0x4 PUSH2 0x255 JUMP JUMPDEST PUSH2 0x2B8 PUSH32 0x0 JUMPDEST PUSH1 0x40 MLOAD SWAP2 DUP3 SWAP2 DUP3 PUSH2 0x4E2 JUMP JUMPDEST PUSH2 0x26E SWAP1 PUSH2 0x4BB JUMP JUMPDEST PUSH2 0x545 DUP2 PUSH2 0x533 JUMP JUMPDEST SUB PUSH2 0x25F JUMPI JUMP JUMPDEST SWAP1 POP CALLDATALOAD SWAP1 PUSH2 0x28B DUP3 PUSH2 0x53C JUMP JUMPDEST SWAP1 PUSH1 0x20 DUP3 DUP3 SUB SLT PUSH2 0x25F JUMPI PUSH2 0x26E SWAP2 PUSH2 0x54C JUMP JUMPDEST CALLVALUE PUSH2 0x25F JUMPI PUSH2 0x585 PUSH2 0x580 CALLDATASIZE PUSH1 0x4 PUSH2 0x559 JUMP JUMPDEST PUSH2 0xC77 JUMP JUMPDEST PUSH1 0x40 MLOAD STOP JUMPDEST PUSH2 0x26E PUSH0 PUSH1 0x4 PUSH2 0x271 JUMP JUMPDEST CALLVALUE PUSH2 0x25F JUMPI PUSH2 0x5A5 CALLDATASIZE PUSH1 0x4 PUSH2 0x255 JUMP JUMPDEST PUSH2 0x2B8 PUSH2 0x2A8 PUSH2 0x58A JUMP JUMPDEST CALLVALUE PUSH2 0x25F JUMPI PUSH2 0x5C0 CALLDATASIZE PUSH1 0x4 PUSH2 0x255 JUMP JUMPDEST PUSH2 0x585 PUSH2 0xCF4 JUMP JUMPDEST PUSH2 0x26E PUSH0 PUSH1 0x1 PUSH2 0x271 JUMP JUMPDEST CALLVALUE PUSH2 0x25F JUMPI PUSH2 0x5E3 CALLDATASIZE PUSH1 0x4 PUSH2 0x255 JUMP JUMPDEST PUSH2 0x2B8 PUSH2 0x2A8 PUSH2 0x5C8 JUMP JUMPDEST CALLVALUE PUSH2 0x25F JUMPI PUSH2 0x5FE CALLDATASIZE PUSH1 0x4 PUSH2 0x255 JUMP JUMPDEST PUSH2 0x2B8 PUSH32 0x0 PUSH2 0x2A8 JUMP JUMPDEST PUSH2 0x287 SWAP1 PUSH2 0x4BB JUMP JUMPDEST PUSH1 0x20 DUP2 ADD SWAP3 SWAP2 PUSH2 0x28B SWAP2 SWAP1 PUSH2 0x627 JUMP JUMPDEST CALLVALUE PUSH2 0x25F JUMPI PUSH2 0x650 CALLDATASIZE PUSH1 0x4 PUSH2 0x255 JUMP JUMPDEST PUSH2 0x2B8 PUSH32 0x0 JUMPDEST PUSH1 0x40 MLOAD SWAP2 DUP3 SWAP2 DUP3 PUSH2 0x630 JUMP JUMPDEST CALLVALUE PUSH2 0x25F JUMPI PUSH2 0x691 CALLDATASIZE PUSH1 0x4 PUSH2 0x255 JUMP JUMPDEST PUSH2 0x2B8 PUSH2 0x2A8 PUSH2 0xF63 JUMP JUMPDEST CALLVALUE PUSH2 0x25F JUMPI PUSH2 0x6AC CALLDATASIZE PUSH1 0x4 PUSH2 0x255 JUMP JUMPDEST PUSH2 0x585 PUSH2 0x1199 JUMP JUMPDEST DUP1 PUSH2 0x545 JUMP JUMPDEST SWAP1 POP CALLDATALOAD SWAP1 PUSH2 0x28B DUP3 PUSH2 0x6B4 JUMP JUMPDEST SWAP1 PUSH1 0x20 DUP3 DUP3 SUB SLT PUSH2 0x25F JUMPI PUSH2 0x26E SWAP2 PUSH2 0x6BA JUMP JUMPDEST CALLVALUE PUSH2 0x25F JUMPI PUSH2 0x585 PUSH2 0x6EE CALLDATASIZE PUSH1 0x4 PUSH2 0x6C7 JUMP JUMPDEST PUSH2 0x1311 JUMP JUMPDEST CALLVALUE PUSH2 0x25F JUMPI PUSH2 0x703 CALLDATASIZE PUSH1 0x4 PUSH2 0x255 JUMP JUMPDEST PUSH2 0x2B8 PUSH32 0x0 PUSH2 0x675 JUMP JUMPDEST CALLVALUE PUSH2 0x25F JUMPI PUSH2 0x73C CALLDATASIZE PUSH1 0x4 PUSH2 0x255 JUMP JUMPDEST PUSH2 0x585 PUSH2 0x131A JUMP JUMPDEST CALLVALUE PUSH2 0x25F JUMPI PUSH2 0x2B8 PUSH2 0x2A8 PUSH2 0x75A CALLDATASIZE PUSH1 0x4 PUSH2 0x6C7 JUMP JUMPDEST PUSH2 0x157E JUMP JUMPDEST CALLVALUE PUSH2 0x25F JUMPI PUSH2 0x2B8 PUSH2 0x2A8 PUSH2 0x775 CALLDATASIZE PUSH1 0x4 PUSH2 0x6C7 JUMP JUMPDEST PUSH2 0x180A JUMP JUMPDEST CALLVALUE PUSH2 0x25F JUMPI PUSH2 0x78A CALLDATASIZE PUSH1 0x4 PUSH2 0x255 JUMP JUMPDEST PUSH2 0x2B8 PUSH2 0x2A8 PUSH2 0x19D1 JUMP JUMPDEST CALLVALUE PUSH2 0x25F JUMPI PUSH2 0x7A5 CALLDATASIZE PUSH1 0x4 PUSH2 0x255 JUMP JUMPDEST PUSH2 0x2B8 PUSH32 0x0 PUSH2 0x3E8 JUMP JUMPDEST PUSH2 0x26E PUSH1 0x12 PUSH2 0x3A8 JUMP JUMPDEST PUSH2 0x26E PUSH2 0x7CE JUMP JUMPDEST CALLVALUE PUSH2 0x25F JUMPI PUSH2 0x7F0 CALLDATASIZE PUSH1 0x4 PUSH2 0x255 JUMP JUMPDEST PUSH2 0x2B8 PUSH2 0x3E8 PUSH2 0x7D8 JUMP JUMPDEST CALLVALUE PUSH2 0x25F JUMPI PUSH2 0x80B CALLDATASIZE PUSH1 0x4 PUSH2 0x255 JUMP JUMPDEST PUSH2 0x2B8 PUSH32 0x0 PUSH2 0x3E8 JUMP JUMPDEST PUSH2 0x26E PUSH3 0x15180 PUSH2 0x2F5 JUMP JUMPDEST PUSH2 0x26E PUSH2 0x834 JUMP JUMPDEST CALLVALUE PUSH2 0x25F JUMPI PUSH2 0x858 CALLDATASIZE PUSH1 0x4 PUSH2 0x255 JUMP JUMPDEST PUSH2 0x2B8 PUSH2 0x2A8 PUSH2 0x840 JUMP JUMPDEST PUSH2 0x26E PUSH0 PUSH1 0x3 PUSH2 0x271 JUMP JUMPDEST CALLVALUE PUSH2 0x25F JUMPI PUSH2 0x87E CALLDATASIZE PUSH1 0x4 PUSH2 0x255 JUMP JUMPDEST PUSH2 0x2B8 PUSH2 0x2A8 PUSH2 0x863 JUMP JUMPDEST CALLVALUE PUSH2 0x25F JUMPI PUSH2 0x899 CALLDATASIZE PUSH1 0x4 PUSH2 0x255 JUMP JUMPDEST PUSH2 0x2B8 PUSH32 0x0 PUSH2 0x3E8 JUMP JUMPDEST PUSH2 0x26E PUSH8 0xDE0B6B3A7640000 PUSH2 0x2F5 JUMP JUMPDEST PUSH2 0x26E PUSH2 0x8C2 JUMP JUMPDEST CALLVALUE PUSH2 0x25F JUMPI PUSH2 0x8EB CALLDATASIZE PUSH1 0x4 PUSH2 0x255 JUMP JUMPDEST PUSH2 0x2B8 PUSH2 0x2A8 PUSH2 0x8D3 JUMP JUMPDEST CALLVALUE PUSH2 0x25F JUMPI PUSH2 0x906 CALLDATASIZE PUSH1 0x4 PUSH2 0x255 JUMP JUMPDEST PUSH2 0x2B8 PUSH32 0x0 PUSH2 0x527 JUMP JUMPDEST PUSH2 0x26E PUSH0 DUP1 PUSH2 0x271 JUMP JUMPDEST CALLVALUE PUSH2 0x25F JUMPI PUSH2 0x949 CALLDATASIZE PUSH1 0x4 PUSH2 0x255 JUMP JUMPDEST PUSH2 0x2B8 PUSH2 0x2A8 PUSH2 0x92F JUMP JUMPDEST CALLVALUE PUSH2 0x25F JUMPI PUSH2 0x964 CALLDATASIZE PUSH1 0x4 PUSH2 0x255 JUMP JUMPDEST PUSH2 0x2B8 PUSH32 0x0 PUSH2 0x675 JUMP JUMPDEST CALLVALUE PUSH2 0x25F JUMPI PUSH2 0x99D CALLDATASIZE PUSH1 0x4 PUSH2 0x255 JUMP JUMPDEST PUSH2 0x2B8 PUSH32 0x0 PUSH2 0x527 JUMP JUMPDEST CALLVALUE PUSH2 0x25F JUMPI PUSH2 0x9D6 CALLDATASIZE PUSH1 0x4 PUSH2 0x255 JUMP JUMPDEST PUSH2 0x2B8 PUSH32 0x0 PUSH2 0x3E8 JUMP JUMPDEST CALLVALUE PUSH2 0x25F JUMPI PUSH2 0xA0F CALLDATASIZE PUSH1 0x4 PUSH2 0x255 JUMP JUMPDEST PUSH2 0x2B8 PUSH32 0x0 PUSH2 0x2A8 JUMP JUMPDEST PUSH2 0x26E SWAP1 PUSH2 0x3B5 JUMP JUMPDEST PUSH2 0x26E SWAP1 SLOAD PUSH2 0xA38 JUMP JUMPDEST PUSH2 0xA56 PUSH2 0x26E PUSH2 0xF63 JUMP JUMPDEST TIMESTAMP LT ISZERO PUSH2 0xA67 JUMPI PUSH2 0x26E PUSH1 0x5 PUSH2 0xA41 JUMP JUMPDEST PUSH1 0x3 SWAP1 JUMP JUMPDEST PUSH2 0xA95 PUSH32 0x0 PUSH2 0x4BB JUMP JUMPDEST PUSH2 0xA9E CALLER PUSH2 0x4BB JUMP JUMPDEST SUB PUSH2 0xAAC JUMPI PUSH2 0x28B SWAP1 PUSH2 0xB44 JUMP JUMPDEST PUSH4 0x9C867E21 PUSH1 0xE0 SHL PUSH0 SWAP1 DUP2 MSTORE PUSH1 0x4 JUMPDEST SUB PUSH0 REVERT JUMPDEST PUSH4 0x4E487B71 PUSH1 0xE0 SHL PUSH0 MSTORE PUSH1 0x41 PUSH1 0x4 MSTORE PUSH1 0x24 PUSH0 REVERT JUMPDEST SWAP1 PUSH1 0x1F ADD PUSH1 0x1F NOT AND DUP2 ADD SWAP1 DUP2 LT PUSH8 0xFFFFFFFFFFFFFFFF DUP3 GT OR PUSH2 0xAF5 JUMPI PUSH1 0x40 MSTORE JUMP JUMPDEST PUSH2 0xABF JUMP JUMPDEST SWAP1 POP MLOAD SWAP1 PUSH2 0x28B DUP3 PUSH2 0x6B4 JUMP JUMPDEST SWAP1 PUSH1 0x20 DUP3 DUP3 SUB SLT PUSH2 0x25F JUMPI PUSH2 0x26E SWAP2 PUSH2 0xAFA JUMP JUMPDEST PUSH1 0x40 MLOAD RETURNDATASIZE PUSH0 DUP3 RETURNDATACOPY RETURNDATASIZE SWAP1 REVERT JUMPDEST SWAP2 PUSH1 0x20 PUSH2 0x28B SWAP3 SWAP5 SWAP4 PUSH2 0xB40 PUSH1 0x40 DUP3 ADD SWAP7 PUSH0 DUP4 ADD SWAP1 PUSH2 0x627 JUMP JUMPDEST ADD MSTORE JUMP JUMPDEST PUSH2 0xB6D PUSH32 0x0 PUSH2 0x533 JUMP JUMPDEST PUSH2 0xB76 DUP3 PUSH2 0x533 JUMP JUMPDEST EQ PUSH2 0xC66 JUMPI DUP1 PUSH2 0xB88 PUSH2 0xBB0 SWAP3 PUSH2 0x4D0 JUMP JUMPDEST PUSH1 0x20 PUSH2 0xB93 ADDRESS PUSH2 0x4D0 JUMP JUMPDEST PUSH1 0x40 MLOAD SWAP5 DUP6 SWAP2 DUP3 SWAP2 SWAP1 PUSH4 0x70A08231 PUSH1 0xE0 SHL JUMPDEST DUP4 MSTORE PUSH1 0x4 DUP4 ADD PUSH2 0x630 JUMP JUMPDEST SUB DUP2 DUP5 GAS STATICCALL SWAP2 DUP3 ISZERO PUSH2 0xC61 JUMPI PUSH32 0x8AEC0CE3DADFFACF4B7A963E0FED1FF2E6151B4C95D4A65ACAFA9D1299630402 SWAP4 PUSH0 SWAP4 PUSH2 0xC2C JUMPI JUMPDEST POP DUP3 PUSH2 0xC12 SWAP2 PUSH32 0x0 SWAP1 PUSH2 0x1AF2 JUMP JUMPDEST PUSH2 0xC27 PUSH2 0xC1E PUSH1 0x40 MLOAD SWAP1 JUMP JUMPDEST SWAP3 DUP4 SWAP3 DUP4 PUSH2 0xB26 JUMP JUMPDEST SUB SWAP1 LOG1 JUMP JUMPDEST PUSH2 0xC12 SWAP2 SWAP4 POP PUSH2 0xC53 SWAP1 PUSH1 0x20 RETURNDATASIZE PUSH1 0x20 GT PUSH2 0xC5A JUMPI JUMPDEST PUSH2 0xC4B DUP2 DUP4 PUSH2 0xAD3 JUMP JUMPDEST DUP2 ADD SWAP1 PUSH2 0xB07 JUMP JUMPDEST SWAP3 SWAP1 PUSH2 0xBE5 JUMP JUMPDEST POP RETURNDATASIZE PUSH2 0xC41 JUMP JUMPDEST PUSH2 0xB1B JUMP JUMPDEST PUSH4 0xBF27C04F PUSH1 0xE0 SHL PUSH0 SWAP1 DUP2 MSTORE PUSH1 0x4 SWAP1 REVERT JUMPDEST PUSH2 0x28B SWAP1 PUSH2 0xA6C JUMP JUMPDEST PUSH2 0x26E SWAP1 DUP2 JUMP JUMPDEST PUSH2 0x26E SWAP1 SLOAD PUSH2 0xC80 JUMP JUMPDEST PUSH4 0x4E487B71 PUSH1 0xE0 SHL PUSH0 MSTORE PUSH1 0x11 PUSH1 0x4 MSTORE PUSH1 0x24 PUSH0 REVERT JUMPDEST SWAP2 SWAP1 DUP3 ADD DUP1 SWAP3 GT PUSH2 0xCB2 JUMPI JUMP JUMPDEST PUSH2 0xC91 JUMP JUMPDEST SWAP1 DUP2 MSTORE PUSH1 0x40 DUP2 ADD SWAP3 SWAP2 PUSH2 0x28B SWAP2 PUSH1 0x20 ADD MSTORE JUMP JUMPDEST SWAP1 PUSH0 NOT SWAP1 JUMPDEST SWAP2 DUP2 NOT AND SWAP2 AND OR SWAP1 JUMP JUMPDEST SWAP1 PUSH2 0xCE9 PUSH2 0x26E PUSH2 0xCF0 SWAP3 PUSH2 0x2F5 JUMP JUMPDEST DUP3 SLOAD PUSH2 0xCCA JUMP JUMPDEST SWAP1 SSTORE JUMP JUMPDEST PUSH2 0xCFE PUSH1 0x5 PUSH2 0xA41 JUMP JUMPDEST PUSH2 0xD10 PUSH2 0xD0A PUSH0 PUSH2 0x355 JUMP JUMPDEST SWAP2 PUSH2 0x355 JUMP JUMPDEST EQ PUSH2 0xF52 JUMPI PUSH32 0x0 PUSH2 0xD3F DUP2 PUSH2 0x4BB JUMP JUMPDEST PUSH2 0xD48 CALLER PUSH2 0x4BB JUMP JUMPDEST EQ ISZERO DUP1 PUSH2 0xF13 JUMPI JUMPDEST PUSH2 0xF02 JUMPI PUSH2 0xD5C PUSH2 0x19D1 JUMP JUMPDEST DUP1 PUSH2 0xD66 PUSH0 PUSH2 0x2F5 JUMP JUMPDEST DUP2 EQ PUSH2 0xEF1 JUMPI PUSH2 0xD75 SWAP1 PUSH2 0x157E JUMP JUMPDEST SWAP2 DUP3 SWAP1 PUSH2 0xD81 PUSH0 PUSH2 0x2F5 JUMP JUMPDEST DUP5 EQ PUSH2 0xEF1 JUMPI PUSH2 0xDDF SWAP4 PUSH32 0x0 SWAP1 PUSH1 0x20 PUSH2 0xDB8 DUP4 PUSH2 0x4D0 JUMP JUMPDEST PUSH2 0xDC1 ADDRESS PUSH2 0x4D0 JUMP JUMPDEST SWAP1 PUSH2 0xDCB PUSH1 0x40 MLOAD SWAP1 JUMP JUMPDEST SWAP9 DUP10 SWAP3 DUP4 SWAP2 DUP3 SWAP2 PUSH4 0x70A08231 PUSH1 0xE0 SHL PUSH2 0xBA5 JUMP JUMPDEST SUB SWAP2 GAS STATICCALL SWAP1 DUP2 ISZERO PUSH2 0xC61 JUMPI PUSH32 0xC83B5086CE94EC8D5A88A9F5FEA4B18A522BB238ED0D2D8ABD959549A80C16B8 SWAP7 PUSH0 SWAP3 PUSH2 0xED0 JUMPI JUMPDEST POP DUP1 DUP3 LT PUSH2 0xE7E JUMPI JUMPDEST POP POP PUSH2 0xE69 SWAP2 DUP4 SWAP2 PUSH2 0xE2F TIMESTAMP PUSH1 0x1 PUSH2 0xCD9 JUMP JUMPDEST PUSH2 0xE4C PUSH2 0xE45 DUP8 PUSH2 0xE40 PUSH1 0x3 PUSH2 0xC87 JUMP JUMPDEST PUSH2 0xCA5 JUMP JUMPDEST PUSH1 0x3 PUSH2 0xCD9 JUMP JUMPDEST PUSH2 0xE64 PUSH2 0xE5D DUP5 PUSH2 0xE40 PUSH1 0x4 PUSH2 0xC87 JUMP JUMPDEST PUSH1 0x4 PUSH2 0xCD9 JUMP JUMPDEST PUSH2 0x1AF2 JUMP JUMPDEST PUSH2 0xC27 PUSH2 0xE75 PUSH1 0x40 MLOAD SWAP1 JUMP JUMPDEST SWAP3 DUP4 SWAP3 DUP4 PUSH2 0xCB7 JUMP JUMPDEST DUP2 PUSH2 0xE69 SWAP5 SWAP3 SWAP4 SWAP7 POP PUSH2 0xEC6 SWAP6 POP PUSH32 0x521D4EC08EA54943095F5F84755DE8B51E1222628C06DAA159D618C8C5FDA56A SWAP2 PUSH2 0xEBA PUSH2 0xE75 PUSH1 0x40 MLOAD SWAP1 JUMP JUMPDEST SUB SWAP1 LOG1 DUP2 SWAP4 DUP5 SWAP3 PUSH2 0x180A JUMP JUMPDEST SWAP5 SWAP2 DUP2 SWAP4 POP PUSH2 0xE1C JUMP JUMPDEST PUSH2 0xEEA SWAP2 SWAP3 POP PUSH1 0x20 RETURNDATASIZE PUSH1 0x20 GT PUSH2 0xC5A JUMPI PUSH2 0xC4B DUP2 DUP4 PUSH2 0xAD3 JUMP JUMPDEST SWAP1 PUSH0 PUSH2 0xE13 JUMP JUMPDEST PUSH4 0x1F2A2005 PUSH1 0xE0 SHL PUSH0 SWAP1 DUP2 MSTORE PUSH1 0x4 SWAP1 REVERT JUMPDEST PUSH4 0x5A06399F PUSH1 0xE1 SHL PUSH0 SWAP1 DUP2 MSTORE PUSH1 0x4 SWAP1 REVERT JUMPDEST POP PUSH2 0xF4B PUSH2 0x26E PUSH2 0xF24 PUSH1 0x1 PUSH2 0xC87 JUMP JUMPDEST PUSH32 0x0 SWAP1 PUSH2 0xCA5 JUMP JUMPDEST TIMESTAMP LT PUSH2 0xD50 JUMP JUMPDEST PUSH4 0x21C4E357 PUSH1 0xE2 SHL PUSH0 SWAP1 DUP2 MSTORE PUSH1 0x4 SWAP1 REVERT JUMPDEST PUSH2 0xF6D PUSH1 0x5 PUSH2 0xA41 JUMP JUMPDEST PUSH2 0xF79 PUSH2 0xD0A PUSH0 PUSH2 0x355 JUMP JUMPDEST EQ PUSH2 0xFD7 JUMPI PUSH2 0xF88 PUSH1 0x5 PUSH2 0xA41 JUMP JUMPDEST PUSH2 0xF95 PUSH2 0xD0A PUSH1 0x2 PUSH2 0x355 JUMP JUMPDEST SUB PUSH2 0xFA4 JUMPI PUSH2 0x26E PUSH1 0x2 PUSH2 0xC87 JUMP JUMPDEST PUSH2 0x26E PUSH2 0xFB0 PUSH0 PUSH2 0xC87 JUMP JUMPDEST PUSH32 0x0 SWAP1 PUSH2 0xCA5 JUMP JUMPDEST PUSH2 0x26E PUSH0 PUSH2 0x2F5 JUMP JUMPDEST PUSH2 0x1009 PUSH32 0x0 PUSH2 0x4BB JUMP JUMPDEST PUSH2 0x1012 CALLER PUSH2 0x4BB JUMP JUMPDEST SUB PUSH2 0xAAC JUMPI PUSH2 0x28B PUSH2 0x103F JUMP JUMPDEST SWAP1 PUSH1 0xFF SWAP1 PUSH2 0xCCF JUMP JUMPDEST SWAP1 PUSH2 0x1038 PUSH2 0x26E PUSH2 0xCF0 SWAP3 PUSH2 0x35F JUMP JUMPDEST DUP3 SLOAD PUSH2 0x101F JUMP JUMPDEST PUSH2 0x1049 PUSH1 0x5 PUSH2 0xA41 JUMP JUMPDEST PUSH2 0x1055 PUSH2 0xD0A PUSH0 PUSH2 0x355 JUMP JUMPDEST SUB PUSH2 0x1189 JUMPI PUSH2 0x1064 TIMESTAMP PUSH0 PUSH2 0xCD9 JUMP JUMPDEST PUSH2 0x106F TIMESTAMP PUSH1 0x1 PUSH2 0xCD9 JUMP JUMPDEST PUSH2 0x107B PUSH1 0x1 PUSH1 0x5 PUSH2 0x1028 JUMP JUMPDEST PUSH2 0x10D0 PUSH1 0x20 PUSH2 0x10A9 PUSH32 0x0 PUSH2 0x4D0 JUMP JUMPDEST PUSH2 0x10B2 ADDRESS PUSH2 0x4D0 JUMP JUMPDEST SWAP1 PUSH2 0x10BC PUSH1 0x40 MLOAD SWAP1 JUMP JUMPDEST SWAP4 DUP5 SWAP3 DUP4 SWAP2 DUP3 SWAP2 PUSH4 0x70A08231 PUSH1 0xE0 SHL PUSH2 0xBA5 JUMP JUMPDEST SUB SWAP2 GAS STATICCALL SWAP1 DUP2 ISZERO PUSH2 0xC61 JUMPI PUSH0 SWAP2 PUSH2 0x116A JUMPI JUMPDEST POP PUSH2 0x10EC DUP2 PUSH2 0x180A JUMP JUMPDEST PUSH32 0x0 SWAP2 SWAP1 DUP3 SWAP1 PUSH2 0x111A JUMP JUMPDEST SWAP2 SWAP1 JUMP JUMPDEST LT PUSH2 0x1152 JUMPI POP POP PUSH32 0x5DAA87A0E9463431830481FD4B6E3403442DFB9A12B9C07597E9F61D50B633C8 PUSH2 0x114B PUSH1 0x40 MLOAD SWAP1 JUMP JUMPDEST DUP1 DUP1 PUSH2 0xC27 JUMP JUMPDEST PUSH4 0x4787A103 PUSH1 0xE1 SHL PUSH0 SWAP1 DUP2 MSTORE SWAP2 PUSH2 0xABB SWAP2 PUSH1 0x4 PUSH2 0xCB7 JUMP JUMPDEST PUSH2 0x1183 SWAP2 POP PUSH1 0x20 RETURNDATASIZE PUSH1 0x20 GT PUSH2 0xC5A JUMPI PUSH2 0xC4B DUP2 DUP4 PUSH2 0xAD3 JUMP JUMPDEST PUSH0 PUSH2 0x10E2 JUMP JUMPDEST PUSH3 0xDC149F PUSH1 0xE4 SHL PUSH0 SWAP1 DUP2 MSTORE PUSH1 0x4 SWAP1 REVERT JUMPDEST PUSH2 0x28B PUSH2 0xFE0 JUMP JUMPDEST PUSH2 0x11CA PUSH32 0x0 PUSH2 0x4BB JUMP JUMPDEST PUSH2 0x11D3 CALLER PUSH2 0x4BB JUMP JUMPDEST SUB PUSH2 0xAAC JUMPI PUSH2 0x28B SWAP1 PUSH2 0x11E6 PUSH1 0x5 PUSH2 0xA41 JUMP JUMPDEST SWAP1 PUSH1 0x2 SWAP2 PUSH2 0x11F6 PUSH2 0xD0A DUP5 PUSH2 0x355 JUMP JUMPDEST EQ PUSH2 0x1300 JUMPI PUSH2 0x1204 PUSH0 PUSH2 0x2F5 JUMP JUMPDEST DUP2 SUB PUSH2 0x12AD JUMPI PUSH2 0x123D PUSH2 0x1237 PUSH32 0x0 TIMESTAMP PUSH2 0xCA5 JUMP JUMPDEST DUP4 PUSH2 0xCD9 JUMP JUMPDEST PUSH2 0x1246 DUP3 PUSH2 0xC87 JUMP JUMPDEST PUSH2 0x1258 PUSH2 0x1116 PUSH2 0x26E PUSH2 0xFB0 PUSH0 PUSH2 0xC87 JUMP JUMPDEST GT PUSH2 0x1296 JUMPI POP PUSH2 0xC27 PUSH2 0x2A8 DUP3 PUSH2 0x1291 PUSH32 0x9A9CAD27A1BDCE3D7CB0602AAF727DFAAD03BA6524D9BCA7B9615867FA6802B4 SWAP5 PUSH1 0x5 PUSH2 0x1028 JUMP JUMPDEST PUSH2 0xC87 JUMP JUMPDEST PUSH4 0x51FE0483 PUSH1 0xE1 SHL PUSH0 SWAP1 DUP2 MSTORE PUSH1 0x4 SWAP2 SWAP1 SWAP2 MSTORE PUSH1 0x24 SWAP1 REVERT JUMPDEST PUSH2 0x12DA PUSH2 0x26E PUSH32 0x0 TIMESTAMP PUSH2 0xCA5 JUMP JUMPDEST DUP2 LT PUSH2 0x12EF JUMPI PUSH2 0x12EA DUP2 DUP4 PUSH2 0xCD9 JUMP JUMPDEST PUSH2 0x123D JUMP JUMPDEST PUSH4 0x25C36367 PUSH1 0xE0 SHL PUSH0 SWAP1 DUP2 MSTORE PUSH1 0x4 SWAP1 REVERT JUMPDEST PUSH4 0x2AAA6855 PUSH1 0xE1 SHL PUSH0 SWAP1 DUP2 MSTORE PUSH1 0x4 SWAP1 REVERT JUMPDEST PUSH2 0x28B SWAP1 PUSH2 0x11A1 JUMP JUMPDEST PUSH2 0x1324 PUSH1 0x5 PUSH2 0xA41 JUMP JUMPDEST PUSH2 0x1330 PUSH2 0xD0A PUSH0 PUSH2 0x355 JUMP JUMPDEST SUB PUSH2 0x1425 JUMPI PUSH2 0x135E PUSH32 0x0 PUSH2 0x4BB JUMP JUMPDEST PUSH2 0x1367 CALLER PUSH2 0x4BB JUMP JUMPDEST SUB PUSH2 0xAAC JUMPI JUMPDEST PUSH32 0x0 PUSH2 0x139C PUSH1 0x20 PUSH2 0x10A9 DUP4 PUSH2 0x4D0 JUMP JUMPDEST SUB SWAP2 GAS STATICCALL DUP1 ISZERO PUSH2 0xC61 JUMPI PUSH32 0x7F221332EE403570BF4D61630B58189EA566FF1635269001E9DF6A890F413DD8 SWAP3 PUSH2 0xC27 SWAP3 PUSH0 SWAP3 PUSH2 0x1400 JUMPI JUMPDEST POP DUP2 PUSH2 0x2A8 SWAP2 PUSH32 0x0 SWAP1 PUSH2 0x1AF2 JUMP JUMPDEST PUSH2 0x2A8 SWAP2 SWAP3 POP PUSH2 0x141E SWAP1 PUSH1 0x20 RETURNDATASIZE PUSH1 0x20 GT PUSH2 0xC5A JUMPI PUSH2 0xC4B DUP2 DUP4 PUSH2 0xAD3 JUMP JUMPDEST SWAP2 SWAP1 PUSH2 0x13D3 JUMP JUMPDEST PUSH2 0x142D PUSH2 0xF63 JUMP JUMPDEST PUSH2 0x1456 PUSH32 0x0 PUSH2 0x4BB JUMP JUMPDEST PUSH2 0x145F CALLER PUSH2 0x4BB JUMP JUMPDEST SUB PUSH2 0x147B JUMPI TIMESTAMP GT PUSH2 0x136D JUMPI PUSH4 0xA33E7099 PUSH1 0xE0 SHL PUSH0 SWAP1 DUP2 MSTORE PUSH1 0x4 SWAP1 REVERT JUMPDEST PUSH2 0x26E PUSH2 0x14A9 SWAP2 PUSH32 0x0 SWAP1 PUSH2 0xCA5 JUMP JUMPDEST TIMESTAMP GT PUSH2 0x136D JUMPI PUSH4 0x42F54AF PUSH1 0xE0 SHL PUSH0 SWAP1 DUP2 MSTORE PUSH1 0x4 SWAP1 REVERT JUMPDEST PUSH10 0xFFFFFFFFFFFFFFFFFFFF DUP2 AND PUSH2 0x545 JUMP JUMPDEST SWAP1 POP MLOAD SWAP1 PUSH2 0x28B DUP3 PUSH2 0x14C0 JUMP JUMPDEST SWAP2 SWAP1 PUSH1 0xA0 DUP4 DUP3 SUB SLT PUSH2 0x25F JUMPI PUSH2 0x14F5 DUP2 DUP5 PUSH2 0x14D2 JUMP JUMPDEST SWAP3 PUSH2 0x1503 DUP3 PUSH1 0x20 DUP4 ADD PUSH2 0xAFA JUMP JUMPDEST SWAP3 PUSH2 0x26E PUSH2 0x1514 DUP5 PUSH1 0x40 DUP6 ADD PUSH2 0xAFA JUMP JUMPDEST SWAP4 PUSH1 0x80 PUSH2 0x1524 DUP3 PUSH1 0x60 DUP8 ADD PUSH2 0xAFA JUMP JUMPDEST SWAP5 ADD PUSH2 0x14D2 JUMP JUMPDEST PUSH2 0x26E PUSH2 0x26E PUSH2 0x26E SWAP3 PUSH1 0xFF AND SWAP1 JUMP JUMPDEST SWAP2 SWAP1 DUP3 SUB SWAP2 DUP3 GT PUSH2 0xCB2 JUMPI JUMP JUMPDEST DUP2 DUP2 MUL SWAP3 SWAP2 DUP2 ISZERO SWAP2 DUP5 DIV EQ OR ISZERO PUSH2 0xCB2 JUMPI JUMP JUMPDEST PUSH4 0x4E487B71 PUSH1 0xE0 SHL PUSH0 MSTORE PUSH1 0x12 PUSH1 0x4 MSTORE PUSH1 0x24 PUSH0 REVERT JUMPDEST DUP2 ISZERO PUSH2 0x1579 JUMPI DIV SWAP1 JUMP JUMPDEST PUSH2 0x155B JUMP JUMPDEST PUSH2 0x15A7 PUSH32 0x0 PUSH2 0x4D0 JUMP JUMPDEST SWAP1 PUSH4 0xFEAF968C SWAP2 PUSH1 0xA0 PUSH2 0x15B9 PUSH1 0x40 MLOAD SWAP1 JUMP JUMPDEST DUP1 SWAP3 PUSH2 0x15C5 DUP7 PUSH1 0xE0 SHL SWAP1 JUMP JUMPDEST DUP3 MSTORE PUSH1 0x4 SWAP1 DUP3 SWAP1 GAS STATICCALL SWAP1 DUP2 ISZERO PUSH2 0xC61 JUMPI PUSH0 SWAP2 PUSH2 0x17E8 JUMPI JUMPDEST POP PUSH2 0x15E6 PUSH0 PUSH2 0x2F5 JUMP JUMPDEST DUP2 SGT ISZERO PUSH2 0x17A4 JUMPI PUSH1 0xA0 PUSH2 0x1628 SWAP4 PUSH2 0x161C PUSH32 0x0 PUSH2 0x4D0 JUMP JUMPDEST PUSH1 0x40 MLOAD SWAP6 DUP7 SWAP3 PUSH1 0xE0 SHL SWAP1 JUMP JUMPDEST DUP3 MSTORE PUSH1 0x4 SWAP1 DUP3 SWAP1 GAS STATICCALL SWAP3 DUP4 ISZERO PUSH2 0xC61 JUMPI PUSH0 SWAP4 PUSH2 0x17B4 JUMPI JUMPDEST POP PUSH2 0x1649 PUSH0 PUSH2 0x2F5 JUMP JUMPDEST DUP4 SGT ISZERO PUSH2 0x17A4 JUMPI PUSH2 0x26E SWAP3 PUSH2 0x16F9 PUSH2 0x1762 PUSH2 0x16BD SWAP5 PUSH2 0x175D PUSH2 0x166D PUSH2 0x1774 SWAP7 PUSH2 0x2F5 JUMP JUMPDEST PUSH2 0x1733 PUSH32 0x0 SWAP2 PUSH2 0x1704 PUSH2 0x16FE PUSH2 0x16B2 PUSH2 0x16AC PUSH2 0x16A6 PUSH2 0x7CE JUMP JUMPDEST SWAP7 PUSH2 0x152B JUMP JUMPDEST SWAP6 PUSH2 0x152B JUMP JUMPDEST SWAP12 DUP13 DUP1 SWAP7 DUP2 SWAP6 PUSH2 0x1B48 JUMP JUMPDEST PUSH2 0x16F9 PUSH2 0x16C8 PUSH2 0x302 JUMP JUMPDEST SWAP2 PUSH2 0x16F3 PUSH32 0x0 DUP5 PUSH2 0x153B JUMP JUMPDEST SWAP1 PUSH2 0x1548 JUMP JUMPDEST PUSH2 0x156F JUMP JUMPDEST SWAP9 PUSH2 0x2F5 JUMP JUMPDEST PUSH2 0x172D PUSH32 0x0 PUSH2 0x152B JUMP JUMPDEST SWAP1 PUSH2 0x1B48 JUMP JUMPDEST SWAP3 PUSH2 0x172D PUSH32 0x0 PUSH2 0x152B JUMP JUMPDEST PUSH2 0x1548 JUMP JUMPDEST PUSH2 0x175D PUSH2 0x176D PUSH2 0x8C2 JUMP JUMPDEST DUP1 SWAP3 PUSH2 0x156F JUMP JUMPDEST SWAP1 PUSH2 0x179E PUSH32 0x0 PUSH2 0x152B JUMP JUMPDEST SWAP2 PUSH2 0x1B48 JUMP JUMPDEST PUSH3 0xBFC921 PUSH1 0xE0 SHL PUSH0 SWAP1 DUP2 MSTORE PUSH1 0x4 SWAP1 REVERT JUMPDEST PUSH2 0x17D7 SWAP2 SWAP4 POP PUSH1 0xA0 RETURNDATASIZE PUSH1 0xA0 GT PUSH2 0x17E1 JUMPI JUMPDEST PUSH2 0x17CF DUP2 DUP4 PUSH2 0xAD3 JUMP JUMPDEST DUP2 ADD SWAP1 PUSH2 0x14DF JUMP JUMPDEST POP POP POP SWAP3 SWAP1 PUSH2 0x163F JUMP JUMPDEST POP RETURNDATASIZE PUSH2 0x17C5 JUMP JUMPDEST PUSH2 0x1801 SWAP2 POP PUSH1 0xA0 RETURNDATASIZE PUSH1 0xA0 GT PUSH2 0x17E1 JUMPI PUSH2 0x17CF DUP2 DUP4 PUSH2 0xAD3 JUMP JUMPDEST POP POP POP SWAP1 PUSH2 0x15DC JUMP JUMPDEST PUSH2 0x1833 PUSH32 0x0 PUSH2 0x4D0 JUMP JUMPDEST PUSH4 0xFEAF968C SWAP1 PUSH1 0xA0 PUSH2 0x1844 PUSH1 0x40 MLOAD SWAP1 JUMP JUMPDEST DUP1 SWAP3 PUSH2 0x1850 DUP6 PUSH1 0xE0 SHL SWAP1 JUMP JUMPDEST DUP3 MSTORE PUSH1 0x4 SWAP1 DUP3 SWAP1 GAS STATICCALL SWAP1 DUP2 ISZERO PUSH2 0xC61 JUMPI PUSH0 SWAP2 PUSH2 0x19AF JUMPI JUMPDEST POP PUSH2 0x1871 PUSH0 PUSH2 0x2F5 JUMP JUMPDEST DUP2 SGT ISZERO PUSH2 0x17A4 JUMPI PUSH1 0xA0 PUSH2 0x18B3 SWAP3 PUSH2 0x18A7 PUSH32 0x0 PUSH2 0x4D0 JUMP JUMPDEST PUSH1 0x40 MLOAD SWAP5 DUP6 SWAP3 PUSH1 0xE0 SHL SWAP1 JUMP JUMPDEST DUP3 MSTORE PUSH1 0x4 SWAP1 DUP3 SWAP1 GAS STATICCALL SWAP2 DUP3 ISZERO PUSH2 0xC61 JUMPI PUSH0 SWAP3 PUSH2 0x198B JUMPI JUMPDEST POP PUSH2 0x18D4 PUSH0 PUSH2 0x2F5 JUMP JUMPDEST DUP3 SGT ISZERO PUSH2 0x17A4 JUMPI PUSH2 0x26E SWAP3 PUSH2 0x16F9 PUSH2 0x1762 PUSH2 0x16BD SWAP5 PUSH2 0x175D PUSH2 0x18F8 PUSH2 0x1961 SWAP7 PUSH2 0x2F5 JUMP JUMPDEST PUSH2 0x1937 PUSH32 0x0 SWAP2 PUSH2 0x1704 PUSH2 0x1931 PUSH2 0x16B2 PUSH2 0x16AC PUSH2 0x16A6 PUSH2 0x7CE JUMP JUMPDEST SWAP6 PUSH2 0x2F5 JUMP JUMPDEST SWAP6 PUSH2 0x172D PUSH32 0x0 PUSH2 0x152B JUMP JUMPDEST SWAP1 PUSH2 0x179E PUSH32 0x0 PUSH2 0x152B JUMP JUMPDEST PUSH2 0x19A5 SWAP2 SWAP3 POP PUSH1 0xA0 RETURNDATASIZE PUSH1 0xA0 GT PUSH2 0x17E1 JUMPI PUSH2 0x17CF DUP2 DUP4 PUSH2 0xAD3 JUMP JUMPDEST POP POP POP SWAP2 SWAP1 PUSH2 0x18CA JUMP JUMPDEST PUSH2 0x19C8 SWAP2 POP PUSH1 0xA0 RETURNDATASIZE PUSH1 0xA0 GT PUSH2 0x17E1 JUMPI PUSH2 0x17CF DUP2 DUP4 PUSH2 0xAD3 JUMP JUMPDEST POP POP POP SWAP1 PUSH2 0x1867 JUMP JUMPDEST PUSH0 PUSH2 0x19DC PUSH1 0x3 PUSH2 0xC87 JUMP JUMPDEST PUSH32 0x0 SWAP1 DUP2 GT ISZERO PUSH2 0x1AC1 JUMPI PUSH2 0x1A0D PUSH2 0xF63 JUMP JUMPDEST PUSH2 0x1A16 PUSH0 PUSH2 0x2F5 JUMP JUMPDEST DUP2 EQ PUSH2 0x1AB5 JUMPI PUSH2 0x26E SWAP3 POP DUP1 TIMESTAMP LT ISZERO PUSH2 0x1A7A JUMPI POP PUSH2 0x1A43 PUSH2 0x1A6A SWAP2 PUSH2 0x16F3 PUSH2 0x1A3D PUSH0 PUSH2 0xC87 JUMP JUMPDEST TIMESTAMP PUSH2 0x153B JUMP JUMPDEST PUSH32 0x0 SWAP1 PUSH2 0x156F JUMP JUMPDEST PUSH2 0x1A74 PUSH1 0x3 PUSH2 0xC87 JUMP JUMPDEST SWAP1 PUSH2 0x153B JUMP JUMPDEST PUSH2 0x1A84 PUSH1 0x5 PUSH2 0xA41 JUMP JUMPDEST PUSH2 0x1A91 PUSH2 0xD0A PUSH1 0x2 PUSH2 0x355 JUMP JUMPDEST SUB PUSH2 0x1AAF JUMPI PUSH2 0x1AAA SWAP2 PUSH2 0x16F3 PUSH2 0x1A43 SWAP3 PUSH2 0x1A74 PUSH0 PUSH2 0xC87 JUMP JUMPDEST PUSH2 0x1A6A JUMP JUMPDEST POP PUSH2 0x1A6A JUMP JUMPDEST POP POP POP PUSH2 0x26E PUSH0 PUSH2 0x2F5 JUMP JUMPDEST POP POP PUSH2 0x26E PUSH0 PUSH2 0x2F5 JUMP JUMPDEST PUSH2 0x1AE5 PUSH2 0x1ADF PUSH2 0x26E SWAP3 PUSH4 0xFFFFFFFF AND SWAP1 JUMP JUMPDEST PUSH1 0xE0 SHL SWAP1 JUMP JUMPDEST PUSH1 0x1 PUSH1 0x1 PUSH1 0xE0 SHL SUB NOT AND SWAP1 JUMP JUMPDEST PUSH2 0x1B35 PUSH1 0x4 SWAP3 PUSH2 0x1B26 PUSH2 0x28B SWAP6 PUSH2 0x1B0C PUSH4 0xA9059CBB PUSH2 0x1ACC JUMP JUMPDEST SWAP3 PUSH2 0x1B16 PUSH1 0x40 MLOAD SWAP1 JUMP JUMPDEST SWAP7 DUP8 SWAP5 PUSH1 0x20 DUP7 ADD SWAP1 DUP2 MSTORE ADD PUSH2 0xB26 JUMP JUMPDEST PUSH1 0x20 DUP3 ADD DUP2 SUB DUP3 MSTORE SUB DUP4 PUSH2 0xAD3 JUMP JUMPDEST PUSH2 0x1B89 JUMP JUMPDEST PUSH1 0x4D DUP2 GT PUSH2 0xCB2 JUMPI PUSH1 0xA EXP SWAP1 JUMP JUMPDEST SWAP1 SWAP2 DUP1 DUP4 EQ PUSH2 0x1B83 JUMPI DUP1 DUP4 GT PUSH2 0x1B6D JUMPI PUSH2 0x1B68 PUSH2 0x26E SWAP4 PUSH2 0x16F3 SWAP3 PUSH2 0x153B JUMP JUMPDEST PUSH2 0x1B3A JUMP JUMPDEST PUSH2 0x1B68 PUSH2 0x1B7D SWAP2 PUSH2 0x26E SWAP5 PUSH2 0x153B JUMP JUMPDEST SWAP1 PUSH2 0x156F JUMP JUMPDEST POP SWAP1 POP SWAP1 JUMP JUMPDEST SWAP1 PUSH0 PUSH1 0x20 SWAP2 PUSH2 0x1B95 PUSH0 SWAP1 JUMP JUMPDEST POP DUP3 DUP2 MLOAD SWAP2 ADD DUP3 DUP6 GAS CALL ISZERO PUSH2 0xB1B JUMPI RETURNDATASIZE PUSH0 MLOAD SWAP1 PUSH2 0x1BB4 PUSH2 0x1116 PUSH0 PUSH2 0x2F5 JUMP JUMPDEST SUB PUSH2 0x1BF9 JUMPI POP PUSH2 0x1BC3 DUP2 PUSH2 0x4D0 JUMP JUMPDEST EXTCODESIZE PUSH2 0x1BD0 PUSH2 0x1116 PUSH0 PUSH2 0x2F5 JUMP JUMPDEST EQ JUMPDEST PUSH2 0x1BD9 JUMPI POP JUMP JUMPDEST PUSH2 0xABB PUSH2 0x1BE6 PUSH0 SWAP3 PUSH2 0x4D0 JUMP JUMPDEST PUSH4 0x5274AFE7 PUSH1 0xE0 SHL DUP4 MSTORE PUSH1 0x4 DUP4 ADD PUSH2 0x630 JUMP JUMPDEST PUSH2 0x1C06 PUSH2 0x1116 PUSH1 0x1 PUSH2 0x2F5 JUMP JUMPDEST EQ ISZERO PUSH2 0x1BD2 JUMP INVALID LOG2 PUSH5 0x6970667358 0x22 SLT KECCAK256 0x4D SWAP10 0xEF GAS ISZERO LOG0 0xC5 DUP3 0xCC EXTSTATICCALL 0xD2 0xA6 REVERT BALANCE PUSH25 0x895FFA0CEC7009E20DE708B222CE8EEDA064736F6C63430008 SAR STOP CALLER "
        },
        "methodIdentifiers": {
          "MIN_DECIMALS()": "33d263f2",
          "MIN_DURATION()": "b6a6d177",
          "SCALE_DECIMALS()": "ad9161cc",
          "SCALE_FACTOR()": "ce4b5bbe",
          "SLIPPAGE_SCALE()": "24938e9f",
          "calculateNativeAssetAmount(uint256)": "9cfbce51",
          "calculateStreamingAssetAmount(uint256)": "98018b8b",
          "claim()": "4e71d92d",
          "claimCooldown()": "fdea3657",
          "getNativeAssetAmountOwed()": "aa5c9691",
          "getStreamEnd()": "6eb6a820",
          "getStreamState()": "2ae4e931",
          "initialize()": "8129fc1c",
          "lastClaimTimestamp()": "607af397",
          "minimumNoticePeriod()": "414a6279",
          "nativeAssetDecimals()": "f47083bc",
          "nativeAssetOracle()": "efb1ad5d",
          "nativeAssetOracleDecimals()": "b001a482",
          "nativeAssetStreamingAmount()": "3e52531a",
          "nativeAssetSuppliedAmount()": "b7d03c8f",
          "recipient()": "66d003ac",
          "rescueToken(address)": "4460d3cf",
          "returnAddress()": "943640c3",
          "slippage()": "3e032a3b",
          "startTimestamp()": "e6fd48bc",
          "streamCreator()": "ef4a57d1",
          "streamDuration()": "64cbe5f9",
          "streamingAsset()": "41f1d3c1",
          "streamingAssetClaimedAmount()": "4aca04a8",
          "streamingAssetDecimals()": "ab579f45",
          "streamingAssetOracle()": "e5945ad7",
          "streamingAssetOracleDecimals()": "c797af7e",
          "sweepCooldown()": "14e853b5",
          "sweepRemaining()": "95098763",
          "terminateStream(uint256)": "9049a1e3",
          "terminationTimestamp()": "0bbfc833"
        }
      }
    }
  }
}