{
  "contracts-exposed/$_/@openzeppelin/contracts/utils/Create2.sol": {
    "$Create2": {
      "abi": [
        {
          "inputs": [],
          "stateMutability": "payable",
          "type": "constructor"
        },
        {
          "inputs": [],
          "name": "Create2EmptyBytecode",
          "type": "error"
        },
        {
          "inputs": [],
          "name": "FailedDeployment",
          "type": "error"
        },
        {
          "inputs": [
            {
              "internalType": "uint256",
              "name": "balance",
              "type": "uint256"
            },
            {
              "internalType": "uint256",
              "name": "needed",
              "type": "uint256"
            }
          ],
          "name": "InsufficientBalance",
          "type": "error"
        },
        {
          "anonymous": false,
          "inputs": [
            {
              "indexed": false,
              "internalType": "address",
              "name": "addr",
              "type": "address"
            }
          ],
          "name": "return$deploy",
          "type": "event"
        },
        {
          "inputs": [
            {
              "internalType": "bytes32",
              "name": "salt",
              "type": "bytes32"
            },
            {
              "internalType": "bytes32",
              "name": "bytecodeHash",
              "type": "bytes32"
            },
            {
              "internalType": "address",
              "name": "deployer",
              "type": "address"
            }
          ],
          "name": "$computeAddress",
          "outputs": [
            {
              "internalType": "address",
              "name": "addr",
              "type": "address"
            }
          ],
          "stateMutability": "pure",
          "type": "function"
        },
        {
          "inputs": [
            {
              "internalType": "bytes32",
              "name": "salt",
              "type": "bytes32"
            },
            {
              "internalType": "bytes32",
              "name": "bytecodeHash",
              "type": "bytes32"
            }
          ],
          "name": "$computeAddress",
          "outputs": [
            {
              "internalType": "address",
              "name": "ret0",
              "type": "address"
            }
          ],
          "stateMutability": "view",
          "type": "function"
        },
        {
          "inputs": [
            {
              "internalType": "uint256",
              "name": "amount",
              "type": "uint256"
            },
            {
              "internalType": "bytes32",
              "name": "salt",
              "type": "bytes32"
            },
            {
              "internalType": "bytes",
              "name": "bytecode",
              "type": "bytes"
            }
          ],
          "name": "$deploy",
          "outputs": [
            {
              "internalType": "address",
              "name": "addr",
              "type": "address"
            }
          ],
          "stateMutability": "payable",
          "type": "function"
        },
        {
          "inputs": [],
          "name": "__hh_exposed_bytecode_marker",
          "outputs": [
            {
              "internalType": "bytes32",
              "name": "",
              "type": "bytes32"
            }
          ],
          "stateMutability": "view",
          "type": "function"
        },
        {
          "stateMutability": "payable",
          "type": "receive"
        }
      ],
      "evm": {
        "bytecode": {
          "linkReferences": {},
          "object": "608060408190526104a361001582396104a390f3fe6080604052600436101561001a575b3615610018575f80fd5b005b5f3560e01c8063094773f814610059578063342db739146100545780635f1e2f361461004f57637a4584c70361000e576101fa565b6101bb565b610142565b6100ff565b805b0361006757565b5f80fd5b905035906100788261005e565b565b909182601f830112156100675781359167ffffffffffffffff831161006757602001926001830284011161006757565b91606083830312610067576100bf828461006b565b926100cd836020830161006b565b92604082013567ffffffffffffffff8111610067576100ec920161007a565b9091565b6001600160a01b031690565b90565b6101346101196101103660046100aa565b929190916102c7565b6040515b918291826001600160a01b03909116815260200190565b0390f35b5f91031261006757565b3461006757610152366004610138565b6040516e1a185c991a185d0b595e1c1bdcd959608a1b8152602090f35b6001600160a01b038116610060565b905035906100788261016f565b9091606082840312610067576100fc6101a4848461006b565b9360406101b4826020870161006b565b940161017e565b34610067576101346101196101d136600461018b565b91610317565b9190604083820312610067576100fc9060206101f3828661006b565b940161006b565b34610067576101346101196102103660046101d7565b90610322565b634e487b7160e01b5f52604160045260245ffd5b90601f01601f1916810190811067ffffffffffffffff82111761024c57604052565b610216565b9061007861025e60405190565b928361022a565b67ffffffffffffffff811161024c57602090601f01601f19160190565b90825f939282370152565b909291926102a261029d82610265565b610251565b938185528183011161006757610078916020850190610282565b6100fc91369161028d565b916102e3936102dd916102d75f90565b506102bc565b91610388565b907fa55d29f67e248dc28cbff80485b993032a0100d61c339bed56fddf9f066426266103128361011d60405190565b0390a1565b6100fc929190610431565b6100fc919061045a565b6100fc906100f0906001600160a01b031682565b6100fc9061032c565b6100fc90610340565b9081526040810192916100789160200152565b6100fc6100fc6100fc9290565b6100f06100fc6100fc9290565b6100fc90610372565b90919061039430610349565b8181316103a0565b9190565b10610418575081516103b461039c5f610365565b146104075760208251920190f5903d15198215166103fc576103d86100f05f61037f565b6001600160a01b038316146103e957565b63b06ebf3d60e01b5f90815260045b035ffd5b6040513d5f823e3d90fd5b631328927760e21b5f908152600490fd5b63cf47918160e01b5f908152916103f891316004610352565b600b9290604051926040840152602083015281520160ff8153605590206001600160a01b031690565b6100fc9161046730610349565b9161043156fea2646970667358221220bf74f4aa291a193396fc69e63c3c0b809095435c41b0a53807704d4c6440169464736f6c634300081d0033",
          "opcodes": "PUSH1 0x80 PUSH1 0x40 DUP2 SWAP1 MSTORE PUSH2 0x4A3 PUSH2 0x15 DUP3 CODECOPY PUSH2 0x4A3 SWAP1 RETURN INVALID PUSH1 0x80 PUSH1 0x40 MSTORE PUSH1 0x4 CALLDATASIZE LT ISZERO PUSH2 0x1A JUMPI JUMPDEST CALLDATASIZE ISZERO PUSH2 0x18 JUMPI PUSH0 DUP1 REVERT JUMPDEST STOP JUMPDEST PUSH0 CALLDATALOAD PUSH1 0xE0 SHR DUP1 PUSH4 0x94773F8 EQ PUSH2 0x59 JUMPI DUP1 PUSH4 0x342DB739 EQ PUSH2 0x54 JUMPI DUP1 PUSH4 0x5F1E2F36 EQ PUSH2 0x4F JUMPI PUSH4 0x7A4584C7 SUB PUSH2 0xE JUMPI PUSH2 0x1FA JUMP JUMPDEST PUSH2 0x1BB JUMP JUMPDEST PUSH2 0x142 JUMP JUMPDEST PUSH2 0xFF JUMP JUMPDEST DUP1 JUMPDEST SUB PUSH2 0x67 JUMPI JUMP JUMPDEST PUSH0 DUP1 REVERT JUMPDEST SWAP1 POP CALLDATALOAD SWAP1 PUSH2 0x78 DUP3 PUSH2 0x5E JUMP JUMPDEST JUMP JUMPDEST SWAP1 SWAP2 DUP3 PUSH1 0x1F DUP4 ADD SLT ISZERO PUSH2 0x67 JUMPI DUP2 CALLDATALOAD SWAP2 PUSH8 0xFFFFFFFFFFFFFFFF DUP4 GT PUSH2 0x67 JUMPI PUSH1 0x20 ADD SWAP3 PUSH1 0x1 DUP4 MUL DUP5 ADD GT PUSH2 0x67 JUMPI JUMP JUMPDEST SWAP2 PUSH1 0x60 DUP4 DUP4 SUB SLT PUSH2 0x67 JUMPI PUSH2 0xBF DUP3 DUP5 PUSH2 0x6B JUMP JUMPDEST SWAP3 PUSH2 0xCD DUP4 PUSH1 0x20 DUP4 ADD PUSH2 0x6B JUMP JUMPDEST SWAP3 PUSH1 0x40 DUP3 ADD CALLDATALOAD PUSH8 0xFFFFFFFFFFFFFFFF DUP2 GT PUSH2 0x67 JUMPI PUSH2 0xEC SWAP3 ADD PUSH2 0x7A JUMP JUMPDEST SWAP1 SWAP2 JUMP JUMPDEST PUSH1 0x1 PUSH1 0x1 PUSH1 0xA0 SHL SUB AND SWAP1 JUMP JUMPDEST SWAP1 JUMP JUMPDEST PUSH2 0x134 PUSH2 0x119 PUSH2 0x110 CALLDATASIZE PUSH1 0x4 PUSH2 0xAA JUMP JUMPDEST SWAP3 SWAP2 SWAP1 SWAP2 PUSH2 0x2C7 JUMP JUMPDEST PUSH1 0x40 MLOAD JUMPDEST SWAP2 DUP3 SWAP2 DUP3 PUSH1 0x1 PUSH1 0x1 PUSH1 0xA0 SHL SUB SWAP1 SWAP2 AND DUP2 MSTORE PUSH1 0x20 ADD SWAP1 JUMP JUMPDEST SUB SWAP1 RETURN JUMPDEST PUSH0 SWAP2 SUB SLT PUSH2 0x67 JUMPI JUMP JUMPDEST CALLVALUE PUSH2 0x67 JUMPI PUSH2 0x152 CALLDATASIZE PUSH1 0x4 PUSH2 0x138 JUMP JUMPDEST PUSH1 0x40 MLOAD PUSH15 0x1A185C991A185D0B595E1C1BDCD959 PUSH1 0x8A SHL DUP2 MSTORE PUSH1 0x20 SWAP1 RETURN JUMPDEST PUSH1 0x1 PUSH1 0x1 PUSH1 0xA0 SHL SUB DUP2 AND PUSH2 0x60 JUMP JUMPDEST SWAP1 POP CALLDATALOAD SWAP1 PUSH2 0x78 DUP3 PUSH2 0x16F JUMP JUMPDEST SWAP1 SWAP2 PUSH1 0x60 DUP3 DUP5 SUB SLT PUSH2 0x67 JUMPI PUSH2 0xFC PUSH2 0x1A4 DUP5 DUP5 PUSH2 0x6B JUMP JUMPDEST SWAP4 PUSH1 0x40 PUSH2 0x1B4 DUP3 PUSH1 0x20 DUP8 ADD PUSH2 0x6B JUMP JUMPDEST SWAP5 ADD PUSH2 0x17E JUMP JUMPDEST CALLVALUE PUSH2 0x67 JUMPI PUSH2 0x134 PUSH2 0x119 PUSH2 0x1D1 CALLDATASIZE PUSH1 0x4 PUSH2 0x18B JUMP JUMPDEST SWAP2 PUSH2 0x317 JUMP JUMPDEST SWAP2 SWAP1 PUSH1 0x40 DUP4 DUP3 SUB SLT PUSH2 0x67 JUMPI PUSH2 0xFC SWAP1 PUSH1 0x20 PUSH2 0x1F3 DUP3 DUP7 PUSH2 0x6B JUMP JUMPDEST SWAP5 ADD PUSH2 0x6B JUMP JUMPDEST CALLVALUE PUSH2 0x67 JUMPI PUSH2 0x134 PUSH2 0x119 PUSH2 0x210 CALLDATASIZE PUSH1 0x4 PUSH2 0x1D7 JUMP JUMPDEST SWAP1 PUSH2 0x322 JUMP JUMPDEST PUSH4 0x4E487B71 PUSH1 0xE0 SHL PUSH0 MSTORE PUSH1 0x41 PUSH1 0x4 MSTORE PUSH1 0x24 PUSH0 REVERT JUMPDEST SWAP1 PUSH1 0x1F ADD PUSH1 0x1F NOT AND DUP2 ADD SWAP1 DUP2 LT PUSH8 0xFFFFFFFFFFFFFFFF DUP3 GT OR PUSH2 0x24C JUMPI PUSH1 0x40 MSTORE JUMP JUMPDEST PUSH2 0x216 JUMP JUMPDEST SWAP1 PUSH2 0x78 PUSH2 0x25E PUSH1 0x40 MLOAD SWAP1 JUMP JUMPDEST SWAP3 DUP4 PUSH2 0x22A JUMP JUMPDEST PUSH8 0xFFFFFFFFFFFFFFFF DUP2 GT PUSH2 0x24C JUMPI PUSH1 0x20 SWAP1 PUSH1 0x1F ADD PUSH1 0x1F NOT AND ADD SWAP1 JUMP JUMPDEST SWAP1 DUP3 PUSH0 SWAP4 SWAP3 DUP3 CALLDATACOPY ADD MSTORE JUMP JUMPDEST SWAP1 SWAP3 SWAP2 SWAP3 PUSH2 0x2A2 PUSH2 0x29D DUP3 PUSH2 0x265 JUMP JUMPDEST PUSH2 0x251 JUMP JUMPDEST SWAP4 DUP2 DUP6 MSTORE DUP2 DUP4 ADD GT PUSH2 0x67 JUMPI PUSH2 0x78 SWAP2 PUSH1 0x20 DUP6 ADD SWAP1 PUSH2 0x282 JUMP JUMPDEST PUSH2 0xFC SWAP2 CALLDATASIZE SWAP2 PUSH2 0x28D JUMP JUMPDEST SWAP2 PUSH2 0x2E3 SWAP4 PUSH2 0x2DD SWAP2 PUSH2 0x2D7 PUSH0 SWAP1 JUMP JUMPDEST POP PUSH2 0x2BC JUMP JUMPDEST SWAP2 PUSH2 0x388 JUMP JUMPDEST SWAP1 PUSH32 0xA55D29F67E248DC28CBFF80485B993032A0100D61C339BED56FDDF9F06642626 PUSH2 0x312 DUP4 PUSH2 0x11D PUSH1 0x40 MLOAD SWAP1 JUMP JUMPDEST SUB SWAP1 LOG1 JUMP JUMPDEST PUSH2 0xFC SWAP3 SWAP2 SWAP1 PUSH2 0x431 JUMP JUMPDEST PUSH2 0xFC SWAP2 SWAP1 PUSH2 0x45A JUMP JUMPDEST PUSH2 0xFC SWAP1 PUSH2 0xF0 SWAP1 PUSH1 0x1 PUSH1 0x1 PUSH1 0xA0 SHL SUB AND DUP3 JUMP JUMPDEST PUSH2 0xFC SWAP1 PUSH2 0x32C JUMP JUMPDEST PUSH2 0xFC SWAP1 PUSH2 0x340 JUMP JUMPDEST SWAP1 DUP2 MSTORE PUSH1 0x40 DUP2 ADD SWAP3 SWAP2 PUSH2 0x78 SWAP2 PUSH1 0x20 ADD MSTORE JUMP JUMPDEST PUSH2 0xFC PUSH2 0xFC PUSH2 0xFC SWAP3 SWAP1 JUMP JUMPDEST PUSH2 0xF0 PUSH2 0xFC PUSH2 0xFC SWAP3 SWAP1 JUMP JUMPDEST PUSH2 0xFC SWAP1 PUSH2 0x372 JUMP JUMPDEST SWAP1 SWAP2 SWAP1 PUSH2 0x394 ADDRESS PUSH2 0x349 JUMP JUMPDEST DUP2 DUP2 BALANCE PUSH2 0x3A0 JUMP JUMPDEST SWAP2 SWAP1 JUMP JUMPDEST LT PUSH2 0x418 JUMPI POP DUP2 MLOAD PUSH2 0x3B4 PUSH2 0x39C PUSH0 PUSH2 0x365 JUMP JUMPDEST EQ PUSH2 0x407 JUMPI PUSH1 0x20 DUP3 MLOAD SWAP3 ADD SWAP1 CREATE2 SWAP1 RETURNDATASIZE ISZERO NOT DUP3 ISZERO AND PUSH2 0x3FC JUMPI PUSH2 0x3D8 PUSH2 0xF0 PUSH0 PUSH2 0x37F JUMP JUMPDEST PUSH1 0x1 PUSH1 0x1 PUSH1 0xA0 SHL SUB DUP4 AND EQ PUSH2 0x3E9 JUMPI JUMP JUMPDEST PUSH4 0xB06EBF3D PUSH1 0xE0 SHL PUSH0 SWAP1 DUP2 MSTORE PUSH1 0x4 JUMPDEST SUB PUSH0 REVERT JUMPDEST PUSH1 0x40 MLOAD RETURNDATASIZE PUSH0 DUP3 RETURNDATACOPY RETURNDATASIZE SWAP1 REVERT JUMPDEST PUSH4 0x13289277 PUSH1 0xE2 SHL PUSH0 SWAP1 DUP2 MSTORE PUSH1 0x4 SWAP1 REVERT JUMPDEST PUSH4 0xCF479181 PUSH1 0xE0 SHL PUSH0 SWAP1 DUP2 MSTORE SWAP2 PUSH2 0x3F8 SWAP2 BALANCE PUSH1 0x4 PUSH2 0x352 JUMP JUMPDEST PUSH1 0xB SWAP3 SWAP1 PUSH1 0x40 MLOAD SWAP3 PUSH1 0x40 DUP5 ADD MSTORE PUSH1 0x20 DUP4 ADD MSTORE DUP2 MSTORE ADD PUSH1 0xFF DUP2 MSTORE8 PUSH1 0x55 SWAP1 KECCAK256 PUSH1 0x1 PUSH1 0x1 PUSH1 0xA0 SHL SUB AND SWAP1 JUMP JUMPDEST PUSH2 0xFC SWAP2 PUSH2 0x467 ADDRESS PUSH2 0x349 JUMP JUMPDEST SWAP2 PUSH2 0x431 JUMP INVALID LOG2 PUSH5 0x6970667358 0x22 SLT KECCAK256 0xBF PUSH21 0xF4AA291A193396FC69E63C3C0B809095435C41B0A5 CODESIZE SMOD PUSH17 0x4D4C6440169464736F6C634300081D0033 "
        },
        "methodIdentifiers": {
          "$computeAddress(bytes32,bytes32)": "7a4584c7",
          "$computeAddress(bytes32,bytes32,address)": "5f1e2f36",
          "$deploy(uint256,bytes32,bytes)": "094773f8",
          "__hh_exposed_bytecode_marker()": "342db739"
        }
      }
    }
  }
}