{
  "_format": "hh-sol-artifact-1",
  "contractName": "StreamerFactory",
  "sourceName": "contracts/StreamerFactory.sol",
  "abi": [
    {
      "inputs": [],
      "name": "AssetsMatch",
      "type": "error"
    },
    {
      "inputs": [],
      "name": "Create2EmptyBytecode",
      "type": "error"
    },
    {
      "inputs": [],
      "name": "FailedDeployment",
      "type": "error"
    },
    {
      "inputs": [
        {
          "internalType": "uint256",
          "name": "balance",
          "type": "uint256"
        },
        {
          "internalType": "uint256",
          "name": "needed",
          "type": "uint256"
        }
      ],
      "name": "InsufficientBalance",
      "type": "error"
    },
    {
      "anonymous": false,
      "inputs": [
        {
          "indexed": false,
          "internalType": "address",
          "name": "newContract",
          "type": "address"
        },
        {
          "indexed": false,
          "internalType": "bytes",
          "name": "constructorParams",
          "type": "bytes"
        }
      ],
      "name": "StreamerDeployed",
      "type": "event"
    },
    {
      "inputs": [],
      "name": "counter",
      "outputs": [
        {
          "internalType": "uint256",
          "name": "",
          "type": "uint256"
        }
      ],
      "stateMutability": "view",
      "type": "function"
    },
    {
      "inputs": [
        {
          "internalType": "address",
          "name": "_streamingAsset",
          "type": "address"
        },
        {
          "internalType": "address",
          "name": "_nativeAsset",
          "type": "address"
        },
        {
          "internalType": "contract AggregatorV3Interface",
          "name": "_streamingAssetOracle",
          "type": "address"
        },
        {
          "internalType": "contract AggregatorV3Interface",
          "name": "_nativeAssetOracle",
          "type": "address"
        },
        {
          "internalType": "address",
          "name": "_returnAddress",
          "type": "address"
        },
        {
          "internalType": "address",
          "name": "_streamCreator",
          "type": "address"
        },
        {
          "internalType": "address",
          "name": "_recipient",
          "type": "address"
        },
        {
          "internalType": "uint256",
          "name": "_nativeAssetStreamingAmount",
          "type": "uint256"
        },
        {
          "internalType": "uint256",
          "name": "_slippage",
          "type": "uint256"
        },
        {
          "internalType": "uint256",
          "name": "_claimCooldown",
          "type": "uint256"
        },
        {
          "internalType": "uint256",
          "name": "_sweepCooldown",
          "type": "uint256"
        },
        {
          "internalType": "uint256",
          "name": "_streamDuration",
          "type": "uint256"
        },
        {
          "internalType": "uint256",
          "name": "_minimumNoticePeriod",
          "type": "uint256"
        }
      ],
      "name": "deployStreamer",
      "outputs": [
        {
          "internalType": "address",
          "name": "",
          "type": "address"
        }
      ],
      "stateMutability": "nonpayable",
      "type": "function"
    }
  ],
  "bytecode": "0x608060405234601957604051612c8961001e8239612c8990f35b5f80fdfe60a06040526004361015610011575f80fd5b5f3560e01c806361bc221a1461003057638f9ff8d30361003f576101cf565b61006c565b5f91031261003f57565b5f80fd5b61004e916008021c81565b90565b9061004e9154610043565b61004e5f80610051565b9052565b565b3461003f5761007c366004610035565b61009761008761005c565b6040519182918290815260200190565b0390f35b6001600160a01b031690565b6100b08161009b565b0361003f57565b9050359061006a826100a7565b61004e9061009b565b6100b0816100c4565b9050359061006a826100cd565b806100b0565b9050359061006a826100e3565b6101a08183031261003f5761010b82826100b7565b9261011983602084016100b7565b9261012781604085016100d6565b9261013582606083016100d6565b9261014383608084016100b7565b926101518160a085016100b7565b9261015f8260c083016100b7565b9261016d8360e084016100e9565b9261017c8161010085016100e9565b9261018b8261012083016100e9565b9261004e61019d8461014085016100e9565b936101806101af8261016087016100e9565b94016100e9565b6100669061009b565b60208101929161006a91906101b6565b3461003f576100976101fa6101e53660046100f6565b9b9a909a99919998929897939796949661048d565b604051918291826101bf565b61004e9061009b906001600160a01b031682565b61004e90610206565b61004e9061021a565b634e487b7160e01b5f52604160045260245ffd5b90601f01601f1916810190811067ffffffffffffffff82111761026257604052565b61022c565b60ff81166100b0565b9050519061006a82610267565b9060208282031261003f5761004e91610270565b6040513d5f823e3d90fd5b61006690610223565b60808190526101c081019f9e9d9c9b9a9998979695949392916102c8919061029c565b6080516020016102d79161029c565b6080516040016102e69161029c565b6080516060016102f5916101b6565b608051608001610304916101b6565b60805160a001610313916101b6565b60805160c0016103249160ff169052565b60805160e0016103359160ff169052565b608051610100015260805161012001526080516101400152608051610160015260805161018001526080516101a00152565b61004e9081565b61004e9054610367565b634e487b7160e01b5f52601160045260245ffd5b5f19811461039a5760010190565b610378565b61004e61004e61004e9290565b9061004e61004e6103bc9261039f565b9055565b91602061006a9294936103da60408201965f8301906101b6565b0152565b9061006a6103eb60405190565b9283610240565b90825f9392825e0152565b61041e6104159260209261040f815190565b94859290565b938491016103f2565b0190565b6104309061004e93926103fd565b906103fd565b61045761046060209361041e9361044b815190565b80835293849260200190565b958691016103f2565b601f01601f191690565b9161004e9261048060408201935f8301906101b6565b6020818403910152610436565b9199959b97939b9a96929a9894986104a25f90565b506104ac8261009b565b6104b58461009b565b146106ac576104cb6104c684610223565b610223565b9263313ce56760206104dc60405190565b80966104e88460e01b90565b825260049082905afa93841561067b5761051f955f95610680575b50906105136104c6602093610223565b60405196879260e01b90565b825260049082905afa93841561067b575f94610646575b5061054090610223565b9961054a60405190565b9d8e9d60208f019d61055c9d8f6102a5565b90810382520361056c9082610240565b6105755f61036e565b61057e8161038c565b610588905f6103ac565b60405180916020820190339061059e91836103c0565b9081038252036105ae9082610240565b80519060200120816124cb6105c5602082016103de565b90808252610789602083013960405191829160208301916105e69183610422565b9081038252036105f69082610240565b6105ff5f61039f565b91610609926106e8565b9061061360405190565b61061f8192848361046a565b037f4c7817f70b9a7e647a0a4702478086204d451af9bb29ac7686d7fb47da4ed71991a190565b61054091945061066d9060203d602011610674575b6106658183610240565b81019061027d565b9390610536565b503d61065b565b610291565b6020929195506104c66106a261051392853d8711610674576106658183610240565b9692935050610503565b632159402760e21b5f90815260045b035ffd5b90815260408101929161006a9160200152565b61009b61004e61004e9290565b61004e906106d2565b9091906106f430610223565b818131610700565b9190565b1061076f575081516107146106fc5f61039f565b1461075e5760208251920190f5903d15198215166102915761073d6107385f6106df565b61009b565b6107468361009b565b1461074d57565b63b06ebf3d60e01b5f908152600490fd5b631328927760e21b5f908152600490fd5b63cf47918160e01b5f908152916106bb913160046106bf56fe610280604052346101ba5761002d610015610352565b9c9b909b9a919a9992999893989794979695966104f1565b604051611c43610888823960805181818161050701528181610b4901528181610d8d01528181611085015261136f015260a05181818161090b01528181611583015261180f015260c0518181816109a2015281816115f80152611883015260e05181818161070801528181610bed01526113db01526101005181818161096901528181610a7101528181610fe5015281816111a60152818161133a01526114320152610120518181816106550152610d1701526101405181818161044a015281816110ee01526119de01526101605181818161041101526116ce015261018051818181610a140152610f2601526101a0518181816102d1015261148401526101c05181818161060301528181610fb20152611a4501526101e0518181816104830152818161121201526112b50152610200518181816107aa0152818161177a015261193d0152610220518181816109db01528181611739015261196701526102405181818161089e0152818161167201526118fd01526102605181818161081001526117090152611c4390f35b5f80fd5b634e487b7160e01b5f52604160045260245ffd5b90601f01601f191681019081106001600160401b038211176101f357604052565b6101be565b9061020c61020560405190565b92836101d2565b565b6001600160a01b031690565b90565b6001600160a01b0381165b036101ba57565b9050519061020c8261021d565b6001600160a01b038116610228565b9050519061020c8261023c565b60ff8116610228565b9050519061020c82610258565b80610228565b9050519061020c8261026e565b91906101c0838203126101ba57610298818461022f565b926102a6826020830161022f565b926102b4836040840161022f565b926102c2816060850161024b565b926102d0826080830161024b565b926102de8360a0840161024b565b926102ec8160c08501610261565b926102fa8260e08301610261565b92610309836101008401610274565b92610318816101208501610274565b92610327826101408301610274565b9261021a610339846101608501610274565b936101a061034b826101808701610274565b9401610274565b6103706124cb80380380610365816101f8565b928339810190610281565b909192939495969798999a9b9c9d565b61020e61021a61021a9290565b61021a90610380565b61021a9061020e906001600160a01b031682565b61021a90610396565b61021a906103aa565b61021a61021a61021a9290565b61021a6305f5e1006103bc565b61021a620151806103bc565b906020828203126101ba5761021a91610261565b6040513d5f823e3d90fd5b61040e61021a61021a9290565b60ff1690565b61021a6006610401565b6001600160501b038116610228565b9050519061020c8261041e565b919060a0838203126101ba57610450818461042d565b9261045e8260208301610274565b9261021a61046f8460408501610274565b93608061047f8260608701610274565b940161042d565b634e487b7160e01b5f52601160045260245ffd5b818102929181159184041417156104ad57565b610486565b60ff16604d81116104ad57600a0a90565b634e487b7160e01b5f52601260045260245ffd5b906104e1565b9190565b9081156104ec570490565b6104c3565b6104fa5f61038d565b6001600160a01b0381166001600160a01b03881614610876576001600160a01b0381166001600160a01b03871614610876576001600160a01b0381166001600160a01b038616146108765761056e610561610554846103b3565b926001600160a01b031690565b916001600160a01b031690565b146108765761057c5f6103bc565b89146108655761058d61021a6103c9565b8a116108545761059b6103d6565b808c1061084357808d1061084357808e10610843578e10610843578c8e11610832576105c6826103b3565b63313ce5679060206105d760405190565b80926105e38560e01b90565b825260049082905afa908115610771575f91610813575b5061024052610608846103b3565b9061061c61061560405190565b9160e01b90565b8152602081600481855afa908115610771575f916107e4575b5061026052610642610414565b60ff811660ff8a16109081156107d3575b81156107b1575b8115610787575b506107765760a061067160405190565b633fabe5a360e21b815291829060049082905afa908115610771575f9161073f575b5061069d5f6103bc565b81131561072f576106b96106b36106d4926103bc565b8b61049a565b6106ce6106c96102605160ff1690565b6104b2565b906104d7565b6106e36104dd61021a8b6104b2565b1061071e5760805260a05260c05260e052610100526101205261020052610220526101405261016052610180526101a0526101c0526101e052565b63cde8c83560e01b5f908152600490fd5b62bfc92160e01b5f908152600490fd5b610761915060a03d60a01161076a575b61075981836101d2565b81019061043a565b50505090610693565b503d61074f565b6103f6565b6370c5eb6160e11b5f908152600490fd5b90506107aa6107a361079c6102605160ff1690565b9260ff1690565b9160ff1690565b105f610661565b90506107c06102405160ff1690565b6107cc60ff83166107a3565b109061065a565b905060ff811660ff8b161090610653565b610806915060203d60201161080c575b6107fe81836101d2565b8101906103e2565b5f610635565b503d6107f4565b61082c915060203d60201161080c576107fe81836101d2565b5f6105fa565b6325c6702760e11b5f908152600490fd5b6325c3636760e01b5f908152600490fd5b63c189a4d360e01b5f908152600490fd5b631f2a200560e01b5f908152600490fd5b63d92e233d60e01b5f908152600490fdfe60806040526004361015610011575f80fd5b5f3560e01c80630bbfc8331461025057806314e853b51461024b57806324938e9f146102465780632ae4e9311461024157806333d263f21461023c5780633e032a3b146102375780633e52531a14610232578063414a62791461022d57806341f1d3c1146102285780634460d3cf146102235780634aca04a81461021e5780634e71d92d14610219578063607af3971461021457806364cbe5f91461020f57806366d003ac1461020a5780636eb6a820146102055780638129fc1c146102005780639049a1e3146101fb578063943640c3146101f657806395098763146101f157806398018b8b146101ec5780639cfbce51146101e7578063aa5c9691146101e2578063ab579f45146101dd578063ad9161cc146101d8578063b001a482146101d3578063b6a6d177146101ce578063b7d03c8f146101c9578063c797af7e146101c4578063ce4b5bbe146101bf578063e5945ad7146101ba578063e6fd48bc146101b5578063ef4a57d1146101b0578063efb1ad5d146101ab578063f47083bc146101a65763fdea36570361025f576109ff565b6109c6565b61098d565b610954565b610939565b6108f6565b6108db565b610889565b61086e565b610848565b6107fb565b6107e0565b610795565b61077a565b61075f565b610744565b61072c565b6106f3565b6106db565b61069c565b610681565b610640565b6105ee565b6105d3565b6105b0565b610595565b61056d565b6104f2565b61046e565b610435565b6103fc565b6103cd565b610381565b610317565b6102bc565b61028d565b5f91031261025f57565b5f80fd5b61026e916008021c81565b90565b9061026e9154610263565b61026e5f6002610271565b9052565b565b3461025f5761029d366004610255565b6102b86102a861027c565b6040519182918290815260200190565b0390f35b3461025f576102cc366004610255565b6102b87f00000000000000000000000000000000000000000000000000000000000000006102a8565b61026e61026e61026e9290565b61026e6305f5e1006102f5565b61026e610302565b3461025f57610327366004610255565b6102b86102a861030f565b634e487b7160e01b5f52602160045260245ffd5b6004111561035057565b610332565b9061028b82610346565b61026e90610355565b6102879061035f565b60208101929161028b9190610368565b3461025f57610391366004610255565b6102b861039c610a4b565b60405191829182610371565b6103b561026e61026e9290565b60ff1690565b61026e60066103a8565b61026e6103bb565b3461025f576103dd366004610255565b6102b86103e86103c5565b6040519182918260ff909116815260200190565b3461025f5761040c366004610255565b6102b87f00000000000000000000000000000000000000000000000000000000000000006102a8565b3461025f57610445366004610255565b6102b87f00000000000000000000000000000000000000000000000000000000000000006102a8565b3461025f5761047e366004610255565b6102b87f00000000000000000000000000000000000000000000000000000000000000006102a8565b61026e906104bb906001600160a01b031682565b6001600160a01b031690565b61026e906104a7565b61026e906104c7565b610287906104d0565b60208101929161028b91906104d9565b3461025f57610502366004610255565b6102b87f00000000000000000000000000000000000000000000000000000000000000005b604051918291826104e2565b61026e906104bb565b61054581610533565b0361025f57565b9050359061028b8261053c565b9060208282031261025f5761026e9161054c565b3461025f57610585610580366004610559565b610c77565b604051005b61026e5f6004610271565b3461025f576105a5366004610255565b6102b86102a861058a565b3461025f576105c0366004610255565b610585610cf4565b61026e5f6001610271565b3461025f576105e3366004610255565b6102b86102a86105c8565b3461025f576105fe366004610255565b6102b87f00000000000000000000000000000000000000000000000000000000000000006102a8565b610287906104bb565b60208101929161028b9190610627565b3461025f57610650366004610255565b6102b87f00000000000000000000000000000000000000000000000000000000000000005b60405191829182610630565b3461025f57610691366004610255565b6102b86102a8610f63565b3461025f576106ac366004610255565b610585611199565b80610545565b9050359061028b826106b4565b9060208282031261025f5761026e916106ba565b3461025f576105856106ee3660046106c7565b611311565b3461025f57610703366004610255565b6102b87f0000000000000000000000000000000000000000000000000000000000000000610675565b3461025f5761073c366004610255565b61058561131a565b3461025f576102b86102a861075a3660046106c7565b61157e565b3461025f576102b86102a86107753660046106c7565b61180a565b3461025f5761078a366004610255565b6102b86102a86119d1565b3461025f576107a5366004610255565b6102b87f00000000000000000000000000000000000000000000000000000000000000006103e8565b61026e60126103a8565b61026e6107ce565b3461025f576107f0366004610255565b6102b86103e86107d8565b3461025f5761080b366004610255565b6102b87f00000000000000000000000000000000000000000000000000000000000000006103e8565b61026e620151806102f5565b61026e610834565b3461025f57610858366004610255565b6102b86102a8610840565b61026e5f6003610271565b3461025f5761087e366004610255565b6102b86102a8610863565b3461025f57610899366004610255565b6102b87f00000000000000000000000000000000000000000000000000000000000000006103e8565b61026e670de0b6b3a76400006102f5565b61026e6108c2565b3461025f576108eb366004610255565b6102b86102a86108d3565b3461025f57610906366004610255565b6102b87f0000000000000000000000000000000000000000000000000000000000000000610527565b61026e5f80610271565b3461025f57610949366004610255565b6102b86102a861092f565b3461025f57610964366004610255565b6102b87f0000000000000000000000000000000000000000000000000000000000000000610675565b3461025f5761099d366004610255565b6102b87f0000000000000000000000000000000000000000000000000000000000000000610527565b3461025f576109d6366004610255565b6102b87f00000000000000000000000000000000000000000000000000000000000000006103e8565b3461025f57610a0f366004610255565b6102b87f00000000000000000000000000000000000000000000000000000000000000006102a8565b61026e906103b5565b61026e9054610a38565b610a5661026e610f63565b421015610a675761026e6005610a41565b600390565b610a957f00000000000000000000000000000000000000000000000000000000000000006104bb565b610a9e336104bb565b03610aac5761028b90610b44565b639c867e2160e01b5f90815260045b035ffd5b634e487b7160e01b5f52604160045260245ffd5b90601f01601f1916810190811067ffffffffffffffff821117610af557604052565b610abf565b9050519061028b826106b4565b9060208282031261025f5761026e91610afa565b6040513d5f823e3d90fd5b91602061028b929493610b4060408201965f830190610627565b0152565b610b6d7f0000000000000000000000000000000000000000000000000000000000000000610533565b610b7682610533565b14610c665780610b88610bb0926104d0565b6020610b93306104d0565b6040519485918291906370a0823160e01b5b835260048301610630565b0381845afa918215610c61577f8aec0ce3dadffacf4b7a963e0fed1ff2e6151b4c95d4a65acafa9d1299630402935f93610c2c575b5082610c12917f000000000000000000000000000000000000000000000000000000000000000090611af2565b610c27610c1e60405190565b92839283610b26565b0390a1565b610c12919350610c539060203d602011610c5a575b610c4b8183610ad3565b810190610b07565b9290610be5565b503d610c41565b610b1b565b63bf27c04f60e01b5f908152600490fd5b61028b90610a6c565b61026e9081565b61026e9054610c80565b634e487b7160e01b5f52601160045260245ffd5b91908201809211610cb257565b610c91565b90815260408101929161028b9160200152565b905f19905b9181191691161790565b90610ce961026e610cf0926102f5565b8254610cca565b9055565b610cfe6005610a41565b610d10610d0a5f610355565b91610355565b14610f52577f0000000000000000000000000000000000000000000000000000000000000000610d3f816104bb565b610d48336104bb565b141580610f13575b610f0257610d5c6119d1565b80610d665f6102f5565b8114610ef157610d759061157e565b918290610d815f6102f5565b8414610ef157610ddf937f0000000000000000000000000000000000000000000000000000000000000000906020610db8836104d0565b610dc1306104d0565b90610dcb60405190565b988992839182916370a0823160e01b610ba5565b03915afa908115610c61577fc83b5086ce94ec8d5a88a9f5fea4b18a522bb238ed0d2d8abd959549a80c16b8965f92610ed0575b50808210610e7e575b5050610e69918391610e2f426001610cd9565b610e4c610e4587610e406003610c87565b610ca5565b6003610cd9565b610e64610e5d84610e406004610c87565b6004610cd9565b611af2565b610c27610e7560405190565b92839283610cb7565b81610e699492939650610ec695507f521d4ec08ea54943095f5f84755de8b51e1222628c06daa159d618c8c5fda56a91610eba610e7560405190565b0390a18193849261180a565b9491819350610e1c565b610eea91925060203d602011610c5a57610c4b8183610ad3565b905f610e13565b631f2a200560e01b5f908152600490fd5b635a06399f60e11b5f908152600490fd5b50610f4b61026e610f246001610c87565b7f000000000000000000000000000000000000000000000000000000000000000090610ca5565b4210610d50565b6321c4e35760e21b5f908152600490fd5b610f6d6005610a41565b610f79610d0a5f610355565b14610fd757610f886005610a41565b610f95610d0a6002610355565b03610fa45761026e6002610c87565b61026e610fb05f610c87565b7f000000000000000000000000000000000000000000000000000000000000000090610ca5565b61026e5f6102f5565b6110097f00000000000000000000000000000000000000000000000000000000000000006104bb565b611012336104bb565b03610aac5761028b61103f565b9060ff90610ccf565b9061103861026e610cf09261035f565b825461101f565b6110496005610a41565b611055610d0a5f610355565b0361118957611064425f610cd9565b61106f426001610cd9565b61107b60016005611028565b6110d060206110a97f00000000000000000000000000000000000000000000000000000000000000006104d0565b6110b2306104d0565b906110bc60405190565b938492839182916370a0823160e01b610ba5565b03915afa908115610c61575f9161116a575b506110ec8161180a565b7f00000000000000000000000000000000000000000000000000000000000000009190829061111a565b9190565b106111525750507f5daa87a0e9463431830481fd4b6e3403442dfb9a12b9c07597e9f61d50b633c861114b60405190565b8080610c27565b634787a10360e11b5f90815291610abb916004610cb7565b611183915060203d602011610c5a57610c4b8183610ad3565b5f6110e2565b62dc149f60e41b5f908152600490fd5b61028b610fe0565b6111ca7f00000000000000000000000000000000000000000000000000000000000000006104bb565b6111d3336104bb565b03610aac5761028b906111e66005610a41565b906002916111f6610d0a84610355565b14611300576112045f6102f5565b81036112ad5761123d6112377f000000000000000000000000000000000000000000000000000000000000000042610ca5565b83610cd9565b61124682610c87565b61125861111661026e610fb05f610c87565b116112965750610c276102a8826112917f9a9cad27a1bdce3d7cb0602aaf727dfaad03ba6524d9bca7b9615867fa6802b4946005611028565b610c87565b6351fe048360e11b5f908152600491909152602490fd5b6112da61026e7f000000000000000000000000000000000000000000000000000000000000000042610ca5565b81106112ef576112ea8183610cd9565b61123d565b6325c3636760e01b5f908152600490fd5b632aaa685560e11b5f908152600490fd5b61028b906111a1565b6113246005610a41565b611330610d0a5f610355565b036114255761135e7f00000000000000000000000000000000000000000000000000000000000000006104bb565b611367336104bb565b03610aac575b7f000000000000000000000000000000000000000000000000000000000000000061139c60206110a9836104d0565b03915afa8015610c61577f7f221332ee403570bf4d61630b58189ea566ff1635269001e9df6a890f413dd892610c27925f92611400575b50816102a8917f000000000000000000000000000000000000000000000000000000000000000090611af2565b6102a891925061141e9060203d602011610c5a57610c4b8183610ad3565b91906113d3565b61142d610f63565b6114567f00000000000000000000000000000000000000000000000000000000000000006104bb565b61145f336104bb565b0361147b57421161136d5763a33e709960e01b5f908152600490fd5b61026e6114a9917f000000000000000000000000000000000000000000000000000000000000000090610ca5565b421161136d5763042f54af60e01b5f908152600490fd5b69ffffffffffffffffffff8116610545565b9050519061028b826114c0565b919060a08382031261025f576114f581846114d2565b926115038260208301610afa565b9261026e6115148460408501610afa565b9360806115248260608701610afa565b94016114d2565b61026e61026e61026e9260ff1690565b91908203918211610cb257565b81810292918115918404141715610cb257565b634e487b7160e01b5f52601260045260245ffd5b8115611579570490565b61155b565b6115a77f00000000000000000000000000000000000000000000000000000000000000006104d0565b9063feaf968c9160a06115b960405190565b80926115c58660e01b90565b825260049082905afa908115610c61575f916117e8575b506115e65f6102f5565b8113156117a45760a06116289361161c7f00000000000000000000000000000000000000000000000000000000000000006104d0565b60405195869260e01b90565b825260049082905afa928315610c61575f936117b4575b506116495f6102f5565b8313156117a45761026e926116f96117626116bd9461175d61166d611774966102f5565b6117337f0000000000000000000000000000000000000000000000000000000000000000916117046116fe6116b26116ac6116a66107ce565b9661152b565b9561152b565b9b8c80968195611b48565b6116f96116c8610302565b916116f37f00000000000000000000000000000000000000000000000000000000000000008461153b565b90611548565b61156f565b986102f5565b61172d7f000000000000000000000000000000000000000000000000000000000000000061152b565b90611b48565b9261172d7f000000000000000000000000000000000000000000000000000000000000000061152b565b611548565b61175d61176d6108c2565b809261156f565b9061179e7f000000000000000000000000000000000000000000000000000000000000000061152b565b91611b48565b62bfc92160e01b5f908152600490fd5b6117d791935060a03d60a0116117e1575b6117cf8183610ad3565b8101906114df565b505050929061163f565b503d6117c5565b611801915060a03d60a0116117e1576117cf8183610ad3565b505050906115dc565b6118337f00000000000000000000000000000000000000000000000000000000000000006104d0565b63feaf968c9060a061184460405190565b80926118508560e01b90565b825260049082905afa908115610c61575f916119af575b506118715f6102f5565b8113156117a45760a06118b3926118a77f00000000000000000000000000000000000000000000000000000000000000006104d0565b60405194859260e01b90565b825260049082905afa918215610c61575f9261198b575b506118d45f6102f5565b8213156117a45761026e926116f96117626116bd9461175d6118f8611961966102f5565b6119377f0000000000000000000000000000000000000000000000000000000000000000916117046119316116b26116ac6116a66107ce565b956102f5565b9561172d7f000000000000000000000000000000000000000000000000000000000000000061152b565b9061179e7f000000000000000000000000000000000000000000000000000000000000000061152b565b6119a591925060a03d60a0116117e1576117cf8183610ad3565b50505091906118ca565b6119c8915060a03d60a0116117e1576117cf8183610ad3565b50505090611867565b5f6119dc6003610c87565b7f000000000000000000000000000000000000000000000000000000000000000090811115611ac157611a0d610f63565b611a165f6102f5565b8114611ab55761026e925080421015611a7a5750611a43611a6a916116f3611a3d5f610c87565b4261153b565b7f00000000000000000000000000000000000000000000000000000000000000009061156f565b611a746003610c87565b9061153b565b611a846005610a41565b611a91610d0a6002610355565b03611aaf57611aaa916116f3611a4392611a745f610c87565b611a6a565b50611a6a565b50505061026e5f6102f5565b505061026e5f6102f5565b611ae5611adf61026e9263ffffffff1690565b60e01b90565b6001600160e01b03191690565b611b35600492611b2661028b95611b0c63a9059cbb611acc565b92611b1660405190565b9687946020860190815201610b26565b60208201810382520383610ad3565b611b89565b604d8111610cb257600a0a90565b9091808314611b8357808311611b6d57611b6861026e936116f39261153b565b611b3a565b611b68611b7d9161026e9461153b565b9061156f565b50905090565b905f602091611b955f90565b50828151910182855af115610b1b573d5f5190611bb46111165f6102f5565b03611bf95750611bc3816104d0565b3b611bd06111165f6102f5565b145b611bd95750565b610abb611be65f926104d0565b635274afe760e01b835260048301610630565b611c0661111660016102f5565b1415611bd256fea26469706673582212204d99ef5a15a0c582ccfbd2a6fd3178895ffa0cec7009e20de708b222ce8eeda064736f6c634300081d0033a26469706673582212205ad7e0c1e4bdfbdd7c114d5672242f6ebb61c3746ea61f1178d729b26584ef7f64736f6c634300081d0033",
  "linkReferences": {},
  "deployedLinkReferences": {}
}